:020000040800F2
:108000001041002071820008798200087B820008FC
:108010007D8200087F820008818200080000000045
:10802000000000000000000000000000D9810008EE
:1080300085820008000000001D820008BDD10008F4
:108040008B8200088B8200088B8200088B820008DC
:108050008B8200088B8200088B8200088B820008CC
:108060008B8200088B8200088B8200088B820008BC
:108070008B8200088B8200088B8200088B820008AC
:108080008B8200088B8200088B8200088B8200089C
:1080900085AA00088B8200088B8200088B8200086A
:1080A0008B8200088B8200088B8200088B8200087C
:1080B000F5A400088B82000805A600088B82000842
:1080C0008B8200088B8200088B8200088B8200085C
:1080D0008B8200080000000001D100088B8200089C
:1080E0008B8200088B8200088B82000800F002F867
:1080F00000F062F80AA090E8000C82448344AAF1E0
:108100000107DA4501D100F057F8AFF2090EBAE8DD
:108110000F0013F0010F18BFFB1A43F001031847BB
:10812000F867000018680000103A24BF78C878C1CA
:10813000FAD8520724BF30C830C144BF04680C606D
:10814000704700000023002400250026103A28BFB5
:1081500078C1FBD8520728BF30C148BF0B607047B9
:10816000692900F07781642900F07481752900F095
:1081700071816F2900F00882782900F02F8203684E
:10818000DB0928BF41F08001632900F07A8573295B
:1081900000F07F85E32900F08A85002070471FB535
:1081A00000F0B6FD04000020002105F0ABFB401CF0
:1081B00060601FBD10B510BD00F0B2FD1146FFF7A5
:1081C000EEFF03F0E3F900F0D0FD03B4FFF7F2FF98
:1081D00003BC00F0D3FD0000224B19680868B0E82A
:1081E000F00F80F30988BFF36F8F4FF0000080F32A
:1081F00011884EF00D0E7047000000000648006820
:10820000006880F3088862B661B6BFF34F8FBFF392
:108210006F8F00DF00BF00BF08ED00E0EFF30980C3
:10822000BFF36F8F0F4B1A6820E9F00F106008B58D
:108230004FF0BF0080F31188BFF34F8FBFF36F8FF4
:1082400004F02EFF4FF0000080F31188BDE80840D5
:1082500019680868B0E8F00F80F30988BFF36F8FE2
:10826000704700BF1C000020EFF30580704700003E
:108270000948804709480047FEE7FEE7FEE7FEE7BA
:10828000FEE7FEE7FEE7FEE7FEE7FEE704480549F6
:10829000034A054B7047000095A40008ED800008D4
:1082A000103F002010410020103F002070B5044610
:1082B000051F00F0D7FB0068002C14BF446870BD98
:1082C000002C18BFAC423CBF20466468F8D301685C
:1082D0000A18AA4218BF456003D12A68054611440E
:1082E000016028684119A1421CBF6C6070BD6168C3
:1082F000696021680844286070BD10B54C1084EA9C
:10830000530404D54042C1F1000138BF491E1B424D
:1083100004D55242C3F1000338BF5B1E00F0A6FB38
:1083200014F0804F04D04042C1F1000138BF491E13
:1083300014F0004F04D05242C3F1000338BF5B1E5B
:1083400010BD10B5044600F085FB0068005DC00656
:1083500002D504F1200010BD204610BD0FB41CB59D
:108360000C0007AA009001D02044401E074B7B441C
:1083700069460190069800F05AFC002C03D069462B
:10838000002000F067FC1CBC5DF814FBED08000049
:1083900070B5044685690068C10601D5302600E045
:1083A0002026C00707D070BDD4E901213046904790
:1083B000206A401C20626D1EF6D570BD70B5044663
:1083C00085690078C00707D170BDD4E9012120205C
:1083D0009047206A401C20626D1EF6D570BD09686A
:1083E0004A0501D540B27047C905FCD500B27047B7
:1083F00009684A0501D5C0B27047C905FCD580B2ED
:10840000704770B50C460546012A05D028788006CD
:1084100000D5EA69002302E0012305E05B1C9342DA
:1084200002D2E05C0028F9D1A869E618C01AA86158
:10843000286A184428622846FFF7AAFF04E0D5E915
:10844000012114F8010B9047B442F8D32846FFF7F6
:10845000B5FF70BD2DE9F04106460024106875296E
:10846000314616A510D0FFF7BAFF002802DA4042C5
:1084700013A507E031688A0701D512A502E0490774
:1084800004D511A5012401E0FFF7B2FF00210A2263
:1084900006F1240709E0B0FBF2FCB0FBF2F302FBAB
:1084A0001C00303078541846491C0028F3D123466C
:1084B0002A463046BDE8F04100F05ABB00000000FB
:1084C0002D0000002B000000200000002DE9FF5FC0
:1084D00015468A460446DFF8AC80F8440027D8E900
:1084E00000103E46CDE9001010E03AF816106A463A
:1084F00002A800F0E8FB411C07D02178890603D5CB
:10850000E269391891420DD80744761C207880061C
:1085100002D5E069B84205DDAE42E6DB3AF8160066
:108520000028E2D1A069C01BA0612046FFF730FF00
:10853000D8E90010CDE90010002017E03AF8181033
:108540006A4602A800F0BFFBB0F1FF3F81460BD0A6
:1085500000250DF1080B05E0D4E901211BF8050009
:1085600090476D1C4D45F7D308F10100B04280469D
:10857000E4DB206A384420622046FFF71FFFBDE895
:10858000FF9F00006263000070B50446214610683A
:10859000FFF72EFF002104F1240505E000F007029B
:1085A0003032C0086A54491C0028F7D120680023E3
:1085B00008A2050708D500F02000084304D0E069B0
:1085C000012305A2401EE0612046BDE8704000F096
:1085D000CFBA0000000000003000000070B5044673
:1085E0000D4621461068FFF703FF2188090502D5D3
:1085F0000F4A7A4402E00E4A7A440E32002104F116
:10860000240305E000F00F060009965D5E54491C46
:108610000028F7D120780023000704D5702D02D060
:1086200009B1022311322046BDE8704000F0A0BA23
:10863000526200002DE9F05F894604464FF0000ABF
:10864000DFF874B1FB44C0F820A02046E1688847F9
:10865000002874D0252806D0D4E901219047206A4B
:10866000401C2062F1E700265F462046E16888470B
:108670002028054607DB312D05D2781910F8200C8B
:1086800008B10643F1E7B00701D526F00406C4F8A7
:108690001CA00027C4F818A02A2D09D0284602F0F3
:1086A000C1FE38B304EB8708303DC8F8185019E014
:1086B00059F8041B204604EB87029161E168884762
:1086C000012F054618D1E069002820DA26F020069F
:1086D0001DE0D8F8180000EB800005EB40003038B2
:1086E000C8F818002046E1688847054602F09AFE5F
:1086F0000028EED1012F0AD02E2D08D12046E168A6
:1087000088477F1C0546022F46F02006C4DBA0697F
:10871000002803DA404246F00106A061F00701D0CC
:1087200026F010066C2D0BD0682D09D04C2D39D0B9
:108730006A2D35D0742D35D07A2D33D016E038E03F
:10874000E1682F4620468847B842054609D16C2F7C
:1087500026D04FF48060E1680643204688470546EE
:1087600004E06C2F1AD04FF4807006430DB3A5F1CE
:108770004100192802D8203546F400664A462946A9
:10878000204626604E46FFF7EBFC80B101280BD057
:10879000F61D26F0070000F1080956E74020E4E73F
:1087A0008020D8E70020D6E706F104094DE72846E7
:1087B00052E7206ABDE8F09F2862000010B5431C14
:1087C00002E010F8011B71B18107FAD14FF00132BC
:1087D00002C88C1A8C4314EAC211F9D0C01A0A06D6
:1087E00003D0C01E10BDC01A10BD0A0401D0801EE7
:1087F00010BD0902FCD0401E10BD40EA010370B557
:108800009B072ED14FF00136042A2AD308C810C97D
:108810009D1B9D43121F15EAC61517D0D8B2E1B2B1
:10882000401A50EA056110D198B2A1B2401A50EA3C
:1088300005410AD123F07F4024F07F41401A50EADD
:10884000052102D1180EA0EB146070BDA342DBD04D
:1088500018BA21BA884201D9012070BD4FF0FF300B
:1088600070BD0AB9002070BD10F8013B11F8014B32
:1088700063B1A3420AD1521E08D010F8013B11F88F
:10888000014B1BB1A34201D1521EEDD1181B70BD8B
:10889000032A40F2308010F0030C00F0158011F82C
:1088A000013BBCF1020F624498BF11F801CB00F804
:1088B000013B38BF11F8013BA2F1040298BF00F858
:1088C00001CB38BF00F8013B11F0030300F0258015
:1088D000083AC0F0088051F8043B083A51F804CB3C
:1088E000A0E80810F5E7121D5CBF51F8043B40F802
:1088F000043BAFF30080D20724BF11F8013B11F80D
:1089000001CB48BF11F8012B24BF00F8013B00F850
:1089100001CB48BF00F8012B704710B5203AC0F0DA
:108920000B80B1E81850203AA0E81850B1E8185070
:10893000A0E81850BFF4F5AF5FEA027C24BFB1E8AD
:108940001850A0E8185044BF18C918C0BDE810401E
:108950005FEA827C24BF51F8043B40F8043B08BF27
:108960007047D20728BF31F8023B48BF11F8012BEE
:1089700028BF20F8023B48BF00F8012B70474FF09A
:10898000000200B5134694469646203922BFA0E85F
:108990000C50A0E80C50B1F12001BFF4F7AF09076B
:1089A00028BFA0E80C5048BF0CC05DF804EB89005C
:1089B00028BF40F8042B08BF704748BF20F8022B9F
:1089C00011F0804F18BF00F8012B70474FF0013CA9
:1089D00050F8042B51F8043B9A4221D1A2EB0C032E
:1089E000934313EACC1317D150F8042B51F8043BEE
:1089F0009A4215D1A2EB0C03934313EACC130BD18B
:108A000050F8042B51F8043B9A4209D1A2EB0C0315
:108A1000934313EACC13DBD04FF00000704700BF44
:108A2000D01A01BAB1FA81F101F0180122FA01F06D
:108A3000CB40C1F12001DBB2C0B2C01A2CFA01F365
:108A4000D11A914311EAC311E6D1704770477047BC
:108A50007047000010B500F05BF9001D10BD00BFAD
:108A6000A54E000000487047B43E002053EA020CB7
:108A700000F069802DE9F04B4FF00006002B1FBF7E
:108A8000B3FA83F503FA05F424FA05F65E4012BF43
:108A90001643B2FA82F502FA05F4C5F120051EBFAD
:108AA00022FA05FC44EA0C04203556EA044C4FEA4D
:108AB000144418BF641C4FF000084FF000099042A6
:108AC00071EB030C39D3002919BFB1FA81F701FA10
:108AD00007F6B0FA80F700FA07F6C7F120071EBFC5
:108AE00020FA07FC46EA0C062037B6FBF4FCA7EB9D
:108AF0000507103F07F01F0BCBF120060CFA0BFB0C
:108B00002CFA06F644BFB3460026202FA4BF5E46CB
:108B10004FF0000B5BEA060C08BF4FF0010B19EB9E
:108B20000B09ABFB027C48EB0608C01B06FB02CC22
:108B30000BFB03CC71EB0C01C1E70B46024641462F
:108B40004846BDE8F08B13B54FF000004FF0000130
:108B5000AFF30080BDE81C40704710B500F0DCF8B2
:108B6000006810BD10B5044600F0D6F8046010BDD2
:108B70002DE9F0470D4699469246044600F1240837
:108B80000168880604D5E06921F01001216000E049
:108B90000120A84201DD471B00E00027A1697A19E6
:108BA00002EB0900081AA0612078C00602D4204612
:108BB000FFF7EEFB002608E0D4E901211AF80600D1
:108BC0009047206A401C761C20624E45F4DB2078DA
:108BD000C0060AD52046FFF7DBFB06E0D4E90121F9
:108BE00030209047206A401C2062381EA7F1010700
:108BF000F4DC07E0D4E9012118F805009047206A69
:108C0000401C2062281EA5F10105F3DC2046FFF779
:108C1000D5FB2078000602D50220BDE8F0870120B0
:108C2000FBE7000001694A1C02610878704700B543
:108C30008FB0CDE901310021059105497944CDE995
:108C4000031011466846FFF7F5FC0FB000BD0000A9
:108C5000E5FFFFFF0A6802F8010B0A607047D1E9DF
:108C600000239A4202D2531C0B601070704710B55B
:108C7000436913B1AFF3008001E0FFF7C2FB0120AD
:108C800010BD127800F124010A7000224A700122FE
:108C9000EDE711684FF0FF32E9E710B5436913B112
:108CA000AFF3008001E0FFF711FC012010BD128836
:108CB00000F1240182840022C2840122EDE71168C0
:108CC0004FF0FF32E9E770B516460C460546FFF750
:108CD000C1FE036893F80101012806D0FF2C0FD8CC
:108CE000185D68B101202C7070BDD3F807013246C1
:108CF000214603F2071303442846BDE87040184795
:108D00004FF0FF3070BD000000487047AC3E0020BF
:108D100000487047CC3E002000487047AC3E002021
:108D20007546FFF7F1FFAE4605006946534620F051
:108D30000700854618B020B5FFF7A8FABDE8204027
:108D40004FF000064FF000074FF000084FF0000B07
:108D500021F00701AC46ACE8C009ACE8C009ACE8BA
:108D6000C009ACE8C0098D46704710B50446AFF3A2
:108D700000802046BDE81040FFF727BA01491820BF
:108D8000ABBEFEE7260002007047000010B50446A7
:108D90000B48844209D10121480600F091FF0021CF
:108DA0004FF0007000F08CFF08E00121880600F011
:108DB00087FF00214FF0806000F082FF10BD0000AF
:108DC0000064004010B50021837A012202FA03F109
:108DD0003D4A126842F001023B4B1A603A4A1C328B
:108DE00012688A43384B1C331A60027BCAB9364A70
:108DF0000C3212688A43344B0C331A604288C388A1
:108E000042EA0343304A4032847A42F834300288DE
:108E1000838842EA03432C4A4032847A02EBC4023C
:108E20005360027B012A19D1274A0C3212680A4387
:108E3000254B0C331A604288038842EA0343224AD6
:108E40004032847A42F83430C288838842EA03434D
:108E50001D4A4032847A02EBC4025360C27A3AB9A6
:108E6000194A121D12688A43174B1B1D1A6006E02F
:108E7000154A121D12680A43134B1B1D1A60028902
:108E800032B9114A143212688A430F4B14331A60F4
:108E90000289012A06D10C4A143212680A430A4B8D
:108EA00014331A60427B012A06D1074A1C32126829
:108EB0000A43054B1C331A60034A126822F0010270
:108EC000014B1A6010BD0000006600401AB14369F2
:108ED0000B43436102E043698B434361704730B504
:108EE000024600200023146824F002041460146871
:108EF00044F00104146000E05B1C546804F00104B9
:108F00001CB94FF6FF74A342F6D1546804F0010473
:108F10000CB900206CE08C79012C04D1146844F069
:108F20008004146003E0146824F080041460CC7999
:108F3000012C04D1146844F04004146003E0146868
:108F400024F0400414600C7A012C04D1146844F01D
:108F50002004146003E0146824F0200414604C7AA8
:108F6000012C04D1146844F01004146003E0146868
:108F700024F0100414608C7A012C04D1146844F09D
:108F80000804146003E0146824F008041460CC7A28
:108F9000012C04D1146844F00404146003E0146844
:108FA00024F0040414608C78A407CD7844EA0564A6
:108FB0000D7944EA05444D7944EA05540D886D1E47
:108FC0002C43D461146824F001041460002300E0F1
:108FD0005B1C546804F001041CB14FF6FF74A342FB
:108FE000F6D1546804F001040CB1002000E0012027
:108FF00030BD10B500F5D87303EB01131B6803F007
:1090000004031372137A53B900F5D87303EB0113F9
:109010001B6840F2FF7404EA5353136009E000F543
:10902000D87303EB01131B686FF0604404EAD303A9
:10903000536000F5D87303EB01131B6803F00203C0
:10904000537200F5D87303EB01135B6803F00F0351
:10905000937200F5D87303EB01135B681B0AD3749A
:1090600000F5D87303EB01139B68D37200F5D87336
:1090700003EB01139B681C0A147300F5D87303EB10
:1090800001139B681C0C547300F5D87303EB011398
:109090009B681B0E937300F5D87303EB0113DB6819
:1090A000D37300F5D87303EB0113DB681C0A147447
:1090B00000F5D87303EB0113DB681C0C547400F546
:1090C000D87303EB0113DB681B0E937421B9C368DB
:1090D00043F02003C36003E0036943F0200303610E
:1090E00010BD00218171C171017241728172C17222
:1090F0008170C17003210171022141710121018040
:10910000704710B502460020936803F08063B3F106
:10911000806F00D110E0936803F00063B3F1006F3B
:1091200001D1012008E0936803F08053B3F1805F20
:1091300001D1022000E00420042874D002F5C0739D
:1091400003EB00131B6803F0010402F5C07303EB8B
:1091500000131C600B7A7BB94B7A0C8843EA4453AA
:1091600002F5C07404EB00142468234302F5C074B4
:1091700004EB0014236010E00B7A4C6843EAC4034C
:109180004C7A234302F5C07404EB00142468234393
:1091900002F5C07404EB001423608B7A03F00F0314
:1091A0008B7202F5C07303EB00135B6823F00F04AE
:1091B00002F5C07303EB00135C6002F5C07303EBB0
:1091C00000135B688C7A234302F5C07404EB00142F
:1091D00063608B7B1C064B7B44EA03440B7B44EAB5
:1091E0000323CC7A234302F5C07404EB0014A3607C
:1091F0008B7C1C064B7C44EA03440B7C44EA03232F
:10920000CC7B234302F5C07404EB0014E36002F549
:10921000C07303EB00131B6843F0010402F5C07335
:1092200003EB00131C6010BD10B50246002404239C
:1092300003E0D05C2044C4B25B1CC81E9842F8DC3A
:10924000105CA04201D0002010BD0120FCE700000E
:1092500070B50646074C032505E0032003F0ECFD3E
:10926000204601F0AFFC60680028F6D0002003F033
:10927000FDFD70BDC431002010B50B46002104E097
:1092800010F8014B5C544C1CA1B29142F8DB10BDAC
:1092900070B505460E4614464FF6FF7000EA84028C
:1092A00031462846FFF7E8FF70BD2DE9F041024640
:1092B00000250026002000230024002791F803C089
:1092C0000CF00F0591F803C00CF0100CBCF1000F6E
:1092D00003D091F802C04CEA050591F800C0BCF13A
:1092E000000F31D0146800202BE04FF0010C0CFA75
:1092F00000F3B1F800C00CEA03069E4220D18300BF
:109300004FF00F0C0CFA03F7BC4305FA03FC4CEAD0
:10931000040491F803C0BCF1280F06D14FF0010CF2
:109320000CFA00FCC2F814C00AE091F803C0BCF1CA
:10933000480F05D14FF0010C0CFA00FCC2F810C028
:10934000401C0828D1D31460B1F800C0BCF1FF0F55
:1093500034DD546800202EE000F1080C4FF00108C5
:1093600008FA0CF3B1F800C00CEA03069E4221D1C2
:1093700083004FF00F0C0CFA03F7BC4305FA03FC13
:109380004CEA040491F803C0BCF1280F05D100F1A8
:10939000080C08FA0CF8C2F8148091F803C0BCF16C
:1093A000480F07D100F1080C4FF0010808FA0CF83B
:1093B000C2F81080401C0828CED35460BDE8F0816C
:1093C0000246002093680B400BB1012000E0002012
:1093D0007047416170470161704770B505460E46A0
:1093E000182003F0E5FB04460CB9002070BD1821DD
:1093F0002046FFF7C4FA2561206920B92046FEF710
:1094000055FF0020F2E72660012003F0F1FE6061C5
:109410002046EBE72DE9F04106460D4614460027AD
:10942000002D02DC781EBDE8F08100235A1E19468B
:10943000606903F00BFFE068A84208DA00231A46CF
:109440001946606903F0F0FF4FF0FF30EBE7E0688A
:10945000401BE06018E0D4E9001090FBF1F201FB42
:10946000120060606168481C60602069425C384698
:109470007F1C3254AF4207D100231A461946606957
:1094800003F0D2FF0120CEE7E5E770B503460024E4
:10949000002901DC601E70BDD068884202DA4FF0FE
:1094A000FF30F8E715E0D2E9005090FBF5F605FB38
:1094B000160050605568681C50601069465D204673
:1094C000641C1E548C4204D1D068401AD060012024
:1094D000E1E7E8E72DE9F04106460D46144600278E
:1094E00000235A1E1946606903F0B0FEE168206847
:1094F000401AA84208DA00231A461946606903F0A8
:1095000093FF781EBDE8F081E0682844E06018E031
:109510002168A06890FBF1F201FB1200A0603846C0
:109520007F1C315CA268501CA06020698154AF424E
:1095300007D100231A461946606903F075FF012020
:10954000E0E7E5E770B503460024D5681068401BE6
:10955000884201DA601E70BD15E01568906890FBC6
:10956000F5F605FB160090602046641C1D5C9668AD
:10957000701C9060106985558C4204D1D0680844F5
:10958000D0600120E7E7E8E70146C8687047014678
:10959000CB680A68D01A70472DE9F04781460E461D
:1095A00090461C460027002E02DC781EBDE8F0879E
:1095B00000235A1E1946606903F048FEE068A0EBDC
:1095C0000800B04208DA00231A461946606903F021
:1095D0002BFF4FF0FF30E9E76568002706E02068C1
:1095E00095FBF0F100FB11556D1C7F1C4745F6DB28
:1095F000002716E0206895FBF0F100FB1155284686
:109600006D1C2269125C38467F1C09F80020B742A5
:1096100007D100231A461946606903F005FF0120AF
:10962000C4E7E7E74CF6CC4001490860704700000A
:10963000003000404AF6AA20014908607047000047
:109640000030004001494860704700000030004091
:1096500001498860704700000030004001490860FF
:10966000704700000030004010B588B0044600F09C
:1096700047FB00F01DF94FF40060ADF800004820F2
:109680008DF8030069463048FFF70FFE4FF4805015
:10969000ADF8000018208DF8030003208DF80200BB
:1096A00069462948FFF701FE2848FFF76FFB05A828
:1096B000FFF717FD00208DF81A008DF81B008DF8BC
:1096C0001C008DF81D008DF81E0001208DF81F0074
:1096D00000208DF816008DF8170001208DF8180075
:1096E00002208DF819000620ADF8140005A91748CE
:1096F000FFF7F5FB00208DF80E008DF80F0001201C
:109700008DF81000C4F34F30ADF80400042000EBD6
:10971000C40080B2ADF8060043F6FF70ADF8080053
:109720004FF6FF70ADF80A000020ADF80C000120E4
:109730008DF8110001A8FFF745FB01220221034823
:10974000FFF7C4FB08B010BD0008014000640040F2
:1097500070B504460D46D4F85815481CC4F8580591
:1097600004F5AD604554D4F8540520B101281DD04E
:1097700002287DD151E0D4F85805022800D08AE0B3
:1097800094F86805FA2804D140F26950005DFB287E
:1097900008D040F26950005D84F868050120C4F8E3
:1097A000580578E00120C4F8540574E0D4F8580551
:1097B000042800D06FE040F26A50005DC4F85C05F8
:1097C000D4F85C050002C4F85C0540F26B50005D03
:1097D000D4F85C150844C4F85C05D4F85C05B0F511
:1097E000877F10DD40F26A50005D84F8680540F222
:1097F0006B50015D801E01550220C4F85805002001
:10980000C4F8540547E06422002304F5AC6001F07D
:109810003BFC0220C4F854053DE0D4F86025104616
:10982000D4F8641501F096FB28B10020C4F858055F
:10983000C4F854052FE0D4F85C05C01DD4F85815C1
:10984000814200D027E0D4F85805801E04F5AD61B0
:10985000085CFC280ED1D4F85805401E085CFD2891
:1098600008D104F5AD60D4F85815FFF7DDFC00E031
:1098700010E028B90020C4F85805C4F854050AE0DF
:109880000020C4F85405C4F858050448006800F0E6
:1098900063F800E000BF00BF70BD0000580000206A
:1098A00000BF04E0642003F0C7FAFFF7C3FEF9E746
:1098B00008B514208DF800000F208DF8010000205D
:1098C0008DF8020001208DF80300684600F002F8D0
:1098D00008BD000070B5002100230F22C47804B336
:1098E000154C246804F4E064C4F5E064210AC1F175
:1098F0000403CA40447804FA03F1847814402143F5
:1099000009010E4C0678A155047804F01F050124C6
:10991000AC4005786D11AD0005F1E025C5F80041BA
:1099200009E0047804F01F050124AC40044D0678DA
:10993000761145F8264070BD0CED00E000E400E033
:1099400080E100E0024A0A400243024B1A6070477D
:1099500080FFFF1F08ED00E010B50446A068FFF788
:1099600016FED4F85C15091D884200D210BD0421F2
:1099700004F25C50A268FFF7E5FD04F26C50A268A7
:10998000D4F85C15FFF7DEFD00BFEFE7F8B506463B
:109990000025002400BF304601F088FD054695B93A
:1099A00000BF03F075FB34203E4B3FA24FF4C07163
:1099B00000904448FEF7D2FC424801F0C1F903F0A0
:1099C0002DFF00BF68E040A1284601F054FD044689
:1099D00014B1E068042812D000BF03F059FB3C200A
:1099E000304B3AA24FF4C07100903648FEF7B6FCF7
:1099F000344801F0A5F903F011FF00BF4CE038A195
:109A00002069FEF7E3FF20B9F0213848FFF7E3FCB7
:109A100041E037A12069FEF7D9FF20B9F021334892
:109A2000FFF7D7FC37E035A12069FEF7CFFF18B963
:109A3000304600F0DDF92EE033A12069FEF7C6FFC5
:109A4000B0B900BF03F024FB4E20164B30A24FF4F8
:109A5000C07100901B48FEF781FC1A4801F042F9E2
:109A600003F0DCFE00BF01F053FB01F0DFFA12E06F
:109A700000BF03F00DFB54200A4B29A24FF4C07124
:109A800000901048FEF76AFC0E4801F059F903F007
:109A9000C5FE00BF00E000BF00BF15B1284601F0C1
:109AA000C8FCF8BD27E8000825733A25643A20630E
:109AB0004A534F4E5F5061727365206661696C0A4C
:109AC00000000000143D00206300000025733A25CB
:109AD000643A2068617665206E6F7420630A000026
:109AE0004F70656E4C6967687400000000080140A3
:109AF000436C6F73654C69676874000048656172F8
:109B000074426561740000005265626F6F740000FA
:109B100025733A25643A205265626F6F740A00001B
:109B200025733A25643A206572726F7220630A00C9
:109B300010B50446206A00B910BD6069FFF727FD23
:109B4000616A0831884200D2F6E7042104F124005A
:109B50006269FFF7BFFC042104F128006269FFF786
:109B6000B9FC6269616AE06AFFF7B4FC0020206218
:109B700000BFE1E738B50446206B10B1012872D16F
:109B80001AE0A069FFF700FD042800D238BD0022CA
:109B900004216846A369FFF7FFFCA069FFF7F4FC06
:109BA00000990831884200D2F0E7009860630020F5
:109BB000E0630120206357E0E06B40BB042168466E
:109BC000A269FFF727FC042104F10C00A269FFF74A
:109BD00021FC606B08280DDC04F14400A269616B74
:109BE000FFF718FC4FF080502064606BA063A06BFF
:109BF000E06334E0082104F14400A269FFF70AFCA5
:109C0000002020640820A063A06BE06327E0E16BE4
:109C1000606B401A082813DCE36B606BC11A04F117
:109C20004400A269FFF7F6FB4FF080502064E16B1F
:109C3000606B401AA063D4E90E100844E0630EE0A4
:109C4000082104F14400A269FFF7E4FB4FF0006033
:109C500020640820A063D4E90E100844E0630220C9
:109C6000206301E0FFE700BF00BF206B022815D191
:109C7000236CE16841EA030004F14401A26B00F0A7
:109C800059FB58B1206C18B1206CB0F1006F02D1B3
:109C9000012020637AE70020206377E700BF75E7A3
:109CA00029B1064AD2690243044BDA6104E0034A4F
:109CB000D2698243014BDA61704700000010024014
:109CC00029B1064A12690243044B1A6104E0034AAF
:109CD00012698243014B1A61704700000010024074
:109CE00029B1064A92690243044B9A6104E0034A8F
:109CF00092698243014B9A61704700000010024054
:109D000010B501210846FFF7EBFF01214806FFF7D8
:109D1000C7FF01210C20FFF7E3FF10BD30B5002184
:109D20000022002400232D4D6D6805F00C0121B1A7
:109D3000042905D0082923D105E0294D056022E03A
:109D4000274D05601FE0254D6D6805F47012234D09
:109D50006D6805F48034022505EB92421CB9214D53
:109D6000554305600BE01D4D6D6805F400351DB1D0
:109D70001C4D5543056002E0194D5543056002E056
:109D8000174D056000BF00BF144D6D6805F0F00170
:109D90000909154D6B5C0568DD4045600F4D6D6828
:109DA00005F4E061090A104D6B5C4568DD40856093
:109DB0000A4D6D6805F46051C90A0B4D6B5C45682E
:109DC000DD40C560054D6D6805F44041890B074DC8
:109DD0006B5CC568B5FBF3F5056130BD0010024052
:109DE00000127A0000093D00E8000020F800002081
:109DF0002DE9F041BEB0804610A4204948682049B2
:109E000004F0CAFB074604F097FB05461B490868A7
:109E10001B4904F0C1FB074604F08EFB064633469F
:109E20002246F02102A80095FEF798FA032102A825
:109E300001F00CF93EB0BDE8F08100007B226964BE
:109E4000223A3232342C2263223A224865617274FB
:109E500042656174222C226E223A302C2273223AFF
:109E6000312C2274656D70223A25642C2268756D40
:109E70006964697479223A25647D0000943E00206B
:109E80000000204110B500F0A9F90349086000F076
:109E90004FF90149486010BD943E002070B5054659
:109EA00003F0F6F806E0002402E000BF601CC4B234
:109EB000642CFADB281EA5F10105F4D103F0AEFCF9
:109EC00070BD000010B500F0F1F900F011FA4FF488
:109ED00000710A48FFF77DFA4FF480710748FFF7D9
:109EE0007AFA5020FFF7DAFF4FF480710348FFF74A
:109EF00070FA5020FFF7D2FF10BD0000000C0140A7
:109F000010B500F0D3F900F0F3F94FF400710A48EE
:109F1000FFF761FA4FF480710748FFF75CFA5020B1
:109F2000FFF7BCFF4FF480710348FFF752FA50204F
:109F3000FFF7B4FF10BD0000000C014070B5002415
:109F400000F0B4F900F0D4F94FF400711448FFF7B1
:109F500042FA00F0BDF9002516E06006040E4FF449
:109F600080710F48FFF737FA4FF400710C48FFF784
:109F700027FA012801D144F001044FF48071084808
:109F8000FFF727FA681CC5B2082DE6DB00F0B0F930
:109F90004FF400710248FFF71EFA204670BD000022
:109FA000000C014010B500F081F900F0A1F94FF468
:109FB00000710C48FFF70FFA4FF480710948FFF762
:109FC0000AFA4FF400710748FFF703FA1E20FFF763
:109FD00065FF4FF480710348FFF7FBF91E20FFF780
:109FE0005DFF10BD000C014010B500F05FF900F0FE
:109FF0007FF94FF400710C48FFF7EBF94FF48071D3
:10A000000948FFF7E6F94FF480710748FFF7E3F9D5
:10A010001E20FFF743FF4FF400710348FFF7DBF901
:10A020001E20FFF73BFF10BD000C014070B5044639
:10A0300000F03CF900F05CF9002621E004F080001B
:10A0400028B14FF400711F48FFF7C5F904E04FF441
:10A0500000711C48FFF7BDF94FF480711948FFF7F4
:10A06000BAF95020FFF71AFF4FF480711548FFF737
:10A07000B0F95020FFF712FF6006040E701CC6B244
:10A08000082EDBDB00F024F94FF480710D48FFF758
:10A09000A2F94FF400710B48FFF792F9012801D1A2
:10A0A000012500E000254FF480710648FFF791F983
:10A0B00000F01EF94FF400710248FFF78CF92846B2
:10A0C00070BD0000000C01400EB54FF44070ADF8BB
:10A0D000080014208DF80B0003208DF80A0002A957
:10A0E0000E48FFF7E2F84FF480710C48FFF773F960
:10A0F0004FF400710948FFF76EF95020FFF7CEFECC
:10A1000000F008F900200A2103464FF48072CDE9DF
:10A11000001003A1054803F041FA0EBD000C0140F8
:10A12000594A5F536874325461736B00A9B00008D8
:10A130002DE9FF5F00F0BAF8FFF734FF8020FFF74A
:10A1400075FFE520FFF772FFFFF72CFF8120FFF777
:10A150006DFF4FF480711D48FFF73DF900F096F850
:10A1600002E01420FFF79AFE4FF480711748FFF7C2
:10A1700027F90028F5D0FFF7E1FE8146FFF7A2FEA0
:10A18000FFF7DCFE8246FFF7BBFEFFF72DFF4AEA32
:10A19000092B2BF0030B584604F0EAF9019004F068
:10A1A0009FF907460A4A0B4B03F08AFE00220A4B2E
:10A1B000CDE9020104F0AAF8054603F0B9FB044614
:10A1C00000F074F8204604B0BDE8F09F000C014098
:10A1D0007644CF7701405F3F000018402DE9FF5FD4
:10A1E00000F064F8FFF7DEFE8020FFF71FFFE3209A
:10A1F000FFF71CFFFFF7D6FE8120FFF717FF4FF494
:10A2000080711D48FFF7E7F800F040F802E01420E5
:10A21000FFF744FE4FF480711748FFF7D1F800288C
:10A22000F5D0FFF78BFE8146FFF74CFEFFF786FE69
:10A230008246FFF765FEFFF7D7FE4AEA092B2BF0AF
:10A24000030B584604F094F9019004F049F90746CD
:10A250000A4A0B4B03F034FE0A4A0B4BCDE90201CC
:10A2600004F054F8054603F063FB044600F01EF8C2
:10A27000204604B0BDE8F09F000C0140619FC6DE9F
:10A2800007F7653FCDCCCCCCCC6C474008B54FF43C
:10A290008070ADF8000004208DF803006946024884
:10A2A000FFF703F808BD0000000C014008B54FF4AB
:10A2B0008070ADF8000014208DF8030003208DF8A5
:10A2C000020069460148FEF7F0FF08BD000C01409E
:10A2D00008B54FF40070ADF8000004208DF80300BD
:10A2E00069460248FEF7E1FF08BD0000000C01408E
:10A2F00008B54FF40070ADF8000014208DF803008D
:10A3000003208DF8020069460148FEF7CEFF08BD24
:10A31000000C014010B5FFF745FE8020FFF786FED8
:10A32000FE20FFF783FEFFF75FFE5020FFF7B6FD2C
:10A3300010BD0000F0B585B004460E46154600205D
:10A340000090019404208DF8080000208DF8090089
:10A35000E8B28DF80A002A4631460DF10B00FEF7EF
:10A3600097FA69460548FEF7CCFE0746042F02D14E
:10A37000002005B0F0BD0120FBE7000000640040B4
:10A3800010B500F001F810BD0CB500200190009050
:10A390003348006840F480303149086000BF3048DD
:10A3A000006800F4003000900198401C0190009873
:10A3B00018B90198B0F5A06FF1D12948006800F4F0
:10A3C000003010B10120009001E0002000900098C2
:10A3D000012843D12348006840F01000214908605B
:10A3E0000846006820F0030008600846006840F056
:10A3F000020008601A4840681949486008464068E9
:10A4000048600846406840F48060486008464068FC
:10A4100020F47C1048600846406840F4E81048602A
:10A420000846006840F08070086000BF0C48006873
:10A4300000F000700028F9D00948406820F00300BF
:10A44000074948600846406840F00200486000BF85
:10A450000348406800F00C000828F9D10CBD00004A
:10A46000001002400020024070B5054605262C462B
:10A4700009E0052002F0E0FCD4E90220521D40F181
:10A480000000C4E9022020680028F2D0002002F079
:10A49000EDFC70BD10B51348006840F00100114993
:10A4A000086008464068104908400E494860084660
:10A4B00000680E4908400B4908600846006820F40F
:10A4C000802008600846406820F4FE0048604FF491
:10A4D0001F008860FFF754FF4FF0006004490860D8
:10A4E00010BD0000001002400000FFF8FFFFF6FE64
:10A4F00008ED00E010B500240121880700F06EF996
:10A5000018B10121880700F05FF90121880700F0E8
:10A5100065F920B10121880700F056F95AE00821B9
:10A52000C80600F05BF9012854D10821800700F02B
:10A530004BF92D48006848B94FF0804000F047F9CA
:10A540002A49086001202849086043E0264800683D
:10A5500001283FD1800700F03AF9254908600846F4
:10A5600000682249096888420CDD214800681F49BB
:10A570000968401AC1171F4B0CCB801859411D4A5E
:10A5800003C20FE0194800684FF6FF71081A184916
:10A5900009680844C117174AD2E90032C01851416E
:10A5A000144A03C214480068401C134908603C2840
:10A5B0000DD10A2200230F4903C9FDF79EFE0F4A61
:10A5C00003C200200B4A106050600B490860002055
:10A5D000054908603CB14FF0805009490860BFF35D
:10A5E0004F8FBFF36F8F10BDC8000020C000002048
:10A5F000C4000020D0000020D8000020E00000208F
:10A6000004ED00E010B500240121614800F0E6F8F7
:10A6100020B101215E4800F0D7F8AEE008215C4887
:10A6200000F0DCF8012854D10821594800F0CCF89A
:10A630005848006840B9564800F0C9F856490860C3
:10A6400001205449086098E0524800680128E4D18C
:10A650004F4800F0BCF851490860084600684E4970
:10A66000096888420CDD4D4800684B490968401A6A
:10A67000C1174B4B0CCB80185941494A03C20EE01D
:10A68000454800684FF6FF71081A444909680844B4
:10A69000C117434B0CCB80185941414A03C2414872
:10A6A0000068401C3F4908603C280ED10A22002364
:10A6B0003B4903C9FDF721FE3B4A03C20021384A4A
:10A6C000116051600020374908600020314908605E
:10A6D00053E010212E4800F081F801284DD11021BF
:10A6E0002B4800F071F83148006840B9284800F064
:10A6F00071F82F49086001202C4908603DE02B4883
:10A700000068012839D1224800F064F8294908601E
:10A71000084600682649096888420ADD254800681D
:10A7200023490968401A24490968084422490860F5
:10A730000CE01F4800684FF6FF71081A1D490968B0
:10A7400008441D49096808441B4908601B48006803
:10A75000401C1A4908603C280CD1174800680A219F
:10A7600090FBF1F0C117164A03C20020124908609D
:10A770001249086000200D4908603CB14FF080503C
:10A7800010490860BFF34F8FBFF36F8F10BD0000FB
:10A790000008004080000020780000207C0000209D
:10A7A000880000209000002098000020A8000020D1
:10A7B000A0000020A4000020AC000020B000002079
:10A7C000B800002004ED00E0CA4302827047014651
:10A7D000888F70470146B1F84000704730B5024697
:10A7E000002000230024158A05EA0103958905EA63
:10A7F000010413B10CB1012000E0002030BD0000C5
:10A8000010B586B0044601214804FFF749FA0294C6
:10A810000020ADF80C00ADF80E00ADF81000ADF85A
:10A8200014000C20ADF8120002A9244800F0B4F87E
:10A8300040F22661214800F045F840F225511F48BA
:10A8400000F040F8012240F226611C4800F07FF839
:10A85000012240F22551194800F079F801211748EA
:10A8600000F03FF80420ADF8040018208DF8070030
:10A8700001208DF8060001A91148FEF716FD0820F9
:10A88000ADF8040004208DF8070001208DF80600C3
:10A8900001A90B48FEF709FD26208DF800000F20C6
:10A8A0008DF8010000208DF8020001208DF80300D2
:10A8B0006846FFF70FF806B010BD000000440040E6
:10A8C0000008014010B50022002340F66A14A1429E
:10A8D00000D100BF0A1201249440A3B2DC430480DB
:10A8E00010BD21B1828942F40052828104E0828944
:10A8F0004DF6FF731A408281704770B502460024FE
:10A9000000230025002040F66A16B14200D100BFA6
:10A91000C1F3421501F01F03012606FA03F3012DCE
:10A9200002D19689334006E0022D02D1168A3340C7
:10A9300001E0968A33400C12012606FA04F41688C8
:10A94000344013B10CB1012000E0002070BDF0B51F
:10A950000346002400260025002040F66A17B9426D
:10A9600000D100BF1846C1F3421401F01F060127B1
:10A9700007FA06F5012C01D10C3004E0022C01D1BC
:10A98000103000E014301AB107682F43076002E06E
:10A990000768AF430760F0BD2DE9F04786B0054674
:10A9A0000E460024A24600BFA1460027B08900B190
:10A9B00000BF2F462C8A4CF6FF700440F0880443F9
:10A9C0002C82AC894EF6F3100440B08831890843DC
:10A9D000718908430443AC81AC8A4FF6FF400440C0
:10A9E000B0890443AC8201A8FFF798F91F48874259
:10A9F00002D1DDF810A001E0DDF80CA0A88900F478
:10AA0000004040B10AEBCA0000EB0A10316849006F
:10AA1000B0FBF1F807E00AEBCA0000EB0A1031685E
:10AA20008900B0FBF1F86420B8FBF0F004012009C4
:10AA3000642101FB1089A88900F4004040B1322054
:10AA400000EBC900B0FBF1F000F00700044308E0A0
:10AA5000322000EB09106421B0FBF1F000F00F0090
:10AA600004432C8106B0BDE8F087000000380140A7
:10AA700001468888C0F308007047C1F3080282804D
:10AA80007047000030B585B014216846FDF777FFA8
:10AA9000324C6A4600213248FEF7ABFA206808B112
:10AAA000206A08B105B030BD0198C0F3C1650198B6
:10AAB00020F07C40A062E06910B101284AD120E07A
:10AAC000022D0CD19DF80A200DF10B01E06AFDF773
:10AAD000DFFE012020629DF80A00606210E0012D77
:10AAE00002D10020606236E09DF80A200DF10B01D2
:10AAF000E06AFDF7CDFE9DF80A0060620120E0618A
:10AB000029E01DB900206062E06122E0012D0ED134
:10AB1000636AE16AC8189DF80A200DF10B01FDF780
:10AB2000B7FE9DF80A10606A0844606211E0636A2B
:10AB3000E16AC8189DF80A200DF10B01FDF7A8FE87
:10AB40009DF80A10606A08446062012020620020BB
:10AB5000E06100E000BF00BF00BFA3E7C4310020F8
:10AB60000064004010B5014600200A4613791B0618
:10AB7000547903EB0443947903EB0423D479181933
:10AB800010BD00007CB5E0252946094800F070F9A9
:10AB900004460CB900207CBD00200B210346802216
:10ABA000CDE9001003A1064802F0F8FC2046F2E7C8
:10ABB00045230100437564705461736B000000000D
:10ABC0005192000810B50446206800B910BD204617
:10ABD000FEF7AEFF2046FEF7CDFF00BFF6E7F8B563
:10ABE00004460D4616461F460020009000235A1EBC
:10ABF0001946E06C02F02AFB00BF206800B92AE089
:10AC00006069FEF7C1FC042800D224E00022042180
:10AC100068466369FEF7C0FC6069FEF7B5FC009901
:10AC20000831884200D216E00098B04203DD4FF0B0
:10AC3000FF3000900FE0042168466269FEF7EAFBEE
:10AC4000042138466269FEF7E5FB626928460099EF
:10AC5000FEF7E0FB00BF00BF00231A461946E06C78
:10AC600002F0E2FB0098F8BD7FB504460D460026D1
:10AC7000206810B9002004B070BD00235A1E194688
:10AC8000E06C02F0E3FA00BFA069FEF780FC0299D5
:10AC90000831884200D210E0042102A8A269FEF720
:10ACA00019FC042103A8A269FEF714FCA269284636
:10ACB0000299FEF70FFC012600BF00BF00231A46D1
:10ACC0001946E06C02F0B0FB3046D4E710B50446FC
:10ACD000206800B910BD01206060204600F020F817
:10ACE00000BFF7E7F0B5C1B0044604262046FDF7E3
:10ACF00065FD451CF82D02DD002041B0F0BD2B465E
:10AD00002246314601A800F05BF907463A4601A900
:10AD10000248006800F07AFAEFE700006C000020BB
:10AD200010B50446206800B910BD00202060002244
:10AD300002210248FEF7CAF800BFF5E700640040B0
:10AD4000F0B5C1B0044605262046FDF737FD451C89
:10AD5000F82D02DD002041B0F0BD2B4622463146E1
:10AD600001A800F02DF907463A4601A902480068FB
:10AD700000F04CFAEFE700006C00002008B501225B
:10AD800069460248FEF784FA009808BD04FC0108F1
:10AD90000548006810B90020014670470248016864
:10ADA000D1E90201F9E700005C0000201CB5012593
:10ADB000280201F0FDFE044600BF00F0DDF800BFF0
:10ADC00002F066F96A20204B20A24FF4C071009077
:10ADD0002448FDF7C3FA2348FFF784FF02F01EFD65
:10ADE00000BF30E0032002F027F84FF480722146C4
:10ADF0001D48006800F0C8F9051E14DD2046FFF765
:10AE0000B1FEE02804D104F10800FEF7BFFD0AE01E
:10AE10002046FFF7A7FE064633462A46214613483A
:10AE20000068FFF721FF01AB4FF4807221460F4805
:10AE30000068FFF7D4FE051E05DD2A4621460A48B4
:10AE4000006800F0E3F9CDE72FE8000825733A2504
:10AE5000643A20626F6F74202D2D2D2D3E20757366
:10AE600065720A00143D00206C000020680000207C
:10AE700070B506460D46104C206808B1002070BD24
:10AE8000012002F0B5F9E0642846FEF7EDFBA6606C
:10AE900025614FF4A0610948FEF79FFA60614FF405
:10AEA000A0610748FEF799FAA061012020600548DB
:10AEB000E0622046E3E70000C431002014320020A5
:10AEC00014370020143C002008B501210420FEF7AF
:10AED00007FFF020ADF8000010208DF803000120DE
:10AEE0008DF8020069460448FEF7DFF9F0210248B8
:10AEF000FEF76FFA08BD00000008014010B54FF4DE
:10AF000000410803FEF71EFD62B6FFF737FFE02899
:10AF100007D0FFF733FFDF2803D000F087F800BF2A
:10AF2000FEE700F0CBF808490860FFF72BFE074961
:10AF30000860FFF7C9FFFFF7C7F84FF4613000F072
:10AF4000FDF80349086010BD700000206800002073
:10AF50006C0000202DE9F04104460D46FFF718FF74
:10AF600006460F46A01B75EB070002D20120BDE884
:10AF7000F0810020FBE700001CB545F25550FEF7BC
:10AF80006DFB0420FEF75EFB4FF41A70FEF760FBCA
:10AF9000FEF750FBFEF746FB00200D210346802202
:10AFA000CDE9001002A1054802F0F8FA1CBD00002E
:10AFB000497764675461736B00000000A198000832
:10AFC0002DE9F04704460E46914698460025E027B5
:10AFD000E12F00D1E027320E28466D1C2254C6F323
:10AFE000074228466D1C2254C6F3072228466D1CD2
:10AFF000225428466D1C26543A0E28466D1C2254B5
:10B00000C7F3074228466D1C2254C7F3072228467F
:10B010006D1C225428466D1C27546019424649462F
:10B02000FDF736FC08EB0500BDE8F08710B545F2EA
:10B030005550FEF713FB0420FEF704FB0120FEF73A
:10B0400007FBFEF7F7FAFEF7EDFA10BDF0B5C1B059
:10B0500004460E462046FDF7B1FB451CF82D02DDE7
:10B06000002041B0F0BD2B462246314601A8FFF733
:10B07000A7FF07463A4601A90248006800F0C6F853
:10B08000EFE700006C0000202DE9F0410646144671
:10B090001D46FFF77DFE07468846391948EB050037
:10B0A000C6E90010BDE8F08100BF05E04FF416705E
:10B0B00001F0C2FEFEF7E6FEF8E700001CB5102026
:10B0C00001F076FD04460CB900201CBD0020206074
:10B0D0006060A060E060142123468022CDE900106A
:10B0E00003A1074802F05AFA064804602046ECE73C
:10B0F000537973436C6F636B5461736B0000000092
:10B1000069A400085C000020012101607047000074
:10B1100010B507480068FFF7F7FF06480068FFF71B
:10B12000D5FD0548006800F0D9F801F039FE10BDE2
:10B1300070000020680000206C00002070B50546FB
:10B140004FF4F36001F034FD04460CB9002070BDEB
:10B150004FF4F3612046FDF712FC012002F048F89D
:10B16000C4F8900740F2465104F10C00FEF735F99F
:10B17000A0602846FFF744FB0120206001480460DE
:10B180002046E4E758000020F8B504460D46164670
:10B190000020009000235A1E1946D4F8900702F0B0
:10B1A00055F800BF206800B925E0A068FEF7ECF96B
:10B1B000042800D21FE0002204216846A368FEF79D
:10B1C000EBF9A068FEF7E0F90099091D884200D26A
:10B1D00011E00098B04203DD4FF0FF3000900AE02C
:10B1E00004216846A268FEF750F9A2682846009933
:10B1F000FEF74BF900BF00BF00231A461946D4F8EA
:10B20000900702F011F90098F8BD00002DE9F04711
:10B210000446884615464FF0000A0026B146002332
:10B220005A1E1946D4F8900702F010F800BFD4F85F
:10B23000780610B9B5F5877F00D941E0E81DC4F85C
:10B240007C06C4F87806FA223046761C04F5D061F4
:10B250000A54FB223046761C0A54C5F307223046B6
:10B26000761C0A543046761C0D542A46414604F298
:10B270008460FDF70DFB2E44002705E018F8070059
:10B28000484400F0FF097F1CAF42F7DB3046761CD4
:10B2900004F5D06101F80090FC223046761C0A5477
:10B2A000FD2104F5D0608155012240F227710A4842
:10B2B000FFF74DFB00BFD4F878060028FBD100BF94
:10B2C00000BF00231A461946D4F8900702F0ACF8E4
:10B2D0005046BDE8F08700000044004010B5044629
:10B2E00004B910BD0120606000210848FFF7F9FA99
:10B2F000002240F226610548FFF729FB002240F2B8
:10B3000025510248FFF723FB00BFEAE70044004055
:10B31000490050EAC12018BF04204A0D18BF40F070
:10B32000010040F2FF72B2EB515F08BF40F0020033
:10B33000012808BF052070472DE9F0414F1E00EBA2
:10B34000C7010446D1E9000115461E4637F0060242
:10B350000DD02A46334602F0B3FD7F1E04EBC7032F
:10B36000D3E9002302F016FB37F00602F1D1022FD9
:10B3700025D0042F13D0062F18BFBDE8F0812A4630
:10B38000334602F09DFDD4E90A2302F003FB2A466E
:10B39000334602F095FDD4E9082302F0FBFA2A4671
:10B3A000334602F08DFDD4E9062302F0F3FA2A4673
:10B3B000334602F085FDD4E9042302F0EBFA2A4675
:10B3C000334602F07DFDD4E9022302F0E3FA2A4677
:10B3D000334602F075FDD4E90023BDE8F04102F0E8
:10B3E000D9BA0000002213461046014902F08EBB74
:10B3F0000000F03F02F0CEBA00221346104611467C
:10B4000002F084BB40F2013200204FF0E04103F033
:10B41000C1B90000024A0020110703F0BBB90000C7
:10B4200001FDFFFF30380A2801D2012070470020BB
:10B43000704770B504461BE02568A08900F4807051
:10B4400020B9A06810B1A068FFF7F3FFA08900F44D
:10B45000807020B9206910B1206901F0C3FC206A16
:10B4600010B1206A01F0BEFC204601F0BBFC2C4666
:10B47000002CE1D170BD70B505460E46AC6800E009
:10B4800024682CB13146206A00F04AF80028F7D130
:10B49000204670BD10B5282001F08AFB04461CB17F
:10B4A00028212046FDF76BFA204610BD10B5044652
:10B4B00000221146204600F001F810BD2DE9F047AA
:10B4C00080460D4616460024FFF7E4FF074600209D
:10B4D000124908600FB9BDE8F087404601F0E6FB6D
:10B4E00081464946384600F09DFB044624B938465B
:10B4F000FFF79FFF0020EEE766B1204601F0D6FB84
:10B500000446207830B13846FFF793FF03480460C3
:10B510000020E0E705B12C603846DCE76000002041
:10B5200070B504460D462CB9AC4201D0012070BD67
:10B530000020FCE70DB90120F9E705E0207808B903
:10B540000020F4E7641C6D1C2078FCF7FAFE064628
:10B550002878FCF7F6FE8642F0D02078FCF7F1FE62
:10B5600006462878FCF7EDFE301AE0E7002107E0F8
:10B5700042F6E06100BF0A1EA1F1010399B2FAD1BF
:10B58000021EA0F1010398B2F2D170471CB54FF42E
:10B59000C870FFF7EBFFFFF7B1FC084C00200A2151
:10B5A00003464FF48062CDE9001005A1204601F06A
:10B5B000F5FF01F03BFD00201CBD0000ADAD000813
:10B5C0004D61696E5461736B000000002DE9F04716
:10B5D00005460C4620785B2804D0264804600020ED
:10B5E000BDE8F0870520E860601C01F05FFB0446C1
:10B5F00020785D2801D1601CF2E7FFF74BFF06467B
:10B60000A860A86808B90020EAE7204601F04EFBD0
:10B6100080464146304600F005FB074601F046FBF8
:10B6200004460CB90020DBE717E0FFF733FF071EE5
:10B6300000D1D5E737607E603E46601C01F036FBE6
:10B6400081464946304600F0EDFA804601F02EFB77
:10B6500004460CB90020C3E700BF20782C28E4D0B2
:10B6600020785D2801D1601CBAE702480460002000
:10B67000B6E700006000002001460022087830286C
:10B6800006DB0878392803DC08783038024415E0F6
:10B690000878412806DB0878462803DC0878373824
:10B6A00002440BE00878612806DB0878662803DC92
:10B6B00008785738024401E0002070471201491C05
:10B6C0000878302806DB0878392803DC0878303819
:10B6D000024415E00878412806DB0878462803DC98
:10B6E0000878373802440BE00878612806DB0878D0
:10B6F000662803DC08785738024401E00020DCE7C4
:10B700001201491C0878302806DB0878392803DC48
:10B7100008783038024415E00878412806DB0878BC
:10B72000462803DC0878373802440BE008786128A3
:10B7300006DB0878662803DC08785738024401E005
:10B740000020BAE71201491C0878302806DB087887
:10B75000392803DC08783038024415E0087841289D
:10B7600006DB0878462803DC0878373802440BE00B
:10B770000878612806DB0878662803DC08785738E3
:10B78000024401E0002098E7104696E72DE9F04FCB
:10B790008BB083468A460020044605460026674F44
:10B7A0000021884689460990012008909AF80000F7
:10B7B0002D2802D1624F0AF1010A9AF800003028C0
:10B7C00001D10AF1010A9AF80000312822DB9AF827
:10B7D000000039281EDC00BF1AF8011BA1F130005F
:10B7E00002F01BFB0022574BCDE9060120462946FB
:10B7F00002F066FBCDE90401DDE9062302F0CAF898
:10B8000004460D469AF80000302803DB9AF8000041
:10B810003928E1DD9AF800002E2830D19AF801008D
:10B8200030282CDB9AF80100392828DC0AF1010ABB
:10B8300000BF1AF8011BA1F1300002F0EEFA00225D
:10B84000404BCDE906012046294602F039FBCDE9FF
:10B850000401DDE9062302F09DF804460D460022AE
:10B86000364B4046494602F051FD804689469AF8DB
:10B870000000302803DB9AF800003928D9DD9AF857
:10B880000000652803D09AF80000452823D10AF16A
:10B89000010A9AF800002B2802D10AF1010A08E0F7
:10B8A0009AF800002D2804D14FF0FF3008900AF1DB
:10B8B000010A08E01AF8010B3038099901EB8101FF
:10B8C00000EB410009909AF80000302803DB9AF859
:10B8D00000003928EEDDDDE9082101FB02F002F06D
:10B8E0009CFA42464B46CDE9000102F053F802466D
:10B8F0000B46CDE902010020124900F0F1F9224681
:10B900002B46CDE906013046394602F0D9FACDE999
:10B910000401DDE9062302F0D3FA04460D46CBE923
:10B9200006452046294602F049FACBF814000320C8
:10B93000CBF80C0050460BB0BDE8F08F0000F03F94
:10B940000000F0BF000024402DE9F04706460C46F9
:10B9500020787B2804D0404804600020BDE8F087B0
:10B960000620F060601C01F0A1F9044620787D28D3
:10B9700001D1601CF2E7FFF78DFD0546B060B068AD
:10B9800008B90020EAE7204601F090F980464146D8
:10B99000284600F063F8074601F088F904460CB920
:10B9A0000020DBE7286928620020286120783A28F7
:10B9B00003D0294804600020D0E7601C01F076F92C
:10B9C00080464146284600F02DF9074601F06EF901
:10B9D00004460CB90020C1E731E0FFF75BFD071E0C
:10B9E00000D1BBE72F607D603D46601C01F05EF931
:10B9F00081464946284600F031F8804601F056F964
:10BA000004460CB90020A9E72869286200202861B3
:10BA100020783A2803D01048046000209EE7601C7C
:10BA200001F044F981464946284600F0FBF880467B
:10BA300001F03CF904460CB900208FE700BF2078E4
:10BA40002C28CAD020787D2801D1601C86E70248C6
:10BA50000460002082E70000600000202DE9F05F14
:10BA60008346884608F10104002798F80000222840
:10BA700005D06A48C0F800800020BDE8F09F04E0CF
:10BA800014F8011B5C2900D1641C2078222804D002
:10BA9000207810B1781C071EF2D1781C01F088F8CC
:10BAA0008146B9F1000F01D10020E6E708F1010459
:10BAB0004D469EE020785C2804D014F8010B05F870
:10BAC000010B96E0641C2078722818D006DC6228EE
:10BAD00009D066280BD06E287ED10CE0742812D0D5
:10BAE0007528F9D113E0082005F8010B7FE00C2040
:10BAF00005F8010B7BE00A2005F8010B77E00D202B
:10BB000005F8010B73E0092005F8010B6FE0601CDC
:10BB1000FFF7B2FD0646241DB6F55C4F02D3B6F51D
:10BB2000604F00D306B962E0B6F5584F1CD3B6F5A6
:10BB30005C4F19D260785C2802D1A078752800D0BB
:10BB400055E0E01CFFF798FD8246A41DBAF55C4F56
:10BB500002D3BAF5604F00D349E0C6F3090150465D
:10BB600061F39F2000F580360427802E01D2012743
:10BB700008E0B6F5006F01D2022703E0B6F5803F7A
:10BB800000D203273D44012F20D0022F15D0032FD0
:10BB90000AD0042F24D106F0BF0040F08001681EB7
:10BBA00005460170B60900BF06F0BF0040F08001F5
:10BBB000681E05460170B60900BF06F0BF0040F0E0
:10BBC0008001681E05460170B60900BF1448C05DBB
:10BBD0003043C1B2681E00E005E00546017000BFB9
:10BBE00000BF3D4403E0207805F8010B00BF00BF13
:10BBF000641C2078222803D0207800287FF45AAFD4
:10BC0000002028702078222800D1641CCBF81090E6
:10BC10000420CBF80C0020462FE700006000002035
:10BC200020E8000870B505460C460CB9002070BD30
:10BC3000042224A12046FCF7E0FD18B90220E860A8
:10BC4000201DF4E7052221A12046FCF7D6FD18B9F6
:10BC50000020E860601DEAE704221EA12046FCF7F0
:10BC6000CCFD20B90120E8606861201DDFE7207865
:10BC7000222804D121462846FFF7F0FED7E7207896
:10BC80002D2805D02078302807DB2078392804DCDF
:10BC900021462846FFF77AFDC9E720785B2804D1C2
:10BCA00021462846FFF792FCC1E720787B2804D183
:10BCB00021462846FFF748FEB9E7084804600020FF
:10BCC000B5E700006E756C6C0000000066616C7377
:10BCD00065000000747275650000000060000020BF
:10BCE0002DE9F04D1D460C4698B0174621F0004155
:10BCF00023F00043002814BF4FF0010C4FF0000C5C
:10BD00000CEB440CFE4A0CEB02064FEA620C664553
:10BD10002BD33E0018BF012606EB45061644F94A10
:10BD2000964222D3F84A53EA070C02D0944205D136
:10BD300048B918B000201146BDE8F08D002808BFB2
:10BD40004FF0000C01D04FF0010C0CEB440212F547
:10BD5000001F0AD8002F14BF4FF0010C4FF0000C49
:10BD60000CEB450212F5001F07D918B03A462B46D6
:10BD70002146BDE8F04DFFF73DBB0022DFF88CA364
:10BD8000002CB8BF534526DADFF884C36345A8BF4B
:10BD9000022220DADFF870C39C451CDCDFF874C394
:10BDA0000CEB235CBCF1140F08DDCCF1340627FA50
:10BDB00006FC0CFA06F6BE420DD108E05FB9CCF1E4
:10BDC000140623FA06FC0CFA06F69E4203D10CF088
:10BDD0000102C2F1020251EA000C19D1002D17DA5A
:10BDE000002C18BF022A01D0012A07D00220FCF73C
:10BDF000B9FE18B0BDE8F04DFFF7F4BA0220FCF729
:10BE0000B1FEFFF7EFFA18B081F00041BDE8F08D08
:10BE1000B7F1000C6CD1534525D104F1804212F5E5
:10BE2000801201BF00280020B74918B008BFBDE844
:10BE3000F08DB548884207DC002DA1BF6046294639
:10BE400018B0BDE8F08D07E0281E05DA80F000414B
:10BE500018B06046BDE8F08DAF497944D1E90001E2
:10BE600018B0BDE8F08DDFF8A0C2634525D1002DE4
:10BE70001FDA19B1514512D1D8B909E0002840F0B4
:10BE8000EC82A24A214618B062F31E01BDE8F08D93
:10BE90000020214618B060F31E01BDE8F08D08DADD
:10BEA00018B02346BDE8F04D02460020614601F07F
:10BEB0002DBE18B02146BDE8F08D514518DAB5F118
:10BEC000804F0DD0A5F1005CBCF1FF5C10D1B4F146
:10BED000000C0DDB18B06146BDE8F04D00F0EFBE80
:10BEE000234618B00246BDE8F04D194601F0E8BF00
:10BEF000060024F0004C3BD1D9B1514533D1002C80
:10BF000006DD002DA1BF0020514618B0BDE8F08D20
:10BF1000002C01DD002D1BDB002C13DA002D11DBC2
:10BF2000012A4FF0000014BF78497C4918B0BDE8E1
:10BF3000F08D022A18BF002C0AD0012A08D1002C4B
:10BF400006DA0AE0002CB8BF002D11DA012A04D06D
:10BF5000002018B00146BDE8F08D18B000204FF069
:10BF60000041BDE8F08DA1F14050B0F17F601AD0E2
:10BF7000012000EBE47050EA020421D0624C521E12
:10BF80004FF0000B104304BF4FF0000B644C6548AA
:10BF900083427CDD644A654893421FDD884217DB9B
:10BFA000002D25DB37E0002C00DA4AB1022A0CBF55
:10BFB00001204FF0FF3018B0BDE8F04D01F02DBF6B
:10BFC0000120FCF7CFFD18B0BDE8F04DFFF714BA23
:10BFD0004D4A8A4202DC002D0ADC1CE0814202DA72
:10BFE000002D18DA04E0484B994220DD002D12DDC7
:10BFF0000220FCF7B7FDFFF705FA05460E460022C2
:10C0000053465846214601F05BFF18B066F31E0107
:10C010002846BDE8F08D0220FCF7A4FDFFF7FAF9F1
:10C020000A46214618B062F31E01BDE8F08D0022D9
:10C030003046614602F06AF980460E466FF0010212
:10C0400002F0A8FB4FF05532394B02F06DF8424632
:10C05000334601F035FF0022364B02F065F8824688
:10C060004246334604911046194601F029FF5246D4
:10C07000049B01F025FF8A4600904FF0C0422E4BF2
:10C080004046314601F01CFF2C4A2B4B00E027E0D4
:10C09000CDE906015146009801F012FF8246019158
:10C0A000274A284B4046314601F00AFF5246019B81
:10C0B00002F02CF982460B4602460591DDE90601A5
:10C0C00001F068FCDDE9062300268846304602F0D0
:10C0D0001DF95246059B02F027F8024600F07EB992
:10C0E0000020B1F5801F07DA35223046614602F0A4
:10C0F00051FB06466FF0340000EB215024E00000B5
:10C10000FFFF1F00FFFF0F000000F03F0000F07F67
:10C110000000404301FCFFFFB22A00000000F0FFD6
:10C120000000F0BF0000E0410000F043FFFFEF3FE0
:10C130005555D53F0000E03F4715F73FFE822B6580
:10C1400044DF5DF80BAE543EA0F2FF300190C1F326
:10C15000130040F07F6141F040510291FE49884256
:10C16000D8BF002004DDFD498142C8BF012001DDA8
:10C170000D9008E000200D900198401C019002985D
:10C18000A0F5801002900299F54878440B910D9922
:10C1900000EBC100D0E900230F9330460A920B99BF
:10C1A00002F0B4F8CDE90601DDE90A2130460F9B23
:10C1B00001F0F0FB02460B460020EA4901F0A6FC24
:10C1C000059102460B460090DDE9060101F078FE7C
:10C1D0001490E5488A464FF00008784402990068B8
:10C1E00012904FF0005040EA61010D980F9B01EB57
:10C1F000804000F5002109910A9A129802F086F811
:10C2000032460B9B01F090FF4246534601F058FE28
:10C210000646029140465146099B129A01F050FE93
:10C22000DDE9062301F080FF3246029B02F06EF842
:10C23000059B009A01F044FE0091149A0490534625
:10C240001046194601F03CFE06460246C7480B461A
:10C25000029106217844FFF76FF8CDE90510029BA3
:10C2600032461046194601F02BFEDDE9053201F099
:10C2700027FE05910646534640461946149A01F09A
:10C2800089FB009B049A01F01BFE3246059B01F0DE
:10C2900081FBCDE90510424653461046194601F090
:10C2A0000FFE0022B24B02910A9001F073FBDDE910
:10C2B000053201F06FFB0E464246AD4B404602F0A0
:10C2C00025F8029B0A9A02F021F8DDE9053201F017
:10C2D0002BFF424602910A9033461046514601F028
:10C2E000EFFDCDE906015346149A02990A9801F030
:10C2F000E7FD8A460290334642460099049801F0D1
:10C30000DFFD5346029A01F045FB82460B4602468A
:10C310000591DDE9060101F03DFBDDE90623002082
:10C320008846064601F0F2FF5246059B01F0FCFEEE
:10C33000824609914FF060428E4B3046414601F0F3
:10C34000BFFD049006918C4A8A4B5046099901F032
:10C35000B7FD82460291894A894B3046414601F039
:10C36000AFFD5246029B01F015FB864B7B440D9AB4
:10C3700003EBC203D3E9002301F00CFB0E900791FD
:10C38000019801F04AFD0591DDE9061382460E9AF7
:10C39000049801F0FFFA7C4A7A440D9B02EBC30338
:10C3A000D3E900230093029201F0F4FA5246059B70
:10C3B00001F0F0FA0026884652463046059B01F00F
:10C3C000A5FF009B029A01F0A1FF069B049A01F0D1
:10C3D0009DFF079B0E9A01F0A7FE024600200B4628
:10C3E00002903846294601F06BFD824601912B46AA
:10C3F00038461946029A01F089FF3246434601F059
:10C400005FFD5246019B01F0C5FA07468A46324657
:10C4100043462946029801F053FD05460E463A462A
:10C42000534601F0B7FA594A8846914221DBA8EBFE
:10C43000020353EA000210D12A46334601F066FF98
:10C44000CDE90401524A534B3846514601F0A2FA55
:10C45000DDE9042301F032FE21D20220FCF782FB49
:10C46000FEF7D0FF0A46214618B062F31E01BDE870
:10C47000F08D494B28F000429A4210D3474A08EB0E
:10C48000020353EA00027FF4C6AD2A46334601F0A8
:10C490003DFF3A46534601F011FE7FF6BCAD002247
:10C4A000019228F000403E493E4A01EB2051824271
:10C4B00023DA481C4FF4801121FA00F040443A4A34
:10C4C000C0F30A517A44394BA1F2FF31CB4020EA44
:10C4D0000303C0F3130040F48010C1F11401C840FD
:10C4E00012680190B8F1000FBCBF4042019028468D
:10C4F000314601F00BFF05460E462A4633463846C4
:10C50000514601F047FA4FF000084246284B40469A
:10C51000059101F0D5FCCDE90601264A264B40469F
:10C52000059901F0CDFC009102902A463346404621
:10C53000059901F0EBFE3A46534601F0F5FD1F4A1E
:10C540001F4B01F0BDFC009B029A01F023FA074645
:10C55000884602460B4635E08E9803007AB60B00FB
:10C56000FA2600000000F03F32270000602600009D
:10C570000000084009C7EE3FFD033ADCF5015B14FB
:10C58000E02F3EBE38250000FC2400000000904053
:10C59000FE822B654715973C00CC904000346F3FDE
:10C5A00001FCFFFF0000E03F48240000FFFF0F00F8
:10C5B000432EE63F396CA80C615C20BEEF39FAFED1
:10C5C000422EE63FDDE9060101F0E4F9DDE906234C
:10C5D00005460E4601F09AFE3A46434601F0A4FD98
:10C5E0000F462A46334600901046194601F068FC73
:10C5F000824602462E4888460B4605217844FEF7BF
:10C600009BFE5246434601F05BFC2A46334601F04E
:10C610008BFD80468A463B4628463146009A01F00B
:10C620004FFC3B46009A01F0B5F9069100900022BC
:10C630004FF080434046514601F068FE0F460C9093
:10C64000424653462846314601F03AFC3B460C9A96
:10C6500001F05CFA069B009A01F058FE2A46334628
:10C6600001F054FE0022134B01F05EFD05460198D7
:10C670000E4601EB00510815002810DC2846314613
:10C68000019A02F087F8FEF743FE042808BFFEF780
:10C69000C1FE28463146019A02F07CF805460B4659
:10C6A00018B02A4658462146BDE8F04D01F008BCB6
:10C6B000E82200000000F03F2DE9F04105460E465B
:10C6C0001C4807681C480068001D00F01EFB50B99C
:10C6D0001948006890F82C10012088401749096813
:10C6E000814316480160681C38B936B112480168A8
:10C6F000091D134800F047FB1AE07C190E4800683A
:10C700004460BC4207D20C480168091D0D4800680E
:10C7100000F01FFB0CE008480168091D0A4800688A
:10C7200000F017FB09480068844201D20748046002
:10C73000BDE8F081300000201C0000203400002003
:10C74000B031002024000020200000204C000020F8
:10C7500010B5044600F024FB23480068401C224921
:10C7600008602248006840B9204804600846006814
:10C7700001280DD100F068F90AE01D48006838B9B9
:10C780001A480068C06AE16A884201D81748046004
:10C7900018480068401C1749086094F82C100120C4
:10C7A000884015490968084313490860E16A01EBAC
:10C7B0008101124A02EB8100211D00F0E4FA00F031
:10C7C00001FB0B48006868B108480068C06AE16A6C
:10C7D000884207D24FF0805009490860BFF34F8F5D
:10C7E000BFF36F8F10BD00002C0000201C00002044
:10C7F000380000204800002034000020FC300020D9
:10C8000004ED00E070B523E000F042FC134800683E
:10C8100008B9012000E00020054600F0FFFFBDB987
:10C8200000F0BEFA0D48C068C468201D00F06DFA23
:10C830000B480068401E0A4908600A480068401E0C
:10C840000849086000F0BEFA204600F060F800BF1A
:10C85000044800680028D7D170BD00009C3100203A
:10C860002C0000202800002070B504460D46206CE6
:10C8700070B1216CE0680844E0606168E06888425B
:10C8800001D32068E0602846226CE168FCF700F8DC
:10C8900070BD2DE9F04104460F4615464FF00008E3
:10C8A000A66B206C40B9206860BB606800F034FF64
:10C8B00080460020606025E07DB93946226CA06882
:10C8C000FBF7E6FF216CA0680844A060D4E90110E2
:10C8D000884217D32068A06014E03946226CE068D3
:10C8E000FBF7D6FF216CE068401AE0602168E06841
:10C8F000884203D2216C6068401AE060022D01D1A9
:10C9000006B1761E701CA0634046BDE8F08110B5EC
:10C910000446206B00F066FA204600F063FA10BD72
:10C920000A4A22F007000A4A10600022084B5A60A7
:10C9300042F6F872074B5A6000221A60014642F62E
:10C94000F8724A601A460A6070470000040100202D
:10C95000000000200800002000BFFFF753FF06483A
:10C9600000680128F9D94FF0805004490860BFF3EE
:10C970004F8FBFF36F8FF0E7FC30002004ED00E035
:10C9800010B504464CB1002060602060E0600023D8
:10C990001A461946204600F047FD10BD2DE9F0412A
:10C9A00006460D4617469846069C0DB9246000E0E1
:10C9B0002760E66325640121204600F0F5FCBDE810
:10C9C000F0812DE9FF5F80460F469146DDE90E6A52
:10C9D000109CA9F10100216B01EB800B2BF0070BE0
:10C9E000002507E0795D04F134004155785D00B918
:10C9F00002E06D1C102DF5D300BF0021432001552E
:10CA0000052E00D30426E66266640020A064201D83
:10CA100000F09CF904F1180000F098F92461C6F1C7
:10CA20000500A06164620020E06484F85000414683
:10CA30005846039A00F028F92060BAF1000F01D09F
:10CA4000CAF80040BDE8FF9F10B5002407E004EBE2
:10CA500084010F4A02EB810000F06BF9641C052C85
:10CA6000F5D30C4800F065F90B4800F062F90B486B
:10CA700000F05FF90A4800F05CF90A4800F059F943
:10CA800004480949086004480849086010BD0000CE
:10CA9000FC300020603100207431002088310020FB
:10CAA0009C310020B0310020200000202400002014
:10CAB00070B5054600F074F9A86B08B9012400E0D0
:10CAC000002400F07FF9204670BD70B5054600F0E7
:10CAD00067F9A86BE96B884201D1012400E00024CA
:10CAE00000F070F9204670BD0A490968096809B963
:10CAF000012100E0002121B14FF0FF31064A116011
:10CB000006E004490968C968C868034A41681160B9
:10CB100070470000200000204C00002000BFBF2014
:10CB200080F31188BFF34F8FBFF36F8F00BF00BF3B
:10CB3000FEE770B5044600F033F994F9455010E073
:10CB4000606A08B9012000E0002038B904F124002F
:10CB500000F024FE18B100F0EFF900E003E0681ED9
:10CB600045B2002DECDC00BFFF2084F8450000F04A
:10CB700029F900F015F994F9445010E0206908B93A
:10CB8000012000E0002048B904F1100000F006FE8A
:10CB900008B100F0D1F9681E45B200E001E0002DB7
:10CBA000ECDC00BFFF2084F8440000F00BF970BDFE
:10CBB0002DE9F04104464FF0000800F069FA2648DC
:10CBC000006820B9FFF7ACFE01202349086044B19A
:10CBD000083404F0070020B104F00700C0F1080099
:10CBE0000444002C32D042F6F87084422ED21B4FFF
:10CBF0003846056801E02F462D686868A04202D2D9
:10CC000028680028F7D1164885421FD0386800F1FF
:10CC10000808286838606868001B102810D92E1989
:10CC20006868001B70606C6071680C4800E0006808
:10CC3000026852688A42FAD302683260066000BF16
:10CC4000084968680968081A0649086000F0E6FDA6
:10CC50004046BDE8F08100001400002000000020E4
:10CC600008000020100000200648006830B1054987
:10CC7000096801F14800896C491C0160014800689D
:10CC8000704700001C000020001F4FF080730360FD
:10CC9000001F21F001030360001F034B03601438E1
:10CCA00002602038704700001DCB000800E0401CE7
:10CCB00020B1017811B101782029F8DD70472DE904
:10CCC000F04106460F4601F03BFA041E0D4618BF20
:10CCD0000120284320F00040C0F17F6000F1E040D7
:10CCE000C00F0ED0301C18BF0120384320F0004088
:10CCF000C0F17F6000F1E040C00F04BF0120FBF7EE
:10CD000031FF20462946BDE8F08101460A69D1E994
:10CD100001309860D1E9010358605068884201D120
:10CD200088685060002008611068401E106010681C
:10CD3000704700F1080141604FF0FF31816000F160
:10CD40000801C1600161002101607047002101619B
:10CD5000704710B502460B685C1C0CB9106907E0FF
:10CD600002F1080000E04068446824689C42FAD957
:10CD700044684C604C68A160886041600A61146836
:10CD8000641C146010BD42684A6093688B609368AD
:10CD900059609160086103685B1C03607047000084
:10CDA00000BFBF2080F31188BFF34F8FBFF36F8F99
:10CDB00000BF03480068401C01490860704700003C
:10CDC0001800002006480068401E05490860084613
:10CDD000006820B9002080F3118800BF00BF7047B1
:10CDE0001800002070B506463546B6B1083D2C4601
:10CDF00000F04EF96168094800E000680268526876
:10CE00008A42FAD3026822600460054960680968B2
:10CE100008440349086000F001FD70BD00000020D7
:10CE20001000002003484FF0E0214861072008610E
:10CE3000704700003F19010070B50446002544B159
:10CE400000F026F900212046FFF736FC00F0E6FC52
:10CE500005463DB94FF0805003490860BFF34F8F3E
:10CE6000BFF36F8F70BD000004ED00E070B50546A4
:10CE7000FFF796FF15B92748006800E028460446EA
:10CE8000201DFFF742FF78B9E06A00EB80002249DD
:10CE900051F8200040B994F82C10012088401F4917
:10CEA000096881431D480160A06A18B104F11800A7
:10CEB000FFF72BFF1A480068401C19490860154805
:10CEC0000068844209D1211D1648FFF75CFF16480F
:10CED0000068401C1449086009E014480068401EBE
:10CEE000124908602046FFF712FDFFF7FDFDFFF72E
:10CEF00069FF0F48006858B106480068844207D1AE
:10CF00004FF080500B490860BFF34F8FBFF36F8F16
:10CF100070BD00001C000020FC3000203400002008
:10CF2000480000209C310020280000202C00002018
:10CF30003800002004ED00E001200149086070473E
:10CF40004000002070B505460C46054801681831C0
:10CF50002846FFF7FEFE01212046FFF7ADFB70BD1E
:10CF60001C00002070B505462C46002D4BD02649EC
:10CF7000E06A0968C96A884245D2A06900F00040A9
:10CF800028B921480068C06AC0F10500A061E16AC3
:10CF900001EB81011D4A02EB81016069884201D1E8
:10CFA000012000E0002050B3201DFFF7AEFE78B94D
:10CFB000E06A00EB8000154951F8200040B994F870
:10CFC0002C100120884012490968814310480160F3
:10CFD0000D480068C06AE06294F82C100120884077
:10CFE0000B49096808430A490860E16A01EB8101BD
:10CFF000064A02EB8100211DFFF7C5FE03E002484F
:10D000000068C06AE06270BD1C000020FC30002097
:10D010003400002003490968016003490968416040
:10D020007047000044000020300000201CB511486B
:10D0300000210B468022CDE900100FA1104800F01E
:10D04000ADFA0446012C14D100BFBF2080F3118833
:10D05000BFF34F8FBFF36F8F00BF4FF0FF30094911
:10D06000086001200849086000200849086000F0B5
:10D070008BF81CBD5000002049444C4500000000C6
:10D0800059C900084C000020380000203000002062
:10D0900002480068401C01490860704754000020A5
:10D0A0001248006818B10120114908601DE00020F5
:10D0B0000F4908600F480068B0FA80F0C0F11F0106
:10D0C00001EB81020C4B03EB820042685268426024
:10D0D00000F108024368934202D1426852684260FC
:10D0E0004268D268054B1A6000BF704754000020A8
:10D0F0004000002034000020FC3000201C000020F4
:10D1000070B51F48046840F225511E48FDF7F5FB35
:10D1100060B11C48FDF7ACFCC5B229462046FCF7BF
:10D1200017FB40F225511748FDF7CCFB40F2277161
:10D130001448FDF7E2FB012816D1D4F87826501EDA
:10D14000C4F87806D4F87C06821A04F5D060815CB5
:10D150000C48FDF792FCD4F8780628B9002240F27A
:10D1600027710848FDF7F3FB40F226610548FDF7FB
:10D17000C4FB20B140F226610248FDF7A3FB70BD5D
:10D18000580000200044004010B50A48006840F4F0
:10D190007F00084908600846006840F07F4008604A
:10D1A000FFF740FE002004490860FBF727F8002045
:10D1B00010BD000020ED00E01800002010B500BFF9
:10D1C000BF2080F31188BFF34F8FBFF36F8F00BF75
:10D1D00000F014FA18B14FF080500449086000BF05
:10D1E000002080F3118800BF10BD000004ED00E0B6
:10D1F0002DE9F041044601260027224600210120A6
:10D2000000F007F805462846FFF7BAFB2846BDE8B8
:10D21000F0812DE9F84307460D4690460DB90026EA
:10D2200001E007FB05F606F14800FFF7C1FC0446E4
:10D2300044B104F1480943464A4629463846009419
:10D24000FFF7ACFB2046BDE8F88300002DE9FF475F
:10D2500082B0054689461E464FF0000A2C4600BFA4
:10D26000FFF79EFDD4F83880B8F1000F3BD0E76897
:10D2700049462046FFF7F8FADEB9A8F10100A0639D
:10D28000206810B9FFF7F0FC6060206908B9012040
:10D2900000E0002008BB04F1100000F07FFAE0B1CC
:10D2A0004FF080503F490860BFF34F8FBFF36F8F3F
:10D2B00013E0E760606A08B9012000E0002060B96F
:10D2C00004F1240000F06AFA38B14FF0805035497B
:10D2D0000860BFF34F8FBFF36F8FFFF773FD01201F
:10D2E00006B0BDE8F087049818B9FFF76BFD002081
:10D2F000F6E7BAF1000F04D16846FFF78BFE4FF056
:10D30000010AFFF75FFDFFF7C3FEFFF749FD94F940
:10D310004400401C10B9002084F8440094F94500F2
:10D32000401C10B9002084F84500FFF74BFD04A90C
:10D33000684600F005F940BB2046FFF7B9FBF0B1A5
:10D34000206830B9FFF72CFD6068FFF70BFEFFF790
:10D3500039FD04F124000499FFF7F4FD2046FFF79E
:10D36000E8FB00F05BFA00287FF47AAF4FF08050C2
:10D370000C490860BFF34F8FBFF36F8F70E72046F3
:10D38000FFF7D7FB00F04AFA6AE72046FFF7D1FB28
:10D3900000F044FA2046FFF78BFB0028EED0002077
:10D3A0009EE7000004ED00E070B505460E462C46F1
:10D3B000FFF7F6FCD4E90F12206801FB0200606061
:10D3C0000020A0632068A060E06B401E226C2168F2
:10D3D00000FB0210E060FF2084F8440084F8450060
:10D3E0009EB9206908B9012000E00020A8B904F125
:10D3F000100000F0D3F980B14FF080500949086067
:10D40000BFF34F8FBFF36F8F07E004F11000FFF7FA
:10D4100090FC04F12400FFF78CFCFFF7D3FC012003
:10D4200070BD000004ED00E02DE9FF4383B0074626
:10D4300088461D464FF000093C4600BFFFF7B0FC90
:10D44000A06BE16B884201D3022D28D12A464146C8
:10D450002046FFF71EFA0646606A08B9012000E080
:10D46000002068B904F1240000F098F988B14FF069
:10D47000805032490860BFF34F8FBFF36F8F08E0D1
:10D480003EB14FF080502D490860BFF34F8FBFF37E
:10D490006F8FFFF797FC012007B0BDE8F083059878
:10D4A00018B9FFF78FFC0020F6E7B9F1000F04D19F
:10D4B00001A8FFF7AFFD4FF00109FFF783FCFFF76D
:10D4C000E7FDFFF76DFC94F94400401C10B9002003
:10D4D00084F8440094F94500401C10B9002084F8F9
:10D4E0004500FFF76FFC05A901A800F029F8F0B985
:10D4F0002046FFF7EAFAA0B104F110000599FFF702
:10D5000021FD2046FFF715FB00F088F9002895D192
:10D510004FF0805009490860BFF34F8FBFF36F8F02
:10D520008CE72046FFF705FB00F078F986E72046F8
:10D53000FFF7FFFA00F072F90020ADE704ED00E01C
:10D5400070B504460D46FFF72BFC124802682868A8
:10D55000401C08B9002619E00F4920680968884274
:10D5600004D06068904201D801260FE06068101A6C
:10D570002968884209D228686168511A401A2860CF
:10D580002046FFF747FD002600E00126FFF71AFCC2
:10D59000304670BD30000020440000202DE9FF4FD0
:10D5A00085B0804689461746DDE912ABB800FFF723
:10D5B000FFFA064656B15420FFF7FAFA04460CB1BA
:10D5C000266304E03046FFF70DFC00E000247CB148
:10D5D0000020CDE900ABCDE902403A46494640463D
:10D5E000089BFFF7EEF92046FFF7B2F8012501E0AE
:10D5F0004FF0FF35284609B0BDE8F08F2DE9F04126
:10D6000000273A480068002863D139480068451C63
:10D61000374805608DB93748D0F800803648006833
:10D62000344908603448C0F8008034480068401C21
:10D6300032490860FFF758FA00BF31480068854258
:10D640003BD300BF2B480068006808B9012000E008
:10D65000002020B14FF0FF30294908602CE0254818
:10D660000068C068C4686668B54202D22448066093
:10D6700022E0201DFFF749FBA06A18B104F1180051
:10D68000FFF743FB94F82C10012088401D490968DE
:10D6900008431C490860E16A01EB81011A4A02EB68
:10D6A0008100211DFFF76FFB1849E06A0968C96A0C
:10D6B0008842C7D30127C5E700BF14480068C06A85
:10D6C00000EB8000104951F82000012800D9012703
:10D6D00004E00F480068401C0D4908600D480068D0
:10D6E00000B101273846BDE8F08100005400002059
:10D6F00030000020200000202400002044000020F2
:10D700004C00002034000020FC3000201C000020D1
:10D710003C0000204000002070B505462C46002645
:10D72000ADB3A06C401EA064616CE06A88422ED04C
:10D73000A06C60BB201DFFF7E8FA78B9E06A00EB47
:10D740008000144951F8200040B994F82C100120B1
:10D7500088401149096881430F480160606CE062AC
:10D76000E06AC0F10500A06194F82C100120884007
:10D7700009490968084308490860E16A01EB810129
:10D78000044A02EB8100211DFFF7FDFA0126304615
:10D7900070BD0000FC3000203400002070B506464B
:10D7A000F068C46804F11800FFF7AFFA1548006884
:10D7B000A8B9201DFFF7A9FA94F82C100120884081
:10D7C00011490968084310490860E16A01EB8101C9
:10D7D0000E4A02EB8100211DFFF7D5FA04E004F1A7
:10D7E00018010B48FFF7CFFA0A49E06A0968C96ACD
:10D7F000884204D9012501200749086000E000257E
:10D80000284670BD5400002034000020FC30002069
:10D81000883100201C0000204000002070B500244A
:10D820000026FFF7BDFA2E480068401E2C4908600C
:10D830000846006800284FD12A48006800284BD0CD
:10D8400024E02948C068C46804F11800FFF75DFAB5
:10D85000201DFFF75AFA94F82C1001208840234924
:10D860000968084321490860E16A01EB8101204A07
:10D8700002EB8100211DFFF786FA1E49E06A096864
:10D88000C96A884202D301201B4908601648006813
:10D8900008B9012000E000200028D2D00CB1FFF729
:10D8A00023F91648056865B100BFFFF7A7FE10B160
:10D8B0000120114908606D1E002DF6D100200F498E
:10D8C00008600D48006838B1012630070C4908602F
:10D8D000BFF34F8FBFF36F8FFFF774FA304670BD01
:10D8E000540000202C00002088310020340000204B
:10D8F000FC3000201C000020400000203C000020E4
:10D9000004ED00E010B500290AD00878002807D0FF
:10D9100005487844FBF75AF8002801D0002010BDD4
:10D920000248784410BD0000261000001E100000C0
:10D9300021F00042A2F16052B2F5801F01F00043D5
:10D9400028BFD2F17F6C0BD95FEA001C43EAC20208
:10D9500042EB507018BF704728BF20F0010070479D
:10D96000B2F5801FBCBF184670474FEA410C1CF54A
:10D97000001F02D2084600F0D6BE70B500F04AFB88
:10D9800000000089FFF7F6BF4FF00040A0F58000CF
:10D990007047000010B591EA030F48BF83F00043C1
:10D9A00000F1BC84841A71EB030C05D2121943EB0D
:10D9B0000C03001B61EB0C01DFF824E14FEA11546A
:10D9C000A4EB135C1EEA430F18BF9EEA445F73D0BA
:10D9D00023EA0E03DCF1200E21EA045143F4801304
:10D9E00032D322FA0CFE10EB0E0023FA0CFE41EBB0
:10D9F0000E01CCF1200E03FA0EFE10EB0E0051F1D9
:10DA00000001B1F5801FCCF1200E32D201EB0451A0
:10DA100012FA0EF2BDE8104058BF7047401C38BFE4
:10DA20005FEA420218BF7047002814BF20F00100CF
:10DA300041F100014FEA410313F5001F38BF704761
:10DA4000A1F1C04100F034BB012A43EB0302ACF169
:10DA5000200CDCF11F0E32BF4FF0000E23FA0CF346
:10DA600010EB030041EB0451B4EB115FD0D0A1EBFC
:10DA7000045101F5801149085FEA300001EB0451BF
:10DA80000ED350F1000038BF12FA0EFE08D1BDE8E7
:10DA90001040C9E7401C38BF5FEA4202CAD1C3E761
:10DAA000BDE810404FEA410313F5001F38BF70472F
:10DAB000A1F1C04100F0FCBA9EEA445F08D011EA2F
:10DAC0005E0FBDE8104004BF01F000410020704728
:10DAD000BDE8104070B500F09DFA00BF64FBBE3E8B
