:020000040800F2
:108000003847002071820008798200087B820008CE
:108010007D8200087F820008818200080000000045
:10802000000000000000000000000000D9810008EE
:1080300085820008000000001D82000869EC00082D
:108040008B8200088B8200088B8200088B820008DC
:108050008B8200088B8200088B8200088B820008CC
:108060008B8200088B8200088B8200088B820008BC
:108070008B8200088B8200088B8200088B820008AC
:108080008B8200088B8200088B8200088B8200089C
:10809000E9C100088B8200088B8200088B820008EF
:1080A0008B8200088B8200088B8200088B8200087C
:1080B00055B800088B82000865B900088B8200085B
:1080C0008B8200088B8200088B8200088B8200085C
:1080D0008B82000800000000ADEB00088B820008D6
:1080E0008B8200088B8200088B82000800F002F867
:1080F00000F062F80AA090E8000C82448344AAF1E0
:108100000107DA4501D100F057F8AFF2090EBAE8DD
:108110000F0013F0010F18BFFB1A43F001031847BB
:108120000C8700002C870000103A24BF78C878C163
:10813000FAD8520724BF30C830C144BF04680C606D
:10814000704700000023002400250026103A28BFB5
:1081500078C1FBD8520728BF30C148BF0B607047B9
:10816000692900F07781642900F07481752900F095
:1081700071816F2900F00882782900F02F8203684E
:10818000DB0928BF41F08001632900F07A8573295B
:1081900000F07F85E32900F08A85002070471FB535
:1081A00000F0B6FD04000020002107F001F9401C9A
:1081B00060601FBD10B510BD00F0B2FD1146FFF7A5
:1081C000EEFF04F039FF00F0D0FD03B4FFF7F2FF3B
:1081D00003BC00F0D3FD0000224B19680868B0E82A
:1081E000F00F80F30988BFF36F8F4FF0000080F32A
:1081F00011884EF00D0E7047000000000648006820
:10820000006880F3088862B661B6BFF34F8FBFF392
:108210006F8F00DF00BF00BF08ED00E0EFF30980C3
:10822000BFF36F8F0F4B1A6820E9F00F106008B58D
:108230004FF0BF0080F31188BFF34F8FBFF36F8FF4
:1082400006F084FC4FF0000080F31188BDE8084080
:1082500019680868B0E8F00F80F30988BFF36F8FE2
:10826000704700BF1C000020EFF30580704700003E
:108270000948804709480047FEE7FEE7FEE7FEE7BA
:10828000FEE7FEE7FEE7FEE7FEE7FEE704480549F6
:10829000034A054B70470000B5B50008ED800008A3
:1082A00038450020384700203845002070B5044686
:1082B000051F00F0D7FB0068002C14BF446870BD98
:1082C000002C18BFAC423CBF20466468F8D301685C
:1082D0000A18AA4218BF456003D12A68054611440E
:1082E000016028684119A1421CBF6C6070BD6168C3
:1082F000696021680844286070BD10B54C1084EA9C
:10830000530404D54042C1F1000138BF491E1B424D
:1083100004D55242C3F1000338BF5B1E00F0A6FB38
:1083200014F0804F04D04042C1F1000138BF491E13
:1083300014F0004F04D05242C3F1000338BF5B1E5B
:1083400010BD10B5044600F085FB0068005DC00656
:1083500002D504F1200010BD204610BD0FB41CB59D
:108360000C0007AA009001D02044401E074B7B441C
:1083700069460190069800F05AFC002C03D069462B
:10838000002000F067FC1CBC5DF814FBED08000049
:1083900070B5044685690068C10601D5302600E045
:1083A0002026C00707D070BDD4E901213046904790
:1083B000206A401C20626D1EF6D570BD70B5044663
:1083C00085690078C00707D170BDD4E9012120205C
:1083D0009047206A401C20626D1EF6D570BD09686A
:1083E0004A0501D540B27047C905FCD500B27047B7
:1083F00009684A0501D5C0B27047C905FCD580B2ED
:10840000704770B50C460546012A05D028788006CD
:1084100000D5EA69002302E0012305E05B1C9342DA
:1084200002D2E05C0028F9D1A869E618C01AA86158
:10843000286A184428622846FFF7AAFF04E0D5E915
:10844000012114F8010B9047B442F8D32846FFF7F6
:10845000B5FF70BD2DE9F04106460024106875296E
:10846000314616A510D0FFF7BAFF002802DA4042C5
:1084700013A507E031688A0701D512A502E0490774
:1084800004D511A5012401E0FFF7B2FF00210A2263
:1084900006F1240709E0B0FBF2FCB0FBF2F302FBAB
:1084A0001C00303078541846491C0028F3D123466C
:1084B0002A463046BDE8F04100F05ABB00000000FB
:1084C0002D0000002B000000200000002DE9FF5FC0
:1084D00015468A460446DFF8AC80F8440027D8E900
:1084E00000103E46CDE9001010E03AF816106A463A
:1084F00002A800F0E8FB411C07D02178890603D5CB
:10850000E269391891420DD80744761C207880061C
:1085100002D5E069B84205DDAE42E6DB3AF8160066
:108520000028E2D1A069C01BA0612046FFF730FF00
:10853000D8E90010CDE90010002017E03AF8181033
:108540006A4602A800F0BFFBB0F1FF3F81460BD0A6
:1085500000250DF1080B05E0D4E901211BF8050009
:1085600090476D1C4D45F7D308F10100B04280469D
:10857000E4DB206A384420622046FFF71FFFBDE895
:10858000FF9F00001282000070B50446214610686B
:10859000FFF72EFF002104F1240505E000F007029B
:1085A0003032C0086A54491C0028F7D120680023E3
:1085B00008A2050708D500F02000084304D0E069B0
:1085C000012305A2401EE0612046BDE8704000F096
:1085D000CFBA0000000000003000000070B5044673
:1085E0000D4621461068FFF703FF2188090502D5D3
:1085F0000F4A7A4402E00E4A7A440E32002104F116
:10860000240305E000F00F060009965D5E54491C46
:108610000028F7D120780023000704D5702D02D060
:1086200009B1022311322046BDE8704000F0A0BA23
:10863000028100002DE9F05F894604464FF0000AF0
:10864000DFF874B1FB44C0F820A02046E1688847F9
:10865000002874D0252806D0D4E901219047206A4B
:10866000401C2062F1E700265F462046E16888470B
:108670002028054607DB312D05D2781910F8200C8B
:1086800008B10643F1E7B00701D526F00406C4F8A7
:108690001CA00027C4F818A02A2D09D0284604F0F1
:1086A000CBFA38B304EB8708303DC8F8185019E00E
:1086B00059F8041B204604EB87029161E168884762
:1086C000012F054618D1E069002820DA26F020069F
:1086D0001DE0D8F8180000EB800005EB40003038B2
:1086E000C8F818002046E1688847054604F0A4FA57
:1086F0000028EED1012F0AD02E2D08D12046E168A6
:1087000088477F1C0546022F46F02006C4DBA0697F
:10871000002803DA404246F00106A061F00701D0CC
:1087200026F010066C2D0BD0682D09D04C2D39D0B9
:108730006A2D35D0742D35D07A2D33D016E038E03F
:10874000E1682F4620468847B842054609D16C2F7C
:1087500026D04FF48060E1680643204688470546EE
:1087600004E06C2F1AD04FF4807006430DB3A5F1CE
:108770004100192802D8203546F400664A462946A9
:10878000204626604E46FFF7EBFC80B101280BD057
:10879000F61D26F0070000F1080956E74020E4E73F
:1087A0008020D8E70020D6E706F104094DE72846E7
:1087B00052E7206ABDE8F09FD880000010B5431C46
:1087C00002E010F8011B71B18107FAD14FF00132BC
:1087D00002C88C1A8C4314EAC211F9D0C01A0A06D6
:1087E00003D0C01E10BDC01A10BD0A0401D0801EE7
:1087F00010BD0902FCD0401E10BD40EA010370B557
:108800009B072ED14FF00136042A2AD308C810C97D
:108810009D1B9D43121F15EAC61517D0D8B2E1B2B1
:10882000401A50EA056110D198B2A1B2401A50EA3C
:1088300005410AD123F07F4024F07F41401A50EADD
:10884000052102D1180EA0EB146070BDA342DBD04D
:1088500018BA21BA884201D9012070BD4FF0FF300B
:1088600070BD0AB9002070BD10F8013B11F8014B32
:1088700063B1A3420AD1521E08D010F8013B11F88F
:10888000014B1BB1A34201D1521EEDD1181B70BD8B
:10889000032A40F2308010F0030C00F0158011F82C
:1088A000013BBCF1020F624498BF11F801CB00F804
:1088B000013B38BF11F8013BA2F1040298BF00F858
:1088C00001CB38BF00F8013B11F0030300F0258015
:1088D000083AC0F0088051F8043B083A51F804CB3C
:1088E000A0E80810F5E7121D5CBF51F8043B40F802
:1088F000043BAFF30080D20724BF11F8013B11F80D
:1089000001CB48BF11F8012B24BF00F8013B00F850
:1089100001CB48BF00F8012B704710B5203AC0F0DA
:108920000B80B1E81850203AA0E81850B1E8185070
:10893000A0E81850BFF4F5AF5FEA027C24BFB1E8AD
:108940001850A0E8185044BF18C918C0BDE810401E
:108950005FEA827C24BF51F8043B40F8043B08BF27
:108960007047D20728BF31F8023B48BF11F8012BEE
:1089700028BF20F8023B48BF00F8012B70474FF09A
:10898000000200B5134694469646203922BFA0E85F
:108990000C50A0E80C50B1F12001BFF4F7AF09076B
:1089A00028BFA0E80C5048BF0CC05DF804EB89005C
:1089B00028BF40F8042B08BF704748BF20F8022B9F
:1089C00011F0804F18BF00F8012B70474FF0013CA9
:1089D00050F8042B51F8043B9A4221D1A2EB0C032E
:1089E000934313EACC1317D150F8042B51F8043BEE
:1089F0009A4215D1A2EB0C03934313EACC130BD18B
:108A000050F8042B51F8043B9A4209D1A2EB0C0315
:108A1000934313EACC13DBD04FF00000704700BF44
:108A2000D01A01BAB1FA81F101F0180122FA01F06D
:108A3000CB40C1F12001DBB2C0B2C01A2CFA01F365
:108A4000D11A914311EAC311E6D1704770477047BC
:108A50007047000010B500F05BF9001D10BD00BFAD
:108A60005169000000487047E044002053EA020CBE
:108A700000F069802DE9F04B4FF00006002B1FBF7E
:108A8000B3FA83F503FA05F424FA05F65E4012BF43
:108A90001643B2FA82F502FA05F4C5F120051EBFAD
:108AA00022FA05FC44EA0C04203556EA044C4FEA4D
:108AB000144418BF641C4FF000084FF000099042A6
:108AC00071EB030C39D3002919BFB1FA81F701FA10
:108AD00007F6B0FA80F700FA07F6C7F120071EBFC5
:108AE00020FA07FC46EA0C062037B6FBF4FCA7EB9D
:108AF0000507103F07F01F0BCBF120060CFA0BFB0C
:108B00002CFA06F644BFB3460026202FA4BF5E46CB
:108B10004FF0000B5BEA060C08BF4FF0010B19EB9E
:108B20000B09ABFB027C48EB0608C01B06FB02CC22
:108B30000BFB03CC71EB0C01C1E70B46024641462F
:108B40004846BDE8F08B13B54FF000004FF0000130
:108B5000AFF30080BDE81C40704710B500F0DCF8B2
:108B6000006810BD10B5044600F0D6F8046010BDD2
:108B70002DE9F0470D4699469246044600F1240837
:108B80000168880604D5E06921F01001216000E049
:108B90000120A84201DD471B00E00027A1697A19E6
:108BA00002EB0900081AA0612078C00602D4204612
:108BB000FFF7EEFB002608E0D4E901211AF80600D1
:108BC0009047206A401C761C20624E45F4DB2078DA
:108BD000C0060AD52046FFF7DBFB06E0D4E90121F9
:108BE00030209047206A401C2062381EA7F1010700
:108BF000F4DC07E0D4E9012118F805009047206A69
:108C0000401C2062281EA5F10105F3DC2046FFF779
:108C1000D5FB2078000602D50220BDE8F0870120B0
:108C2000FBE7000001694A1C02610878704700B543
:108C30008FB0CDE901310021059105497944CDE995
:108C4000031011466846FFF7F5FC0FB000BD0000A9
:108C5000E5FFFFFF0A6802F8010B0A607047D1E9DF
:108C600000239A4202D2531C0B601070704710B55B
:108C7000436913B1AFF3008001E0FFF7C2FB0120AD
:108C800010BD127800F124010A7000224A700122FE
:108C9000EDE711684FF0FF32E9E710B5436913B112
:108CA000AFF3008001E0FFF711FC012010BD128836
:108CB00000F1240182840022C2840122EDE71168C0
:108CC0004FF0FF32E9E770B516460C460546FFF750
:108CD000C1FE036893F80101012806D0FF2C0FD8CC
:108CE000185D68B101202C7070BDD3F807013246C1
:108CF000214603F2071303442846BDE87040184795
:108D00004FF0FF3070BD000000487047D84400208D
:108D100000487047F844002000487047D8440020BD
:108D20007546FFF7F1FFAE4605006946534620F051
:108D30000700854618B020B5FFF7A8FABDE8204027
:108D40004FF000064FF000074FF000084FF0000B07
:108D500021F00701AC46ACE8C009ACE8C009ACE8BA
:108D6000C009ACE8C0098D46704710B50446AFF3A2
:108D700000802046BDE81040FFF727BA01491820BF
:108D8000ABBEFEE726000200704721B1826842F0C8
:108D90000102826003E0826822F001028260704773
:108DA00021B1826842F48072826003E0826822F41A
:108DB000807282607047014600208A6802F00402D7
:108DC0000AB1012000E000207047014600208A68B7
:108DD00002F008020AB1012000E000207047000004
:108DE00030B502460020002350680F4C20400D791A
:108DF0000C6844EA05242043506090680B4C2040E6
:108E0000D1E902542C434D7944EA45042043906053
:108E1000D06A20F470000C7C641EE4B2234340EA64
:108E20000350D06230BD0000FFFEF0FFFDF7F1FF00
:108E3000F0B504460D4600200021092D11DDE06843
:108E4000A5F10A0606EB4607072606FA07F188434E
:108E5000A5F10A0606EB460603FA06F10843E060B0
:108E60000CE0206905EB4507072606FA07F1884361
:108E700005EB450603FA06F108432061072A0FDADD
:108E8000606B561E06EB86071F2606FA07F188431D
:108E9000561E06EB860605FA06F10843606322E0DB
:108EA0000D2A0FDA206BD61F06EB86071F2606FA5F
:108EB00007F18843D61F06EB860605FA06F108433C
:108EC000206310E0E06AA2F10D0606EB86071F267C
:108ED00006FA07F18843A2F10D0606EB860605FAAD
:108EE00006F10843E062F0BD816841F0080181604D
:108EF000704721B1826842F4A002826003E0826878
:108F000022F4A00282607047816841F00401816010
:108F100070470000012400BF03F0FCF9044637E06D
:108F200003F0F8F9051905EBD570441042F6F82066
:108F300084420CDD8021174801F08DF9202115486D
:108F400001F089F94021134801F085F91CE042F253
:108F5000107084420CDD80210E4801F07AF9402126
:108F60000C4801F078F920210A4801F074F90BE06F
:108F70008021084801F06DF94021064801F069F9A7
:108F80002021044801F067F94FF4FA6005F0AAFCCB
:108F9000C6E70000000C014010B504460B488442AF
:108FA00009D10121480601F0CDFE00214FF00070EB
:108FB00001F0C8FE08E00121880601F0C3FE00218F
:108FC0004FF0806001F0BEFE10BD00000064004064
:108FD00010B50021837A012202FA03F13D4A12689A
:108FE00042F001023B4B1A603A4A1C3212688A4333
:108FF000384B1C331A60027BCAB9364A0C321268ED
:109000008A43344B0C331A604288C38842EA0343D4
:10901000304A4032847A42F834300288838842EA07
:1090200003432C4A4032847A02EBC4025360027B31
:10903000012A19D1274A0C3212680A43254B0C33F6
:109040001A604288038842EA0343224A4032847A03
:1090500042F83430C288838842EA03431D4A4032D2
:10906000847A02EBC4025360C27A3AB9194A121DDB
:1090700012688A43174B1B1D1A6006E0154A121D21
:1090800012680A43134B1B1D1A60028932B9114A38
:10909000143212688A430F4B14331A600289012A72
:1090A00006D10C4A143212680A430A4B14331A6070
:1090B000427B012A06D1074A1C3212680A43054B3B
:1090C0001C331A60034A126822F00102014B1A6035
:1090D00010BD0000006600401AB143690B434361B4
:1090E00002E043698B434361704730B5024600207C
:1090F0000023146824F002041460146844F001048E
:10910000146000E05B1C546804F001041CB94FF6C5
:10911000FF74A342F6D1546804F001040CB9002096
:109120006CE08C79012C04D1146844F08004146044
:1091300003E0146824F080041460CC79012C04D17D
:10914000146844F04004146003E0146824F0400400
:1091500014600C7A012C04D1146844F020041460CB
:1091600003E0146824F0200414604C7A012C04D12C
:10917000146844F01004146003E0146824F0100430
:1091800014608C7A012C04D1146844F00804146033
:1091900003E0146824F008041460CC7A012C04D194
:1091A000146844F00404146003E0146824F0040418
:1091B00014608C78A407CD7844EA05640D7944EAFC
:1091C00005444D7944EA05540D886D1E2C43D46145
:1091D000146824F001041460002300E05B1C546850
:1091E00004F001041CB14FF6FF74A342F6D1546899
:1091F00004F001040CB1002000E0012030BD10B5E6
:1092000000F5D87303EB01131B6803F0040313721A
:10921000137A53B900F5D87303EB01131B6840F2BE
:10922000FF7404EA5353136009E000F5D87303EBAD
:1092300001131B686FF0604404EAD303536000F528
:10924000D87303EB01131B6803F00203537200F59C
:10925000D87303EB01135B6803F00F03937200F5FF
:10926000D87303EB01135B681B0AD37400F5D87342
:1092700003EB01139B68D37200F5D87303EB011362
:109280009B681C0A147300F5D87303EB01139B68E9
:109290001C0C547300F5D87303EB01139B681B0E71
:1092A000937300F5D87303EB0113DB68D37300F5F8
:1092B000D87303EB0113DB681C0A147400F5D87330
:1092C00003EB0113DB681C0C547400F5D87303EB3B
:1092D0000113DB681B0E937421B9C36843F02003AC
:1092E000C36003E0036943F02003036110BD002164
:1092F0008171C171017241728172C1728170C170DC
:10930000032101710221417101210180704710B5D3
:1093100002460020936803F08063B3F1806F00D1B0
:1093200010E0936803F00063B3F1006F01D10120F6
:1093300008E0936803F08053B3F1805F01D102200D
:1093400000E00420042874D002F5C07303EB00137E
:109350001B6803F0010402F5C07303EB00131C60EB
:109360000B7A7BB94B7A0C8843EA445302F5C074FC
:1093700004EB00142468234302F5C07404EB0014CA
:10938000236010E00B7A4C6843EAC4034C7A234311
:1093900002F5C07404EB00142468234302F5C07482
:1093A00004EB001423608B7A03F00F038B7202F539
:1093B000C07303EB00135B6823F00F0402F5C07366
:1093C00003EB00135C6002F5C07303EB00135B68F2
:1093D0008C7A234302F5C07404EB001463608B7B2A
:1093E0001C064B7B44EA03440B7B44EA0323CC7A00
:1093F000234302F5C07404EB0014A3608B7C1C06AD
:109400004B7C44EA03440B7C44EA0323CC7B234398
:1094100002F5C07404EB0014E36002F5C07303EBC3
:1094200000131B6843F0010402F5C07303EB001343
:109430001C6010BD2DE9F04F93B004460D469046D8
:1094400099464FF0000A0DE01C9800EBCA00D0E9E5
:1094500000108D4A02EBCA02C2E900100AF10100B5
:1094600000F0FF0ABAF1030FEEDB4FF0010A27E02C
:109470004FF0000B1DE0DA4517D0834800EBCA001F
:1094800003C8CDE90801804800EBCB0003C8CDE953
:109490000601DDE9082306F0D1FC0AEB4A027A4B0B
:1094A00003EBC20202EBCB0203C20BF1010000F09E
:1094B000FF0BBBF1030FDEDB0AF1010000F0FF0A36
:1094C000BAF1030FD4DB4FF0000A14E06F4800EB51
:1094D000CA0103C902460B46CDE9080100204FF03E
:1094E000804106F085FA0CAA02EBCA0203C20AF117
:1094F000010000F0FF0ABAF1030FE7DB4FF0000AAA
:1095000033E04FF0000B29E0D34523D05F4800EB58
:10951000CB0003C8CDE906010CA800EBCA0103C9C2
:10952000CDE90401DDE9062306F088FCCDE9080158
:109530000AEB4A00544901EBC00000EBCB0003C822
:10954000CDE90601DDE9082306F086FB0CAA02EB53
:10955000CA0203C20BF1010000F0FF0BBBF1030FC5
:10956000D2DB0AF1010000F0FF0ABAF1030FC8DBF9
:10957000474A484B2046294606F03AFA22462B46EF
:10958000CDE9080106F034FACDE90A01404A424B20
:109590002046294606F02CFA06460F464FF0000AF0
:1095A0006BE042464B463D483D4906F021FACDE985
:1095B00002013C4800EBCA0003C8CDE90001DDE927
:1095C000022306F03BFC32463B46CDE9040106F09F
:1095D0000FFACDE908010CA800EBCA0003C8CDE9D9
:1095E0000201DDE90A2306F003FACDE904012D4862
:1095F00000EBCA0003C8CDE90201DDE9042306F04F
:109600001DFCCDE90601DDE9082306F017FC264A1A
:1096100002EBCA0203C2244800EBCA0003C8024698
:109620000B46CDE906011A481A4906F0E1F9CDE9E1
:109630000801164800EBCA0103C9CDE90601DDE9BE
:10964000082305F0FDFE194A02EBCA0203C21648C0
:1096500000EBCA0103C9134A02EBCA0203C2134852
:1096600000EBCA00D0E90010084A02EBCA02C2E9C6
:1096700000100AF1010000F0FF0ABAF1030F90DBBD
:1096800013B0BDE8F08F0000A8320020083300209E
:109690007B14AE47E17A943FE17AB43F44174154DA
:1096A000FB2119403833002020330020F032002005
:1096B0002DE9F04F8DB005460E469146002470E02E
:1096C0003A4800EBC400D0E900733A4600204FF05E
:1096D000804106F08DF9CDE9040109EBC40134485D
:1096E00000EBC400D1E900733A46D0E900A150462E
:1096F00006F0A4FB2A463346CDE9000106F078F9CE
:10970000CDE90201DDE9042305F09AFE294A2A4B3E
:10971000CDE908012846314606F06AF9CDE906018F
:10972000DDE9082306F064F9CDE90A011F4800EBE2
:10973000C400D0E900733A460A9806F08DFA1F4A31
:1097400002EBC40203C21D4800EBC400D0E9007361
:109750003A461848184906F04BF98246144800EB7F
:10976000C400D0E900733A46504605F069FE144A39
:1097700002EBC40203C2114800EBC400D0E90010A0
:109780000A4A02EBC402C2E900100D4800EBC40013
:10979000D0E90010064A02EBC402C2E90010601CC6
:1097A000C4B2032C8CDB0DB0BDE8F08F003200207A
:1097B000D03100207B14AE47E17A943FE83100209D
:1097C000B83100202DE9F04F8FB004460D46164603
:1097D0001F461C9ADDE91801FFF76AFF1D9ADDE9B3
:1097E0001A0100F021F91E9832463B4600902046AF
:1097F0002946FFF71FFE1822584906A8FFF78DF8E3
:109800004FF000082CE006A908F1010001EBC000B0
:10981000D0E9009306A800EBC8004A46D0E900B1A1
:10982000584606F0A9F817D206A800EBC80003C8EE
:10983000CDE90C0106A908F1010001EBC00103C943
:1098400006AA02EBC80203C206AB08F1010203EB51
:10985000C202DDE90C0103C208F1010000F0FF08BB
:10986000B8F1020FCFDB3E4A3E4BDDE90A91484694
:1098700006F0BCF93CD233E04FF000082DE0374849
:1098800000EBC800364A374BD0E90091484606F055
:10989000D5FA324A02EBC80203C2334800EBC800D3
:1098A0002F4A304BD0E90091484606F0C7FA2E4ABD
:1098B00002EBC80203C206A800EBC801D1E900917F
:1098C000274A284B484606F0B9FA06AA02EBC80216
:1098D00003C208F1010000F0FF08B8F1030FCEDB6E
:1098E0001F4A204BDDE90A91484606F07FF9C3D3B1
:1098F0004FF000082BE01C4800EBC800D0E9002125
:10990000104603F03DFACDE90001184800EBC8000D
:10991000D0E900934A46009806F06AF8CDE90201C2
:10992000134800EBC800D0E900934A46029805F0BE
:1099300087FD00220F4BCDE9040106F059F80E4ACD
:1099400002EBC80203C208F1010000F0FF08B8F101
:10995000030FD0DB0FB0BDE8F08F0000083300200C
:1099600044174154FB211940F0320020B831002047
:109970003032002000003440503300202DE9F04FF9
:109980009DB006460F4614461D46DDE9279BDDF8CF
:109990009880214800EBCB0003C8CDE91A014FF0B5
:1099A000000A24E01D4800EBCA1000EBCB0103C9FC
:1099B00014AA02EBCA0203C2194901EB8A122999BF
:1099C00052F8210006F024FB0EAA02EBCA0203C2E1
:1099D000144901EB8A1151F82B0006F019FB08AA73
:1099E00002EBCA0203C20AF1010000F0FF0ABAF159
:1099F000030FD7DB14A80EA908AA8DE83003CDE920
:109A00000421069030463946DDE91A23FFF7DAFED5
:109A10001DB0BDE8F08F000050030108D00301081D
:109A200010060108500501082DE9F04F8DB00546DC
:109A30000E469146002476E000224FF080432846EF
:109A4000314605F0D5FF8246394800EBC400D0E925
:109A500000733A46504605F0CBFFCDE9060109EB0D
:109A6000C400D0E90073334800EBC401D1E900A180
:109A70003A46504606F0E2F92A463346CDE902015D
:109A80002846314605F0B4FFCDE90001DDE90223A7
:109A900005F0AEFFCDE90401DDE9062305F0D0FCB9
:109AA000254A264BCDE9080105F0A2FFCDE90A01C0
:109AB000234800EBC400D0E900733A460A9806F048
:109AC000CBF8204A02EBC40203C21E4800EBC400DC
:109AD000D0E900733A461848184905F089FF8246D4
:109AE0008B46144800EBC401D1E900733A46504656
:109AF000594605F0A5FC144A02EBC40203C2114802
:109B000000EBC400D0E90010094A02EBC402C2E92C
:109B100000100D4800EBC40103C9064A02EBC40261
:109B200003C2601CC4B2032C86DB0DB0BDE8F08F0D
:109B300078320020483200207B14AE47E17A943F0F
:109B400000320020603200203032002010B5024682
:109B50000024042303E0D05C2044C4B25B1CC81E74
:109B60009842F8DC105CA04201D0002010BD01201A
:109B7000FCE7000070B50646074C032505E003200E
:109B800004F0B0FE204602F015FC60680028F6D014
:109B9000002004F0C1FE70BDF033002021B1026846
:109BA00042F00102026004E002684FF6FE731A40C0
:109BB0000260704701684FF6FE721140016000219B
:109BC000016041608160C1604B49884208D14A49C7
:109BD0000839496841F00F01474A083A51608AE064
:109BE00045491431884208D143490839496841F050
:109BF000F001414A083A51607DE03F4928318842EE
:109C000008D13D490839496841F470613A4A083A37
:109C1000516070E038493C31884208D136490839F2
:109C2000496841F47041344A083A516063E032496E
:109C30005031884208D130490839496841F47021CF
:109C40002D4A083A516056E02B496431884208D1C8
:109C500029490839496841F47001274A083A516096
:109C600049E025497831884208D1234908394968B3
:109C700041F07061204A083A51603CE01F49884237
:109C800006D1011F096841F00F01021F116032E087
:109C90001A491431884208D11849091F096841F04E
:109CA000F001164A121F116025E01449283188423C
:109CB00008D11249091F096841F470610F4A121F47
:109CC000116018E00D493C31884208D10B49091F49
:109CD000096841F47041094A121F11600BE00749FD
:109CE0005031884207D10549091F096841F47021A4
:109CF000024A121F11607047080002400804024027
:109D000010B50022026847F6F0739A430C6A8B681C
:109D100023430C6923434C6923438C692343CC6957
:109D200023434C6A23438C6A23431A430260CB6863
:109D300043600B6883604B68C36010BD0FB42DE9AE
:109D4000FF41149D9DF829009DF82810CDE90210CF
:109D500000211C480A460346CDE9001008461A496E
:109D6000FFF70CFE9DF82800C8B901F07BF800242D
:109D700013E0164901EB84119DF8292051F82200C7
:109D800006F046F906460022114B05F031FE114A55
:109D900002EBC40203C2601CC4B2032CE9DB002442
:109DA00008E00C4800EBC40103C905EBC40203C280
:109DB000601CC4B2032CF4DB012004B0BDE8F00148
:109DC0005DF814FB000024400000F03F100601087D
:109DD000000034405033002030B5044604254FF4D1
:109DE000302000F08FF80546042D17D10C4800698B
:109DF00040F002000A49086108464461006940F0E9
:109E0000400008614FF4302000F07CF8054604481B
:109E1000006941F6FD71084001490861284630BDDE
:109E20000020024004200B49C96801F0010109B17A
:109E300001200EE00749C96801F0040109B10220C0
:109E400007E00449C96801F0100109B1032000E0EE
:109E500004207047002002400348006940F0800061
:109E60000149086170470000002002402DE9F041DF
:109E700005460C46164604274FF000080FE02188DF
:109E8000284600F013F80746042F02D00120BDE851
:109E9000F08108F102001FFA80F8AD1CA41CB04547
:109EA00001DA042FEBD00020F1E7000070B5044682
:109EB0000D460426F00200F025F80646042E11D1C6
:109EC0000948006940F00100074908612580F00257
:109ED00000F018F806460448006941F6FE71084093
:109EE00001490861304670BD002002400248034924
:109EF00048600348486070472301674500200240DE
:109F0000AB89EFCD00B502460423FFF78BFF034674
:109F100003E0FFF787FF0346521E012B01D1002A01
:109F2000F7D102B90523184600BD10B50B46002134
:109F300004E010F8014B5C544C1CA1B29142F8DBD8
:109F400010BD70B505460E4614464FF6FF7000EA88
:109F5000840231462846FFF7E8FF70BD2DE9F8433B
:109F600006460F461546042000900120304908702F
:109F7000FFF7BCFF4FEA96294FEA8929C6F3090883
:109F80004FF480622B494846FFF7CFFF002408E0DA
:109F900008EB04002749085CFF2800D003E0601CA0
:109FA00084B2AC42F4DB00BFAC422ADA4846FFF789
:109FB00013FF00909DF80000042807D0FFF74CFF26
:109FC00000201B4908700120BDE8F883002406E04A
:109FD000385D08EB0401174A5054601C84B2AC424F
:109FE000F6DB4FF4806213494846FFF73FFF044613
:109FF000012C15D1FFF730FF00200D49087001201A
:10A00000E2E72A4639463046FFF730FF0446012C86
:10A0100006D1FFF721FF0020054908700120D3E792
:10A02000FFF71AFF00200249087000BFCCE70000CC
:10A0300064000020403F002070B505460E461446DF
:10A040004FF6FF7000EA840231462846FFF786FF8C
:10A0500070BD000008B54FF40050ADF800001020AE
:10A060008DF8030001208DF802006946084800F0D1
:10A0700013F86020ADF8000010208DF803000120D7
:10A080008DF802006946034800F006F808BD00009C
:10A0900000100140000C01402DE9F041024600256E
:10A0A0000026002000230024002791F803C00CF0B4
:10A0B0000F0591F803C00CF0100CBCF1000F03D099
:10A0C00091F802C04CEA050591F800C0BCF1000F00
:10A0D00031D0146800202BE04FF0010C0CFA00F393
:10A0E000B1F800C00CEA03069E4220D183004FF075
:10A0F0000F0C0CFA03F7BC4305FA03FC4CEA04040A
:10A1000091F803C0BCF1280F06D14FF0010C0CFAF6
:10A1100000FCC2F814C00AE091F803C0BCF1480F7B
:10A1200005D14FF0010C0CFA00FCC2F810C0401C25
:10A130000828D1D31460B1F800C0BCF1FF0F34DDA2
:10A14000546800202EE000F1080C4FF0010808FAD6
:10A150000CF3B1F800C00CEA03069E4221D1830043
:10A160004FF00F0C0CFA03F7BC4305FA03FC4CEA62
:10A17000040491F803C0BCF1280F05D100F1080CCC
:10A1800008FA0CF8C2F8148091F803C0BCF1480F2B
:10A1900007D100F1080C4FF0010808FA0CF8C2F8DA
:10A1A0001080401C0828CED35460BDE8F081000028
:10A1B000F0B50A46002300240021002500F00046E7
:10A1C000B6F1004F02D11D4EF16901E01B4E7168DE
:10A1D000C0F3034583B200F44016B6F5401F08D122
:10A1E00021F07061154E766826F07066134F7E6020
:10A1F00012E000F48016B6F5801F06D1032606FA99
:10A2000005F4A14341F0706106E0460D360103FA02
:10A2100006F6B14341F0706122B1460D360103FAF2
:10A2200006F6314300F00046B6F1004F02D1034E6E
:10A23000F16101E0014E7160F0BD000000000140DD
:10A240000246002093680B400BB1012000E0002083
:10A250007047416170470161704770B505460E4611
:10A26000182004F0FBF904460CB9002070BD182139
:10A270002046FEF784FB2561206920B92046FEF7C1
:10A2800015F80020F2E72660012004F007FD606168
:10A290002046EBE72DE9F04106460D46144600271F
:10A2A000002D02DC781EBDE8F08100235A1E1946FD
:10A2B000606904F021FDE068A84208DA00231A462C
:10A2C0001946606904F006FE4FF0FF30EBE7E068E6
:10A2D000401BE06018E0D4E9001090FBF1F201FBB4
:10A2E000120060606168481C60602069425C38460A
:10A2F0007F1C3254AF4207D100231A4619466069C9
:10A3000004F0E8FD0120CEE7E5E72DE9F04106463F
:10A310000D461446002700235A1E1946606904F0B2
:10A32000EBFCE1682068401AA84208DA00231A46CC
:10A330001946606904F0CEFD781EBDE8F081E06842
:10A340002844E06018E02168A06890FBF1F201FB6E
:10A350001200A06038467F1C315CA268501CA060CF
:10A3600020698154AF4207D100231A46194660691B
:10A3700004F0B0FD0120E0E7E5E770B503460024F6
:10A38000D5681068401B884201DA601E70BD15E078
:10A390001568906890FBF5F605FB16009060204666
:10A3A000641C1D5C9668701C9060106985558C4219
:10A3B00004D1D0680844D0600120E7E7E8E701460F
:10A3C000C86870470146CB680A68D01A70472DE903
:10A3D000F04781460E4690461C460027002E02DCC0
:10A3E000781EBDE8F08700235A1E1946606904F004
:10A3F00083FCE068A0EB0800B04208DA00231A46AC
:10A400001946606904F066FD4FF0FF30E9E76568C2
:10A41000002706E0206895FBF0F100FB11556D1C4C
:10A420007F1C4745F6DB002716E0206895FBF0F11E
:10A4300000FB115528466D1C2269125C38467F1CB2
:10A4400009F80020B74207D100231A46194660696F
:10A4500004F040FD0120C4E7E7E700004CF6CC40E3
:10A460000149086070470000003000404AF6AA2009
:10A470000149086070470000003000400149486011
:10A4800070470000003000400149886070470000BC
:10A490000030004001490860704700000030004073
:10A4A00000B591B04FF4004000F020FC01210846B7
:10A4B00000F058FC0121084600F024FC012148026C
:10A4C00000F050FC01211C2000F04CFC8020ADF875
:10A4D0002C0000208DF82F000BA93948FFF7DCFD78
:10A4E0000121084600F00EFC0121480200F03AFC70
:10A4F0003448FFF75FFB3448009034480190002057
:10A5000002900120039000200490802005904000DC
:10A5100006908000079020200890000209900020FB
:10A520000A9069462748FFF7EBFB01212548FFF712
:10A5300035FB4FF4004000F0D9FB00200C900120C7
:10A540008DF834008DF835004FF460200E90002017
:10A550000F9001208DF840000CA91B484C38FEF7E5
:10A560003FFC05230122072117484C38FEF760FC09
:10A57000012115484C38FEF713FC012112484C38D4
:10A58000FEF703FC10484C38FEF7AEFC00BF0E4847
:10A590004C38FEF71AFC0028F9D10B484C38FEF76E
:10A5A000B3FC00BF08484C38FEF705FC0028F9D181
:10A5B000012105484C38FEF79CFC11B000BD00009D
:10A5C00000080140080002404C2401407C000020AB
:10A5D00010B588B0044600F0D5FB00F037F94FF411
:10A5E0000060ADF8000048208DF80300694630484F
:10A5F000FFF752FD4FF48050ADF8000018208DF8A1
:10A60000030003208DF8020069462948FFF744FD46
:10A610002848FEF7C1FC05A8FEF769FE00208DF86A
:10A620001A008DF81B008DF81C008DF81D008DF8A8
:10A630001E0001208DF81F0000208DF816008DF8F7
:10A64000170001208DF8180002208DF8190006204F
:10A65000ADF8140005A91748FEF747FD00208DF856
:10A660000E008DF80F0001208DF81000C4F34F305C
:10A67000ADF80400042000EBC40080B2ADF8060081
:10A6800043F6FF70ADF808004FF6FF70ADF80A0012
:10A690000020ADF80C0001208DF8110001A8FEF794
:10A6A00097FC012202210348FEF716FD08B010BDF9
:10A6B000000801400064004008B50121182000F0A6
:10A6C00051FBE020ADF8000010208DF803000120C0
:10A6D0008DF8020069460448FFF7DEFCE0210248DD
:10A6E000FFF7B7FD08BD0000000C014070B504463F
:10A6F0000D46D4F85815481CC4F8580504F5AD604B
:10A700004554D4F8540520B101281DD002287DD12C
:10A7100051E0D4F85805022800D08AE094F8680582
:10A72000FA2804D140F26950005DFB2808D040F2BD
:10A730006950005D84F868050120C4F8580578E088
:10A740000120C4F8540574E0D4F85805042800D05A
:10A750006FE040F26A50005DC4F85C05D4F85C0517
:10A760000002C4F85C0540F26B50005DD4F85C1543
:10A770000844C4F85C05D4F85C05B0F5877F10DDAB
:10A7800040F26A50005D84F8680540F26B50015D4C
:10A79000801E01550220C4F858050020C4F8540555
:10A7A00047E06422002304F5AC6002F01FF90220A8
:10A7B000C4F854053DE0D4F860251046D4F864157B
:10A7C00001F054FF28B10020C4F85805C4F854051E
:10A7D0002FE0D4F85C05C01DD4F85815814200D094
:10A7E00027E0D4F85805801E04F5AD61085CFC280C
:10A7F0000ED1D4F85805401E085CFD2808D104F598
:10A80000AD60D4F85815FFF7A1F900E010E028B9C1
:10A810000020C4F85805C4F854050AE00020C4F824
:10A820005405C4F858050448006800F06DF800E0CD
:10A8300000BF00BF70BD00005800002000BF04E052
:10A84000642004F04FF8FFF711FEF9E708B5142073
:10A850008DF800000F208DF8010000208DF8020017
:10A8600001208DF80300684600F002F808BD0000E2
:10A8700070B5002100230F22C47804B3154C24685E
:10A8800004F4E064C4F5E064210AC1F10403CA40A1
:10A89000447804FA03F184781440214309010E4CF2
:10A8A0000678A155047804F01F050124AC40057812
:10A8B0006D11AD0005F1E025C5F8004109E004780F
:10A8C00004F01F050124AC40044D0678761145F8CC
:10A8D000264070BD0CED00E000E400E080E100E007
:10A8E00002490143024A1160704700000000FA0566
:10A8F0000CED00E0024A0A400243024B1A60704726
:10A9000080FFFF1F08ED00E010B50446A068FFF7C8
:10A9100059FDD4F85C15091D884200D210BD0421F0
:10A9200004F25C50A268FFF728FD04F26C50A268A4
:10A93000D4F85C15FFF721FD00BFEFE7F0B58BB051
:10A940000746002600240025282101A8FEF717F855
:10A9500001A95748006801F0BFFE00BF384602F069
:10A96000AFF9064696B900BF04F0E8F82D20514B28
:10A9700051A24FF4C07100905648FDF7EFFC5548C6
:10A9800001F0D6FD04F0A0FC00BF89E052A13046E2
:10A9900002F07BF9044614B1E068042812D000BF2D
:10A9A00004F0CCF83520434B4CA24FF4C07100901A
:10A9B0004848FDF7D3FC474801F0BAFD04F084FC99
:10A9C00000BF6DE04AA1304602F05FF905464AA19A
:10A9D0002069FDF7FBFF18B9287D8DF8040059E0C8
:10A9E00048A12069FDF7F2FF18B9287D8DF8050010
:10A9F00050E048A12069FDF7E9FF48B96869FA38D5
:10AA000002906869FA3803906869FA38049041E066
:10AA100045A12069FDF7DAFF20B92548006801F05B
:10AA2000B5FF37E045A12069FDF7D0FF18B93846DA
:10AA300000F0D8F92EE044A12069FDF7C7FFB0B9B6
:10AA400000BF04F07BF853201A4B41A24FF4C071B1
:10AA500000902048FDF782FC1E4801F03BFD04F009
:10AA600033FC00BF02F046F801F057FF12E000BFD0
:10AA700004F064F859200F4B39A24FF4C0710090D4
:10AA80001448FDF76BFC134801F052FD04F01CFC68
:10AA900000BF05E001A90648006801F063FE00BFA1
:10AAA00000BF16B1304602F0CEF80BB0F0BD00008A
:10AAB00068000020D706010825733A25643A206310
:10AAC0004A534F4E5F5061727365206661696C0A2C
:10AAD00000000000404300206300000025733A2579
:10AAE000643A2068617665206E6F7420630A000006
:10AAF00076616C756500000053657453706565641C
:10AB000000000000536574446972656374696F6E78
:10AB1000000000005365745472616946696E4F66A7
:10AB20006673657400000000536176655472616954
:10AB300046696E4F66667365740000004865617211
:10AB400074426561740000005265626F6F740000AA
:10AB500025733A25643A205265626F6F740A0000CB
:10AB600025733A25643A206572726F7220630A0079
:10AB700010B50446206A00B910BD6069FFF722FCD9
:10AB8000616A0831884200D2F6E7042104F124000A
:10AB90006269FFF7BAFB042104F128006269FFF73C
:10ABA000B4FB6269616AE06AFFF7AFFB00202062D4
:10ABB00000BFE1E738B50446206B10B1012872D11F
:10ABC0001AE0A069FFF7FBFB042800D238BD002281
:10ABD00004216846A369FFF7FAFBA069FFF7EFFBC2
:10ABE00000990831884200D2F0E7009860630020A5
:10ABF000E0630120206357E0E06B40BB042168461E
:10AC0000A269FFF747FB042104F10C00A269FFF7DA
:10AC100041FB606B08280DDC04F14400A269616B04
:10AC2000FFF738FB4FF080502064606BA063A06B8F
:10AC3000E06334E0082104F14400A269FFF72AFB35
:10AC4000002020640820A063A06BE06327E0E16B94
:10AC5000606B401A082813DCE36B606BC11A04F1C7
:10AC60004400A269FFF716FB4FF080502064E16BAF
:10AC7000606B401AA063D4E90E100844E0630EE054
:10AC8000082104F14400A269FFF704FB4FF00060C3
:10AC900020640820A063D4E90E100844E063022079
:10ACA000206301E0FFE700BF00BF206B022815D141
:10ACB000236CE16841EA030004F14401A26B00F057
:10ACC000C9FB58B1206C18B1206CB0F1006F02D1F3
:10ACD000012020637AE70020206377E700BF75E753
:10ACE00010B501211D2000F03DF810BD01460020E7
:10ACF000034A506820F44040084350607047000009
:10AD00000010024029B1064A52690243044B5A61BD
:10AD100004E0034A52698243014B5A6170470000C4
:10AD20000010024029B1064AD2690243044BDA619D
:10AD300004E0034AD2698243014BDA6170470000A4
:10AD40000010024029B1064A12690243044B1A61FD
:10AD500004E0034A12698243014B1A617047000004
:10AD60000010024029B1064A92690243044B9A61DD
:10AD700004E0034A92698243014B9A6170470000E4
:10AD80000010024010B501210846FFF7EBFF01213A
:10AD90004806FFF7C7FF01210C20FFF7E3FF10BDB6
:10ADA00010B586B00446062269460D48FFF7C9F87B
:10ADB000059801280AD100982060019860600298E7
:10ADC000A0600398E0600498206106E01821204606
:10ADD000FDF7D5FD204600F01DFB06B010BD0000BC
:10ADE00008FC01082DE9F043CBB08046194C28211E
:10ADF00005A8FDF7C4FD05A91748006801F06CFC23
:10AE000001F088FA054615494868154905F05CF9CE
:10AE1000814605F029F9064610490868104905F0F1
:10AE200053F9814605F020F907469DF81500CDE954
:10AE30000176039500909DF814302246F0210FA86A
:10AE4000FDF78CFA03210FA801F0B2FD4BB0BDE86D
:10AE5000F0830000C807010868000020C0440020FB
:10AE60000000204100204EE000222E4B03EBC003E7
:10AE70001A605A602C4B03EBC0031A605A602B4BCC
:10AE800003EBC0031A605A60294B03EBC0031A603E
:10AE90005A600021274B03EBC00319605960264B11
:10AEA00003EBC00319605960244B03EBC0031A6025
:10AEB0005A60234B03EBC0031A605A60214B03EB2B
:10AEC000C0031A605A60204B03EBC0031A605A603B
:10AED0001E4B03EBC003196059601D4B03EBC0030D
:10AEE000196059601B4B03EBC0031A605A601A4B80
:10AEF00003EBC0031A605A60184B03EBC0031960E0
:10AF00005960411CC8B20328AEDB0021144B996084
:10AF1000D96000221A615A619A61DA611A635A6330
:10AF200070470000B831002030320020D0310020BE
:10AF300048320020E831002060320020003200203A
:10AF400078320020F0320020083300202033002027
:10AF50003833002050330020903200201832002077
:10AF6000A832002010B500F0A9F90349086000F0EC
:10AF70004FF90149486010BDC044002070B5054636
:10AF800003F0DCFD06E0002402E000BF601CC4B258
:10AF9000642CFADB281EA5F10105F4D104F094F924
:10AFA00070BD000010B500F0F1F900F011FA4FF497
:10AFB00000710A48FFF74DF94FF480710748FFF719
:10AFC0004AF95020FFF7DAFF4FF480710348FFF78A
:10AFD00040F95020FFF7D2FF10BD0000000C0140E7
:10AFE00010B500F0D3F900F0F3F94FF400710A48FE
:10AFF000FFF731F94FF480710748FFF72CF9502023
:10B00000FFF7BCFF4FF480710348FFF722F950208F
:10B01000FFF7B4FF10BD0000000C014070B5002424
:10B0200000F0B4F900F0D4F94FF400711448FFF7C0
:10B0300012F900F0BDF9002516E06006040E4FF489
:10B0400080710F48FFF707F94FF400710C48FFF7C4
:10B05000F7F8012801D144F001044FF48071084849
:10B06000FFF7F7F8681CC5B2082DE6DB00F0B0F971
:10B070004FF400710248FFF7EEF8204670BD000063
:10B08000000C014010B500F081F900F0A1F94FF477
:10B0900000710C48FFF7DFF84FF480710948FFF7A3
:10B0A000DAF84FF400710748FFF7D3F81E20FFF7D6
:10B0B00065FF4FF480710348FFF7CBF81E20FFF7C0
:10B0C0005DFF10BD000C014010B500F05FF900F00D
:10B0D0007FF94FF400710C48FFF7BBF84FF4807113
:10B0E0000948FFF7B6F84FF480710748FFF7B3F847
:10B0F0001E20FFF743FF4FF400710348FFF7ABF842
:10B100001E20FFF73BFF10BD000C014070B5044648
:10B1100000F03CF900F05CF9002621E004F080002A
:10B1200028B14FF400711F48FFF795F804E04FF481
:10B1300000711C48FFF78DF84FF480711948FFF734
:10B140008AF85020FFF71AFF4FF480711548FFF777
:10B1500080F85020FFF712FF6006040E701CC6B284
:10B16000082EDBDB00F024F94FF480710D48FFF767
:10B1700072F84FF400710B48FFF762F8012801D113
:10B18000012500E000254FF480710648FFF761F8C3
:10B1900000F01EF94FF400710248FFF75CF82846F2
:10B1A00070BD0000000C01400EB54FF44070ADF8CA
:10B1B000080014208DF80B0003208DF80A0002A966
:10B1C0000E48FEF769FF4FF480710C48FFF743F813
:10B1D0004FF400710948FFF73EF85020FFF7CEFE0C
:10B1E00000F008F900200A2103464FF48072CDE9EF
:10B1F000001003A1054803F027FF0EBD000C01401D
:10B20000594A5F536874325461736B000DCA000869
:10B210002DE9FF5F00F0BAF8FFF734FF8020FFF759
:10B2200075FFE520FFF772FFFFF72CFF8120FFF786
:10B230006DFF4FF480711D48FFF70DF800F096F890
:10B2400002E01420FFF79AFE4FF480711748FEF7D2
:10B25000F7FF0028F5D0FFF7E1FE8146FFF7A2FED9
:10B26000FFF7DCFE8246FFF7BBFEFFF72DFF4AEA41
:10B27000092B2BF0030B584604F012FF019004F049
:10B28000C7FE07460A4A0B4B04F0B2FB00220A4BEA
:10B29000CDE9020104F0D2FD054604F09FF8044612
:10B2A00000F074F8204604B0BDE8F09F000C0140A7
:10B2B0007644CF7701405F3F000018402DE9FF5FE3
:10B2C00000F064F8FFF7DEFE8020FFF71FFFE320A9
:10B2D000FFF71CFFFFF7D6FE8120FFF717FF4FF4A3
:10B2E00080711D48FEF7B7FF00F040F802E014201F
:10B2F000FFF744FE4FF480711748FEF7A1FF0028C6
:10B30000F5D0FFF78BFE8146FFF74CFEFFF786FE78
:10B310008246FFF765FEFFF7D7FE4AEA092B2BF0BE
:10B32000030B584604F0BCFE019004F071FE074682
:10B330000A4A0B4B04F05CFB0A4A0B4BCDE90201B5
:10B3400004F07CFD054604F049F8044600F01EF8C0
:10B35000204604B0BDE8F09F000C0140619FC6DEAE
:10B3600007F7653FCDCCCCCCCC6C474008B54FF44B
:10B370008070ADF8000004208DF803006946024893
:10B38000FEF78AFE08BD0000000C014008B54FF42E
:10B390008070ADF8000014208DF8030003208DF8B4
:10B3A000020069460148FEF777FE08BD000C014027
:10B3B00008B54FF40070ADF8000004208DF80300CC
:10B3C00069460248FEF768FE08BD0000000C014017
:10B3D00008B54FF40070ADF8000014208DF803009C
:10B3E00003208DF8020069460148FEF755FE08BDAE
:10B3F000000C014010B5FFF745FE8020FFF786FEE8
:10B40000FE20FFF783FEFFF75FFE5020FFF7B6FD3B
:10B4100010BD000010B586B004460C48007808B195
:10B4200006B010BD2068009060680190A06802908E
:10B43000E068039020690490012005900622694687
:10B440000348FEF7F9FD00BFEAE7000064000020B2
:10B4500008FC0108F0B585B004460E4615460020EC
:10B460000090019404208DF8080000208DF8090058
:10B47000E8B28DF80A002A4631460DF10B00FDF7BF
:10B4800007FA69460548FDF742FF0746042F02D137
:10B49000002005B0F0BD0120FBE700000064004083
:10B4A00010B500F001F810BD0CB50020019000901F
:10B4B0003348006840F480303149086000BF3048AC
:10B4C000006800F4003000900198401C0190009842
:10B4D00018B90198B0F5A06FF1D12948006800F4BF
:10B4E000003010B10120009001E000200090009891
:10B4F000012843D12348006840F01000214908602A
:10B500000846006820F0030008600846006840F024
:10B51000020008601A4840681949486008464068B7
:10B5200048600846406840F48060486008464068CB
:10B5300020F47C1048600846406840F4E8104860F9
:10B540000846006840F08070086000BF0C48006842
:10B5500000F000700028F9D00948406820F003008E
:10B56000074948600846406840F00200486000BF54
:10B570000348406800F00C000828F9D10CBD000019
:10B58000001002400020024070B5054605262C46FA
:10B5900009E0052003F0A6F9D4E90220521D40F18C
:10B5A0000000C4E9022020680028F2D0002003F047
:10B5B000B3F970BD10B51348006840F0010011499F
:10B5C000086008464068104908400E49486008462F
:10B5D00000680E4908400B4908600846006820F4DE
:10B5E000802008600846406820F4FE0048604FF460
:10B5F0001F008860FFF754FF4FF0006004490860A7
:10B6000010BD0000001002400000FFF8FFFFF6FE32
:10B6100008ED00E0F0B50C46154600220021068C2E
:10B620004FF6FE773E400684028B018C4FF60C7677
:10B6300032407E1C06EA03162E433243104EB042BF
:10B640000ED0104EB0420BD0B0F1804F08D00E4E4D
:10B65000B04205D00D4EB04202D00D4EB04206D1E0
:10B660004FF6FD76314044F00106314305E04FF6D8
:10B67000F576314044F00106314302830184F0BD88
:10B68000002C01400034014000040040000800404C
:10B69000000C0040F0B50C461546002200210026A3
:10B6A000078C4FF6EF7C07EA0C070784028B018CAE
:10B6B0004FF6FF7707EA041640F6FF473A404FF689
:10B6C000FF7707EA03373A434FF6FF7707EA052784
:10B6D0003A43114FB8420ED0104FB8420BD0B0F1E0
:10B6E000804F08D00E4FB84205D00E4FB84202D05E
:10B6F0000D4FB84206D14FF6DF77394046F01007BC
:10B70000394305E04FF65F77394044F0100739437D
:10B7100002830184F0BD0000002C01400034014090
:10B720000004004000080040000C0040F0B50C464A
:10B730001546002200210026078C4FF6FF6C07EA11
:10B740000C070784828B018C4FF6FF7707EA0426EB
:10B750004FF60C773A404FF6FF7707EA03172F436F
:10B760003A43114FB8420ED0104FB8420BD0B0F14F
:10B77000804F08D00E4FB84205D00E4FB84202D0CD
:10B780000D4FB84206D14FF6FF57394046F4807747
:10B79000394305E04FF2FF57394044F4807739438D
:10B7A00082830184F0BD0000002C01400034014080
:10B7B0000004004000080040000C0040F0B50C46BA
:10B7C0001546002200210026078C4EF6FF7C07EA72
:10B7D0000C070784828B018C4FF6FF7707EA04364B
:10B7E00040F6FF473A404FF6FF7707EA05273A430E
:10B7F0004FF6FF7707EA03373A43114FB8420ED0AE
:10B80000104FB8420BD0B0F1804F08D00E4FB84265
:10B8100005D00E4FB84202D00D4FB84206D14DF6BA
:10B82000FF77394046F48057394305E047F6FF5724
:10B83000394044F48057394382830184F0BD0000CD
:10B84000002C01400034014000040040000800408A
:10B85000000C004010B500240121880700F089F990
:10B8600018B10121880700F06EF90121880700F066
:10B8700080F920B10121880700F065F95AE008211C
:10B88000C80600F076F9012854D10821800700F09D
:10B890005AF92D48006848B94FF0804000F062F92D
:10B8A0002A49086001202849086043E026480068CA
:10B8B00001283FD1800700F055F925490860084666
:10B8C00000682249096888420CDD214800681F4948
:10B8D0000968401AC1171F4B0CCB801859411D4AEB
:10B8E00003C20FE0194800684FF6FF71081A1849A3
:10B8F00009680844C117174AD2E90032C0185141FB
:10B90000144A03C214480068401C134908603C28CC
:10B910000DD10A2200230F4903C9FCF7EEFC0F4AA0
:10B9200003C200200B4A106050600B4908600020E1
:10B93000054908603CB14FF0805009490860BFF3E9
:10B940004F8FBFF36F8F10BDD0000020C8000020C4
:10B95000CC000020D8000020E0000020E8000020FB
:10B9600004ED00E010B500240121614800F001F968
:10B9700020B101215E4800F0E6F8AEE008215C4805
:10B9800000F0F7F8012854D10821594800F0DBF8FD
:10B990005848006840B9564800F0E4F85649086035
:10B9A00001205449086098E0524800680128E4D119
:10B9B0004F4800F0D7F851490860084600684E49E2
:10B9C000096888420CDD4D4800684B490968401AF7
:10B9D000C1174B4B0CCB80185941494A03C20EE0AA
:10B9E000454800684FF6FF71081A44490968084441
:10B9F000C117434B0CCB80185941414A03C24148FF
:10BA00000068401C3F4908603C280ED10A220023F0
:10BA10003B4903C9FCF771FC3B4A03C20021384A89
:10BA200011605160002037490860002031490860EA
:10BA300053E010212E4800F09CF801284DD1102130
:10BA40002B4800F080F83148006840B9284800F0E1
:10BA50008CF82F49086001202C4908603DE02B48F4
:10BA60000068012839D1224800F07FF82949086090
:10BA7000084600682649096888420ADD25480068AA
:10BA800023490968401A2449096808442249086082
:10BA90000CE01F4800684FF6FF71081A1D4909683D
:10BAA00008441D49096808441B4908601B48006890
:10BAB000401C1A4908603C280CD1174800680A212C
:10BAC00090FBF1F0C117164A03C20020124908602A
:10BAD0001249086000200D4908603CB14FF08050C9
:10BAE00010490860BFF34F8FBFF36F8F10BD000088
:10BAF0000008004088000020800000208400002012
:10BB00009000002098000020A0000020B00000203D
:10BB1000A8000020AC000020B4000020B8000020E5
:10BB2000C000002004ED00E021B1028842F0800254
:10BB3000028004E002884FF67F731A40028070474B
:10BB4000CA4302827047CA430282704721B1028809
:10BB500042F00102028004E002884FF6FE731A40B0
:10BB6000028070470146888F70470146B1F8400057
:10BB7000704730B50246002000230024158A05EAEC
:10BB80000103958905EA010413B10CB1012000E01D
:10BB9000002030BD70B505460C46244885420ED0C5
:10BBA000234885420BD0B5F1804F08D0214885420B
:10BBB00005D02148854202D02048854200D100E0CE
:10BBC00000BF208850B92389A28861882846FFF7E2
:10BBD00021FDE188284600F03EF925E02088042870
:10BBE0000AD12389A28861882846FFF753FDE1889E
:10BBF000284600F039F917E0208808280AD123895F
:10BC0000A28861882846FFF791FDE188284600F068
:10BC100038F909E02389A28861882846FFF7CEFD1C
:10BC2000E188284600F036F970BD0000002C014084
:10BC3000003401400004004000080040000C0040B7
:10BC40001AB183890B43838102E083898B4383810B
:10BC50007047000070B5002400220023058C4FF6C9
:10BC6000FE7635400584028C8388048B4FF68F75F1
:10BC70002C40B51E2C400D882C43751E2A400D8982
:10BC80002A434D882A43144DA8420BD0134DA84295
:10BC900008D0134DA84205D0124DA84202D0124D33
:10BCA000A84213D14FF6F7752A404D892A434FF623
:10BCB000FB752A408D882A434FF6FF652B404FF6CF
:10BCC000FF552B408D892B43CD892B4383800483E3
:10BCD000CD888586028470BD002C0140003401406F
:10BCE0000040014000440140004801400A46002154
:10BCF000018B4FF6F7731940114301837047000021
:10BD000070B5002400220023058C4FF6EF763540F5
:10BD10000584028C8388048B48F6FF752C404FF60F
:10BD2000FF452C400D884FF6FF7606EA05252C438B
:10BD30004FF6DF752A400D8906EA05152A434D881E
:10BD400006EA05152A43154DA84202D0144DA84213
:10BD50001DD14FF67F752A404D894FF6FF7606EAD2
:10BD600005152A434FF6BF752A408D8806EA05154A
:10BD70002A434FF6FF352B404FF2FF752B408D893C
:10BD800006EA85052B43CD8906EA85052B4383808A
:10BD90000483CD880587028470BD0000002C01401B
:10BDA000003401400A460021018B4FF2FF73194015
:10BDB0004FF6FF7303EA0223194301837047000023
:10BDC00070B5002200230024058C4EF6FF76354026
:10BDD0000584038C8488828B48F6FF752A404FF6D1
:10BDE000FF452A400D884FF6FF7606EA05252A43CF
:10BDF0004DF6FF752B400D8906EA05352B434D881E
:10BE000006EA05352B430B4DA84202D00A4DA84245
:10BE100008D14BF6FF752C408D894FF6FF7606EA68
:10BE200085152C4384808283CD88A0F840500384FC
:10BE300070BD0000002C0140003401400A46002182
:10BE4000818B4FF2FF7319404FF6FF7303EA022311
:10BE5000194381837047028B4FF6F3731A400283B4
:10BE6000028B0A4302837047028B4FF2FF331A4062
:10BE70000283028B4FF6FF7303EA01231A43028306
:10BE80007047828B4FF6F3731A408283828B0A438A
:10BE900082837047828B4FF2FF331A408283828BFA
:10BEA0004FF6FF7303EA01231A43828370470000B1
:10BEB000002202881D4B98420ED01D4B98420BD099
:10BEC000B0F1804F08D01B4B984205D01A4B9842D6
:10BED00002D01A4B984204D14FF68F731A404B8808
:10BEE0001A43174B984207D0164B984204D04FF68E
:10BEF000FF431A40CB881A4302808B8883850B88C6
:10BF000003850A4B98420BD0094B984208D00E4B40
:10BF1000984205D00D4B984202D00D4B984201D16A
:10BF20000B7A03860123838270470000002C0140B6
:10BF3000003401400004004000080040000C0040B4
:10BF40000010004000140040004001400044014047
:10BF50000048014000B58DB001216A48FEF728F97C
:10BF600001216948FEF724F94FF48050ADF8140020
:10BF700010208DF8170003208DF8160005A96348DE
:10BF8000FEF78AF84FF480516048FEF764F901210A
:10BF90000820FEF7E7FE40F60800ADF81400182070
:10BFA0008DF8170001208DF8160005A95748FEF7F7
:10BFB00073F801210420FEF7D5FE4FF40040ADF8E0
:10BFC000140018208DF8170001208DF8160005A91F
:10BFD0004F48FEF761F801210820FEF7C3FE4FF439
:10BFE0008060ADF8140048208DF8170003208DF80C
:10BFF000160005A94548FEF74FF801210846FEF74F
:10C0000091FE49F64040ADF82C002320ADF8280001
:10C010000020ADF82E00ADF82A000AA94FF08040AC
:10C02000FFF746FF6020ADF818000120ADF81A00B8
:10C0300040F6B830ADF81E000020ADF8200006A98B
:10C040004FF08040FFF706FE0821C806FFF74EFEBE
:10C0500006A94FF08040FFF753FE0821C806FFF7FE
:10C06000A1FE06A94FF08040FFF7AAFE0821C806EE
:10C07000FFF7E4FE0820ADF808000020ADF80A0044
:10C080000120ADF80C000020ADF80E000120ADF845
:10C09000100002A98007FFF77DFD01218807FFF747
:10C0A00043FD01218807FFF74BFD01221146900750
:10C0B000FFF7C6FD01218807FFF748FD4FF44070E8
:10C0C000FEF70EFC1C208DF804000F208DF80500F3
:10C0D00000208DF8060001208DF8070001A8FEF76A
:10C0E000C7FB01220821C806FFF7AAFD40F6B830B9
:10C0F0004FF080418886088788870020054908809E
:10C100000DB000BD0002300000031800000C01401B
:10C11000000801404000004010B50022002340F616
:10C120006A14A14200D100BF0A1201249440A3B2B4
:10C13000DC43048010BD70B50246002400230025B6
:10C14000002040F66A16B14200D100BFC1F342158B
:10C1500001F01F03012606FA03F3012D02D196898F
:10C16000334006E0022D02D1168A334001E0968A60
:10C1700033400C12012606FA04F41688344013B139
:10C180000CB1012000E0002070BDF0B50346002492
:10C1900000260025002040F66A17B94200D100BFF2
:10C1A0001846C1F3421401F01F06012707FA06F5ED
:10C1B000012C01D10C3004E0022C01D1103000E040
:10C1C00014301AB107682F43076002E00768AF43D5
:10C1D0000760F0BD01468888C0F308007047C1F3CE
:10C1E000080282807047000030B585B0142168468F
:10C1F000FCF7C5FB324C6A4600213248FCF7FFFFD2
:10C20000206808B1206A08B105B030BD0198C0F3BC
:10C21000C165019820F07C40A062E06910B101285E
:10C220004AD120E0022D0CD19DF80A200DF10B011E
:10C23000E06AFCF72DFB012020629DF80A00606295
:10C2400010E0012D02D10020606236E09DF80A2046
:10C250000DF10B01E06AFCF71BFB9DF80A00606220
:10C260000120E06129E01DB900206062E06122E068
:10C27000012D0ED1636AE16AC8189DF80A200DF1FC
:10C280000B01FCF705FB9DF80A10606A0844606228
:10C2900011E0636AE16AC8189DF80A200DF10B01EC
:10C2A000FCF7F6FA9DF80A10606A08446062012003
:10C2B00020620020E06100E000BF00BF00BFA3E7F4
:10C2C000F03300200064004010B500210748FCF75F
:10C2D00010FE00210548FCF758FD00210348FCF73B
:10C2E0005FFD00210248FDF759FC10BD002401400C
:10C2F0000800024010B5014600200A4613781B06CC
:10C30000547803EB0443947803EB0423D47818198E
:10C3100010BD00002DE9F0410648008803F018FB2D
:10C3200006460022044B03F063FB044603F09CFA2C
:10C33000BDE8F0817C00002080E106401CB5FEF7DE
:10C34000AFF8FEF7B9F900200A2103468022CDE9B3
:10C35000001002A1044802F077FE1CBD42746D6714
:10C360005461736B00000000158F000810B5FFF7D3
:10C37000ABFF10BD7CB5F0252946094800F01EF939
:10C3800004460CB900207CBD00200B21034680220E
:10C39000CDE9001003A1064802F056FE2046F2E760
:10C3A00045230100437564705461736B0000000005
:10C3B000759B000810B50446206800B910BD2046E2
:10C3C000FEF7D6FB2046FEF7F5FB00BFF6E77CB58F
:10C3D00004460D4616460020019000235A1E1946B9
:10C3E000E06C02F089FC00BF206800B92AE06069B7
:10C3F000FDF7E5FF042800D224E00022042101A873
:10C400006369FDF7E4FF6069FDF7D9FF0199083121
:10C41000884200D216E00198B04203DD4FF0FF30B1
:10C4200001900FE0042101A86269FDF733FF0421A8
:10C4300068466269FDF72EFF626928460199FDF79B
:10C4400029FF00BF00BF00231A461946E06C02F026
:10C4500041FD01987CBD7FB504460D46002620684D
:10C4600010B9002004B070BD00235A1E1946E06CBC
:10C4700002F042FC00BFA069FDF7A4FF0299083159
:10C48000884200D210E0042102A8A269FDF73DFF16
:10C49000042103A8A269FDF738FFA2692846029982
:10C4A000FDF733FF012600BF00BF00231A461946DF
:10C4B000E06C02F00FFD3046D4E710B5044620686A
:10C4C00000B910BD01206060204600F021F800BFD7
:10C4D000F7E70000F0B5C1B0044604262046FCF79B
:10C4E0006DF9451CF82D02DD002041B0F0BD2B4652
:10C4F0002246314601A800F098F90746E0233A4663
:10C5000001A902480068FFF7A6FFEEE76C000020D3
:10C5100010B50446206800B910BD0020206000223C
:10C5200002210248FCF7D8FD00BFF5E70064004097
:10C53000F0B5C1B0044605262046FCF73FF9451C7E
:10C54000F82D02DD002041B0F0BD2B4622463146D9
:10C5500001A800F06AF90746E0233A4601A902481B
:10C560000068FFF778FFEEE76C00002070B5054625
:10C57000002404480CC804480021FBF7BEFE044612
:10C58000204670BDE800002080841E0008B501220E
:10C5900069460248FDF7D5FC009808BD04FC010877
:10C5A0000548006810B9002001467047024801683C
:10C5B000D1E90201F9E700005C00002070B50646F1
:10C5C0000D46104C206808B1002070BD012002F01B
:10C5D00065FBE0642846FDF7FBFFA66025614FF48C
:10C5E000A0610948FDF739FE60614FF4A06107487A
:10C5F000FDF733FEA061012020600548E06220467F
:10C60000E3E70000F03300204034002040390020F0
:10C61000403E002010B54FF400410803FEF76AF9D0
:10C6200062B6FFF7B3FFF02807D0FFF7AFFFEF28A0
:10C6300003D000F072F900BFFEE7FEF7B5FD00F091
:10C6400027F800F0EDF90649086000F04FF80549B9
:10C650000860FFF78FFE04490860FFF76FFE10BD0A
:10C6600074000020680000206C0000202DE9F041DB
:10C6700004460D46FFF794FF06460F46A01B75EBD8
:10C68000070002D20120BDE8F0810020FBE7000096
:10C690001CB545F25550FDF7FDFE0420FDF7EEFEFA
:10C6A0004FF41A70FDF7F0FEFDF7E0FEFDF7D6FE41
:10C6B00000200D2103468022CDE9001002A105488B
:10C6C00002F0C2FC1CBD0000497764675461736BC3
:10C6D000000000003DA8000870B504460D46282261
:10C6E00021462846FCF719F9012070BD30B589B004
:10C6F000174C34212046FCF742F914B9002009B048
:10C7000030BD03A8FEF74CFB039860600499A1605C
:10C710000599E1600698A0610798E06107206070C4
:10C7200020756075A075E07500F0B5F8094D04F14D
:10C7300030000A2123464FF40072CDE9001006A113
:10C74000284602F081FC0120A0622046D7E70000C5
:10C75000A033002079C70008594A5F4D74637454B0
:10C7600061736B0070B504460D46282229462046A9
:10C77000FCF7D3F8012070BD2DE9F04F8FB0834650
:10C7800014200790DA4639E008A818220AF11001AF
:10C7900006906846FCF7C1F89AE80F00FDF7CEFA5C
:10C7A0001B4ADDE90810C2E90010DDE90A10C2E900
:10C7B00002109AF8000003F0CBF8154AC2E9040110
:10C7C000DAF80C0003F0ADF80446DDE90C633246FC
:10C7D00002F036FE80469AF8002000F065F89AF8DC
:10C7E000000018B90020CAF8100004E00020FFF78C
:10C7F000BDFECAF81000142002F074F8DAF82C001C
:10C800000028C1D0002002F087F80FB0BDE8F08FFB
:10C81000D833002010B50446A06A00B910BD00F05E
:10C8200075F80120E06200BFF8E72DE9F047044603
:10C830000E46914698460025F027E12F00D1E027CB
:10C84000320E28466D1C2254C6F3074228466D1C42
:10C850002254C6F3072228466D1C225428466D1C1C
:10C8600026543A0E28466D1C2254C7F30742284628
:10C870006D1C2254C7F3072228466D1C22542846FB
:10C880006D1C2754601942464946FCF701F808EB35
:10C890000500BDE8F08710B5FEF722FAFDF7DAFBD8
:10C8A000FFF758FB10BD00002DE9F04104460D468E
:10C8B000164601218807FFF746F90022114B204652
:10C8C000294602F0BDFD074602F0FEFF4FF0804111
:10C8D000888600220B4B2046294602F0B1FD074610
:10C8E00002F0F2FF4FF08041088706EB861000EB64
:10C8F00080004FF6FF7101EAC00003490880012063
:10C90000BDE8F0810070A7404000004010B5002154
:10C910004FF08040FFF71AF910BD10B545F25550A1
:10C92000FDF7B8FD0420FDF7A9FD0120FDF7ACFDE2
:10C93000FDF79CFDFDF792FD10BD0000F0B5C1B004
:10C9400007460D46164600244FF4807201A90E4892
:10C950000068FFF73CFD0446002C12DDAC4203DD0D
:10C960004FF0FF3041B0F0BD01A8FFF7C3FC3060CD
:10C97000A4F1080203A93846FBF78AFFA4F10800D6
:10C98000F0E72046EEE700006C00002010B586B00E
:10C9900004466846FEF704FA60680090A0680190BB
:10C9A000E06802906846FEF735FD06B010BD000055
:10C9B000F0B5C1B004460E462046FBF7FFFE451C0D
:10C9C000F82D02DD002041B0F0BD2B462246314655
:10C9D00001A8FFF72AFF0746E0233A4601A90248CB
:10C9E0000068FFF738FDEEE76C0000202DE9F0410C
:10C9F000064614461D46FFF7D3FD074688463919FB
:10CA000048EB0500C6E90010BDE8F08100BF05E075
:10CA10004FF4167001F066FFFEF7A4FAF8E7000085
:10CA20001CB5102001F01AFE04460CB900201CBDF4
:10CA3000002020606060A060E06014212346802216
:10CA4000CDE9001003A1074802F0FEFA0648046091
:10CA50002046ECE7537973436C6F636B5461736BDF
:10CA60000000000089B500085C0000200121016081
:10CA7000704700001CB500BF4FF4807001F0EEFD60
:10CA8000044600BF00BF02F059F87320114B12A2F8
:10CA90004FF4C07100901648FBF760FC1448FFF794
:10CAA00019FD02F011FC00BF13E0052001F01AFF90
:10CAB00001AA4FF480712046FFF740FF002808DDEF
:10CAC0000198062805D00198082802D02046FDF7D5
:10CAD00035FFEAE7DF06010825733A25643A20624C
:10CAE0006F6F74202D2D2D2D3E20757365720A00F9
:10CAF0004043002010B508480068FFF7B7FF07481B
:10CB00000068FFF787FE06480068FFF7D6FCFFF7CE
:10CB10002DFC01F09BFE10BD740000206800002079
:10CB20006C000020490050EAC12018BF04204A0DC3
:10CB300018BF40F0010040F2FF72B2EB515F08BF36
:10CB400040F00200012808BF052070472DE9F041A0
:10CB50004F1E00EBC7010446D1E9000115461E46F1
:10CB600037F006020DD02A46334602F041FF7F1E01
:10CB700004EBC703D3E9002302F062FC37F006029E
:10CB8000F1D1022F25D0042F13D0062F18BFBDE8F6
:10CB9000F0812A46334602F02BFFD4E90A2302F043
:10CBA0004FFC2A46334602F023FFD4E9082302F063
:10CBB00047FC2A46334602F01BFFD4E9062302F065
:10CBC0003FFC2A46334602F013FFD4E9042302F067
:10CBD00037FC2A46334602F00BFFD4E9022302F069
:10CBE0002FFC2A46334602F003FFD4E90023BDE8B8
:10CBF000F04102F025BC0000002213461046014916
:10CC000002F0DABC0000F03F02F01ABC002213462A
:10CC10001046114602F0D0BC40F2013200204FF025
:10CC2000E04103F04FBB0000024A0020110703F06F
:10CC300049BB000001FDFFFF30380A2801D2012066
:10CC400070470020704770B504461BE02568A08936
:10CC500000F4807020B9A06810B1A068FFF7F3FF5E
:10CC6000A08900F4807020B9206910B1206901F01A
:10CC70000FFE206A10B1206A01F00AFE204601F082
:10CC800007FE2C46002CE1D170BD70B505460E465E
:10CC9000AC6800E024682CB13146206A00F04AF804
:10CCA0000028F7D1204670BD10B5282001F0D6FC31
:10CCB00004461CB128212046FBF761FE204610BD2A
:10CCC00010B5044600221146204600F001F810BDC0
:10CCD0002DE9F04780460D4616460024FFF7E4FF95
:10CCE00007460020124908600FB9BDE8F0874046AA
:10CCF00001F032FD81464946384600F0E9FC044621
:10CD000024B93846FFF79FFF0020EEE766B12046C2
:10CD100001F022FD0446207830B13846FFF793FF3A
:10CD2000034804600020E0E705B12C603846DCE7EA
:10CD30006000002070B504460D462CB9AC4201D00D
:10CD4000012070BD0020FCE70DB90120F9E705E0E6
:10CD5000207808B90020F4E7641C6D1C2078FBF7EC
:10CD6000F0FA06462878FBF7ECFA8642F0D02078F5
:10CD7000FBF7E7FA06462878FBF7E3FA301AE0E714
:10CD80002DE9F04F89B006460F4607E0984A994BC7
:10CD90003046394603F052F806460F46944A954B02
:10CDA0003046394602F022FFF0D907E0904A914B15
:10CDB0003046394602F044FB06460F460022134631
:10CDC0003046394602F0D8FDF0D3002213463046F3
:10CDD000394602F00BFF39D8874A884B304639462E
:10CDE00002F0CAFD32D232463B463046394602F0A6
:10CDF000FFFD32463B46CDE9000102F0F9FD8246D7
:10CE000032463B4602F0F4FD00227D4BCDE90201A3
:10CE100002F0D2FB00227B4BCDE9060130463946B9
:10CE200002F0E6FD32463B46CDE9020102F0E0FDAC
:10CE300082460022744B02F00FFFCDE90401DDE9C8
:10CE4000062302F0FDFA80468946CBE06A4A6B4B26
:10CE50003046394602F0CAFE41D8674A6B4B30462D
:10CE6000394602F089FD3AD2634A684B304639466A
:10CE700002F0F2FE04460D4622462B462046294685
:10CE800002F0B6FD824622462B4602F0B1FD224654
:10CE90002B46CDE9000102F0ABFD0022584BCDE955
:10CEA000020102F089FB22462B46CDE90601002053
:10CEB000544902F09DFD824622462B4602F098FD21
:10CEC0000022514BCDE9020102F0B8FFCDE9040187
:10CED000DDE9062302F0B2FF8046894682E0464A39
:10CEE0004A4B3046394602F081FE41D8484A494B08
:10CEF0003046394602F040FD3AD23F4A434B304675
:10CF0000394602F09BFF04460D4622462B4620463A
:10CF1000294602F06DFD22462B46CDE9000102F0C4
:10CF200067FD824622462B4602F062FD0022344B0A
:10CF3000CDE9020102F040FB22462B46CDE9060175
:10CF40000020304902F054FD22462B46CDE9020173
:10CF500002F04EFD824600222B4B02F06FFFCDE91E
:10CF60000401DDE9062302F069FF8046894639E0C5
:10CF7000214A204B3046394602F06EFE04460D46EB
:10CF800022462B462046294602F032FD22462B46F9
:10CF9000CDE9000102F02CFD22462B46CDE902012D
:10CFA00002F026FD82460022154B02F005FB2246C8
:10CFB0002B46CDE906010020124902F019FD8246F8
:10CFC00022462B4602F014FD00220F4BCDE9020150
:10CFD00002F042FECDE90401DDE9062302F030FA59
:10CFE000804689464046494609B0BDE8F08F0000BA
:10CFF00044174154FB21194050455254FB21F93F3D
:10D00000000038400000E03F0000F03FFB210940F5
:10D01000FCB33D7F7CD91240002107E042F6E0617D
:10D0200000BF0A1EA1F1010399B2FAD1021EA0F1BC
:10D03000010398B2F2D170471CB54FF4C870FFF7E6
:10D04000EBFFFFF7E7FA084C00200A2103464FF4F4
:10D050008062CDE9001005A1204601F0F5FF01F046
:10D060003BFD00201CBD000075CA00084D61696EC3
:10D070005461736B000000002DE9F04705460C4633
:10D0800020785B2804D0264804600020BDE8F087A3
:10D090000520E860601C01F05FFB044620785D28F5
:10D0A00001D1601CF2E7FFF7FFFD0646A860A86803
:10D0B00008B90020EAE7204601F04EFB80464146D1
:10D0C000304600F005FB074601F046FB04460CB96C
:10D0D0000020DBE717E0FFF7E7FD071E00D1D5E7EB
:10D0E00037607E603E46601C01F036FB8146494653
:10D0F000304600F0EDFA804601F02EFB04460CB9F4
:10D100000020C3E700BF20782C28E4D020785D28D9
:10D1100001D1601CBAE7024804600020B6E70000B5
:10D1200060000020014600220878302806DB0878DD
:10D13000392803DC08783038024415E008784128A3
:10D1400006DB0878462803DC0878373802440BE011
:10D150000878612806DB0878662803DC08785738E9
:10D16000024401E0002070471201491C0878302871
:10D1700006DB0878392803DC08783038024415E0EB
:10D180000878412806DB0878462803DC0878373819
:10D1900002440BE00878612806DB0878662803DC87
:10D1A00008785738024401E00020DCE71201491CEE
:10D1B0000878302806DB0878392803DC087830380E
:10D1C000024415E00878412806DB0878462803DC8D
:10D1D0000878373802440BE00878612806DB0878C5
:10D1E000662803DC08785738024401E00020BAE7DB
:10D1F0001201491C0878302806DB0878392803DC3E
:10D2000008783038024415E00878412806DB0878B1
:10D21000462803DC0878373802440BE00878612898
:10D2200006DB0878662803DC08785738024401E0FA
:10D23000002098E7104696E72DE9F04F8BB0834623
:10D240008A460020044605460026674F002188468E
:10D2500089460990012008909AF800002D2802D1F3
:10D26000624F0AF1010A9AF80000302801D10AF150
:10D27000010A9AF80000312822DB9AF800003928C8
:10D280001EDC00BF1AF8011BA1F1300002F049FBBF
:10D290000022574BCDE906012046294602F0A8FBA3
:10D2A000CDE90401DDE9062302F0CAF804460D4683
:10D2B0009AF80000302803DB9AF800003928E1DDF5
:10D2C0009AF800002E2830D19AF8010030282CDB83
:10D2D0009AF80100392828DC0AF1010A00BF1AF87F
:10D2E000011BA1F1300002F01CFB0022404BCDE9F4
:10D2F00006012046294602F07BFBCDE90401DDE969
:10D30000062302F09DF804460D460022364B4046A7
:10D31000494602F093FD804689469AF8000030287D
:10D3200003DB9AF800003928D9DD9AF80000652857
:10D3300003D09AF80000452823D10AF1010A9AF88F
:10D3400000002B2802D10AF1010A08E09AF8000037
:10D350002D2804D14FF0FF3008900AF1010A08E0AF
:10D360001AF8010B3038099901EB810100EB4100FB
:10D3700009909AF80000302803DB9AF80000392859
:10D38000EEDDDDE9082101FB02F002F0CAFA4246B7
:10D390004B46CDE9000102F053F802460B46CDE9B9
:10D3A00002010020124900F0F1F922462B46CDE996
:10D3B00006013046394602F01BFBCDE90401DDE9E8
:10D3C000062302F015FB04460D46CBE90645204630
:10D3D000294602F049FACBF814000320CBF80C00E0
:10D3E00050460BB0BDE8F08F0000F03F0000F0BFEA
:10D3F000000024402DE9F04706460C4620787B28A3
:10D4000004D0404804600020BDE8F0870620F060AA
:10D41000601C01F0A1F9044620787D2801D1601C30
:10D42000F2E7FFF741FC0546B060B06808B900209C
:10D43000EAE7204601F090F980464146284600F090
:10D4400063F8074601F088F904460CB90020DBE7D1
:10D45000286928620020286120783A2803D02948CA
:10D4600004600020D0E7601C01F076F98046414658
:10D47000284600F02DF9074601F06EF904460CB974
:10D480000020C1E731E0FFF70FFC071E00D1BBE72A
:10D490002F607D603D46601C01F05EF98146494683
:10D4A000284600F031F8804601F056F904460CB9E0
:10D4B0000020A9E7286928620020286120783A28FE
:10D4C00003D01048046000209EE7601C01F044F97E
:10D4D00081464946284600F0FBF8804601F03CF9B9
:10D4E00004460CB900208FE700BF20782C28CAD052
:10D4F00020787D2801D1601C86E702480460002066
:10D5000082E70000600000202DE9F05F8346884636
:10D5100008F10104002798F80000222805D06A4885
:10D52000C0F800800020BDE8F09F04E014F8011B63
:10D530005C2900D1641C2078222804D0207810B106
:10D54000781C071EF2D1781C01F088F88146B9F1E9
:10D55000000F01D10020E6E708F101044D469EE0EE
:10D5600020785C2804D014F8010B05F8010B96E034
:10D57000641C2078722818D006DC622809D066283E
:10D580000BD06E287ED10CE0742812D07528F9D10A
:10D5900013E0082005F8010B7FE00C2005F8010BD3
:10D5A0007BE00A2005F8010B77E00D2005F8010B60
:10D5B00073E0092005F8010B6FE0601CFFF7B2FD76
:10D5C0000646241DB6F55C4F02D3B6F5604F00D376
:10D5D00006B962E0B6F5584F1CD3B6F55C4F19D2C8
:10D5E00060785C2802D1A078752800D055E0E01C56
:10D5F000FFF798FD8246A41DBAF55C4F02D3BAF539
:10D60000604F00D349E0C6F30901504661F39F2003
:10D6100000F580360427802E01D2012708E0B6F5F8
:10D62000006F01D2022703E0B6F5803F00D2032746
:10D630003D44012F20D0022F15D0032F0AD0042FF4
:10D6400024D106F0BF0040F08001681E054601703D
:10D65000B60900BF06F0BF0040F08001681E054615
:10D660000170B60900BF06F0BF0040F08001681EDF
:10D6700005460170B60900BF1448C05D3043C1B211
:10D68000681E00E005E00546017000BF00BF3D4494
:10D6900003E0207805F8010B00BF00BF641C207870
:10D6A000222803D0207800287FF45AAF0020287069
:10D6B0002078222800D1641CCBF810900420CBF8ED
:10D6C0000C0020462FE7000060000020D006010873
:10D6D00070B505460C460CB9002070BD042224A18B
:10D6E0002046FBF78AF818B90220E860201DF4E70D
:10D6F000052221A12046FBF780F818B90020E86038
:10D70000601DEAE704221EA12046FBF776F820B947
:10D710000120E8606861201DDFE72078222804D11D
:10D7200021462846FFF7F0FED7E720782D2805D0C0
:10D730002078302807DB2078392804DC2146284669
:10D74000FFF77AFDC9E720785B2804D121462846F7
:10D75000FFF792FCC1E720787B2804D121462846B8
:10D76000FFF748FEB9E7084804600020B5E700006D
:10D770006E756C6C0000000066616C7365000000E3
:10D780007472756500000000600000202DE9F04D06
:10D790001D460C4698B0174621F0004123F0004387
:10D7A000002814BF4FF0010C4FF0000C0CEB440CA0
:10D7B000FE4A0CEB02064FEA620C66452BD33E0094
:10D7C00018BF012606EB45061644F94A964222D3B5
:10D7D000F84A53EA070C02D0944205D148B918B070
:10D7E00000201146BDE8F08D002808BF4FF0000C66
:10D7F00001D04FF0010C0CEB440212F5001F0AD8C7
:10D80000002F14BF4FF0010C4FF0000C0CEB450241
:10D8100012F5001F07D918B03A462B462146BDE83D
:10D82000F04DFFF7F1B90022DFF88CA3002CB8BF50
:10D83000534526DADFF884C36345A8BF022220DA05
:10D84000DFF870C39C451CDCDFF874C30CEB235C71
:10D85000BCF1140F08DDCCF1340627FA06FC0CFAF3
:10D8600006F6BE420DD108E05FB9CCF1140623FAEA
:10D8700006FC0CFA06F69E4203D10CF00102C2F13E
:10D88000020251EA000C19D1002D17DA002C18BF42
:10D89000022A01D0012A07D00220FBF763F918B051
:10D8A000BDE8F04DFFF7A8B90220FBF75BF9FFF7E1
:10D8B000A3F918B081F00041BDE8F08DB7F1000C7C
:10D8C0006CD1534525D104F1804212F5801201BF7D
:10D8D00000280020B74918B008BFBDE8F08DB54852
:10D8E000884207DC002DA1BF6046294618B0BDE87C
:10D8F000F08D07E0281E05DA80F0004118B0604680
:10D90000BDE8F08DAF497944D1E9000118B0BDE818
:10D91000F08DDFF8A0C2634525D1002D1FDA19B1C3
:10D92000514512D1D8B909E0002840F0EC82A24A52
:10D93000214618B062F31E01BDE8F08D002021469B
:10D9400018B060F31E01BDE8F08D08DA18B0234668
:10D95000BDE8F04D02460020614601F02DBE18B032
:10D960002146BDE8F08D514518DAB5F1804F0DD054
:10D97000A5F1005CBCF1FF5C10D1B4F1000C0DDB33
:10D9800018B06146BDE8F04D00F0EFBE234618B078
:10D990000246BDE8F04D194602F02AB8060024F010
:10D9A000004C3BD1D9B1514533D1002C06DD002DBF
:10D9B000A1BF0020514618B0BDE8F08D002C01DD5C
:10D9C000002D1BDB002C13DA002D11DB012A4FF098
:10D9D000000014BF78497C4918B0BDE8F08D022AD8
:10D9E00018BF002C0AD0012A08D1002C06DA0AE060
:10D9F000002CB8BF002D11DA012A04D0002018B085
:10DA00000146BDE8F08D18B000204FF00041BDE8A0
:10DA1000F08DA1F14050B0F17F601AD0012000EBF1
:10DA2000E47050EA020421D0624C521E4FF0000B09
:10DA3000104304BF4FF0000B644C654883427CDD0B
:10DA4000644A654893421FDD884217DB002D25DBC1
:10DA500037E0002C00DA4AB1022A0CBF01204FF057
:10DA6000FF3018B0BDE8F04D01F05BBF0120FBF7BF
:10DA700079F818B0BDE8F04DFFF7C8B84D4A8A42B2
:10DA800002DC002D0ADC1CE0814202DA002D18DAEB
:10DA900004E0484B994220DD002D12DD0220FBF707
:10DAA00061F8FFF7B9F805460E460022534658467E
:10DAB000214601F09DFF18B066F31E012846BDE81F
:10DAC000F08D0220FBF74EF8FFF7AEF80A4621462C
:10DAD00018B062F31E01BDE8F08D002230466146A9
