:020000040800F2
:10800000F0420020D1820008D9820008DB820008FB
:10801000DD820008DF820008E18200080000000025
:10802000000000000000000000000000398200088D
:10803000E5820008000000007D820008E5FC0008E1
:10804000EB820008EB820008EB820008EB8200085C
:10805000EB820008EB820008EB820008EB8200084C
:10806000EB820008EB820008EB820008EB8200083C
:10807000EB820008EB820008EB820008EB8200082C
:10808000EB820008EB820008EB820008EB8200081C
:1080900069C40008EB820008EB820008EB8200084C
:1080A000EB820008EB820008EB820008EB820008FC
:1080B00091C00008EB820008A1C10008EB82000813
:1080C000EB820008EB820008EB820008EB820008DC
:1080D000EB8200080000000029FC0008EB82000889
:1080E000EB820008EB820008EB82000800F002F847
:1080F00000F093F80AA090E8000C82448344AAF1AF
:108100000107DA4501D100F088F8AFF2090EBAE8AC
:108110000F0013F0010F18BFFB1A43F001031847BB
:10812000CC9A0000EC9A00000A444FF0000C10F8C2
:10813000013B13F0070408BF10F8014B1D1108BFE5
:1081400010F8015B641E05D010F8016B641E01F885
:10815000016BF9D113F0080F1EBF10F8014BAD1CD5
:108160000C1B09D16D1E58BF01F801CBFAD505E0F3
:1081700014F8016B01F8016B6D1EF9D59142D6D34D
:10818000704700000023002400250026103A28BF75
:1081900078C1FBD8520728BF30C148BF0B60704779
:1081A000662909F09C82652909F09982672909F0FE
:1081B0009682612909F09582692900F07B81642902
:1081C00000F07881752900F075816F2900F00C822C
:1081D000782900F033820368DB0928BF41F0800171
:1081E000632901F00881732901F00D81E32901F071
:1081F0001881002070471FB501F044F904000020E9
:10820000002108F013F9401C60600020002108F0F4
:1082100023F9E0601FBD10B510BD01F02FFA114623
:10822000FFF7E9FF05F0F6FE01F04DFA03B4FFF7A2
:10823000F2FF03BC01F050FA224B19680868B0E85D
:10824000F00F80F30988BFF36F8F4FF0000080F3C9
:1082500011884EF00D0E70470000000006480068BF
:10826000006880F3088862B661B6BFF34F8FBFF332
:108270006F8F00DF00BF00BF08ED00E0EFF3098063
:10828000BFF36F8F0F4B1A6820E9F00F106008B52D
:108290004FF0BF0080F31188BFF34F8FBFF36F8F94
:1082A00007F092FC4FF0000080F31188BDE8084011
:1082B00019680868B0E8F00F80F30988BFF36F8F82
:1082C000704700BF1C000020EFF3058070470000DE
:1082D0000948804709480047FEE7FEE7FEE7FEE75A
:1082E000FEE7FEE7FEE7FEE7FEE7FEE70448054996
:1082F000034A054B7047000031C00008ED800008BC
:10830000F0400020F0420020F040002070B504460C
:10831000051F00F0D7FB0068002C14BF446870BD37
:10832000002C18BFAC423CBF20466468F8D30168FB
:108330000A18AA4218BF456003D12A6805461144AD
:10834000016028684119A1421CBF6C6070BD616862
:10835000696021680844286070BD10B54C1084EA3B
:10836000530404D54042C1F1000138BF491E1B42ED
:1083700004D55242C3F1000338BF5B1E00F0A6FBD8
:1083800014F0804F04D04042C1F1000138BF491EB3
:1083900014F0004F04D05242C3F1000338BF5B1EFB
:1083A00010BD10B5044600F085FB0068005DC006F6
:1083B00002D504F1200010BD204610BD0FB41CB53D
:1083C0000C0007AA009001D02044401E074B7B44BC
:1083D00069460190069800F0E4FF002C03D069463E
:1083E000002000F0F1FF1CBC5DF814FB0110000040
:1083F00070B5044685690068C10601D5302600E0E5
:108400002026C00707D070BDD4E90121304690472F
:10841000206A401C20626D1EF6D570BD70B5044602
:1084200085690078C00707D170BDD4E901212020FB
:108430009047206A401C20626D1EF6D570BD096809
:108440004A0501D540B27047C905FCD500B2704756
:1084500009684A0501D5C0B27047C905FCD580B28C
:10846000704770B50C460546012A05D0287880066D
:1084700000D5EA69002302E0012305E05B1C93427A
:1084800002D2E05C0028F9D1A869E618C01AA861F8
:10849000286A184428622846FFF7AAFF04E0D5E9B5
:1084A000012114F8010B9047B442F8D32846FFF796
:1084B000B5FF70BD2DE9F04106460024106875290E
:1084C000314616A510D0FFF7BAFF002802DA404265
:1084D00013A507E031688A0701D512A502E0490714
:1084E00004D511A5012401E0FFF7B2FF00210A2203
:1084F00006F1240709E0B0FBF2FCB0FBF2F302FB4B
:108500001C00303078541846491C0028F3D123460B
:108510002A463046BDE8F04100F05ABB000000009A
:108520002D0000002B000000200000002DE9FF5F5F
:1085300015468A460446DFF8AC80F8440027D8E99F
:1085400000103E46CDE9001010E03AF816106A46D9
:1085500002A800F072FF411C07D02178890603D5DC
:10856000E269391891420DD80744761C20788006BC
:1085700002D5E069B84205DDAE42E6DB3AF8160006
:108580000028E2D1A069C01BA0612046FFF730FFA0
:10859000D8E90010CDE90010002017E03AF81810D3
:1085A0006A4602A800F049FFB0F1FF3F81460BD0B8
:1085B00000250DF1080B05E0D4E901211BF80500A9
:1085C00090476D1C4D45F7D308F10100B04280463D
:1085D000E4DB206A384420622046FFF71FFFBDE835
:1085E000FF9F0000BA92000070B504462146106853
:1085F000FFF72EFF002104F1240505E000F007023B
:108600003032C0086A54491C0028F7D12068002382
:1086100008A2050708D500F02000084304D0E0694F
:10862000012305A2401EE0612046BDE8704000F035
:10863000CFBA0000000000003000000070B5044612
:108640000D4621461068FFF703FF2188090502D572
:108650000F4A7A4402E00E4A7A440E32002104F1B5
:10866000240305E000F00F060009965D5E54491CE6
:108670000028F7D120780023000704D5702D02D000
:1086800009B1022311322046BDE8704000F0A0BAC3
:10869000AA9100002DE9F05F894604464FF0000AD8
:1086A000DFF874B1FB44C0F820A02046E168884799
:1086B000002874D0252806D0D4E901219047206AEB
:1086C000401C2062F1E700265F462046E1688847AB
:1086D0002028054607DB312D05D2781910F8200C2B
:1086E00008B10643F1E7B00701D526F00406C4F847
:1086F0001CA00027C4F818A02A2D09D0284604F091
:108700007BFE38B304EB8708303DC8F8185019E0F9
:1087100059F8041B204604EB87029161E168884701
:10872000012F054618D1E069002820DA26F020063E
:108730001DE0D8F8180000EB800005EB4000303851
:10874000C8F818002046E1688847054604F054FE42
:108750000028EED1012F0AD02E2D08D12046E16845
:1087600088477F1C0546022F46F02006C4DBA0691F
:10877000002803DA404246F00106A061F00701D06C
:1087800026F010066C2D0BD0682D09D04C2D39D059
:108790006A2D35D0742D35D07A2D33D016E038E0DF
:1087A000E1682F4620468847B842054609D16C2F1C
:1087B00026D04FF48060E16806432046884705468E
:1087C00004E06C2F1AD04FF4807006430DB3A5F16E
:1087D0004100192802D8203546F400664A46294649
:1087E000204626604E46FFF7DBFC80B101280BD007
:1087F000F61D26F0070000F1080956E74020E4E7DF
:108800008020D8E70020D6E706F104094DE7284686
:1088100052E7206ABDE8F09F8091000010B5431C2C
:1088200002E010F8011B71B18107FAD14FF001325B
:1088300002C88C1A8C4314EAC211F9D0C01A0A0675
:1088400003D0C01E10BDC01A10BD0A0401D0801E86
:1088500010BD0902FCD0401E10BD40EA010370B5F6
:108860009B072ED14FF00136042A2AD308C810C91D
:108870009D1B9D43121F15EAC61517D0D8B2E1B251
:10888000401A50EA056110D198B2A1B2401A50EADC
:1088900005410AD123F07F4024F07F41401A50EA7D
:1088A000052102D1180EA0EB146070BDA342DBD0ED
:1088B00018BA21BA884201D9012070BD4FF0FF30AB
:1088C00070BD0AB9002070BD10F8013B11F8014BD2
:1088D00063B1A3420AD1521E08D010F8013B11F82F
:1088E000014B1BB1A34201D1521EEDD1181B70BD2B
:1088F000032A40F2308010F0030C00F0158011F8CC
:10890000013BBCF1020F624498BF11F801CB00F8A3
:10891000013B38BF11F8013BA2F1040298BF00F8F7
:1089200001CB38BF00F8013B11F0030300F02580B4
:10893000083AC0F0088051F8043B083A51F804CBDB
:10894000A0E80810F5E7121D5CBF51F8043B40F8A1
:10895000043BAFF30080D20724BF11F8013B11F8AC
:1089600001CB48BF11F8012B24BF00F8013B00F8F0
:1089700001CB48BF00F8012B704710B5203AC0F07A
:108980000B80B1E81850203AA0E81850B1E8185010
:10899000A0E81850BFF4F5AF5FEA027C24BFB1E84D
:1089A0001850A0E8185044BF18C918C0BDE81040BE
:1089B0005FEA827C24BF51F8043B40F8043B08BFC7
:1089C0007047D20728BF31F8023B48BF11F8012B8E
:1089D00028BF20F8023B48BF00F8012B70474FF03A
:1089E000000200B5134694469646203922BFA0E8FF
:1089F0000C50A0E80C50B1F12001BFF4F7AF09070B
:108A000028BFA0E80C5048BF0CC05DF804EB8900FB
:108A100028BF40F8042B08BF704748BF20F8022B3E
:108A200011F0804F18BF00F8012B70474FF0013C48
:108A300050F8042B51F8043B9A4221D1A2EB0C03CD
:108A4000934313EACC1317D150F8042B51F8043B8D
:108A50009A4215D1A2EB0C03934313EACC130BD12A
:108A600050F8042B51F8043B9A4209D1A2EB0C03B5
:108A7000934313EACC13DBD04FF00000704700BFE4
:108A8000D01A01BAB1FA81F101F0180122FA01F00D
:108A9000CB40C1F12001DBB2C0B2C01A2CFA01F305
:108AA000D11A914311EAC311E6D17047704770475C
:108AB0007047000010B500F0E5FC001D10BD00BFC0
:108AC0006D790000004870479840002053EA020C7E
:108AD00000F069802DE9F04B4FF00006002B1FBF1E
:108AE000B3FA83F503FA05F424FA05F65E4012BFE3
:108AF0001643B2FA82F502FA05F4C5F120051EBF4D
:108B000022FA05FC44EA0C04203556EA044C4FEAEC
:108B1000144418BF641C4FF000084FF00009904245
:108B200071EB030C39D3002919BFB1FA81F701FAAF
:108B300007F6B0FA80F700FA07F6C7F120071EBF64
:108B400020FA07FC46EA0C062037B6FBF4FCA7EB3C
:108B50000507103F07F01F0BCBF120060CFA0BFBAB
:108B60002CFA06F644BFB3460026202FA4BF5E466B
:108B70004FF0000B5BEA060C08BF4FF0010B19EB3E
:108B80000B09ABFB027C48EB0608C01B06FB02CCC2
:108B90000BFB03CC71EB0C01C1E70B4602464146CF
:108BA0004846BDE8F08B13B54FF000004FF00001D0
:108BB000AFF30080BDE81C40704710B500F066FCC4
:108BC000006810BD10B5044600F060FC046010BDE4
:108BD0002DE9F0470D4699469246044600F12408D7
:108BE0000168880604D5E06921F01001216000E0E9
:108BF0000120A84201DD471B00E00027A1697A1986
:108C000002EB0900081AA0612078C00602D42046B1
:108C1000FFF7EEFB002608E0D4E901211AF8060070
:108C20009047206A401C761C20624E45F4DB207879
:108C3000C0060AD52046FFF7DBFB06E0D4E9012198
:108C400030209047206A401C2062381EA7F101079F
:108C5000F4DC07E0D4E9012118F805009047206A08
:108C6000401C2062281EA5F10105F3DC2046FFF719
:108C7000D5FB2078000602D50220BDE8F087012050
:108C8000FBE770472DE9FF4F0C461E464FF0FF37BC
:108C90008BB0D2E90001DDF860800A908A46C1F30A
:108CA0000A5505B93D46002108464FF00000BAF1CB
:108CB000000F00F4400005DA00EB80004FF44001A3
:108CC00001EA50004FEA9059B9F1010F00DDB946B1
:108CD0000A9850EA4A000ED044F61050A5F2FF352B
:108CE00045432F14B8F1000F1ED07542291E1EDD1A
:108CF000C9F100021CE0B8F1010F4FF0000001D0F3
:108D0000302103E0F24305E02154401CB042FBDB7C
:108D100030460022002121540B99C1F80880C1E996
:108D200000200FB0BDE8F08FBD1B6D1CDEE74A468A
:108D300000DA694206A800F033FC06AB93E80700AE
:108D400003AB83E8070050460A9900F0CCFC8DE89D
:108D50000700A0F500501F3800900398002D09DD92
:108D600042F21F014A46084403A90390684600F0F6
:108D70002BFF08E0A0F500504A461F3803A90390D6
:108D8000684600F035FF8DE807000004000C03D0B2
:108D90004FF0FF30410800E01046B8F1000F03D05B
:108DA0000022009215461EE0751E05D400F072FBED
:108DB000303262556D1EF9D5B3460122084302D008
:108DC00000227F1C04E02078302801D100227F1E81
:108DD000002A099786D01DE0112D07DA00F05AFB12
:108DE000303262556D1C50EA0102F5D1084302D0C1
:108DF0000098C8B10EE00021681E05E0235C625CAB
:108E000063542254401E491C8142F7DBAB46A81B29
:108E1000401E0990002004F80B000B98099AC0F836
:108E20000880C0E9002B7CE711264FF0000859E7C5
:108E30002DE9F04F88460446D21D22F0070191B07B
:108E4000D1E90001CDE90A0103F092FF02460B9837
:108E5000C00F01D02D2007E02068810701D52B200D
:108E600002E0202101EAC000032A099001D0072A6C
:108E700005DB03464146204600F052FB0BE120781B
:108E8000800601D5E06900E00620B8F1650F814653
:108E900006D0B8F1660F18D0B8F1670F70D131E085
:108EA0000020B9F1110F009001DB112301E009F15D
:108EB00001030AAA01A90CA8FFF7E4FEDDE90C7082
:108EC000002609F10105834647E001204B4600904A
:108ED0004FF000470AAA01A90CA8FFF7D3FEDDE96D
:108EE0000DB00C995D46002610B909F101000D186E
:108EF000B9EB050003D4C0F1FF3609F10105A5EB7C
:108F000009002BE0B9F1010F01DA4FF0010900204F
:108F1000B9F1110F0090484601DD112300E003462E
:108F20000AAA01A90CA8FFF7ADFEDDE90C704D46B9
:108F300000268346207800070AD4AB4500DA5D4658
:108F400001A8012D04DD411911F8011C302907D0B9
:108F50004F4502DA17F1040F04DA012082460FE0D0
:108F60006D1EEEE7002F02DCED1B3E4403E0781C93
:108F7000A84200DD7D1CB81B00F1010A4FF000473C
:108F80002078000703D4AA4501DB4FF0FF3A002107
:108F9000B7F1004F0DF143088DF8431024D00220A3
:108FA0002B23002F01DA7F422D230A21021EA0F17C
:108FB000010000DC5FB197FBF1FC97FBF1F201FBD4
:108FC0001C7C17460CF1300C08F801CDEEE7A8F137
:108FD000010003702188090501D5452100E06521C4
:108FE000A0F1010800F8011C09980FA9A1EB0807DE
:108FF000FF1D00B10120411901EBEA70A16938445D
:10900000081A401EA0612078C00602D42046FFF74F
:10901000EFF9099828B1D4E901219047206A401C52
:1090200020622078C00622D52046FFF7E1F91EE035
:10903000002E04DBB34502DD01A8805D00E0302096
:10904000D4E901219047206A401C2062761CAAF1D5
:1090500001005FEA000A0AD100F014FAC068016852
:10906000405CD4E901219047206A401C2062281E00
:10907000A5F10105DCDC07E0D4E9012118F8010BBA
:109080009047206A401C2062381EA7F10107F3DCDC
:109090002046FFF7C3F9032011B043E62DE9F04F56
:1090A00004460D46D21D22F0070089B0D0E9009792
:1090B0004846394603F05CFE0246F80F01D02D23E6
:1090C00007E02068810701D52B2302E0202101EA77
:1090D000C0038DF820300BB1012000E00020032AEE
:1090E000824601D0072A04DB2946204600F018FA00
:1090F0003FE12078800601D40D2500E0E569C7F343
:109100000A560D2D49DA00214FEA175B08464FF049
:109110000000002F00F4400007DA00EB80004FF45D
:10912000400100EBD07001EA60008115012901DDEA
:109130004FF0FF3100224FEA850CBCF1180F06D327
:109140001346ACF118004FF08052C24003E04FF4D8
:10915000801323FA0CF30CF10C0CBCF1200F04D398
:10916000ACF1200C09FA0CF001E007FA0CF0002930
:109170004FF0004801DD18B90FE00ED140450CD387
:1091800019EB02095F4121B9404502D19F4329EA09
:109190000209BBEB175F00D0761C2088000502D5C2
:1091A0007B48784402E07A487844193808AA30238A
:1091B00002F80A30037C0AF10101002E0AF1020ACA
:1091C00053546A4602DC4FF0300101E04FF03101A8
:1091D0004FF001088DF8001002D0A6F2FF3603E030
:1091E00059EA470100D06B4E002D02DC21780907B7
:1091F00004D54FF002082E218DF80110C44600213D
:109200000BE0C7F303433F01C35C491C6D1E02F82A
:109210000830052908F1010801DA002DF1DC0021F0
:109220000CE000EB1973491C1B786D1E082902F82D
:1092300008304FEA091908F1010801DA002DF0DCC5
:1092400021688B0602D516E0A8F10108E04505DD8E
:1092500002EB080313F8013C302BF5D0B8F1000FF6
:1092600009DD02EB080313F8013C2E2B03D109079B
:1092700001D4A8F10108002D05DD3E2102F80810F7
:109280006D1E08F10108407C002E02F8080008F16C
:10929000010804DA2D20764202F8080002E02B20B3
:1092A00002F808000A214FF47A70864208F101089A
:1092B0000BDB96FBF0F3303302F8083096FBF0F34B
:1092C00008F1010800FB136601E0642E0CDB64204A
:1092D00096FBF0F3303302F8083096FBF0F308F118
:1092E000010800FB136601E00A2E06DB96FBF1F095
:1092F000303002F8080008F1010896FBF1F001FB9C
:109300001060303002F80800A16908F1010808EB8C
:10931000050202EB0A00081AA0612078C00602D4F8
:109320002046FFF765F8216A08AE01EB0A002062CB
:1093300004E0D4E9012116F8010B9047BAF1010AC3
:10934000F7D22078C00602D52046FFF751F86E46C6
:1093500009E016F8010B3E280FD0D4E9012190470F
:10936000206A401C2062B8F10108F2D22046FFF7C3
:1093700055F809B00320BDE8F08F206A2844206228
:1093800003E0D4E90121302090476D1EEBD3F8E7CC
:109390008587000002FCFFFF01694A1C0261087812
:1093A000704700B58FB0CDE9013100210591054925
:1093B0007944CDE9031011466846FFF76BF90FB009
:1093C00000BD0000E5FFFFFF0A6802F8010B0A601C
:1093D0007047D1E900239A4202D2531C0B601070EF
:1093E000704710B5436913B1AFF3008001E0FFF798
:1093F00038F8012010BD127800F124010A70002213
:109400004A700122EDE711684FF0FF32E9E710B52D
:10941000436913B1AFF3008001E0FFF787F8012043
:1094200010BD128800F1240182840022C28401222E
:10943000EDE711684FF0FF32E9E770B516460C46CC
:109440000546FFF737FB036893F80101012806D0B2
:10945000FF2C0FD8185D68B101202C7070BDD3F8B7
:1094600007013246214603F2071303442846BDE8AC
:10947000704018474FF0FF3070BD00000048704743
:109480009040002000487047B040002000487047DE
:109490009040002030B5B0F10A024FEA900E71F111
:1094A00000034EEA817EB0EB0E0061EB91014FEAC2
:1094B000101E4EEA017E10EB0E0041EB11114FEA37
:1094C000102E4EEA016E10EB0E0041EB11214FEA17
:1094D000104E4EEA014E10EB0E0041EB11414018C8
:1094E00041F100014FEAD00040EA41704FEAD1015A
:1094F00010EB80054FEA810444EA907444EB0104C8
:109500006D1944EB0404521BA3414FF0000348BF04
:109510000A3200D530BD401C41F1000130BD0000D1
:109520002DE9F0411F46044603260168072A01F48D
:10953000006004DB08B116A505E016A503E008B13C
:1095400015A500E015A521F010002060A069C01E3F
:10955000A0610FB1401EA0612046FEF749FF4FB148
:10956000D4E9012138469047206A401C2062C01C83
:10957000206206E0206AFAE7D4E9012115F8010B20
:109580009047761EF8D22046FEF748FFBDE8F081EE
:109590004E414E006E616E00494E4600696E660097
:1095A0002DE9F047814616468AB0334878440DC805
:1095B0008DE80D0030487844801C03AC0DC884E869
:1095C0000D0041F69B300844372190FBF1F290FBEF
:1095D000F1F5A5F1800501FB12041B3C02D56442A4
:1095E000012000E00020DFF890A080460027FA4428
:1095F000AAF1BE0A0DE0E00709D03246684607EB43
:1096000047010AEB810100F0F3FA8DE807006410CE
:109610007F1C002CEFD1184F7F44AC3F18E0E807C7
:1096200014D007EB04100DF1180A90E80E008AE838
:109630000E00C068F04201D198190890324606A980
:1096400003A800F0D5FA03AB83E807006D10641C93
:10965000002DE4D132466946B8F1000F03A802D0CC
:1096600000F0B2FA01E000F0C3FAC9E90001C9F85C
:1096700008200AB0BDE8F087CC8500007546FFF7EA
:10968000FDFEAE4605006946534620F007008546BC
:1096900018B020B5FEF72AFEBDE820404FF00006C6
:1096A0004FF000074FF000084FF0000B21F00701CA
:1096B000AC46ACE8C009ACE8C009ACE8C009ACE80D
:1096C000C0098D46704710B50446AFF300802046B0
:1096D000BDE81040FEF7AABD01491820ABBEFEE769
:1096E0002600020070475FEA400C08BF91F0000FAF
:1096F0004FEA8C234FEAC12243EA51514FEA1C50F2
:1097000018BF00F5F0404FEA300018BF41F00041AB
:109710005FEA6C5C00F02980BCF1FF3F08BF40F0BD
:1097200080407047130C06BF12044FF0100C4FF02E
:10973000000C130E04BF12020CF1080C130F04BF2F
:1097400012010CF1040C930F04BF92000CF1020CF7
:10975000D30F04BF52000CF1010C11464FF0000270
:10976000A0F11F00A0EB0C00704711F0004F08BFE4
:10977000704731F000413FF4D5AF0B0C06BF090430
:109780004FF0100C4FF0000C0B0E04BF09020CF14F
:10979000080C0B0F04BF09010CF1040C8B0F04BF64
:1097A00089000CF1020CCB0F04BF49000CF1010C35
:1097B000CCF12003A0EB0C0022FA03F302FA0CF226
:1097C00041EA030100F10100704720F07F4C80EA7C
:1097D000030023F07F47ACEB070303F57C5300F055
:1097E000004003F1FF032DE980494FEA154B09B40E
:1097F0004FEA144325EA0B4E24EA03480FF20426ED
:1098000006EB132749083E785FEA320203FB06673E
:10981000C7F5000707FB06F64FEA54374FEAD6466E
:1098200006F1020607FB066CCCF1005C4FEA1C4710
:109830002CEA074C07FB06F40CFB06F504EB154677
:109840004FEA961634BF00204FF000404FEAD13760
:1098500006FB07FC4FEA1C4C0CFB0BF7D21B03FB6F
:109860000CF761EB07010CFB0EF7B0EB074072EB56
:1098700017420CFB08F734BFA2EB0742B2EB0742DA
:1098800061EB17414FEA0C444FEA910706FB07FCD6
:109890004FEA1C4C0CFB0BF7B0EBC74072EB573296
:1098A00003FB0CF734BFA2EBC742B2EBC74261EB3C
:1098B00057310CFB0EF7B0EBC70072EB57720CFB85
:1098C00008F734BFA2EBC702B2EBC70261EB5771D6
:1098D000039F4FEA816141EA921104EBCC044FEA05
:1098E000D1374FEA826206FB07FC42EA90124FEA48
:1098F00080604FEA1C4C0CFB0BF7D21B03FB0CF7F0
:1099000061EB07010CFB0EF7B0EB074072EB17425F
:109910000CFB08F734BFA2EB0742B2EB074261EB46
:1099200017414FEA8C554FEA910704EB9C2406FB44
:1099300007FC4FEA1C4C0CFB0BF7B0EBC74072EB7B
:10994000573203FB0CF734BFA2EBC742B2EBC7425E
:1099500061EB57310CFB0EF7B0EBC70072EB57729F
:109960000CFB08F734BFA2EBC702B2EBC70261EBF6
:10997000577115EB4C254FEA816141EA92114FEA8C
:1099800082624FEAD13742EA901206FB07FC44F1AB
:1099900000044FEA80604FEA1C4C0CFB0BF7D21B13
:1099A00003FB0CF761EB07010CFB0EF7B0EB074074
:1099B00072EB17420CFB08F734BFA2EB0742B2EB85
:1099C000074261EB174115EB1C154FEA813141EA63
:1099D00092414FEA823242EA90424FEA80304FEAA7
:1099E0000C7644F1000448EA03434EEA0B484FF07A
:1099F000000EB2EB080C71EB030724BF6246394638
:109A00004EEB0E0E4FF0000B0018524149414BEB4C
:109A10000B0BB2EB080C71EB03077BF1000B24BFBF
:109A2000624639464EEB0E0E4FF0000B00185241C5
:109A300049414BEB0B0BB2EB080C71EB03077BF1CD
:109A4000000B24BF624639464EEB0E0E51EA020768
:109A500018BF46F0010616EB0E7655F1000254F1E0
:109A6000000103D5BDE88901BDE80088BDE8890192
:109A7000BDE80048B619524141EB0101A3F10103D1
:109A8000704780807F7E7D7C7B7A7978777676756B
:109A90007473727171706F6E6E6D6C6C6B6A6A69E3
:109AA0006868676666656464636362616160605F7D
:109AB0005F5E5E5D5D5C5C5B5B5A5A5959585857F6
:109AC000575656555555545453535252525151505E
:109AD00050504F4F4F4E4E4D4D4D4C4C4C4B4B4BB1
:109AE0004A4A4A49494948484847474747464646F7
:109AF0004545454444444443434343424242424132
:109B00004141002B26D4770021D01CB54FEA3707FE
:109B100003B44FF010004FF010014FF000000FBCE5
:109B2000BDE810400BF1010BBBF1010F08BF5FEA6C
:109B3000170722BF12F1010211F101014FF000419C
:109B400043F1000300F0004043EA00007047F9D3FE
:109B50005708DAE746EA064613F1400F4FEA164681
:109B60001FDD13F1200FDFBF16430A46002120330B
:109B70005B42C8D0C3F1200746EA064602FA07F75F
:109B80004FEA164646EA0706C3F1200722FA03F217
:109B900001FA07F721FA03F14FF0000342EA070246
:109BA000B1E746EA020646EA06464FEA164646EAA4
:109BB0000106BCBF46EA0646360C4FF000034FF0E4
:109BC00000024FF000019EE72DE9C048934630B4F3
:109BD00091E8380007C831EA400C48BF34EA430C2A
:109BE00003D5FFF7F2FDFFF78CFFF0BCBDE800885E
:109BF0002DE9C048934630B491E8380007C810F00A
:109C0000804F08BF13F0804F03D100F005F8FFF735
:109C100078FFF0BCBDE8008820F07F4780EA0300B1
:109C200023F07F4C07EB0C03A3F57C5300F00040BE
:109C3000A3F1FE0392F0000F00F0B38095F0000F47
:109C400000F077802DE901494FEA11404FEA1446B0
:109C500021EA004800FB06FC24EA064708FB06F65A
:109C600007FB08F800FB07F718EB06484CEB164C0F
:109C70004FEA124B18EB07484FEA15464CEB1740DA
:109C800022EA0B4E0BFB06FC25EA06470EFB06F606
:109C900007FB0EFE0BFB07F71EEB064E4CEB164CBC
:109CA0004FF000061EEB074E4CEB174B18EB0B0862
:109CB00040F1000018EB0E0B58EB000840F10000DB
:109CC0008F1A4FF000013CBFC943661B14BFB5EBB0
:109CD000040C00213CBFC943F61B4FEA17444EEA6F
:109CE0008E0E27EA04454FEA1C4704FB07622CEA64
:109CF000074C05FB07F70CFB05F604FB0CFC16EB09
:109D0000074642EB174216EB0C4642EB1C421BEB9C
:109D1000060658EB0202414146EA9E0601D5BDE81F
:109D20000189B619524141EB0101A3F10103BDE8DC
:109D300001894FEA14454FEA114724EA054621EA12
:109D4000074C05FB07F406FB07F70CFB06F105FBC8
:109D50000CFC11EB074144EB17444FEA124711EB9F
:109D60000C4144EB1C4422EA074C05FB07F206FBBE
:109D700007F70CFB06F605FB0CFC16EB074642EB5F
:109D8000174216EB0C4642EB1C456A1854F10001D1
:109D900048BF7047B619524141EB0101A3F10103DD
:109DA000704795F0000F37D04FEA11424FEA144741
:109DB00021EA024624EA074C02FB07F106FB07F7FB
:109DC0000CFB06F402FB0CFC14EB074441EB1741BF
:109DD0004FEA154714EB0C4441EB1C4125EA074CB4
:109DE00002FB07F506FB07F70CFB06F602FB0CFC73
:109DF00016EB074645EB174516EB0C4645EB1C42A8
:109E0000121951F1000148BF7047B619524141EB98
:109E10000101A3F1010370474FEA14454FEA1147CE
:109E200024EA054621EA074C05FB07F106FB07F784
:109E30000CFB06F24FF0000605FB0CFC12EB074290
:109E400041EB174112EB0C4251EB1C4148BF7047EC
:109E5000921841EB0101A3F10103704710B5104BBB
:109E6000D86019615A610F4B9B890F4CA489041B60
:109E700063431BB20D4C23800A4B1B8A0A4C248A75
:109E80000C1B63431BB20A4C2380064B9B8A064C77
:109E9000A48A141B63431BB2064C238010BD000030
:109EA000C43F002050010020DC3F0020840100203E
:109EB000860100208801002010B504460B4884422A
:109EC00009D10121480601F06BFE00214FF000701E
:109ED00001F066FE08E00121880601F061FE002124
:109EE0004FF0806001F05CFE10BD00000064004097
:109EF00010B50021837A012202FA03F13D4A12686B
:109F000042F001023B4B1A603A4A1C3212688A4303
:109F1000384B1C331A60027BCAB9364A0C321268BD
:109F20008A43344B0C331A604288C38842EA0343A5
:109F3000304A4032847A42F834300288838842EAD8
:109F400003432C4A4032847A02EBC4025360027B02
:109F5000012A19D1274A0C3212680A43254B0C33C7
:109F60001A604288038842EA0343224A4032847AD4
:109F700042F83430C288838842EA03431D4A4032A3
:109F8000847A02EBC4025360C27A3AB9194A121DAC
:109F900012688A43174B1B1D1A6006E0154A121DF2
:109FA00012680A43134B1B1D1A60028932B9114A09
:109FB000143212688A430F4B14331A600289012A43
:109FC00006D10C4A143212680A430A4B14331A6041
:109FD000427B012A06D1074A1C3212680A43054B0C
:109FE0001C331A60034A126822F00102014B1A6006
:109FF00010BD0000006600401AB143690B43436185
:10A0000002E043698B434361704730B5024600204C
:10A010000023146824F002041460146844F001045E
:10A02000146000E05B1C546804F001041CB94FF696
:10A03000FF74A342F6D1546804F001040CB9002067
:10A040006CE08C79012C04D1146844F08004146015
:10A0500003E0146824F080041460CC79012C04D14E
:10A06000146844F04004146003E0146824F04004D1
:10A0700014600C7A012C04D1146844F0200414609C
:10A0800003E0146824F0200414604C7A012C04D1FD
:10A09000146844F01004146003E0146824F0100401
:10A0A00014608C7A012C04D1146844F00804146004
:10A0B00003E0146824F008041460CC7A012C04D165
:10A0C000146844F00404146003E0146824F00404E9
:10A0D00014608C78A407CD7844EA05640D7944EACD
:10A0E00005444D7944EA05540D886D1E2C43D46116
:10A0F000146824F001041460002300E05B1C546821
:10A1000004F001041CB14FF6FF74A342F6D1546869
:10A1100004F001040CB1002000E0012030BD10B5B6
:10A1200000F5D87303EB01131B6803F004031372EB
:10A13000137A53B900F5D87303EB01131B6840F28F
:10A14000FF7404EA5353136009E000F5D87303EB7E
:10A1500001131B686FF0604404EAD303536000F5F9
:10A16000D87303EB01131B6803F00203537200F56D
:10A17000D87303EB01135B6803F00F03937200F5D0
:10A18000D87303EB01135B681B0AD37400F5D87313
:10A1900003EB01139B68D37200F5D87303EB011333
:10A1A0009B681C0A147300F5D87303EB01139B68BA
:10A1B0001C0C547300F5D87303EB01139B681B0E42
:10A1C000937300F5D87303EB0113DB68D37300F5C9
:10A1D000D87303EB0113DB681C0A147400F5D87301
:10A1E00003EB0113DB681C0C547400F5D87303EB0C
:10A1F0000113DB681B0E937421B9C36843F020037D
:10A20000C36003E0036943F02003036110BD002134
:10A210008171C171017241728172C1728170C170AC
:10A22000032101710221417101210180704710B5A4
:10A2300002460020936803F08063B3F1806F00D181
:10A2400010E0936803F00063B3F1006F01D10120C7
:10A2500008E0936803F08053B3F1805F01D10220DE
:10A2600000E00420042874D002F5C07303EB00134F
:10A270001B6803F0010402F5C07303EB00131C60BC
:10A280000B7A7BB94B7A0C8843EA445302F5C074CD
:10A2900004EB00142468234302F5C07404EB00149B
:10A2A000236010E00B7A4C6843EAC4034C7A2343E2
:10A2B00002F5C07404EB00142468234302F5C07453
:10A2C00004EB001423608B7A03F00F038B7202F50A
:10A2D000C07303EB00135B6823F00F0402F5C07337
:10A2E00003EB00135C6002F5C07303EB00135B68C3
:10A2F0008C7A234302F5C07404EB001463608B7BFB
:10A300001C064B7B44EA03440B7B44EA0323CC7AD0
:10A31000234302F5C07404EB0014A3608B7C1C067D
:10A320004B7C44EA03440B7C44EA0323CC7B234369
:10A3300002F5C07404EB0014E36002F5C07303EB94
:10A3400000131B6843F0010402F5C07303EB001314
:10A350001C6010BD10B502460024042303E0D05C4D
:10A360002044C4B25B1CC81E9842F8DC105CA042BA
:10A3700001D0002010BD0120FCE700002DE9F74FBF
:10A3800088B00C4691464048006806F067FE0746D4
:10A3900003F0CCFC054606F075F805903A480068D5
:10A3A00006F05CFE074605F0C5F9054606F06AF8BA
:10A3B00004903648006806F051FE074603F0B6FCEC
:10A3C000054606F05FF803903048006806F046FE48
:10A3D000074605F0AFF9054606F054F802904846E6
:10A3E00006F0B4FF8046059906F0FCFF0746029987
:10A3F00006F0F8FF0546204606F0A8FF01900499F4
:10A4000006F0F0FF8346029906F0ECFF0746089835
:10A4100006F09CFF8346039906F0E4FF8046394628
:10A4200006F048FE0646294606F044FE06904846D9
:10A4300006F08CFF0746049906F0D4FF0546204637
:10A4400006F084FF0746059906F0CCFF064629462C
:10A4500007F0D0F88246069806F000FE05460E4644
:10A460008AF0004B584606F0F9FD2A463346CDE9FE
:10A47000000103F011FA074606F004F804490860E9
:10A480000BB0BDE8F08F000094010020980100207F
:10A490009001002070B501F001FC4E48B0F90000B9
:10A4A000A0F2F910C00240F60C5190FBF1F000B29E
:10A4B000494908804948B0F90000F738C00240F621
:10A4C000432190FBF1F000B2454908804548B0F9BE
:10A4D000000000F2B310C00240F6E71190FBF1F06B
:10A4E00000B24149088041480088C01F00B240497D
:10A4F000088040480088C01C00B23F4908803F489F
:10A500000088401C00B23E49088001F077FB3D48BE
:10A51000B0F9000006F01AFF06463B4907F06AF85A
:10A5200005463A4906F05EFF044606F0F3FE00B227
:10A53000374908803748B0F9000006F007FF0646A3
:10A54000354907F057F80546344906F04BFF0446F5
:10A5500006F0E0FE00B2324908803248B0F900004F
:10A5600006F0F4FE0646304907F044F805462F4948
:10A5700006F038FF044606F0CDFE00B22C490880F4
:10A580001F48B0F900201C48B0F900101848B0F975
:10A59000000000F07DFA1448B0F900201048B0F92E
:10A5A00000100D48B0F90000FFF758FC2048B0F942
:10A5B00000201B48B0F900101548B0F90000FFF763
:10A5C000DDFE00F069FF01F0CBF800F05BF800F071
:10A5D00037F970BDF80000200A010020FA000020C1
:10A5E0000C010020FC0000200E010020FE000020D5
:10A5F00010010020000100201201002002010020B3
:10A6000014010020040100200000AC41692C093E27
:10A610001601002006010020008006C394CB0B3EEB
:10A620001801002008010020000010C268AE2C3E76
:10A630001A01002070B50646074C032505E00320EB
:10A6400005F08EF9204602F095F860680028F6D0F3
:10A65000002005F09FF970BDD832002031B505F01B
:10A66000ABFA09E0002400E0641C4CF25030844254
:10A67000FAD30098401E009000980028F2D105F00F
:10A6800061FE38BD2DE9F04F87B05D4A9168906852
:10A6900006F0A8FE5A4A02905168506806F0A2FEE1
:10A6A0008346574A1168106806F09CFE594601908F
:10A6B00006F000FD8146029906F0FCFC804606F09B
:10A6C000CDFC064605F08FF8044605F0DBFE824619
:10A6D0004FF08A41504606F05BFD824651464FF0EE
:10A6E0007E5006F087FF029006F0B8FC21F0004192
:10A6F000064600224FF0804306F0A0F98046002273
:10A70000404B06F0CFFA044605F0BCFE83464FF0FE
:10A710007E52002103F0F6FA03903B4A38493B4849
:10A7200001F026FF039806F099FC0646384A394B9B
:10A7300006F084F9044605F0A5FE804642463349FA
:10A74000354801F05EFF039806F088FC0646334A60
:10A75000334B06F073F9044605F094FE80464246FA
:10A760002A49304801F04DFF2E4A2F49084601F092
:10A77000EBFE2E48006806F071FC044603F0D6FAA2
:10A78000064605F07FFE06902848006806F066FC45
:10A79000044604F0CFFF81F00041064605F072FE4A
:10A7A000059019491839C868069906F01BFE044639
:10A7B000154918390868059906F014FE0546214622
:10A7C00006F018FF049010491948049A01F019FF87
:10A7D000184A1749184801F014FF174A0E4908464D
:10A7E00001F0B2FE154A12490E4801F00AFF0D4A67
:10A7F0000D49084601F0A8FE07B0BDE8F08F000043
:10A80000F43F00200000F03FB80100203C40002051
:10A810007B14AE47E17A843F18400020F168E3885A
:10A82000B5F8E43E84400020244000209001002040
:10A83000484000209A99993F78400020ACC5A7373E
:10A840002DE9F0471B49886906F008FC064602F02E
:10A85000DBFD81F00041044605F014FE1649086056
:10A860001449086A06F0FAFB06460F461149C86902
:10A8700006F0F4FB804632463B4603F00DF80446F2
:10A8800005F000FE0D4908600A49086806F0E6FB7D
:10A89000804689460749C86806F0E0FB06464246FE
:10A8A0004B4602F0F9FF044605F0ECFD0449086050
:10A8B000BDE8F087A001002098010020940100204D
:10A8C0009C01002010B50B46002104E010F8014B5C
:10A8D0005C544C1CA1B29142F8DB10BD70B505462A
:10A8E0000E4614464FF6FF7000EA840231462846B1
:10A8F000FFF7E8FF70BD2DE9F04102460025002674
:10A90000002000230024002791F803C00CF00F055D
:10A9100091F803C00CF0100CBCF1000F03D091F8BB
:10A9200002C04CEA050591F800C0BCF1000F31D01F
:10A93000146800202BE04FF0010C0CFA00F3B1F882
:10A9400000C00CEA03069E4220D183004FF00F0C9A
:10A950000CFA03F7BC4305FA03FC4CEA040491F833
:10A9600003C0BCF1280F06D14FF0010C0CFA00FC1B
:10A97000C2F814C00AE091F803C0BCF1480F05D139
:10A980004FF0010C0CFA00FCC2F810C0401C082863
:10A99000D1D31460B1F800C0BCF1FF0F34DD5468AE
:10A9A00000202EE000F1080C4FF0010808FA0CF32B
:10A9B000B1F800C00CEA03069E4221D183004FF09B
:10A9C0000F0C0CFA03F7BC4305FA03FC4CEA040431
:10A9D00091F803C0BCF1280F05D100F1080C08FA6A
:10A9E0000CF8C2F8148091F803C0BCF1480F07D1ED
:10A9F00000F1080C4FF0010808FA0CF8C2F81080BA
:10AA0000401C0828CED35460BDE8F0812DE9F04108
:10AA10000648006806F022FB0646054A054B06F08C
:10AA20000DF8044605F02EFDBDE8F08198010020E8
:10AA3000B0CB631ADCA54C402DE9F0410648006814
:10AA400006F00CFB0646054A054B05F0F7FF0446E9
:10AA500005F018FDBDE8F08194010020B0CB631A29
:10AA6000DCA54C402DE9F0410648006806F0F6FAF6
:10AA70000646054A054B05F0E1FF044605F002FDD8
:10AA8000BDE8F0819C010020B0CB631ADCA54C40EE
:10AA900010B5104B186059609A600F4B1B880F4C13
:10AAA0002488041B63431BB20D4C23800A4B9B88F4
:10AAB0000A4CA4880C1B63431BB20A4C2380064B30
:10AAC0001B89064C2489141B63431BB2064C23804C
:10AAD00010BD0000C43F002050010020DC3F0020DA
:10AAE0008A0100208C0100208E01002070B50546EF
:10AAF0000E46182004F0A0FD04460CB9002070BDDD
:10AB000018212046FDF76BFF2561206920B92046FA
:10AB1000FDF7FCFB0020F2E72660012005F0FCF8C1
:10AB200060612046EBE72DE9F04106460D461446EC
:10AB30000027002D02DC781EBDE8F08100235A1E9C
:10AB40001946606905F016F9E068A84208DA0023A2
:10AB50001A461946606905F0FBF94FF0FF30EBE744
:10AB6000E068401BE06018E0D4E9001090FBF1F2CF
:10AB700001FB120060606168481C60602069425CF3
:10AB800038467F1C3254AF4207D100231A4619467B
:10AB9000606905F0DDF90120CEE7E5E72DE9F04138
:10ABA00006460D461446002700235A1E19466069C2
:10ABB00005F0E0F8E1682068401AA84208DA0023AE
:10ABC0001A461946606905F0C3F9781EBDE8F081A0
:10ABD000E0682844E06018E02168A06890FBF1F28A
:10ABE00001FB1200A06038467F1C315CA268501C3B
:10ABF000A06020698154AF4207D100231A4619464C
:10AC0000606905F0A5F90120E0E7E5E770B50346C6
:10AC10000024D5681068401B884201DA601E70BDB0
:10AC200015E01568906890FBF5F605FB160090603E
:10AC30002046641C1D5C9668701C906010698555E8
:10AC40008C4204D1D0680844D0600120E7E7E8E7EF
:10AC50000146C86870470146CB680A68D01A704739
:10AC60002DE9F04781460E4690461C460027002EEF
:10AC700002DC781EBDE8F08700235A1E1946606981
:10AC800005F078F8E068A0EB0800B04208DA00238D
:10AC90001A461946606905F05BF94FF0FF30E9E7A5
:10ACA0006568002706E0206895FBF0F100FB115570
:10ACB0006D1C7F1C4745F6DB002716E0206895FBDE
:10ACC000F0F100FB115528466D1C2269125C3846D4
:10ACD0007F1C09F80020B74207D100231A46194605
:10ACE000606905F035F90120C4E7E7E700B54020C9
:10ACF0000A49086000F0D6F880200849091F08605A
:10AD000000F0D0F840200549091F086000F0CAF89B
:10AD100040200249086000F0C5F800BD140C014055
:10AD200000B50823002280201149086014E0500675
:10AD3000020E40200E49091D086000F0B3F84020C3
:10AD40000B49086000F0AEF809480838006800F0C8
:10AD5000800008B142F00102181EA3F10101CBB23C
:10AD6000E5D140200249091D0860104600BD0000E1
:10AD7000100C014000B50246082319E0402011499B
:10AD8000086000F08FF802F0800020B180200D49AB
:10AD9000091F086002E080200A4908605006020E80
:10ADA00000F080F840200749091F086000F07AF899
:10ADB000181EA3F10101CBB2E0D140200149086087
:10ADC00000BD0000140C014000B58020134908604C
:10ADD0004020086000F066F810480838006808B99C
:10ADE000012000E0002000F0800008B1002000BD3C
:10ADF00080200A49091D086000F054F80748083807
:10AE0000006800F0800008B10020F0E780200349CE
:10AE1000091D086000F046F80120E8E7100C014029
:10AE200000B540200A49086000F03CF8802008493D
:10AE3000086000F037F840200549091F086000F05D
:10AE400031F880200249091F086000F02BF800BD8E
:10AE5000140C014000B540201149086000F022F8B0
:10AE600080200F49091F086000F01CF840200C49A1
:10AE7000091F086000F016F809480C38006800F057
:10AE8000800030B140200649086000F00BF8002037
:10AE900000BD40200249086000F004F80120F7E7F7
:10AEA000140C01401E2001E0411EC8B20028FBD155
:10AEB0007047000010B500200F4908600F48006877
:10AEC00020F070400D4908600846006840F040508E
:10AED000086000200A49C1F89C01022003F08FF8A5
:10AEE000012005490860022003F089F80020044988
:10AEF000C1F8980110BD000098812142000C01406A
:10AF00000080214210B500200F4908600F480068FA
:10AF100020F070400D4908600846006840F040503D
:10AF2000086001200A49C1F89C01022003F067F87B
:10AF3000012005490860022003F061F8002004495F
:10AF4000C1F8980110BD000098812142000C014019
:10AF50000080214270B5054600241748006820F0A3
:10AF60007040154908600846006840F000400860DD
:10AF7000002616E0002011490860022003F03FF887
:10AF800001200F49C1F898016006040E0B487C3877
:10AF9000006808B1601CC4B2012003F030F8701CD6
:10AFA000C6B2082EE6DB15B9FFF7ACFF01E0FFF7EC
:10AFB00081FF204670BD0000000C014098812142B5
:10AFC0000080214270B504461548006820F07040AA
:10AFD000134908600846006840F0405008600020AF
:10AFE00010490860002517E0E0090E49091D0860B6
:10AFF0006006040E022003F002F801200A49C1F89D
:10B000009801022002F0FBFF0020064908600220A0
:10B0100002F0F5FF681CC5B2082DE5DB70BD00002D
:10B02000000C0140988121420080214210B50F4858
:10B03000006820F070400D4908600846006840F044
:10B040004050086001200A4908600A49C1F8980187
:10B05000042002F0D4FF002005490860042002F01B
:10B06000CEFF00200349C1F8980110BD000C01403B
:10B070009C8121420080214210B50F48006820F0D9
:10B0800070400D4908600846006840F04050086074
:10B0900000200A4908600A49C1F89C01042002F016
:10B0A000AEFF0120054908600549C1F89C01042054
:10B0B00002F0A5FF10BD0000000C01409881214264
:10B0C0000080214210B500241448006820F0704030
:10B0D000124908600846006840F0004008600120FE
:10B0E0000F49086002F08BFF01200E49C1F898015A
:10B0F00002F085FF07E0601CC4B2FA2C03DDFFF705
:10B10000BBFF012010BD0648803800680028F2D13E
:10B110000349091F086000BFF4E70000000C01406C
:10B120009C812142008021424CF6CC4001490860BC
:10B1300070470000003000404AF6AA20014908602C
:10B14000704700000030004001494860704700002F
:10B150000030004001498860704700000030004026
:10B1600001490860704700000030004010B588B009
:10B17000044600F035FD00F0A0FA4FF40060ADF891
:10B18000000048208DF8030069463048FFF7B3FB04
:10B190004FF48050ADF8000018208DF80300032014
:10B1A0008DF8020069462948FFF7A5FB2848FEF7FD
:10B1B00083FE05A8FFF72BF800208DF81A008DF804
:10B1C0001B008DF81C008DF81D008DF81E0001205D
:10B1D0008DF81F0000208DF816008DF81700012053
:10B1E0008DF8180002208DF819000620ADF8140023
:10B1F00005A91748FEF709FF00208DF80E008DF80D
:10B200000F0001208DF81000C4F34F30ADF804009A
:10B21000042000EBC40080B2ADF8060043F6FF70D6
:10B22000ADF808004FF6FF70ADF80A000020ADF849
:10B230000C0001208DF8110001A8FEF759FE012233
:10B2400002210348FEF7D8FE08B010BD00080140F7
:10B250000064004010B502223721D02000F0AAFE81
:10B26000D82200213C2000F0A5FE002201213C2034
:10B2700000F0A0FE002202213C2000F09BFE0022F4
:10B280003721D02000F096FE10BD10B500226B21B2
:10B29000D02000F08FFE07221921D02000F08AFE76
:10B2A00006221A21D02000F085FE18221B21D02072
:10B2B00000F080FE19221C21D02000F07BFE10BD82
:10B2C00070B504460D46D4F85815481CC4F8580506
:10B2D00004F5AD604554D4F8540520B101281DD0C3
:10B2E00002287DD151E0D4F85805022800D08AE028
:10B2F00094F86805FA2804D140F26950005DFB28F3
:10B3000008D040F26950005D84F868050120C4F857
:10B31000580578E00120C4F8540574E0D4F85805C5
:10B32000042800D06FE040F26A50005DC4F85C056C
:10B33000D4F85C050002C4F85C0540F26B50005D77
:10B34000D4F85C150844C4F85C05D4F85C05B0F585
:10B35000877F10DD40F26A50005D84F8680540F296
:10B360006B50015D801E01550220C4F85805002075
:10B37000C4F8540547E06422002304F5AC6001F0F2
:10B38000ADFC0220C4F854053DE0D4F86025104619
:10B39000D4F8641501F088FB28B10020C4F85805E2
:10B3A000C4F854052FE0D4F85C05C01DD4F8581536
:10B3B000814200D027E0D4F85805801E04F5AD6125
:10B3C000085CFC280ED1D4F85805401E085CFD2806
:10B3D00008D104F5AD60D4F85815FEF7BBFF00E0C6
:10B3E00010E028B90020C4F85805C4F854050AE054
:10B3F0000020C4F85405C4F858050448006800F05B
:10B4000039FA00E000BF00BF70BD00005800002006
:10B4100000BF04E0642004F0A3FAFFF78DFEF9E713
:10B420002DE9FE4F80468946174600242FE000256F
:10B430002AE0002610E006EB460209EB820252F8F1
:10B44000251004EB440208EB820252F8260005F0B6
:10B45000C9FF4DF82600761C032EECDB002004EB20
:10B46000440107EB810141F82500DDE9000105F009
:10B4700021FE8246029905F01DFE04EB440107EB14
:10B48000810141F825006D1C032DD2DB641C032CC7
:10B49000CDDBBDE8FE8F00002DE9F0475C48B0F938
:10B4A000000005F064FA07465A4A5B4B05F0C6FAFD
:10B4B000054604F0E7FF594908605948B0F9000013
:10B4C00005F055FA0546534A534B05F0B7FA0746BF
:10B4D00004F0D8FF514948605248B0F9000005F027
:10B4E00046FA05464B4A4C4B05F0A8FA074604F0CD
:10B4F000C9FF4A4988604C48B0F9000005F026FFB2
:10B500004A4908604A48B0F9000005F01FFF474962
:10B5100048604848B0F9000005F018FF43498860CA
:10B52000454A3E49454801F00FF8454A43494548D8
:10B5300001F00AF80020444908604448006880F09F
:10B54000004540488168284605F04CFF3E49486068
:10B550003C4841683D48006805F044FF3A4988602E
:10B56000384881683948006805F03CFF3649C860B2
:10B570000021354801613548006880F000453148B8
:10B580000168284605F02EFF2F4948612F480068C2
:10B5900080F000452B484168284605F023FF2A49E2
:10B5A0008861284801682948006805F01BFF264982
:10B5B000C861002124480162254A01462548FFF759
:10B5C0002FFF00241FE04FF0000918E004EB4402B5
:10B5D0001F4B03EB820252F8291004EB44021D4B6F
:10B5E00003EB820252F8290005F064FD04EB4401EC
:10B5F000184A02EB810141F8290009F10109B9F16A
:10B60000030FE3DB641C032CDDDBBDE8F0870000E7
:10B610008A0100204E448C237871513F0040002065
:10B620008C0100208E01002084010020F43F0020C6
:10B6300086010020880100202440002030400020A6
:10B64000184000200C400020C4010020740100209C
:10B6500054400020A00100202DE9F0410746FFF7EB
:10B66000E5FCEE20FFF7AEFC00BFFFF72BFD002846
:10B67000FBD13846FFF7A6FC00BFFFF723FD0028EB
:10B68000FBD1FFF7D3FCEF20FFF79CFC00BFFFF7D7
:10B6900019FD0028FBD10120FFF75CFC04460020C7
:10B6A000FFF758FC0546FFF7E7FC052002F09AFC7F
:10B6B00026022E433046BDE8F08108B514208DF8EF
:10B6C00000000F208DF8010000208DF802000120FD
:10B6D0008DF80300684600F001F808BD70B5002140
:10B6E00000230F22C47804B3154C246804F4E064EA
:10B6F000C4F5E064210AC1F10403CA40447804FAA5
:10B7000003F184781440214309010E4C0678A155B9
:10B71000047804F01F050124AC4005786D11AD00DC
:10B7200005F1E025C5F8004109E0047804F01F05A3
:10B730000124AC40044D0678761145F8264070BDD2
:10B740000CED00E000E400E080E100E0024A0A4085
:10B750000243024B1A60704780FFFF1F08ED00E0B4
:10B760002DE9F04F89B00024A1463F49A1F10C001A
:10B7700000F02FFF80F0004A504605F06FFC0746AE
:10B7800000223A4B05F05AF9054604F07BFE0446C8
:10B7900022463549684600F034FF224632490C39CA
:10B7A00003A800F02EFF304A0C3A6946684600F0C4
:10B7B000CBFE2D4A03A903A800F0C6FE03AA6946E2
:10B7C00006A800F0D5FE6946684600F002FF8346F1
:10B7D000274905F004FF824605F040FC0746002299
:10B7E000224B05F02BF9054604F04CFE81464A46F3
:10B7F00069461D480C3800F004FF03A903A800F0B7
:10B80000E8FE83461A4905F0EAFE824605F026FC6A
:10B8100007460022154B05F011F9054604F032FEEB
:10B8200081464A4603A9104800F0EBFE06A906A887
:10B8300000F0CFFE83460E4905F0D1FE824605F0AA
:10B840000DFC07460022094B05F0F8F8054604F008
:10B8500019FE81464A4606A903480C3000F0D1FE85
:10B8600009B0BDE8F08F0000AC0100200000E03F0F
:10B870000000404010B50446A068FFF7ECF9D4F88A
:10B880005C15091D884200D210BD042104F25C50F1
:10B89000A268FFF7BBF904F26C50A268D4F85C15FB
:10B8A000FFF7B4F900BFEFE77CB50646002500249A
:10B8B00000BF304602F0C5F905469DB900BF04F04F
:10B8C0007BF92A20354B36A24FF4C071CDE9000632
:10B8D0003B48FCF773FD3A4801F00AF804F032FDEA
:10B8E00000BF54E037A1284602F090F9044614B195
:10B8F000E068042812D000BF04F05EF93220274B24
:10B9000031A24FF4C07100902D48FCF757FD2C4830
:10B9100000F0EEFF04F016FD00BF38E02FA1206913
:10B92000FDF784F818B9304600F040FA2EE02EA159
:10B930002069FDF77BF8B0B900BF04F03DF93B206A
:10B94000164B2BA24FF4C07100901D48FCF736FD3A
:10B950001B4800F09FFF04F0F5FC00BF01F0F8F970
:10B9600001F00EF912E000BF04F026F941200B4B64
:10B9700023A24FF4C07100901148FCF71FFD10483E
:10B9800000F0B6FF04F0DEFC00BF00E000BF00BF27
:10B9900015B1284602F018F97CBD0000DD1701083A
:10B9A00025733A25643A20634A534F4E5F506172C3
:10B9B0007365206661696C2C2025730A0000000005
:10B9C000283E00206300000025733A25643A206871
:10B9D000617665206E6F7420630A000048656172AD
:10B9E00074426561740000005265626F6F740000FC
:10B9F00025733A25643A205265626F6F740A00001D
:10BA000025733A25643A206572726F7220630A00CA
:10BA100010B50446206A00B910BD6069FFF71BF934
:10BA2000616A0831884200D2F6E7042104F124005B
:10BA30006269FFF7B3F8042104F128006269FFF797
:10BA4000ADF86269616AE06AFFF7A8F80020206239
:10BA500000BFE1E738B50446206B10B1012872D170
:10BA60001AE0A069FFF7F4F8042800D238BD0022DC
:10BA700004216846A369FFF7F3F8A069FFF7E8F827
:10BA800000990831884200D2F0E7009860630020F6
:10BA9000E0630120206357E0E06B40BB042168466F
:10BAA000A269FFF740F8042104F10C00A269FFF736
:10BAB0003AF8606B08280DDC04F14400A269616B60
:10BAC000FFF731F84FF080502064606BA063A06BEB
:10BAD000E06334E0082104F14400A269FFF723F891
:10BAE000002020640820A063A06BE06327E0E16BE6
:10BAF000606B401A082813DCE36B606BC11A04F119
:10BB00004400A269FFF70FF84FF080502064E16B0A
:10BB1000606B401AA063D4E90E100844E0630EE0A5
:10BB2000082104F14400A269FEF7FDFF4FF0006018
:10BB300020640820A063D4E90E100844E0630220CA
:10BB4000206301E0FFE700BF00BF206B022815D192
:10BB5000236CE16841EA030004F14401A26B00F0A8
:10BB60005DF958B1206C18B1206CB0F1006F02D1B2
:10BB7000012020637AE70020206377E700BF75E7A4
:10BB800029B1064AD2690243044BDA6104E0034A50
:10BB9000D2698243014BDA61704700000010024015
:10BBA00029B1064A12690243044B1A6104E0034AB0
:10BBB00012698243014B1A61704700000010024075
:10BBC00029B1064A92690243044B9A6104E0034A90
:10BBD00092698243014B9A61704700000010024055
:10BBE00010B501210846FFF7EBFF01214806FFF7DA
:10BBF000C7FF01210C20FFF7E3FF10BD10B50222A3
:10BC00003721D02000F0D6F904213C2000F0A0F923
:10BC10001E49087003213C2000F09AF91B49487026
:10BC200008460078497840EA012000B218490880A7
:10BC300008213C2000F08CF91449887007213C2031
:10BC400000F086F91149C87008468078C97840EA42
:10BC5000012000B20F49088006213C2000F078F94D
:10BC60000A49087105213C2000F072F90749487122
:10BC700008460079497940EA012000B20649088067
:10BC800000223721D02000F095F910BDB43F0020EC
:10BC900004010020060100200801002010B53C210D
:10BCA000D02000F055F93A4908703B21D02000F02F
:10BCB0004FF93749487008460078497840EA012032
:10BCC00000B2344908803E21D02000F041F93049CB
:10BCD00088703D21D02000F03BF92D49C8700846FE
:10BCE0008078C97840EA012000B22B4908804021C1
:10BCF000D02000F02DF9264908713F21D02000F016
:10BD000027F92349487108460079497940EA01201A
:10BD100000B2224908804421D02000F019F91C49C2
:10BD200088714321D02000F013F91949C8710846E1
:10BD30008079C97940EA012000B21949088046217A
:10BD4000D02000F005F9124908724521D02000F0FA
:10BD5000FFF80F4948720846007A497A40EA012004
:10BD600000B2104908804821D02000F0F1F80849BD
:10BD700088724721D02000F0EBF80549C8720846C8
:10BD8000807AC97A40EA012000B20749088010BDD4
:10BD9000B43F0020F8000020FA000020FC00002042
:10BDA000FE00002000010020020100202DE9F04FDC
:10BDB000C5B08346DFF854A01549886805F04EF9F0
:10BDC00004460D461249486805F048F906460F46F4
:10BDD0000F49086805F042F9804689460D48006819
:10BDE0000D4909685246CDE90089CDE90267CDE9E0
:10BDF0000445CDE90610F02109A8FCF7DFFA03217C
:10BE000009A800F0F5FE45B0BDE8F08F941B0108CD
:10BE1000A83F00207C00002078000020F0B585B00D
:10BE200004460E46154600200090019404208DF82B
:10BE3000080000208DF80900E8B28DF80A002A46B3
:10BE400031460DF10B00FCF753FD69460548FEF73E
:10BE5000EEF90746042F02D1002005B0F0BD012005
:10BE6000FBE700000064004010B500F001F810BDD1
:10BE70000CB50020019000903348006840F48030F9
:10BE80003149086000BF3048006800F4003000907D
:10BE90000198401C0190009818B90198B0F5A06F66
:10BEA000F1D12948006800F4003010B10120009061
:10BEB00001E0002000900098012843D12348006849
:10BEC00040F01000214908600846006820F0030097
:10BED00008600846006840F0020008601A484068A0
:10BEE000194948600846406848600846406840F480
:10BEF000806048600846406820F47C10486008462E
:10BF0000406840F4E81048600846006840F08070DF
:10BF1000086000BF0C48006800F000700028F9D0ED
:10BF20000948406820F00300074948600846406817
:10BF300040F00200486000BF0348406800F00C0079
:10BF40000828F9D10CBD000000100240002002407A
:10BF500070B504460D46002603F02EFEFEF734FFB2
:10BF600000B920E02046FEF705FFFEF773FF28B971
:10BF7000FEF756FF01200E49087014E02846FEF730
:10BF8000F9FEFEF767FFFEF71FFF611CC8B2FEF760
:10BF9000F1FEFEF75FFFFEF7C3FE0646FEF7A6FEC4
:10BFA000FEF73EFF00BF04F0CDF9304670BD000043
:10BFB0000F0200202DE9F04106460C4615460027E9
:10BFC00003F0FAFDFEF700FF00B916E03046FEF779
:10BFD000D1FEFEF73FFF10B9FEF722FF0DE020462D
:10BFE000FEF7C8FEFEF736FF2846FEF7C3FEFEF753
:10BFF00031FFFEF715FF012700BF04F0A3F9F8B2E7
:10C00000BDE8F08170B5054605262C4609E00520FF
:10C0100003F0A6FCD4E90220521D40F10000C4E95F
:10C02000022020680028F2D0002003F0B3FC70BD8D
:10C0300010B51348006840F0010011490860084637
:10C040004068104908400E494860084600680E499B
:10C0500008400B4908600846006820F4802008600A
:10C060000846406820F4FE0048604FF41F008860D6
:10C07000FFF7FAFE4FF000600449086010BD0000B1
:10C08000001002400000FFF8FFFFF6FE08ED00E0A0
:10C0900010B500240121880700F06EF918B10121C4
:10C0A000880700F05FF90121880700F065F920B1E9
:10C0B0000121880700F056F95AE00821C80600F06F
:10C0C0005BF9012854D10821800700F04BF92D4875
:10C0D000006848B94FF0804000F047F92A490860ED
:10C0E00001202849086043E02648006801283FD124
:10C0F000800700F03AF9254908600846006822499F
:10C10000096888420CDD214800681F490968401A07
:10C11000C1171F4B0CCB801859411D4A03C20FE0B9
:10C12000194800684FF6FF71081A18490968084451
:10C13000C117174AD2E90032C0185141144A03C24C
:10C1400014480068401C134908603C280DD10A229D
:10C1500000230F4903C9FCF700F90F4A03C200206E
:10C160000B4A106050600B490860002005490860C8
:10C170003CB14FF0805009490860BFF34F8FBFF3C7
:10C180006F8F10BDD0000020C8000020CC00002020
:10C19000D8000020E0000020E800002004ED00E0CE
:10C1A00010B500240121614800F0E6F820B101211A
:10C1B0005E4800F0D7F8AEE008215C4800F0DCF8FB
:10C1C000012854D10821594800F0CCF8584800689B
:10C1D00040B9564800F0C9F8564908600120544952
:10C1E000086098E0524800680128E4D14F4800F008
:10C1F000BCF851490860084600684E490968884201
:10C200000CDD4D4800684B490968401AC1174B4B7B
:10C210000CCB80185941494A03C20EE045480068DA
:10C220004FF6FF71081A444909680844C117434B87
:10C230000CCB80185941414A03C241480068401C58
:10C240003F4908603C280ED10A2200233B4903C91C
:10C25000FCF783F83B4A03C20021384A1160516061
:10C2600000203749086000203149086053E0102160
:10C270002E4800F081F801284DD110212B4800F004
:10C2800071F83148006840B9284800F071F82F492A
:10C29000086001202C4908603DE02B480068012817
:10C2A00039D1224800F064F829490860084600683E
:10C2B0002649096888420ADD25480068234909683B
:10C2C000401A244909680844224908600CE01F48C4
:10C2D00000684FF6FF71081A1D49096808441D4996
:10C2E000096808441B4908601B480068401C1A493B
:10C2F00008603C280CD1174800680A2190FBF1F037
:10C30000C117164A03C2002012490860124908608A
:10C3100000200D4908603CB14FF080501049086082
:10C32000BFF34F8FBFF36F8F10BD000000080040B8
:10C330008800002080000020840000209000002061
:10C3400098000020A0000020B0000020A8000020DD
:10C35000AC000020B4000020B8000020C000002085
:10C3600004ED00E0CA43028270470146888F70479F
:10C370000146B1F84000704730B502460020002366
:10C380000024158A05EA0103958905EA010413B121
:10C390000CB1012000E0002030BD10B500220023C8
:10C3A00040F66A14A14200D100BF0A120124944051
:10C3B000A3B2DC43048010BD70B502460024002304
:10C3C0000025002040F66A16B14200D100BFC1F33B
:10C3D000421501F01F03012606FA03F3012D02D1D5
:10C3E0009689334006E0022D02D1168A334001E0DF
:10C3F000968A33400C12012606FA04F4168834405B
:10C4000013B10CB1012000E0002070BDF0B503466F
:10C41000002400260025002040F66A17B94200D10A
:10C4200000BF1846C1F3421401F01F06012707FAA6
:10C4300006F5012C01D10C3004E0022C01D11030A2
:10C4400000E014301AB107682F43076002E0076864
:10C45000AF430760F0BD01468888C0F3080070470D
:10C46000C1F308028280704730B585B01421684658
:10C47000FCF7B5FA324C6A4600213248FDF74FFE10
:10C48000206808B1206A08B105B030BD0198C0F33A
:10C49000C165019820F07C40A062E06910B10128DC
:10C4A0004AD120E0022D0CD19DF80A200DF10B019C
:10C4B000E06AFCF71DFA012020629DF80A00606224
:10C4C00010E0012D02D10020606236E09DF80A20C4
:10C4D0000DF10B01E06AFCF70BFA9DF80A006062AF
:10C4E0000120E06129E01DB900206062E06122E0E6
:10C4F000012D0ED1636AE16AC8189DF80A200DF17A
:10C500000B01FCF7F5F99DF80A10606A08446062B7
:10C5100011E0636AE16AC8189DF80A200DF10B0169
:10C52000FCF7E6F99DF80A10606A08446062012091
:10C5300020620020E06100E000BF00BF00BFA3E771
:10C54000D8320020006400402DE9F04105460E4637
:10C550001746002408E057F8241056F8240004F089
:10C56000A9FD45F82400641C032CF4DBBDE8F08130
:10C570002DE9F04106460C4615466968A06804F0AE
:10C5800031FF0746A968606804F02CFF80463946F1
:10C5900005F030F83060A968206804F023FF0746F2
:10C5A0002968A06804F01EFF8046394605F022F88D
:10C5B00070602968606804F015FF074669682068A4
:10C5C00004F010FF8046394605F014F8B060BDE86D
:10C5D000F0812DE9F04105460E46002700240BE0CE
:10C5E00056F8241055F8240004F0FCFE8046394625
:10C5F00004F060FD0746641C032CF1DB3846BDE8FF
:10C60000F0812DE9F04105460E461746002407E06B
:10C6100056F82400394604F0E5FE45F82400641C71
:10C62000032CF5DBBDE8F08108B50A20FEF716F80B
:10C63000FEF72BFEFEF70EFE01210420FFF7C0FAE5
:10C640000220ADF8000004208DF80300694602487E
:10C65000FEF751F908BD00000008014010B5014681
:10C6600000200A4613781B06547803EB04439478A1
:10C6700003EB0423D478181910BD000010B503F0A3
:10C680009BFAAA20FEF7E8FF00B21F490880AC2001
:10C69000FEF7E2FF00B21D490880AE20FEF7DCFF86
:10C6A00000B21B490880B020FEF7D6FF1949088068
:10C6B000B220FEF7D1FF18490880B420FEF7CCFF66
:10C6C00016490880B620FEF7C7FF00B2144908805B
:10C6D000B820FEF7C1FF00B212490880BA20FEF769
:10C6E000BBFF00B210490880BC20FEF7B5FF00B2C6
:10C6F0000E490880BE20FEF7AFFF00B20C4908804B
:10C7000003F020FE10BD0000F4010020F60100201F
:10C71000F8010020FA010020FC010020FE010020A9
:10C720000002002002020020040200200602002075
:10C73000080200207CB520252946094800F060F950
:10C7400004460CB900207CBD00200B21034680224A
:10C75000CDE9001003A1064803F0B4FC2046F2E73F
:10C7600045230100437564705461736B0000000041
:10C7700035A6000810B50446206800B910BD204653
:10C78000FFF746F92046FFF765F900BFF6E77CB5ED
:10C7900004460D4616460020019000235A1E1946F5
:10C7A000E06C03F0E7FA00BF206800B92AE0606996
:10C7B000FEF74EFA042800D224E00022042101A84A
:10C7C0006369FEF74DFA6069FEF742FA0199083194
:10C7D000884200D216E00198B04203DD4FF0FF30EE
:10C7E00001900FE0042101A86269FEF79CF9042181
:10C7F00068466269FEF797F9626928460199FEF773
:10C8000092F900BF00BF00231A461946E06C03F0FE
:10C810009FFB01987CBD7FB504460D46002620682D
:10C8200010B9002004B070BD00235A1E1946E06CF8
:10C8300003F0A0FA00BFA069FEF70DFA02990831D3
:10C84000884200D210E0042102A8A269FEF7A6F9EE
:10C85000042103A8A269FEF7A1F9A269284602995A
:10C86000FEF79CF9012600BF00BF00231A461946B7
:10C87000E06C03F06DFB3046D4E710B50446206849
:10C8800000B910BD01206060204600F021F800BF13
:10C89000F7E70000F0B5C1B0044604262046FBF7D8
:10C8A000BDFF451CF82D02DD002041B0F0BD2B4638
:10C8B0002246314601A800F02DF90746E0233A460A
:10C8C00001A902480068FFF7A6FFEEE76800002014
:10C8D00010B50446206800B910BD00202060002279
:10C8E00002210248FDF788FB00BFF5E70064004025
:10C8F000F0B5C1B0044605262046FBF78FFF451C66
:10C90000F82D02DD002041B0F0BD2B462246314615
:10C9100001A800F0FFF80746E0233A4601A90248C3
:10C920000068FFF778FFEEE76800002070B5044666
:10C930000025FDF7AFFDFEF769F829466D1C44F8A8
:10C940002100FEF779F829466D1C44F82100FEF716
:10C9500089F829466D1C44F8210070BD10B503F01C
:10C960002BF901F059F803F0EDFC0148006810BD07
:10C97000F001002010B503F01FF901F04DF803F0AD
:10C98000E1FC0148006810BDEC01002008B501225F
:10C9900069460248FDF7A2FF009808BD04FC0108A3
:10C9A0000548006810B90020014670470248016838
:10C9B000D1E90201F9E700005C00002008B501217F
:10C9C0000820FFF7FDF84020ADF8000003208DF8A7
:10C9D000020014208DF8030069460848FDF78BFF1C
:10C9E0008020ADF8000003208DF8020014208DF89F
:10C9F000030069460148FDF77EFF08BD000C0140B9
:10CA000070B506460D46104C206808B1002070BD78
:10CA1000012003F081F9E0642846FEF7A7FBA66039
:10CA200025614FF4A0610948FEF760F860614FF49A
:10CA3000A0610748FEF75AF8A06101202060054870
:10CA4000E0622046E3E70000D832002028330020CF
:10CA500028380020283D002010B54FF4004108037D
:10CA6000FEF774FE62B6FFF791FF202807D0FFF7AC
:10CA70008DFF1F2803D000F083F800BFFEE700F011
:10CA80003DF907490860FFF755FE06490860FFF7C2
:10CA900095FFFFF7F3FDFFF7C7FD00F017F810BD96
:10CAA00070000020680000202DE9F04104460D468A
:10CAB000FFF776FF06460F46A01B75EB070002D274
:10CAC0000120BDE8F0810020FBE700001CB545F225
:10CAD0005550FEF745FB0420FEF736FB4FF41A7065
:10CAE000FEF738FBFEF728FBFEF71EFB00200D21AA
:10CAF00003468022CDE9001002A1054803F0E2FAC6
:10CB00001CBD0000497764675461736B000000002E
:10CB100011B400082DE9F04704460E4691469846A8
:10CB200000252027E12F00D1E027320E28466D1C7A
:10CB30002254C6F3074228466D1C2254C6F307222E
:10CB400028466D1C225428466D1C26543A0E284651
:10CB50006D1C2254C7F3074228466D1C2254C7F3AC
:10CB6000072228466D1C225428466D1C2754601944
:10CB700042464946FBF7BCFE08EB0500BDE8F087DE
:10CB800010B545F25550FEF7EBFA0420FEF7DCFA3B
:10CB90000120FEF7DFFAFEF7CFFAFEF7C5FA10BD67
:10CBA000F0B5C1B007460D46164600244FF480721A
:10CBB00001A90E480068FFF7EAFD0446002C12DDCB
:10CBC000AC4203DD4FF0FF3041B0F0BD01A8FFF7EC
:10CBD00045FD3060A4F1080203A93846FBF788FE42
:10CBE000A4F10800F0E72046EEE70000680000200E
:10CBF000F0B5C1B004460E462046FBF70FFE451CBB
:10CC0000F82D02DD002041B0F0BD2B462246314612
:10CC100001A8FFF77FFF0746E0233A4601A9024833
:10CC20000068FFF7F8FDEEE7680000201CB500BFC4
:10CC30004FF4807002F000FD0446002500BF00BFE5
:10CC400002F0BAFF5A201A4B1AA24FF4C07100909A
:10CC50001E48FBF7B3FB1D48FFF71CFE03F072FBF9
:10CC600000BF23E0052002F07BFE28466D1C28282B
:10CC70000BDD1748FFF75AFEFFF770FE15490860F5
:10CC8000FFF778FE14490860002501AA4FF480716F
:10CC90002046FFF785FF002808DD0198062802D10D
:10CCA0000198082802D02046FEF7FEFDDAE70000D2
:10CCB000E517010825733A25643A20626F6F7420E6
:10CCC0002D2D2D2D3E20757365720A00283E002003
:10CCD000A83F0020780000207C0000202DE9F041D2
:10CCE000064614461D46FFF75BFE0746884639197F
:10CCF00048EB0500C6E90010BDE8F0811CB5102026
:10CD000002F09AFC04460CB900201CBD00202060F3
:10CD10006060A060E060142123468022CDE900100D
:10CD200003A1074803F0CEF9064804602046ECE76B
:10CD3000537973436C6F636B5461736B0000000035
:10CD400005C000085C000020012101607047000060
:10CD500010B505480068FFF7F7FF04480068FFF7C3
:10CD60008CFD02F0B1FD10BD7000002068000020B5
:10CD7000490050EAC12018BF04204A0D18BF40F0F6
:10CD8000010040F2FF72B2EB515F08BF40F00200B9
:10CD9000012808BF052070472DE9F74F144694B0CD
:10CDA0000021C4E902111599079121F00045C949F4
:10CDB0008D4206DC1599C4E9000117B00020BDE8DA
:10CDC000F08FC549DFF814A3A9423CDD0799C44E92
:10CDD0000029C44FC44A1599534619DD04F054F88C
:10CDE000554506D0C14AC24B04F04EF8C4E90001D3
:10CDF0000AE04FF0D352BE4B04F046F832463B46B1
:10CE000004F042F8C4E9000117B00120BDE8F08F3A
:10CE100003F06AFB554506D0B44AB54B03F064FBFA
:10CE2000C4E900010AE04FF0D352B14B03F05CFBC0
:10CE300032463B4603F058FBC4E9000117B04FF0FF
:10CE4000FF30BDE8F08FAB49A942159978DB21F09E
:10CE5000004183468846A84AA84B03F0EFFD002214
:10CE6000A74B03F041FB03F053FD099003F07FFD56
:10CE700006460F469C4A534603F0E0FD43465A4699
:10CE800003F010FF80468A46984A994B304639464F
:10CE900003F0D4FD2A0D01250B924246534603F0C0
:10CEA00001FF032DC4E9000139D00B98C1F30A51E9
:10CEB000401A05EB45111139814230DA9148C346D9
:10CEC000784400EB0510CDF80CA00C90D0E90023BD
:10CED0003046394603F0B2FD02460B4604910690F7
:10CEE0005846039903F0D0FF80468A4602460B4617
:10CEF0005846039903F0C8FF049B069A03F0C4FF49
:10CF000083460C9803913946D0E90223304603F05A
:10CF100095FD5A46039B03F0B7FF6D1CBDE70798CC
:10CF20000028A2BF099817B0BDE8F08F616881F0B2
:10CF300000416160099817B04042BDE8F08FFFE7FB
:10CF400084461598C1F31301C0F30A50A0F2F530DE
:10CF50004FEA601800F01F06C6F120001390002071
:10CF60000690079041F4801E05206D4676B1664A12
:10CF700008EB00017A4452F8213002EB8101B34002
:10CF80004A68139922FA01F1194305E05F4908EB59
:10CF90000002794451F82210A1FB0E27A1FB0C13CB
:10CFA0001A449A4234BF0123002303EB070A05EB1E
:10CFB0008003D3E901B70F448F4234BF0121002120
:10CFC00093448B4411B1934502D903E0934501D2B8
:10CFD000012100E00021C3E901B7514445F82010C8
:10CFE000011EA0F10100C1DC0298059F00F1005074
:10CFF000800F12900298DDE90356800003F0B7FC21
:10D00000834628460D9103F0C9FC6FF01D0204F021
:10D010009CFBCDE90E01304603F0C0FC6FF03D02F1
:10D0200004F093FB80468A46384603F0B7FC6FF065
:10D030005D0204F08AFB074642465346119103F015
:10D0400053FADDE90E2303F04FFA5A460D9B03F025
:10D050004BFA00250E465A4628460D9B03F014FF56
:10D06000DDE90E2303F010FF4246534603F00CFFA8
:10D070003A46119B03F016FEDFF898A0244A534667
:10D0800003F0DCFC07468846234A244B31462846F9
:10D0900003F0D4FC3A46434603F026FA0746884696
:10D0A0004FF0A84253463146284603F0C7FC3A46A3
:10D0B000434603F019FA159A12F0004F04D0129A61
:10D0C00081F0004152421292C4E90001129817B057
:10D0D000BDE8F08FFB21E93F7CD90240FB21F93FFD
:10D0E0007370032E8A19A33B000040543163621A07
:10D0F00061B4D03DFB21394183C8C96D305FE43F45
:10D100000000E03F4C4B0000C84A0000AA4A000063
:10D11000182D4454FB21F93D3326A611460B113C32
:10D120002DE9FF4D21F0004807460C46B8F1795F24
:10D1300008DA03F0EDFB002801BF0020324904B0FB
:10D14000BDE8F08D3A4623461046194603F076FCBA
:10D15000054602462D480E460B460621784400F04F
:10D160005DF82A46334603F069FCDDE90223824676
:10D170008B463846214603F061FC04460F46524672
:10D180005B462846314603F059FC22463B4603F0F5
:10D190007BFE07468A464FF0FF322846314604F0B0
:10D1A000D4FA1B4A90450ADA3A46534603F06CFE1D
:10D1B00004B00022BDE8F04D134B03F073BD154AD7
:10D1C0004245A8BFA8F500154FF00004B8BF124DA6
:10D1D00022462B4603F058FE0646884622462B463A
:10D1E0000020094903F050FE04460D463A465346D6
:10D1F0003046414603F048FE04B022462B46BDE8C7
:10D20000F04D03F04FBD00000000F03F78480000F3
:10D210003333D33F0000E93F0000D23F2DE9F04116
:10D220004F1E00EBC7010446D1E9000115461E461A
:10D2300037F006020DD02A46334603F0FFFB7F1E6F
:10D2400004EBC703D3E9002303F04EF937F00602DD
:10D25000F1D1022F25D0042F13D0062F18BFBDE81F
:10D26000F0812A46334603F0E9FBD4E90A2303F0B0
:10D270003BF92A46334603F0E1FBD4E9082303F0E7
:10D2800033F92A46334603F0D9FBD4E9062303F0E9
:10D290002BF92A46334603F0D1FBD4E9042303F0EB
:10D2A00023F92A46334603F0C9FBD4E9022303F0ED
:10D2B0001BF92A46334603F0C1FBD4E90023BDE83D
:10D2C000F04103F011B900002DE9FF4D054621F0B2
:10D2D000004084B00C46B0F1795F0BDA2846FFF7C6
:10D2E00047FD042808BF00F07FF8284608B0214613
:10D2F000BDE8F08D2A460B46104603F09FFB06461C
:10D300000F462A46234603F099FB804626488A4664
:10D3100032463B4605217844FFF780FF834610984C
:10D32000029160B3214A224B4046514603F086FBEE
:10D33000CDE900015A4640465146029B03F07EFB70
:10D3400082468846DDE906014FF0FF3204F0FDF920
:10D350005246434603F098FD32463B4603F06EFBCF
:10D36000DDE9062303F090FDDDE9002303F08CFDE9
:10D3700008B02A462346BDE8F04D03F093BC0B46A7
:10D380005A463046394603F059FB084A084B03F029
:10D39000ABF84246534603F051FB08B02A462346F9
:10D3A000BDE8F04D03F0A0B8BE4700004955555503
:10D3B0005555C5BF002213461046014903F050B928
:10D3C0000000F03F012204F0C0B903F08DB8002244
:10D3D00013461046114603F043B940F201320020D3
:10D3E0004FF0E04104F0B1B9024A0020110704F007
:10D3F000ACB9000001FDFFFF30380A2801D201203E
:10D4000070470020704700002DE9F04D8D4F21F04E
:10D41000004A86B005460C46BA452ADBAAEB07004F
:10D4200028430AD08848824501DC1AD1CDB106B024
:10D430002846BDE8F04DFFF7C5BF844A844B284617
:10D4400003F0FCFA07460E46824A834B28462146E3
:10D4500003F0F4FA06B03A463346BDE8F04D03F067
:10D4600043B80120FBF7AEFB06B0BDE8F04DFFF777
:10D47000AEBF7A48824542DABAF1795F0BDA2846C4
:10D48000FFF776FC042808BFFFF7AEFF284606B07A
:10D490002146BDE8F08D2A460B46104603F0CEFA31
:10D4A000834602466E480E460B4606217844FFF737
:10D4B000B5FE5A46334603F0C1FA804669488A46AB
:10D4C0005A46334604217844FFF7A8FE5A463346AD
:10D4D00003F0B4FA00223B4603F006F802460B467E
:10D4E0004046514603F0BCF82A46234603F0A6FA0C
:10D4F00006B02A462346BDE8F04D02F0F5BF2846A7
:10D5000024F0004100223D463B4603F0CBFB4FF0A8
:10D51000FF3204F01AF90646024653480F460B46FE
:10D5200006217844FFF77AFE32463B4603F086FA3E
:10D53000CDE900014D4832463B4604217844FFF7CF
:10D540006DFE32463B4603F079FA00222B4602F08C
:10D55000CBFF834602913046394602F044F98046BB
:10D5600043480D46504517DCDDE900015A46029B51
:10D5700003F076F842462B4603F060FA42462B460B
:10D5800002F0B2FF012204F0E0F8304A304B03F021
:10D590007BFC304A304B4CE04FF0000A52460B46C1
:10D5A000404602F0A1FFCDE9031052462B4610463B
:10D5B000194603F043FA32463B4603F073FBDDE9BC
:10D5C000033203F04DF806460F46DDE900015A46E6
:10D5D000029B03F045F8834600910122304639460C
:10D5E00004F0B3F8194A1A4B03F05CFB06460F46E9
:10D5F00001224046294604F0A8F85A46009B03F051
:10D600001DFA32463B4603F03FFC06460F46012218
:10D610005046294604F099F80E4DDFF858802A4606
:10D62000434603F03FFB32463B4603F03BFB2A46B2
:10D63000434603F037FB002CD8BF81F0004106B011
:10D64000BDE8F08D0000F03F0000F07F075C143370
:10D6500026A6913C182D4454FB21F93F0000E03FE1
:10D6600090430000A64300001A430000304300002E
:10D670003333EF3FFB21E93F2DE9F84F04460D46D8
:10D6800021F0004000917349814211DC72498842C7
:10D6900001DC06D12CB120462946BDE8F84FFFF742
:10D6A00091BE6E48002DCCBF6D496E49BDE8F88F24
:10D6B0006D49814211DD6D498142D8BF4FF0FF367F
:10D6C0006DDD20462946FFF753FB042808BFFFF70E
:10D6D0008BFE20462946BDE8F88F6549654F25F049
:10D6E0000045814233DD6449814219DD002632461E
:10D6F0004FF080432046294602F0F6FE80468A46D7
:10D7000001222046294604F020F800223B4603F07F
:10D71000BBFB4246534602F0A3FF04460D463EE0E3
:10D7200001260022BA463B462046294602F0DCFE8E
:10D7300080460F46002253462046294603F0A4FBAC
:10D7400042463B4602F08CFF04460D4627E04B491B
:10D7500081421BDDDFF828A1022600225346204625
:10D76000294603F06BF900223B4602F0BDFE8046DD
:10D770000F46002253462046294603F085FB4246C9
:10D780003B4602F06DFF04460D4608E003262246A4
:10D790002B4600203B4902F063FF04460D4622461B
:10D7A0002B461046194603F049F98B46824602463D
:10D7B0000B4603F043F907460246334888460B46BA
:10D7C00006217844FFF72AFD52465B4603F036F9FE
:10D7D00082462E488B463A46434605217844FFF759
:10D7E0001DFD3A46434603F029F902460B46002E3A
:10D7F000504659460CDA02F077FE22462B4603F0DB
:10D800001DF901B022462B46BDE8F04F03F04ABA9D
:10D8100002F06AFE22462B4603F010F91C4A7A44B5
:10D8200002EBC603D3E9002303F02EFB22462B466E
:10D8300003F02AFB174A7A4402EBC603D3E900231C
:10D8400003F030FA009A002AB8BF81F00041BDE829
:10D85000F88F0000000010440000F07F182D4454A1
:10D86000FB21F93FFB21F9BF0000DC3F0000203E17
:10D870000000F33F0000F03F0000E63F008003405F
:10D880000000F83F0000F0BFE2410000A0410000AE
:10D890003E410000064100002DE9F04D9446CCF1D8
:10D8A000000423F000464CEA0404524F46EAD474C4
:10D8B0009A46884621F00042BC4206D8454240EADA
:10D8C000050442EAD474BC4204D9BDE8F04D624676
:10D8D000FFF77BBDAAF14055A5F17F6555EA0C0421
:10D8E0000BD0022404EAAA74434DDFF810E144EAA5
:10D8F000D87452EA000B04D00CE0BDE8F04DFFF7FD
:10D90000BBBE002C14BF012CBDE8F08D022C30D022
:10D91000032C32D056EA0C0B0AD0BE4220D1BA42B8
:10D9200009D126F0804622F080423346114617E0A6
:10D9300000291ADB25E0DFF8C8B0FB44002C04BF47
:10D94000DBE90001BDE8F08D012C02BFDBE900013D
:10D9500081F00041BDE8F08D022C0AD0032C0CD0E0
:10D96000BA4212D1B8F1000F0BDA23482549BDE8BD
:10D97000F08D28462449BDE8F08D28467146BDE863
:10D98000F08D1D482149BDE8F08D921B12153C2AEF
:10D99000C4BF19481D490EDCBAF1000FBEBF12F119
:10D9A0003C0F0020014606DB624602F059FE21F0E2
:10D9B0000041FFF761FE002C08BFBDE8F08D012C8F
:10D9C00004BF81F00041BDE8F08D114A114B022CDB
:10D9D00007D003F059FA2A46BDE8F04D0A4B03F090
:10D9E00053BA03F051FA2A46BDE8F04D064B03F056
:10D9F00059B900000000F07F182D4454FB2109C0E4
:10DA0000CA400000FB21F9BFFB210940FB21F93F7F
:10DA1000075C143326A6A13C2DE9FE4F00F0B0F8B8
:10DA2000029000F089F80190364909880298401A5E
:10DA3000354909884843C4133448B0F90000C0028E
:10DA40003349B1F90010214490FBF1F504EB0509CD
:10DA500009F1080000112F490860A9F57A6707FB52
:10DA600007F02D49B1F900104843C4152B48B0F90F
:10DA700000007843C51204EB050A2948B0F90000FC
:10DA80000AEB8000801C801000902648B0F900004E
:10DA90007843441307FB07F000132349B1F9001042
:10DAA000484305146019801C4FEAA00A1F480088EB
:10DAB0000AF5004148434FEAD03BDDE90010401A27
:10DAC0004CF2503100FB01F8B8F1004F04D24FEA9C
:10DAD0004800B0FBFBF602E0B8FBFBF0460030125A
