:020000040800F2
:108000002045002071820008798200087B820008E8
:108010007D8200087F820008818200080000000045
:10802000000000000000000000000000D9810008EE
:1080300085820008000000001D820008B9DA0008EF
:108040008B8200088B8200088B8200088B820008DC
:108050008B8200088B8200088B8200088B820008CC
:108060008B8200088B8200088B8200088B820008BC
:108070008B8200088B8200088B8200088B820008AC
:108080008B8200088B8200088B8200088B8200089C
:10809000DDB200088B8200088B8200088B8200080A
:1080A0008B8200088B8200088B8200088B8200087C
:1080B000F9A500088B82000809A700088B82000838
:1080C0008B8200088B8200088B8200088B8200085C
:1080D0008B82000800000000FDD900088B82000898
:1080E0008B8200088B8200088B82000800F002F867
:1080F00000F062F80AA090E8000C82448344AAF1E0
:108100000107DA4501D100F057F8AFF2090EBAE8DD
:108110000F0013F0010F18BFFB1A43F001031847BB
:10812000D06E0000F06E0000103A24BF78C878C10D
:10813000FAD8520724BF30C830C144BF04680C606D
:10814000704700000023002400250026103A28BFB5
:1081500078C1FBD8520728BF30C148BF0B607047B9
:10816000692900F07781642900F07481752900F095
:1081700071816F2900F00882782900F02F8203684E
:10818000DB0928BF41F08001632900F07A8573295B
:1081900000F07F85E32900F08A85002070471FB535
:1081A00000F0B6FD04000020002106F029F8401C74
:1081B00060601FBD10B510BD00F0B2FD1146FFF7A5
:1081C000EEFF03F061FE00F0D0FD03B4FFF7F2FF15
:1081D00003BC00F0D3FD0000224B19680868B0E82A
:1081E000F00F80F30988BFF36F8F4FF0000080F32A
:1081F00011884EF00D0E7047000000000648006820
:10820000006880F3088862B661B6BFF34F8FBFF392
:108210006F8F00DF00BF00BF08ED00E0EFF30980C3
:10822000BFF36F8F0F4B1A6820E9F00F106008B58D
:108230004FF0BF0080F31188BFF34F8FBFF36F8FF4
:1082400005F0ACFB4FF0000080F31188BDE808405A
:1082500019680868B0E8F00F80F30988BFF36F8FE2
:10826000704700BF1C000020EFF30580704700003E
:108270000948804709480047FEE7FEE7FEE7FEE7BA
:10828000FEE7FEE7FEE7FEE7FEE7FEE704480549F6
:10829000034A054B7047000059A30008ED80000811
:1082A00020430020204500202043002070B50446D4
:1082B000051F00F0D7FB0068002C14BF446870BD98
:1082C000002C18BFAC423CBF20466468F8D301685C
:1082D0000A18AA4218BF456003D12A68054611440E
:1082E000016028684119A1421CBF6C6070BD6168C3
:1082F000696021680844286070BD10B54C1084EA9C
:10830000530404D54042C1F1000138BF491E1B424D
:1083100004D55242C3F1000338BF5B1E00F0A6FB38
:1083200014F0804F04D04042C1F1000138BF491E13
:1083300014F0004F04D05242C3F1000338BF5B1E5B
:1083400010BD10B5044600F085FB0068005DC00656
:1083500002D504F1200010BD204610BD0FB41CB59D
:108360000C0007AA009001D02044401E074B7B441C
:1083700069460190069800F05AFC002C03D069462B
:10838000002000F067FC1CBC5DF814FBED08000049
:1083900070B5044685690068C10601D5302600E045
:1083A0002026C00707D070BDD4E901213046904790
:1083B000206A401C20626D1EF6D570BD70B5044663
:1083C00085690078C00707D170BDD4E9012120205C
:1083D0009047206A401C20626D1EF6D570BD09686A
:1083E0004A0501D540B27047C905FCD500B27047B7
:1083F00009684A0501D5C0B27047C905FCD580B2ED
:10840000704770B50C460546012A05D028788006CD
:1084100000D5EA69002302E0012305E05B1C9342DA
:1084200002D2E05C0028F9D1A869E618C01AA86158
:10843000286A184428622846FFF7AAFF04E0D5E915
:10844000012114F8010B9047B442F8D32846FFF7F6
:10845000B5FF70BD2DE9F04106460024106875296E
:10846000314616A510D0FFF7BAFF002802DA4042C5
:1084700013A507E031688A0701D512A502E0490774
:1084800004D511A5012401E0FFF7B2FF00210A2263
:1084900006F1240709E0B0FBF2FCB0FBF2F302FBAB
:1084A0001C00303078541846491C0028F3D123466C
:1084B0002A463046BDE8F04100F05ABB00000000FB
:1084C0002D0000002B000000200000002DE9FF5FC0
:1084D00015468A460446DFF8AC80F8440027D8E900
:1084E00000103E46CDE9001010E03AF816106A463A
:1084F00002A800F0E8FB411C07D02178890603D5CB
:10850000E269391891420DD80744761C207880061C
:1085100002D5E069B84205DDAE42E6DB3AF8160066
:108520000028E2D1A069C01BA0612046FFF730FF00
:10853000D8E90010CDE90010002017E03AF8181033
:108540006A4602A800F0BFFBB0F1FF3F81460BD0A6
:1085500000250DF1080B05E0D4E901211BF8050009
:1085600090476D1C4D45F7D308F10100B04280469D
:10857000E4DB206A384420622046FFF71FFFBDE895
:10858000FF9F0000B269000070B5044621461068E4
:10859000FFF72EFF002104F1240505E000F007029B
:1085A0003032C0086A54491C0028F7D120680023E3
:1085B00008A2050708D500F02000084304D0E069B0
:1085C000012305A2401EE0612046BDE8704000F096
:1085D000CFBA0000000000003000000070B5044673
:1085E0000D4621461068FFF703FF2188090502D5D3
:1085F0000F4A7A4402E00E4A7A440E32002104F116
:10860000240305E000F00F060009965D5E54491C46
:108610000028F7D120780023000704D5702D02D060
:1086200009B1022311322046BDE8704000F0A0BA23
:10863000A26800002DE9F05F894604464FF0000A69
:10864000DFF874B1FB44C0F820A02046E1688847F9
:10865000002874D0252806D0D4E901219047206A4B
:10866000401C2062F1E700265F462046E16888470B
:108670002028054607DB312D05D2781910F8200C8B
:1086800008B10643F1E7B00701D526F00406C4F8A7
:108690001CA00027C4F818A02A2D09D0284603F0F2
:1086A0003FFB38B304EB8708303DC8F8185019E099
:1086B00059F8041B204604EB87029161E168884762
:1086C000012F054618D1E069002820DA26F020069F
:1086D0001DE0D8F8180000EB800005EB40003038B2
:1086E000C8F818002046E1688847054603F018FBE3
:1086F0000028EED1012F0AD02E2D08D12046E168A6
:1087000088477F1C0546022F46F02006C4DBA0697F
:10871000002803DA404246F00106A061F00701D0CC
:1087200026F010066C2D0BD0682D09D04C2D39D0B9
:108730006A2D35D0742D35D07A2D33D016E038E03F
:10874000E1682F4620468847B842054609D16C2F7C
:1087500026D04FF48060E1680643204688470546EE
:1087600004E06C2F1AD04FF4807006430DB3A5F1CE
:108770004100192802D8203546F400664A462946A9
:10878000204626604E46FFF7EBFC80B101280BD057
:10879000F61D26F0070000F1080956E74020E4E73F
:1087A0008020D8E70020D6E706F104094DE72846E7
:1087B00052E7206ABDE8F09F7868000010B5431CBE
:1087C00002E010F8011B71B18107FAD14FF00132BC
:1087D00002C88C1A8C4314EAC211F9D0C01A0A06D6
:1087E00003D0C01E10BDC01A10BD0A0401D0801EE7
:1087F00010BD0902FCD0401E10BD40EA010370B557
:108800009B072ED14FF00136042A2AD308C810C97D
:108810009D1B9D43121F15EAC61517D0D8B2E1B2B1
:10882000401A50EA056110D198B2A1B2401A50EA3C
:1088300005410AD123F07F4024F07F41401A50EADD
:10884000052102D1180EA0EB146070BDA342DBD04D
:1088500018BA21BA884201D9012070BD4FF0FF300B
:1088600070BD0AB9002070BD10F8013B11F8014B32
:1088700063B1A3420AD1521E08D010F8013B11F88F
:10888000014B1BB1A34201D1521EEDD1181B70BD8B
:10889000032A40F2308010F0030C00F0158011F82C
:1088A000013BBCF1020F624498BF11F801CB00F804
:1088B000013B38BF11F8013BA2F1040298BF00F858
:1088C00001CB38BF00F8013B11F0030300F0258015
:1088D000083AC0F0088051F8043B083A51F804CB3C
:1088E000A0E80810F5E7121D5CBF51F8043B40F802
:1088F000043BAFF30080D20724BF11F8013B11F80D
:1089000001CB48BF11F8012B24BF00F8013B00F850
:1089100001CB48BF00F8012B704710B5203AC0F0DA
:108920000B80B1E81850203AA0E81850B1E8185070
:10893000A0E81850BFF4F5AF5FEA027C24BFB1E8AD
:108940001850A0E8185044BF18C918C0BDE810401E
:108950005FEA827C24BF51F8043B40F8043B08BF27
:108960007047D20728BF31F8023B48BF11F8012BEE
:1089700028BF20F8023B48BF00F8012B70474FF09A
:10898000000200B5134694469646203922BFA0E85F
:108990000C50A0E80C50B1F12001BFF4F7AF09076B
:1089A00028BFA0E80C5048BF0CC05DF804EB89005C
:1089B00028BF40F8042B08BF704748BF20F8022B9F
:1089C00011F0804F18BF00F8012B70474FF0013CA9
:1089D00050F8042B51F8043B9A4221D1A2EB0C032E
:1089E000934313EACC1317D150F8042B51F8043BEE
:1089F0009A4215D1A2EB0C03934313EACC130BD18B
:108A000050F8042B51F8043B9A4209D1A2EB0C0315
:108A1000934313EACC13DBD04FF00000704700BF44
:108A2000D01A01BAB1FA81F101F0180122FA01F06D
:108A3000CB40C1F12001DBB2C0B2C01A2CFA01F365
:108A4000D11A914311EAC311E6D1704770477047BC
:108A50007047000010B500F05BF9001D10BD00BFAD
:108A6000A157000000487047C442002053EA020C9E
:108A700000F069802DE9F04B4FF00006002B1FBF7E
:108A8000B3FA83F503FA05F424FA05F65E4012BF43
:108A90001643B2FA82F502FA05F4C5F120051EBFAD
:108AA00022FA05FC44EA0C04203556EA044C4FEA4D
:108AB000144418BF641C4FF000084FF000099042A6
:108AC00071EB030C39D3002919BFB1FA81F701FA10
:108AD00007F6B0FA80F700FA07F6C7F120071EBFC5
:108AE00020FA07FC46EA0C062037B6FBF4FCA7EB9D
:108AF0000507103F07F01F0BCBF120060CFA0BFB0C
:108B00002CFA06F644BFB3460026202FA4BF5E46CB
:108B10004FF0000B5BEA060C08BF4FF0010B19EB9E
:108B20000B09ABFB027C48EB0608C01B06FB02CC22
:108B30000BFB03CC71EB0C01C1E70B46024641462F
:108B40004846BDE8F08B13B54FF000004FF0000130
:108B5000AFF30080BDE81C40704710B500F0DCF8B2
:108B6000006810BD10B5044600F0D6F8046010BDD2
:108B70002DE9F0470D4699469246044600F1240837
:108B80000168880604D5E06921F01001216000E049
:108B90000120A84201DD471B00E00027A1697A19E6
:108BA00002EB0900081AA0612078C00602D4204612
:108BB000FFF7EEFB002608E0D4E901211AF80600D1
:108BC0009047206A401C761C20624E45F4DB2078DA
:108BD000C0060AD52046FFF7DBFB06E0D4E90121F9
:108BE00030209047206A401C2062381EA7F1010700
:108BF000F4DC07E0D4E9012118F805009047206A69
:108C0000401C2062281EA5F10105F3DC2046FFF779
:108C1000D5FB2078000602D50220BDE8F0870120B0
:108C2000FBE7000001694A1C02610878704700B543
:108C30008FB0CDE901310021059105497944CDE995
:108C4000031011466846FFF7F5FC0FB000BD0000A9
:108C5000E5FFFFFF0A6802F8010B0A607047D1E9DF
:108C600000239A4202D2531C0B601070704710B55B
:108C7000436913B1AFF3008001E0FFF7C2FB0120AD
:108C800010BD127800F124010A7000224A700122FE
:108C9000EDE711684FF0FF32E9E710B5436913B112
:108CA000AFF3008001E0FFF711FC012010BD128836
:108CB00000F1240182840022C2840122EDE71168C0
:108CC0004FF0FF32E9E770B516460C460546FFF750
:108CD000C1FE036893F80101012806D0FF2C0FD8CC
:108CE000185D68B101202C7070BDD3F807013246C1
:108CF000214603F2071303442846BDE87040184795
:108D00004FF0FF3070BD000000487047BC420020AB
:108D100000487047DC42002000487047BC420020F9
:108D20007546FFF7F1FFAE4605006946534620F051
:108D30000700854618B020B5FFF7A8FABDE8204027
:108D40004FF000064FF000074FF000084FF0000B07
:108D500021F00701AC46ACE8C009ACE8C009ACE8BA
:108D6000C009ACE8C0098D46704710B50446AFF3A2
:108D700000802046BDE81040FFF727BA01491820BF
:108D8000ABBEFEE7260002007047000010B50446A7
:108D90000B48844209D10121480601F07FF90021E6
:108DA0004FF0007001F07AF908E00121880601F027
:108DB00075F900214FF0806001F070F910BD0000DE
:108DC0000064004010B50021837A012202FA03F109
:108DD0003D4A126842F001023B4B1A603A4A1C328B
:108DE00012688A43384B1C331A60027BCAB9364A70
:108DF0000C3212688A43344B0C331A604288C388A1
:108E000042EA0343304A4032847A42F834300288DE
:108E1000838842EA03432C4A4032847A02EBC4023C
:108E20005360027B012A19D1274A0C3212680A4387
:108E3000254B0C331A604288038842EA0343224AD6
:108E40004032847A42F83430C288838842EA03434D
:108E50001D4A4032847A02EBC4025360C27A3AB9A6
:108E6000194A121D12688A43174B1B1D1A6006E02F
:108E7000154A121D12680A43134B1B1D1A60028902
:108E800032B9114A143212688A430F4B14331A60F4
:108E90000289012A06D10C4A143212680A430A4B8D
:108EA00014331A60427B012A06D1074A1C32126829
:108EB0000A43054B1C331A60034A126822F0010270
:108EC000014B1A6010BD0000006600401AB14369F2
:108ED0000B43436102E043698B434361704730B504
:108EE000024600200023146824F002041460146871
:108EF00044F00104146000E05B1C546804F00104B9
:108F00001CB94FF6FF74A342F6D1546804F0010473
:108F10000CB900206CE08C79012C04D1146844F069
:108F20008004146003E0146824F080041460CC7999
:108F3000012C04D1146844F04004146003E0146868
:108F400024F0400414600C7A012C04D1146844F01D
:108F50002004146003E0146824F0200414604C7AA8
:108F6000012C04D1146844F01004146003E0146868
:108F700024F0100414608C7A012C04D1146844F09D
:108F80000804146003E0146824F008041460CC7A28
:108F9000012C04D1146844F00404146003E0146844
:108FA00024F0040414608C78A407CD7844EA0564A6
:108FB0000D7944EA05444D7944EA05540D886D1E47
:108FC0002C43D461146824F001041460002300E0F1
:108FD0005B1C546804F001041CB14FF6FF74A342FB
:108FE000F6D1546804F001040CB1002000E0012027
:108FF00030BD10B500F5D87303EB01131B6803F007
:1090000004031372137A53B900F5D87303EB0113F9
:109010001B6840F2FF7404EA5353136009E000F543
:10902000D87303EB01131B686FF0604404EAD303A9
:10903000536000F5D87303EB01131B6803F00203C0
:10904000537200F5D87303EB01135B6803F00F0351
:10905000937200F5D87303EB01135B681B0AD3749A
:1090600000F5D87303EB01139B68D37200F5D87336
:1090700003EB01139B681C0A147300F5D87303EB10
:1090800001139B681C0C547300F5D87303EB011398
:109090009B681B0E937300F5D87303EB0113DB6819
:1090A000D37300F5D87303EB0113DB681C0A147447
:1090B00000F5D87303EB0113DB681C0C547400F546
:1090C000D87303EB0113DB681B0E937421B9C368DB
:1090D00043F02003C36003E0036943F0200303610E
:1090E00010BD00218171C171017241728172C17222
:1090F0008170C17003210171022141710121018040
:10910000704710B502460020936803F08063B3F106
:10911000806F00D110E0936803F00063B3F1006F3B
:1091200001D1012008E0936803F08053B3F1805F20
:1091300001D1022000E00420042874D002F5C0739D
:1091400003EB00131B6803F0010402F5C07303EB8B
:1091500000131C600B7A7BB94B7A0C8843EA4453AA
:1091600002F5C07404EB00142468234302F5C074B4
:1091700004EB0014236010E00B7A4C6843EAC4034C
:109180004C7A234302F5C07404EB00142468234393
:1091900002F5C07404EB001423608B7A03F00F0314
:1091A0008B7202F5C07303EB00135B6823F00F04AE
:1091B00002F5C07303EB00135C6002F5C07303EBB0
:1091C00000135B688C7A234302F5C07404EB00142F
:1091D00063608B7B1C064B7B44EA03440B7B44EAB5
:1091E0000323CC7A234302F5C07404EB0014A3607C
:1091F0008B7C1C064B7C44EA03440B7C44EA03232F
:10920000CC7B234302F5C07404EB0014E36002F549
:10921000C07303EB00131B6843F0010402F5C07335
:1092200003EB00131C6010BD10B50246002404239C
:1092300003E0D05C2044C4B25B1CC81E9842F8DC3A
:10924000105CA04201D0002010BD0120FCE700000E
:1092500070B50646074C032505E0032004F06AFAC2
:10926000204602F0DBF860680028F6D0002004F009
:109270007BFA70BDEC31002030B5044604254FF474
:10928000302000F08FF80546042D17D10C480069F6
:1092900040F002000A49086108464461006940F054
:1092A000400008614FF4302000F07CF80546044887
:1092B000006941F6FD71084001490861284630BD4A
:1092C0000020024004200B49C96801F0010109B1E6
:1092D00001200EE00749C96801F0040109B102202C
:1092E00007E00449C96801F0100109B1032000E05A
:1092F00004207047002002400348006940F08000CD
:109300000149086170470000002002402DE9F0414A
:1093100005460C46164604274FF000080FE021884A
:10932000284600F013F80746042F02D00120BDE8BC
:10933000F08108F102001FFA80F8AD1CA41CB045B2
:1093400001DA042FEBD00020F1E7000070B50446ED
:109350000D460426F00200F025F80646042E11D131
:109360000948006940F00100074908612580F002C2
:1093700000F018F806460448006941F6FE710840FE
:1093800001490861304670BD00200240024803498F
:109390004860034848607047230167450020024049
:1093A000AB89EFCD00B502460423FFF78BFF0346E0
:1093B00003E0FFF787FF0346521E012B01D1002A6D
:1093C000F7D102B90523184600BD10B50B460021A0
:1093D00004E010F8014B5C544C1CA1B29142F8DB44
:1093E00010BD70B505460E4614464FF6FF7000EAF4
:1093F000840231462846FFF7E8FF70BD2DE9F843A7
:1094000006460F461546042000900120304908709A
:10941000FFF7BCFF4FEA96294FEA8929C6F30908EE
:109420004FF480622B494846FFF7CFFF002408E045
:1094300008EB04002749085CFF2800D003E0601C0B
:1094400084B2AC42F4DB00BFAC422ADA4846FFF7F4
:1094500013FF00909DF80000042807D0FFF74CFF91
:1094600000201B4908700120BDE8F883002406E0B5
:10947000385D08EB0401174A5054601C84B2AC42BA
:10948000F6DB4FF4806213494846FFF73FFF04467E
:10949000012C15D1FFF730FF00200D490870012085
:1094A000E2E72A4639463046FFF730FF0446012CF2
:1094B00006D1FFF721FF0020054908700120D3E7FE
:1094C000FFF71AFF00200249087000BFCCE7000038
:1094D000640000203C3D002070B505460E46144651
:1094E0004FF6FF7000EA840231462846FFF786FFF8
:1094F00070BD000008B54FF40050ADF8000010201A
:109500008DF8030001208DF802006946084800F03C
:1095100013F86020ADF8000010208DF80300012042
:109520008DF802006946034800F006F808BD000007
:1095300000100140000C01402DE9F04102460025D9
:109540000026002000230024002791F803C00CF01F
:109550000F0591F803C00CF0100CBCF1000F03D004
:1095600091F802C04CEA050591F800C0BCF1000F6B
:1095700031D0146800202BE04FF0010C0CFA00F3FE
:10958000B1F800C00CEA03069E4220D183004FF0E0
:109590000F0C0CFA03F7BC4305FA03FC4CEA040475
:1095A00091F803C0BCF1280F06D14FF0010C0CFA62
:1095B00000FCC2F814C00AE091F803C0BCF1480FE7
:1095C00005D14FF0010C0CFA00FCC2F810C0401C91
:1095D0000828D1D31460B1F800C0BCF1FF0F34DD0E
:1095E000546800202EE000F1080C4FF0010808FA42
:1095F0000CF3B1F800C00CEA03069E4221D18300AF
:109600004FF00F0C0CFA03F7BC4305FA03FC4CEACD
:10961000040491F803C0BCF1280F05D100F1080C37
:1096200008FA0CF8C2F8148091F803C0BCF1480F96
:1096300007D100F1080C4FF0010808FA0CF8C2F845
:109640001080401C0828CED35460BDE8F081000093
:10965000F0B50A46002300240021002500F0004652
:10966000B6F1004F02D11D4EF16901E01B4E716849
:10967000C0F3034583B200F44016B6F5401F08D18D
:1096800021F07061154E766826F07066134F7E608B
:1096900012E000F48016B6F5801F06D1032606FA04
:1096A00005F4A14341F0706106E0460D360103FA6E
:1096B00006F6B14341F0706122B1460D360103FA5E
:1096C00006F6314300F00046B6F1004F02D1034EDA
:1096D000F16101E0014E7160F0BD00000000014049
:1096E000416170470161704770B505460E4618200C
:1096F00003F0DCFE04460CB9002070BD18212046A2
:10970000FFF73DF92561206920B92046FEF7CEFD1F
:109710000020F2E72660012004F0E8F960612046AD
:10972000EBE72DE9F04106460D4614460027002DD3
:1097300002DC781EBDE8F08100235A1E19466069DC
:1097400004F002FAE068A84208DA00231A46194633
:10975000606904F0E7FA4FF0FF30EBE7E068401B88
:10976000E06018E0D4E9001090FBF1F201FB120078
:1097700060606168481C60602069425C38467F1CFC
:109780003254AF4207D100231A461946606904F0EB
:10979000C9FA0120CEE7E5E72DE9F04106460D467E
:1097A0001446002700235A1E1946606904F0CCF9BC
:1097B000E1682068401AA84208DA00231A461946D0
:1097C000606904F0AFFA781EBDE8F081E0682844D3
:1097D000E06018E02168A06890FBF1F201FB120044
:1097E000A06038467F1C315CA268501CA0602069D4
:1097F0008154AF4207D100231A461946606904F02C
:1098000091FA0120E0E7E5E770B503460024D5684A
:109810001068401B884201DA601E70BD15E01568B3
:10982000906890FBF5F605FB160090602046641CDE
:109830001D5C9668701C9060106985558C4204D13F
:10984000D0680844D0600120E7E7E8E70146C8682F
:1098500070470146CB680A68D01A70472DE9F04777
:1098600081460E4690461C460027002E02DC781EDC
:10987000BDE8F08700235A1E1946606904F064F9B8
:10988000E068A0EB0800B04208DA00231A46194647
:10989000606904F047FA4FF0FF30E9E76568002798
:1098A00006E0206895FBF0F100FB11556D1C7F1C54
:1098B0004745F6DB002716E0206895FBF0F100FB3A
:1098C000115528466D1C2269125C38467F1C09F828
:1098D0000020B74207D100231A461946606904F0F8
:1098E00021FA0120C4E7E7E74CF6CC4001490860C3
:1098F00070470000003000404AF6AA200149086085
:109900007047000000300040014948607047000087
:10991000003000400149886070470000003000407E
:1099200001490860704700000030004010B588B061
:10993000044600F0E3FB00F01DF94FF40060ADF8C1
:10994000000048208DF8030069463048FFF7F4FD19
:109950004FF48050ADF8000018208DF8030003206C
:109960008DF8020069462948FFF7E6FD2848FFF711
:109970000DFA05A8FFF7B5FB00208DF81A008DF849
:109980001B008DF81C008DF81D008DF81E000120B5
:109990008DF81F0000208DF816008DF817000120AB
:1099A0008DF8180002208DF819000620ADF814007B
:1099B00005A91748FFF793FA00208DF80E008DF8DF
:1099C0000F0001208DF81000C4F34F30ADF80400F3
:1099D000042000EBC40080B2ADF8060043F6FF702F
:1099E000ADF808004FF6FF70ADF80A000020ADF8A2
:1099F0000C0001208DF8110001A8FFF7E3F9012206
:109A000002210348FFF762FA08B010BD00080140C8
:109A10000064004070B504460D46D4F85815481C43
:109A2000C4F8580504F5AD604554D4F8540520B188
:109A300001281DD002287DD151E0D4F85805022814
:109A400000D08AE094F86805FA2804D140F2695001
:109A5000005DFB2808D040F26950005D84F868057D
:109A60000120C4F8580578E00120C4F8540574E0DA
:109A7000D4F85805042800D06FE040F26A50005D29
:109A8000C4F85C05D4F85C050002C4F85C0540F23B
:109A90006B50005DD4F85C150844C4F85C05D4F83C
:109AA0005C05B0F5877F10DD40F26A50005D84F8F8
:109AB000680540F26B50015D801E01550220C4F81C
:109AC00058050020C4F8540547E06422002304F53B
:109AD000AC6002F04BF80220C4F854053DE0D4F825
:109AE00060251046D4F8641501F006FE28B1002068
:109AF000C4F85805C4F854052FE0D4F85C05C01D1F
:109B0000D4F85815814200D027E0D4F85805801EBB
:109B100004F5AD61085CFC280ED1D4F85805401E50
:109B2000085CFD2808D104F5AD60D4F85815FFF79E
:109B30007BFB00E010E028B90020C4F85805C4F809
:109B400054050AE00020C4F85405C4F85805044838
:109B5000006800F06DF800E000BF00BF70BD0000BD
:109B60005800002000BF04E0642003F0E3FDFFF78D
:109B7000C3FEF9E708B514208DF800000F208DF81A
:109B8000010000208DF8020001208DF803006846D6
:109B900000F002F808BD000070B5002100230F227C
:109BA000C47804B3154C246804F4E064C4F5E0649C
:109BB000210AC1F10403CA40447804FA03F184780D
:109BC0001440214309010E4C0678A155047804F095
:109BD0001F050124AC4005786D11AD0005F1E025AD
:109BE000C5F8004109E0047804F01F050124AC40E9
:109BF000044D0678761145F8264070BD0CED00E066
:109C000000E400E080E100E002490143024A116003
:109C1000704700000000FA050CED00E0024A0A401F
:109C20000243024B1A60704780FFFF1F08ED00E0FF
:109C300010B50446A068FFF70CFED4F85C15091DAA
:109C4000884200D210BD042104F25C50A268FFF7E4
:109C5000DBFD04F26C50A268D4F85C15FFF7D4FD6C
:109C600000BFEFE7F0B58BB00746002600240025C3
:109C7000282101A8FEF783FE01A96248006801F0CF
:109C800071FD00BF384602F08FF8064696B900BF56
:109C900003F07CFE2C205C4B5CA24FF4C071009062
:109CA0006148FEF75BFB604801F076FC04F034FA93
:109CB00000BFA0E05DA1304602F05BF8044614B19D
:109CC000E068042812D000BF03F060FE35204E4B40
:109CD00057A24FF4C07100905348FEF73FFB524823
:109CE00001F05AFC04F018FA00BF84E055A1304698
:109CF00002F03FF8054655A12069FEF767FE18B946
:109D0000287D8DF8180070E055A12069FEF75EFEF1
:109D100018B9287D8DF81A0067E055A12069FEF773
:109D200055FE18B9287D8DF819005EE055A120690F
:109D3000FEF74CFE18B9287D8DF81B0055E055A1A3
:109D40002069FEF743FE18B9384600F007FA4CE0E8
:109D500053A12069FEF73AFE20B96869A0F57A7030
:109D6000079042E053A12069FEF730FE20B96869F0
:109D7000A0F57A70089038E053A12069FEF726FE1E
:109D800020B92048006801F089FE2EE052A1206928
:109D9000FEF71CFEB0B900BF03F0F8FD5E201A4BC1
:109DA0004FA24FF4C07100901F48FEF7D7FA1E482B
:109DB00001F0C4FB04F0B0F900BF01F011FF01F0A5
:109DC00034FE12E000BF03F0E1FD64200E4B48A218
:109DD0004FF4C07100901448FEF7C0FA124801F029
:109DE000DBFB04F099F900BF05E001A90548006814
:109DF00001F000FD00BF00BF16B1304601F097FF33
:109E00000BB0F0BD680000206FEE000825733A2506
:109E1000643A20634A534F4E5F5061727365206607
:109E200061696C0A000000003C41002063000000F2
:109E300025733A25643A2068617665206E6F742038
:109E4000630A000076616C75650000005365745309
:109E500074656572446972656374696F6E5F6C00E6
:109E60005365744D6F746F7253706565645F6C00F9
:109E70005365745374656572446972656374696F80
:109E80006E5F72005365744D6F746F7253706565C9
:109E9000645F72004865617274426561740000001D
:109EA000536574536D46696E4F66667365745F6C77
:109EB00000000000536574536D46696E4F6666730B
:109EC00065745F720000000053617665536D4669EA
:109ED0006E4F6666736574005265626F6F74000042
:109EE00025733A25643A205265626F6F740A000048
:109EF00025733A25643A206572726F7220630A00F6
:109F000010B50446206A00B910BD6069FFF7A1FCD6
:109F1000616A0831884200D2F6E7042104F1240086
:109F20006269FFF739FC042104F128006269FFF738
:109F300033FC6269616AE06AFFF72EFC0020206250
:109F400000BFE1E738B50446206B10B1012872D19B
:109F50001AE0A069FFF77AFC042800D238BD00227D
:109F600004216846A369FFF779FCA069FFF76EFC3E
:109F700000990831884200D2F0E700986063002021
:109F8000E0630120206357E0E06B40BB042168469A
:109F9000A269FFF7C6FB042104F10C00A269FFF7D8
:109FA000C0FB606B08280DDC04F14400A269616B02
:109FB000FFF7B7FB4FF080502064606BA063A06B8D
:109FC000E06334E0082104F14400A269FFF7A9FB33
:109FD000002020640820A063A06BE06327E0E16B11
:109FE000606B401A082813DCE36B606BC11A04F144
:109FF0004400A269FFF795FB4FF080502064E16BAD
:10A00000606B401AA063D4E90E100844E0630EE0D0
:10A01000082104F14400A269FFF783FB4FF00060C0
:10A0200020640820A063D4E90E100844E0630220F5
:10A03000206301E0FFE700BF00BF206B022815D1BD
:10A04000236CE16841EA030004F14401A26B00F0D3
:10A05000D3F858B1206C18B1206CB0F1006F02D168
:10A06000012020637AE70020206377E700BF75E7CF
:10A0700010B501211D2000F021F810BD29B1064ABC
:10A08000D2690243044BDA6104E0034AD269824395
:10A09000014BDA61704700000010024029B1064A06
:10A0A00012690243044B1A6104E0034A12698243B5
:10A0B000014B1A61704700000010024029B1064AA6
:10A0C00092690243044B9A6104E0034A9269824315
:10A0D000014B9A61704700000010024029B1064A06
:10A0E000D2680243044BDA6004E0034AD268824338
:10A0F000014BDA60704700000010024010B50121EA
:10A100000846FFF7DBFF01214806FFF7B7FF0121F3
:10A110000C20FFF7D3FF10BD10B586B00446062211
:10A1200069460D48FFF75DF9059801280AD10098A6
:10A130002060019860600298A0600398E060049835
:10A14000206106E018212046FEF719FC204600F0A9
:10A1500033F806B010BD000008FC010830B5CDB0E2
:10A160000546134C282107A8FEF709FC07A911484A
:10A17000006801F0F7FA0022DDE90F0103AB07C325
:10A1800006929DF833009DF832109DF83120CDE9FC
:10A19000002102909DF830302246F02111A8FEF7F0
:10A1A000DDF8032111A801F089FC4DB030BD00009D
:10A1B00068EF00086800002010B586B004460C481F
:10A1C000007808B106B010BD20680090606801906A
:10A1D000A0680290E0680390206904900120059037
:10A1E000062269460348FFF777F900BFEAE7000057
:10A1F0006400002008FC0108F0B585B004460E4656
:10A20000154600200090019404208DF808000020DD
:10A210008DF80900E8B28DF80A002A4631460DF1A2
:10A220000B00FEF735FB69460548FEF76AFF074657
:10A23000042F02D1002005B0F0BD0120FBE7000093
:10A240000064004010B500F001F810BD0CB500200E
:10A25000019000903348006840F480303149086034
:10A2600000BF3048006800F4003000900198401CA6
:10A270000190009818B90198B0F5A06FF1D1294864
:10A28000006800F4003010B10120009001E00020CF
:10A2900000900098012843D12348006840F0100046
:10A2A000214908600846006820F00300086008465D
:10A2B000006840F0020008601A4840681949486088
:10A2C0000846406848600846406840F4806048603E
:10A2D0000846406820F47C1048600846406840F416
:10A2E000E81048600846006840F08070086000BFD1
:10A2F0000C48006800F000700028F9D00948406858
:10A3000020F00300074948600846406840F002001A
:10A31000486000BF0348406800F00C000828F9D1ED
:10A320000CBD0000001002400020024070B5054640
:10A3300005262C4609E0052003F0FCF9D4E90220AB
:10A34000521D40F10000C4E9022020680028F2D02C
:10A35000002003F009FA70BD10B51348006840F002
:10A3600001001149086008464068104908400E493C
:10A370004860084600680E4908400B4908600846D6
:10A38000006820F4802008600846406820F4FE0041
:10A3900048604FF41F008860FFF754FF4FF00060E3
:10A3A0000449086010BD0000001002400000FFF8E2
:10A3B000FFFFF6FE08ED00E0F0B50C461546002262
:10A3C0000021068C4FF6FE773E400684028B018CFE
:10A3D0004FF60C7632407E1C06EA03162E433243BB
:10A3E000104EB0420ED0104EB0420BD0B0F1804FA4
:10A3F00008D00E4EB04205D00D4EB04202D00D4EE8
:10A40000B04206D14FF6FD76314044F001063143AB
:10A4100005E04FF6F576314044F001063143028302
:10A420000184F0BD002C01400034014000040040D4
:10A4300000080040000C0040F0B50C461546002214
:10A4400000210026078C4FF6EF7C07EA0C070784F3
:10A45000028B018C4FF6FF7707EA041640F6FF47A0
:10A460003A404FF6FF7707EA03373A434FF6FF7754
:10A4700007EA05273A43114FB8420ED0104FB842B1
:10A480000BD0B0F1804F08D00E4FB84205D00E4F20
:10A49000B84202D00D4FB84206D14FF6DF773940AF
:10A4A00046F01007394305E04FF65F77394044F036
:10A4B0001007394302830184F0BD0000002C0140E5
:10A4C000003401400004004000080040000C00403F
:10A4D000F0B50C461546002200210026078C4FF6E9
:10A4E000FF6C07EA0C070784828B018C4FF6FF771D
:10A4F00007EA04264FF60C773A404FF6FF7707EA53
:10A5000003172F433A43114FB8420ED0104FB842B1
:10A510000BD0B0F1804F08D00E4FB84205D00E4F8F
:10A52000B84202D00D4FB84206D14FF6FF5739401E
:10A5300046F48077394305E04FF2FF57394044F441
:10A540008077394382830184F0BD0000002C0140F4
:10A55000003401400004004000080040000C0040AE
:10A56000F0B50C461546002200210026078C4EF659
:10A57000FF7C07EA0C070784828B018C4FF6FF777C
:10A5800007EA043640F6FF473A404FF6FF7707EAFE
:10A5900005273A434FF6FF7707EA03373A43114F4F
:10A5A000B8420ED0104FB8420BD0B0F1804F08D057
:10A5B0000E4FB84205D00E4FB84202D00D4FB842F0
:10A5C00006D14DF6FF77394046F48057394305E010
:10A5D00047F6FF57394044F480573943828301845A
:10A5E000F0BD0000002C0140003401400004004098
:10A5F00000080040000C004010B50024012188072D
:10A6000000F07DFA18B10121880700F06EF90121F0
:10A61000880700F074FA20B10121880700F065F97D
:10A620005AE00821C80600F06AFA012854D108212E
:10A63000800700F05AF92D48006848B94FF0804073
:10A6400000F056FA2A49086001202849086043E0D2
:10A650002648006801283FD1800700F049FA2549C3
:10A660000860084600682249096888420CDD2148D4
:10A6700000681F490968401AC1171F4B0CCB80188E
:10A6800059411D4A03C20FE0194800684FF6FF7197
:10A69000081A184909680844C117174AD2E9003254
:10A6A000C0185141144A03C214480068401C1349A1
:10A6B00008603C280DD10A2200230F4903C9FDF789
:10A6C0001CFE0F4A03C200200B4A106050600B4969
:10A6D00008600020054908603CB14FF080500949EE
:10A6E0000860BFF34F8FBFF36F8F10BDD000002005
:10A6F000C8000020CC000020D8000020E00000208E
:10A70000E800002004ED00E010B5002401216148BC
:10A7100000F0F5F920B101215E4800F0E6F8AEE066
:10A7200008215C4800F0EBF9012854D10821594870
:10A7300000F0DBF85848006840B9564800F0D8F9F6
:10A740005649086001205449086098E05248006862
:10A750000128E4D14F4800F0CBF951490860084680
:10A7600000684E49096888420CDD4D4800684B4935
:10A770000968401AC1174B4B0CCB80185941494A04
:10A7800003C20EE0454800684FF6FF71081A4449BD
:10A7900009680844C117434B0CCB80185941414A02
:10A7A00003C241480068401C3F4908603C280ED164
:10A7B0000A2200233B4903C9FDF79FFD3B4A03C220
:10A7C0000021384A1160516000203749086000209C
:10A7D0003149086053E010212E4800F090F901281B
:10A7E0004DD110212B4800F080F83148006840B965
:10A7F000284800F080F92F49086001202C490860A2
:10A800003DE02B480068012839D1224800F073F957
:10A8100029490860084600682649096888420ADD17
:10A820002548006823490968401A244909680844F2
:10A83000224908600CE01F4800684FF6FF71081AB3
:10A840001D49096808441D49096808441B490860F6
:10A850001B480068401C1A4908603C280CD1174866
:10A8600000680A2190FBF1F0C117164A03C20020CC
:10A87000124908601249086000200D4908603CB187
:10A880004FF0805010490860BFF34F8FBFF36F8FB8
:10A8900010BD00000008004088000020800000205B
:10A8A000840000209000002098000020A0000020DC
:10A8B000B0000020A8000020AC000020B400002060
:10A8C000B8000020C000002004ED00E021B10288A3
:10A8D00042F08002028004E002884FF67F731A4043
:10A8E00002807047CA4302827047CA43028270479F
:10A8F00021B1028842F00102028004E002884FF692
:10A90000FE731A400280704710B5044668488442BE
:10A9100008D10121C014FFF7E1FB0021E014FFF78B
:10A92000DDFBC4E0B4F1804F08D101210846FFF7F8
:10A93000B5FB00210120FFF7B1FBB8E05D48844280
:10A9400008D101210220FFF7A9FB00210220FFF717
:10A95000A5FBACE05848844208D101210420FFF750
:10A960009DFB00210420FFF799FBA0E0534884429F
:10A9700008D101210820FFF791FB00210820FFF7F3
:10A980008DFB94E04E48844208D101211020FFF74E
:10A9900085FB00211020FFF781FB88E049488442B5
:10A9A00008D101212020FFF779FB00212020FFF7AB
:10A9B00075FB7CE04448844208D101214014FFF734
:10A9C0008DFB00216014FFF789FB70E03F48844253
:10A9D00009D10121C804FFF781FB00214FF40020B9
:10A9E000FFF77CFB63E03A48844209D10121080566
:10A9F000FFF774FB00214FF48010FFF76FFB56E068
:10AA00003448844209D101214805FFF767FB002142
:10AA10004FF40010FFF762FB49E02F48844208D151
:10AA200001214020FFF73AFB00214020FFF736FBD1
:10AA30003DE02A48844208D101218020FFF72EFB07
:10AA400000218020FFF72AFB31E02548844208D10D
:10AA500001218015FFF722FB0021A015FFF71EFB47
:10AA600025E02048844209D101210804FFF736FB84
:10AA700000214FF48030FFF731FB18E01A48844280
:10AA800009D101214804FFF729FB00214FF40030D0
:10AA9000FFF724FB0BE01548844208D1012188040C
:10AAA000FFF71CFB00214FF48020FFF717FB10BDC0
:10AAB000002C01400004004000080040000C004051
:10AAC000001000400014004000340140004C0140E0
:10AAD000005001400054014000180040001C00409C
:10AAE0000020004000400140004401400048014077
:10AAF0000146888F70470146B1F84000704730B575
:10AB00000246002000230024158A05EA01039589E6
:10AB100005EA010413B10CB1012000E0002030BDB2
:10AB200070B505460C46244885420ED02348854220
:10AB30000BD0B5F1804F08D02148854205D021487F
:10AB4000854202D02048854200D100E000BF208825
:10AB500050B92389A28861882846FFF72DFCE18837
:10AB6000284600F098F925E0208804280AD1238996
:10AB7000A28861882846FFF75FFCE188284600F03C
:10AB800093F917E0208808280AD12389A2886188D0
:10AB90002846FFF79DFCE188284600F092F909E07D
:10ABA0002389A28861882846FFF7DAFCE1882846D5
:10ABB00000F090F970BD0000002C0140003401400D
:10ABC0000004004000080040000C00401AB18389D6
:10ABD0000B43838102E083898B43838170470000AC
:10ABE00070B5002400220023058C4FF6FE76354018
:10ABF0000584028C8388048B4FF68F752C40B51E1C
:10AC00002C400D882C43751E2A400D892A434D88FF
:10AC10002A43144DA8420BD0134DA84208D0134D1F
:10AC2000A84205D0124DA84202D0124DA84213D11D
:10AC30004FF6F7752A404D892A434FF6FB752A4097
:10AC40008D882A434FF6FF652B404FF6FF552B406A
:10AC50008D892B43CD892B4383800483CD888586C2
:10AC6000028470BD002C01400034014000400140CE
:10AC700000440140004801400A460021018B4FF684
:10AC8000F7731940114301837047000070B5002429
:10AC900000220023058C4FF6EF7635400584028CA8
:10ACA0008388048B48F6FF752C404FF6FF452C40F7
:10ACB0000D884FF6FF7606EA05252C434FF6DF7523
:10ACC0002A400D8906EA05152A434D8806EA05152E
:10ACD0002A43154DA84202D0144DA8421DD14FF66B
:10ACE0007F752A404D894FF6FF7606EA05152A43FF
:10ACF0004FF6BF752A408D8806EA05152A434FF6A0
:10AD0000FF352B404FF2FF752B408D8906EA8505F4
:10AD10002B43CD8906EA85052B4383800483CD88A8
:10AD20000587028470BD0000002C01400034014002
:10AD30000A460021018B4FF2FF7319404FF6FF7353
:10AD400003EA0223194301837047000070B5002411
:10AD500000220023058C4FF6FF6635400584028CE7
:10AD60008388848B4FF68F752C404FF6FC752C40F2
:10AD70000D882C434FF6FF552A400D894FF6FF767C
:10AD800006EA05252A434D8806EA05252A43154D7E
:10AD9000A84202D0144DA8421DD14FF2FF752A409F
:10ADA0004D894FF6FF7606EA05252A434FF6FF3513
:10ADB0002A408D8806EA05252A434EF6FF752B406A
:10ADC0004DF6FF752B408D8906EA05152B43CD897D
:10ADD00006EA05152B4383808483CD88858702840A
:10ADE00070BD0000002C0140003401400A460021E3
:10ADF000818B4FF6F7731940114381837047000030
:10AE000070B5002200230024058C4EF6FF763540F5
:10AE10000584038C8488828B48F6FF752A404FF6A0
:10AE2000FF452A400D884FF6FF7606EA05252A439E
:10AE30004DF6FF752B400D8906EA05352B434D88ED
:10AE400006EA05352B430B4DA84202D00A4DA84215
:10AE500008D14BF6FF752C408D894FF6FF7606EA38
:10AE600085152C4384808283CD88A0F840500384CC
:10AE700070BD0000002C0140003401400A46002152
:10AE8000818B4FF2FF7319404FF6FF7303EA0223E1
:10AE9000194381837047028B4FF6F3731A40028384
:10AEA000028B0A4302837047028B4FF2FF331A4032
:10AEB0000283028B4FF6FF7303EA01231A430283D6
:10AEC0007047828B4FF6F3731A408283828B0A435A
:10AED00082837047828B4FF2FF331A408283828BCA
:10AEE0004FF6FF7303EA01231A4382837047000081
:10AEF000002202881D4B98420ED01D4B98420BD069
:10AF0000B0F1804F08D01B4B984205D01A4B9842A5
:10AF100002D01A4B984204D14FF68F731A404B88D7
:10AF20001A43174B984207D0164B984204D04FF65D
:10AF3000FF431A40CB881A4302808B8883850B8895
:10AF400003850A4B98420BD0094B984208D00E4B10
:10AF5000984205D00D4B984202D00D4B984201D13A
:10AF60000B7A03860123838270470000002C014086
:10AF7000003401400004004000080040000C004084
:10AF80000010004000140040004001400044014017
:10AF90000048014000B589B001215448FEF758FB34
:10AFA00001215348FEF754FB4FF48050ADF80400E4
:10AFB00010208DF8070003208DF8060001A94D48E8
:10AFC000FEF7BAFA4FF40050ADF8040010208DF8E7
:10AFD000070003208DF8060001A94648FEF7ACFAE9
:10AFE00001210820FFF76AF840F60840ADF8040098
:10AFF00018208DF8070001208DF8060001A93D48B2
:10B00000FEF79AFA01210420FFF758F84FF40040A8
:10B01000ADF8040018208DF8070001208DF8060017
:10B0200001A93548FEF788FA01210846FFF726F8FE
:10B0300049F64040ADF81C002320ADF81800002070
:10B04000ADF81E00ADF81A0006A94FF08040FFF7DA
:10B050004FFF6020ADF808000120ADF80A0040F66F
:10B06000B830ADF80E000020ADF8100002A94FF086
:10B070008040FFF7B5FD0821C806FFF7FDFD02A9D6
:10B080004FF08040FFF702FE0821C806FFF750FE90
:10B0900002A94FF08040FFF759FE0821C806FFF7CC
:10B0A000A5FE02A94FF08040FFF7AAFE0821C806BE
:10B0B000FFF7E4FE01218807FFF708FC012188075C
:10B0C000FFF710FC012211469007FFF77FFD0121D9
:10B0D0008807FFF70DFC40F6B8304FF080418886B6
:10B0E000088788870549088009B000BD0002300044
:10B0F00000031800000C014000080140400000401F
:10B1000000B589B001210920FEF7D8FF01210420F4
:10B11000FEF7B4FF4FF48070ADF8200048208DF8A2
:10B12000230003208DF8220008A93648FEF704FA10
:10B130004FF40070ADF8200048208DF82300032064
:10B140008DF8220008A92F48FEF7F6F92E48FFF7E0
:10B15000DBFB4FF6FF70ADF818002320ADF81400AC
:10B160000020ADF81A00ADF8160005A92648FFF733
:10B17000BFFE0820ADF808000020ADF80A0001204D
:10B18000ADF80C000020ADF80E000120ADF8100065
:10B1900002A91D48FFF7C4FC0C20ADF808000020F0
:10B1A000ADF80A000120ADF80C000020ADF80E004B
:10B1B0000120ADF8100002A91348FFF7B1FC0122ED
:10B1C00008211148FFF702FD012210210E48FFF768
:10B1D000FDFC01210C48FFF78BFB4FF44070FEF79C
:10B1E00013FD1E208DF804000E208DF805000020B0
:10B1F0008DF8060001208DF8070001A8FEF7CCFCB1
:10B2000009B000BD000C01400008004010B500224C
:10B21000002340F66A14A14200D100BF0A120124A3
:10B220009440A3B2DC43048010BD70B502460024F4
:10B2300000230025002040F66A16B14200D100BF6D
:10B24000C1F3421501F01F03012606FA03F3012D95
:10B2500002D19689334006E0022D02D1168A33408E
:10B2600001E0968A33400C12012606FA04F416888F
:10B27000344013B10CB1012000E0002070BDF0B5E6
:10B280000346002400260025002040F66A17B94234
:10B2900000D100BF1846C1F3421401F01F06012778
:10B2A00007FA06F5012C01D10C3004E0022C01D183
:10B2B000103000E014301AB107682F43076002E035
:10B2C0000768AF430760F0BD01468888C0F30800F7
:10B2D0007047C1F3080282807047000030B585B026
:10B2E00014216846FDF74BFB324C6A460021324878
:10B2F000FDF77FFE206808B1206A08B105B030BDB7
:10B300000198C0F3C165019820F07C40A062E0691B
:10B3100010B101284AD120E0022D0CD19DF80A205D
:10B320000DF10B01E06AFDF7B3FA012020629DF8F0
:10B330000A00606210E0012D02D10020606236E058
:10B340009DF80A200DF10B01E06AFDF7A1FA9DF8C6
:10B350000A0060620120E06129E01DB900206062FE
:10B36000E06122E0012D0ED1636AE16AC8189DF800
:10B370000A200DF10B01FDF78BFA9DF80A10606AA7
:10B380000844606211E0636AE16AC8189DF80A2007
:10B390000DF10B01FDF77CFA9DF80A10606A084474
:10B3A0006062012020620020E06100E000BF00BF79
:10B3B00000BFA3E7EC3100200064004010B5014657
:10B3C00000200A4613781B06547803EB0443947854
:10B3D00003EB0423D478181910BD00007CB51025A8
:10B3E0002946094800F030F904460CB900207CBD1C
:10B3F00000200B2103468022CDE9001003A106485E
:10B4000002F04AFD2046F2E74523010043756470CF
:10B410005461736B000000005192000810B504469F
:10B42000206800B910BD2046FEF76AFD2046FEF7F1
:10B4300089FD00BFF6E77CB504460D4616460020A0
:10B44000019000235A1E1946E06C02F07DFB00BFFC
:10B45000206800B92AE06069FEF7F8F9042800D2F4
:10B4600024E00022042101A86369FEF7F7F960696E
:10B47000FEF7ECF901990831884200D216E00198F4
:10B48000B04203DD4FF0FF3001900FE0042101A82E
:10B490006269FEF746F9042168466269FEF741F9E0
:10B4A000626928460199FEF73CF900BF00BF0023FE
:10B4B0001A461946E06C02F035FC01987CBD7FB558
:10B4C00004460D460026206810B9002004B070BD67
:10B4D00000235A1E1946E06C02F036FB00BFA0693B
:10B4E000FEF7B7F902990831884200D210E0042132
:10B4F00002A8A269FEF750F9042103A8A269FEF789
:10B500004BF9A26928460299FEF746F9012600BFC9
:10B5100000BF00231A461946E06C02F003FC3046D7
:10B52000D4E710B50446206800B910BD0120606062
:10B53000204600F021F800BFF7E70000F0B5C1B0E9
:10B54000044604262046FDF739F9451CF82D02DD96
:10B55000002041B0F0BD2B462246314601A800F044
:10B5600090F90746E0233A4601A902480068FFF730
:10B57000A6FFEEE76C00002010B50446206800B975
:10B5800010BD00202060002202210248FDF79EFC31
:10B5900000BFF5E700640040F0B5C1B004460526E1
:10B5A0002046FDF70BF9451CF82D02DD002041B0C7
:10B5B000F0BD2B462246314601A800F062F907464D
:10B5C000E0233A4601A902480068FFF778FFEEE75A
:10B5D0006C00002070B50446002514B1012C10D178
:10B5E00007E00A480CC80A480021FCF786FE054619
:10B5F00008E008480CC806480021FCF77EFE054616
:10B6000000E000BF00BF284670BD0000A000002081
:10B6100080841E00C000002008B50122694602484F
:10B62000FDF7DFFE009808BD04FC0108054800682E
:10B6300010B900200146704702480168D1E90201B3
:10B64000F9E700005C00002070B506460D46104C7E
:10B65000206808B1002070BD012002F047FAE064C4
:10B660002846FEF763F9A66025614FF4A0610948FA
:10B67000FEF73AF860614FF4A0610748FEF734F82E
:10B68000A061012020600548E0622046E3E7000059
:10B69000EC3100203C3200203C3700203C3C0020B4
:10B6A00010B5FFF72DFD10BD10B54FF40041080394
:10B6B000FEF7B4FA62B6FFF7AFFF102807D0FFF726
:10B6C000ABFF0F2803D000F0B0F900BFFEE700F099
:10B6D0005DFA0649086000F04FF805490860FFF779
:10B6E0007DFE0449086000F019F810BD74000020C8
:10B6F000680000206C0000202DE9F04104460D4652
:10B70000FFF794FF06460F46A01B75EB070002D219
:10B710000120BDE8F0810020FBE700001CB545F2E8
:10B720005550FEF7FDF80420FEF7EEF84FF41A70BE
:10B73000FEF7F0F8FEF7E0F8FEF7D6F800200D214E
:10B7400003468022CDE9001002A1054802F0A4FBC7
:10B750001CBD0000497764675461736B00000000F2
:10B76000659B000870B504460D46282221462846F0
:10B77000FDF7D3F8012070BD30B589B0184C3421E5
:10B780002046FDF7FCF814B9002009B030BD03A82D
:10B79000FEF7C2FC039860600499A1600599E1601E
:10B7A0000698A0610798E0610720607020756075B9
:10B7B000A075E07500F09BF80A4DFFF771FF04F1EA
:10B7C00030000A2123464FF40072CDE9001006A193
:10B7D000284602F061FB0120A0622046D5E7000068
:10B7E000B831002009B80008594A5F4D7463745499
:10B7F00061736B0070B504460D4628222946204629
:10B80000FDF78BF8012070BD2DE9FC41054614269B
:10B810002C460720A075E07520E0E07DA17DCDE9F4
:10B820000010627D207DD4E9061300F069F8A07D48
:10B83000072802D10020206203E00020FFF7CAFEA3
:10B840002062E07D072802D10020606203E0012031
:10B85000FFF7C0FE6062142001F06CFFE06A002870
:10B86000DBD0002001F080FFBDE8FC8110B504466C
:10B87000A06A00B910BD00F0D1F80120E06200BF5D
:10B88000F8E72DE9F04704460E4691469846002514
:10B890001027E12F00D1E027320E28466D1C2254DC
:10B8A000C6F3074228466D1C2254C6F307222846D9
:10B8B0006D1C225428466D1C26543A0E28466D1CD9
:10B8C0002254C7F3074228466D1C2254C7F30722AF
:10B8D00028466D1C225428466D1C27546019424688
:10B8E0004946FCF7D5FF08EB0500BDE8F08710B529
:10B8F000FEF7BEFBFDF7FEFDFFF74CFB10BD0000A1
:10B900002DE9F04706460F4690469946DDE9084581
:10B9100001218807FEF7E9FF06F00F00C01F00EBCA
:10B92000C00101EB001040F6B831A1EBC000C01B14
:10B930004FF08041888608F00F00C01F00EBC00167
:10B9400001EB001040F6B83101EBC00048444FF065
:10B950008041088704F00F01C81F002801DB014661
:10B9600000E0414240F2712251434FF6FF7202EA79
:10B97000C1014FF08042918705F00F01C81F0028D8
:10B9800001DB014600E0414240F2712251434FF693
:10B99000FF7202EAC1011F4A118004F00F0007285C
:10B9A00004D191141C48FDF79BFE12E004F00F0037
:10B9B000072805DD4FF480511748FDF793FE08E096
:10B9C00004F00F00072804DA4FF480511248FDF705
:10B9D00087FE05F00F00072805D14FF400510E48EF
:10B9E000FDF77EFE12E005F00F00072805DD4FF49D
:10B9F00000510948FDF776FE08E005F00F00072822
:10BA000004DA4FF400510448FDF76AFE0120BDE856
:10BA1000F087000040000040000C014010B50021FC
:10BA20004FF08040FEF764FF10BD10B545F2555051
:10BA3000FDF776FF0420FDF767FF0120FDF76AFFA1
:10BA4000FDF75AFFFDF750FF10BD0000F0B5C1B083
:10BA500007460D46164600244FF4807201A90E4891
:10BA60000068FFF7E8FC0446002C12DDAC4203DD61
:10BA70004FF0FF3041B0F0BD01A8FFF79FFC3060F0
:10BA8000A4F1080203A93846FCF702FFA4F108005C
:10BA9000F0E72046EEE700006C00002010B586B00D
:10BAA00004466846FEF738FBA0690390E0690490FD
:10BAB0006846FEF781FB06B010BD0000F0B5C1B0CE
:10BAC00004460E462046FCF779FE451CF82D02DDA3
:10BAD000002041B0F0BD2B462246314601A8FFF7B9
:10BAE000D0FE0746E0233A4601A902480068FFF766
:10BAF000E6FCEEE76C0000201CB500BF4FF4807040
:10BB000001F0D4FC044600BF00BF01F03FFF7C20E1
:10BB10000E4B0FA24FF4C07100901348FCF71EFCAF
:10BB20001148FFF70BFD02F0F7FA00BF0DE005200A
:10BB300001F000FE01AA4FF480712046FFF786FF56
:10BB4000002802DD2046FEF78DF8F0E777EE0008CA
:10BB500025733A25643A20626F6F74202D2D2D2DA8
:10BB60003E20757365720A003C4100202DE9F041CA
:10BB7000064614461D46FFF759FD07468846391903
:10BB800048EB0500C6E90010BDE8F0811CB51020A7
:10BB900001F08CFC04460CB900201CBD0020206084
:10BBA0006060A060E060142123468022CDE900108F
:10BBB00003A1074802F070F9064804602046ECE74C
:10BBC000537973436C6F636B5461736B00000000B7
:10BBD0002DA300085C0000200121016070470000D7
:10BBE00010B507480068FFF7F7FF06480068FFF741
:10BBF0003DFE05480068FFF794FC01F04FFD10BDC5
:10BC000074000020680000206C000020490050EA09
:10BC1000C12018BF04204A0D18BF40F0010040F2B7
:10BC2000FF72B2EB515F08BF40F00200012808BF6D
:10BC3000052070472DE9F0414F1E00EBC701044677
:10BC4000D1E9000115461E4637F006020DD02A46FE
:10BC5000334602F081FD7F1E04EBC703D3E90023C6
:10BC600002F0E4FA37F00602F1D1022F25D0042FBA
:10BC700013D0062F18BFBDE8F0812A46334602F0E4
:10BC80006BFDD4E90A2302F0D1FA2A46334602F0CA
:10BC900063FDD4E9082302F0C9FA2A46334602F0CC
:10BCA0005BFDD4E9062302F0C1FA2A46334602F0CE
:10BCB00053FDD4E9042302F0B9FA2A46334602F0D0
:10BCC0004BFDD4E9022302F0B1FA2A46334602F0D2
:10BCD00043FDD4E90023BDE8F04102F0A7BA00001B
:10BCE000002213461046014902F05CBB0000F03F01
:10BCF00002F09CBA002213461046114602F052BBD5
:10BD000040F2013200204FF0E04103F067B800003C
:10BD1000024A0020110703F061B8000001FDFFFF97
:10BD200030380A2801D2012070470020704770B5D2
:10BD300004461BE02568A08900F4807020B9A06843
:10BD400010B1A068FFF7F3FFA08900F4807020B95C
:10BD5000206910B1206901F0C3FC206A10B1206A8B
:10BD600001F0BEFC204601F0BBFC2C46002CE1D1CA
:10BD700070BD70B505460E46AC6800E024682CB175
:10BD80003146206A00F04AF80028F7D1204670BDFD
:10BD900010B5282001F08AFB04461CB1282120465A
:10BDA000FCF7EDFD204610BD10B5044600221146FB
:10BDB000204600F001F810BD2DE9F04780460D4601
:10BDC00016460024FFF7E4FF0746002012490860EA
:10BDD0000FB9BDE8F087404601F0E6FB81464946D1
:10BDE000384600F09DFB044624B93846FFF79FFF14
:10BDF0000020EEE766B1204601F0D6FB044620782D
:10BE000030B13846FFF793FF034804600020E0E7B5
:10BE100005B12C603846DCE76000002070B50446B0
:10BE20000D462CB9AC4201D0012070BD0020FCE7CA
:10BE30000DB90120F9E705E0207808B90020F4E702
:10BE4000641C6D1C2078FCF77CFA06462878FCF709
:10BE500078FA8642F0D02078FCF773FA0646287804
:10BE6000FCF76FFA301AE0E7002107E042F6E061E4
:10BE700000BF0A1EA1F1010399B2FAD1021EA0F17E
:10BE8000010398B2F2D170471CB54FF4C870FFF7A8
:10BE9000EBFFFFF709FC084C00200A2103464FF492
:10BEA0008062CDE9001005A1204601F0F5FF01F008
:10BEB0003BFD00201CBD0000F9BA00084D61696E11
:10BEC0005461736B000000002DE9F04705460C46F5
:10BED00020785B2804D0264804600020BDE8F08765
:10BEE0000520E860601C01F05FFB044620785D28B7
:10BEF00001D1601CF2E7FFF74BFF0646A860A86877
:10BF000008B90020EAE7204601F04EFB8046414692
:10BF1000304600F005FB074601F046FB04460CB92D
:10BF20000020DBE717E0FFF733FF071E00D1D5E75E
:10BF300037607E603E46601C01F036FB8146494614
:10BF4000304600F0EDFA804601F02EFB04460CB9B5
:10BF50000020C3E700BF20782C28E4D020785D289B
:10BF600001D1601CBAE7024804600020B6E7000077
:10BF700060000020014600220878302806DB08789F
:10BF8000392803DC08783038024415E00878412865
:10BF900006DB0878462803DC0878373802440BE0D3
:10BFA0000878612806DB0878662803DC08785738AB
:10BFB000024401E0002070471201491C0878302833
:10BFC00006DB0878392803DC08783038024415E0AD
:10BFD0000878412806DB0878462803DC08783738DB
:10BFE00002440BE00878612806DB0878662803DC49
:10BFF00008785738024401E00020DCE71201491CB0
:10C000000878302806DB0878392803DC08783038CF
:10C01000024415E00878412806DB0878462803DC4E
:10C020000878373802440BE00878612806DB087886
:10C03000662803DC08785738024401E00020BAE79C
:10C040001201491C0878302806DB0878392803DCFF
:10C0500008783038024415E00878412806DB087873
:10C06000462803DC0878373802440BE0087861285A
:10C0700006DB0878662803DC08785738024401E0BC
:10C08000002098E7104696E72DE9F04F8BB08346E5
:10C090008A460020044605460026674F0021884650
:10C0A00089460990012008909AF800002D2802D1B5
:10C0B000624F0AF1010A9AF80000302801D10AF112
:10C0C000010A9AF80000312822DB9AF8000039288A
:10C0D0001EDC00BF1AF8011BA1F1300002F0E9FAE2
:10C0E0000022574BCDE906012046294602F034FBD9
:10C0F000CDE90401DDE9062302F098F804460D4677
:10C100009AF80000302803DB9AF800003928E1DDB6
:10C110009AF800002E2830D19AF8010030282CDB44
:10C120009AF80100392828DC0AF1010A00BF1AF840
:10C13000011BA1F1300002F0BCFA0022404BCDE916
:10C1400006012046294602F007FBCDE90401DDE99E
:10C15000062302F06BF804460D460022364B40469B
:10C16000494602F01FFD804689469AF800003028B3
:10C1700003DB9AF800003928D9DD9AF80000652819
:10C1800003D09AF80000452823D10AF1010A9AF851
:10C1900000002B2802D10AF1010A08E09AF80000F9
:10C1A0002D2804D14FF0FF3008900AF1010A08E071
:10C1B0001AF8010B3038099901EB810100EB4100BD
:10C1C00009909AF80000302803DB9AF8000039281B
:10C1D000EEDDDDE9082101FB02F002F06AFA4246D9
:10C1E0004B46CDE9000102F021F802460B46CDE9AD
:10C1F00002010020124900F0F1F922462B46CDE958
:10C2000006013046394602F0A7FACDE90401DDE91E
:10C21000062302F0A1FA04460D46CBE90645204666
:10C22000294602F017FACBF814000320CBF80C00D3
:10C2300050460BB0BDE8F08F0000F03F0000F0BFAB
:10C24000000024402DE9F04706460C4620787B2864
:10C2500004D0404804600020BDE8F0870620F0606C
:10C26000601C01F0A1F9044620787D2801D1601CF2
:10C27000F2E7FFF78DFD0546B060B06808B9002011
:10C28000EAE7204601F090F980464146284600F052
:10C2900063F8074601F088F904460CB90020DBE793
:10C2A000286928620020286120783A2803D029488C
:10C2B00004600020D0E7601C01F076F9804641461A
:10C2C000284600F02DF9074601F06EF904460CB936
:10C2D0000020C1E731E0FFF75BFD071E00D1BBE79F
:10C2E0002F607D603D46601C01F05EF98146494645
:10C2F000284600F031F8804601F056F904460CB9A2
:10C300000020A9E7286928620020286120783A28BF
:10C3100003D01048046000209EE7601C01F044F93F
:10C3200081464946284600F0FBF8804601F03CF97A
:10C3300004460CB900208FE700BF20782C28CAD013
:10C3400020787D2801D1601C86E702480460002027
:10C3500082E70000600000202DE9F05F83468846F8
:10C3600008F10104002798F80000222805D06A4847
:10C37000C0F800800020BDE8F09F04E014F8011B25
:10C380005C2900D1641C2078222804D0207810B1C8
:10C39000781C071EF2D1781C01F088F88146B9F1AB
:10C3A000000F01D10020E6E708F101044D469EE0B0
:10C3B00020785C2804D014F8010B05F8010B96E0F6
:10C3C000641C2078722818D006DC622809D0662800
:10C3D0000BD06E287ED10CE0742812D07528F9D1CC
:10C3E00013E0082005F8010B7FE00C2005F8010B95
:10C3F0007BE00A2005F8010B77E00D2005F8010B22
:10C4000073E0092005F8010B6FE0601CFFF7B2FD37
:10C410000646241DB6F55C4F02D3B6F5604F00D337
:10C4200006B962E0B6F5584F1CD3B6F55C4F19D289
:10C4300060785C2802D1A078752800D055E0E01C17
:10C44000FFF798FD8246A41DBAF55C4F02D3BAF5FA
:10C45000604F00D349E0C6F30901504661F39F20C5
:10C4600000F580360427802E01D2012708E0B6F5BA
:10C47000006F01D2022703E0B6F5803F00D2032708
:10C480003D44012F20D0022F15D0032F0AD0042FB6
:10C4900024D106F0BF0040F08001681E05460170FF
:10C4A000B60900BF06F0BF0040F08001681E0546D7
:10C4B0000170B60900BF06F0BF0040F08001681EA1
:10C4C00005460170B60900BF1448C05D3043C1B2D3
:10C4D000681E00E005E00546017000BF00BF3D4456
:10C4E00003E0207805F8010B00BF00BF641C207832
:10C4F000222803D0207800287FF45AAF002028702B
:10C500002078222800D1641CCBF810900420CBF8AE
:10C510000C0020462FE700006000002068EE0008B5
:10C5200070B505460C460CB9002070BD042224A14C
:10C530002046FCF762F918B90220E860201DF4E7F4
:10C54000052221A12046FCF758F918B90020E8601F
:10C55000601DEAE704221EA12046FCF74EF920B92F
:10C560000120E8606861201DDFE72078222804D1DF
:10C5700021462846FFF7F0FED7E720782D2805D082
:10C580002078302807DB2078392804DC214628462B
:10C59000FFF77AFDC9E720785B2804D121462846B9
:10C5A000FFF792FCC1E720787B2804D1214628467A
:10C5B000FFF748FEB9E7084804600020B5E700002F
:10C5C0006E756C6C0000000066616C7365000000A5
:10C5D0007472756500000000600000202DE9F04DC8
:10C5E0001D460C4698B0174621F0004123F0004349
:10C5F000002814BF4FF0010C4FF0000C0CEB440C62
:10C60000FE4A0CEB02064FEA620C66452BD33E0055
:10C6100018BF012606EB45061644F94A964222D376
:10C62000F84A53EA070C02D0944205D148B918B031
:10C6300000201146BDE8F08D002808BF4FF0000C27
:10C6400001D04FF0010C0CEB440212F5001F0AD888
:10C65000002F14BF4FF0010C4FF0000C0CEB450203
:10C6600012F5001F07D918B03A462B462146BDE8FF
:10C67000F04DFFF73DBB0022DFF88CA3002CB8BFC4
:10C68000534526DADFF884C36345A8BF022220DAC7
:10C69000DFF870C39C451CDCDFF874C30CEB235C33
:10C6A000BCF1140F08DDCCF1340627FA06FC0CFAB5
:10C6B00006F6BE420DD108E05FB9CCF1140623FAAC
:10C6C00006FC0CFA06F69E4203D10CF00102C2F100
:10C6D000020251EA000C19D1002D17DA002C18BF04
:10C6E000022A01D0012A07D00220FCF73BFA18B039
:10C6F000BDE8F04DFFF7F4BA0220FCF733FAFFF77C
:10C70000EFFA18B081F00041BDE8F08DB7F1000CF0
:10C710006CD1534525D104F1804212F5801201BF3E
:10C7200000280020B74918B008BFBDE8F08DB54813
:10C73000884207DC002DA1BF6046294618B0BDE83D
:10C74000F08D07E0281E05DA80F0004118B0604641
:10C75000BDE8F08DAF497944D1E9000118B0BDE8DA
:10C76000F08DDFF8A0C2634525D1002D1FDA19B185
:10C77000514512D1D8B909E0002840F0EC82A24A14
:10C78000214618B062F31E01BDE8F08D002021465D
:10C7900018B060F31E01BDE8F08D08DA18B023462A
:10C7A000BDE8F04D02460020614601F0FBBD18B027
:10C7B0002146BDE8F08D514518DAB5F1804F0DD016
:10C7C000A5F1005CBCF1FF5C10D1B4F1000C0DDBF5
:10C7D00018B06146BDE8F04D00F0EFBE234618B03A
:10C7E0000246BDE8F04D194601F0B6BF060024F040
:10C7F000004C3BD1D9B1514533D1002C06DD002D81
:10C80000A1BF0020514618B0BDE8F08D002C01DD1D
:10C81000002D1BDB002C13DA002D11DB012A4FF059
:10C82000000014BF78497C4918B0BDE8F08D022A99
:10C8300018BF002C0AD0012A08D1002C06DA0AE021
:10C84000002CB8BF002D11DA012A04D0002018B046
:10C850000146BDE8F08D18B000204FF00041BDE862
:10C86000F08DA1F14050B0F17F601AD0012000EBB3
:10C87000E47050EA020421D0624C521E4FF0000BCB
:10C88000104304BF4FF0000B644C654883427CDDCD
:10C89000644A654893421FDD884217DB002D25DB83
:10C8A00037E0002C00DA4AB1022A0CBF01204FF019
:10C8B000FF3018B0BDE8F04D01F0FBBE0120FCF7E1
:10C8C00051F918B0BDE8F04DFFF714BA4D4A8A424D
:10C8D00002DC002D0ADC1CE0814202DA002D18DAAD
:10C8E00004E0484B994220DD002D12DD0220FCF7C8
:10C8F00039F9FFF705FA05460E4600225346584619
:10C90000214601F029FF18B066F31E012846BDE854
:10C91000F08D0220FCF726F9FFF7FAF90A462146C6
:10C9200018B062F31E01BDE8F08D0022304661466A
:10C9300002F038F980460E466FF0010202F04EFA1E
:10C940004FF05532394B02F03BF84246334601F086
:10C9500003FF0022364B02F033F88246424633464C
:10C9600004911046194601F0F7FE5246049B01F06F
:10C97000F3FE8A4600904FF0C0422E4B40463146AF
:10C9800001F0EAFE2C4A2B4B00E027E0CDE906013E
:10C990005146009801F0E0FE82460191274A284B5B
:10C9A0004046314601F0D8FE5246019B02F0FAF8AB
:10C9B00082460B4602460591DDE9060101F036FC90
:10C9C000DDE9062300268846304602F0EBF85246A1
:10C9D000059B01F0F5FF024600F07EB90020B1F59D
:10C9E000801F07DA35223046614602F0F7F9064625
:10C9F0006FF0340000EB215024E00000FFFF1F0027
:10CA0000FFFF0F000000F03F0000F07F00004043F8
:10CA100001FCFFFF062800000000F0FF0000F0BF4F
:10CA20000000E0410000F043FFFFEF3F5555D53FC8
:10CA30000000E03F4715F73FFE822B6544DF5DF8BD
:10CA40000BAE543EA0F2FF300190C1F3130040F052
:10CA50007F6141F040510291FE498842D8BF0020D9
:10CA600004DDFD498142C8BF012001DD0D9008E0D1
:10CA700000200D900198401C01900298A0F58010B4
:10CA800002900299F54878440B910D9900EBC10092
:10CA9000D0E900230F9330460A920B9902F082F8F6
:10CAA000CDE90601DDE90A2130460F9B01F0BEFB0E
:10CAB00002460B460020EA4901F074FC059102464B
:10CAC0000B460090DDE9060101F046FE1490E548B2
:10CAD0008A464FF0000878440299006812904FF09F
:10CAE000005040EA61010D980F9B01EB804000F57A
:10CAF000002109910A9A129802F054F832460B9BD1
:10CB000001F05EFF4246534601F026FE06460291C2
:10CB100040465146099B129A01F01EFEDDE90623AC
:10CB200001F04EFF3246029B02F03CF8059B009A52
:10CB300001F012FE0091149A0490534610461946D3
:10CB400001F00AFE06460246C7480B46029106213E
:10CB50007844FFF76FF8CDE90510029B3246104686
:10CB6000194601F0F9FDDDE9053201F0F5FD059109
:10CB70000646534640461946149A01F057FB009B5F
:10CB8000049A01F0E9FD3246059B01F04FFBCDE927
:10CB90000510424653461046194601F0DDFD0022BD
:10CBA000B24B02910A9001F041FBDDE9053201F040
:10CBB0003DFB0E464246AD4B404601F0F3FF029B63
:10CBC0000A9A01F0EFFFDDE9053201F0F9FE424675
:10CBD00002910A9033461046514601F0BDFDCDE961
:10CBE00006015346149A02990A9801F0B5FD8A4647
:10CBF0000290334642460099049801F0ADFD534639
:10CC0000029A01F013FB82460B4602460591DDE9CC
:10CC1000060101F00BFBDDE90623002088460646ED
:10CC200001F0C0FF5246059B01F0CAFE8246099101
:10CC30004FF060428E4B3046414601F08DFD04902E
:10CC400006918C4A8A4B5046099901F085FD82462F
:10CC50000291894A894B3046414601F07DFD52469A
:10CC6000029B01F0E3FA864B7B440D9A03EBC2036F
:10CC7000D3E9002301F0DAFA0E900791019801F050
:10CC800018FD0591DDE9061382460E9A049801F01D
:10CC9000CDFA7C4A7A440D9B02EBC303D3E900230F
:10CCA0000093029201F0C2FA5246059B01F0BEFACF
:10CCB0000026884652463046059B01F073FF009BD4
:10CCC000029A01F06FFF069B049A01F06BFF079B2D
:10CCD0000E9A01F075FE024600200B46029038467F
:10CCE000294601F039FD824601912B463846194606
:10CCF000029A01F057FF3246434601F02DFD52469D
:10CD0000019B01F093FA07468A463246434629467C
:10CD1000029801F021FD05460E463A46534601F0C1
:10CD200085FA594A8846914221DBA8EB020353EA6F
:10CD3000000210D12A46334601F034FFCDE9040148
:10CD4000524A534B3846514601F070FADDE904234C
:10CD500001F000FE21D20220FBF704FFFEF7D0FF16
:10CD60000A46214618B062F31E01BDE8F08D494B1A
:10CD700028F000429A4210D3474A08EB020353EAD4
:10CD800000027FF4C6AD2A46334601F00BFF3A4657
:10CD9000534601F0DFFD7FF6BCAD0022019228F082
:10CDA00000403E493E4A01EB2051824223DA481CB2
:10CDB0004FF4801121FA00F040443A4AC0F30A517E
:10CDC0007A44394BA1F2FF31CB4020EA0303C0F390
:10CDD000130040F48010C1F11401C84012680190A2
:10CDE000B8F1000FBCBF404201902846314601F027
:10CDF000D9FE05460E462A4633463846514601F0CE
:10CE000015FA4FF000084246284B4046059101F0C4
:10CE1000A3FCCDE90601264A264B4046059901F0C0
:10CE20009BFC009102902A4633464046059901F04A
:10CE3000B9FE3A46534601F0C3FD1F4A1F4B01F0AD
:10CE40008BFC009B029A01F0F1F9074688460246E6
:10CE50000B4635E08E9803007AB60B004E24000096
:10CE60000000F03F86240000B423000000000840CA
:10CE700009C7EE3FFD033ADCF5015B14E02F3EBE2F
:10CE80008C2200005022000000009040FE822B65A2
:10CE90004715973C00CC904000346F3F01FCFFFFEA
:10CEA0000000E03F9C210000FFFF0F00432EE63F03
:10CEB000396CA80C615C20BEEF39FAFE422EE63FC9
:10CEC000DDE9060101F0B2F9DDE9062305460E466B
:10CED00001F068FE3A46434601F072FD0F462A46CD
:10CEE000334600901046194601F036FC8246024651
:10CEF0002E4888460B4605217844FEF79BFE524695
:10CF0000434601F029FC2A46334601F059FD80468C
:10CF10008A463B4628463146009A01F01DFC3B46B6
:10CF2000009A01F083F90691009000224FF08043AF
:10CF30004046514601F036FE0F460C90424653469D
:10CF40002846314601F008FC3B460C9A01F02AFACB
:10CF5000069B009A01F026FE2A46334601F022FE87
:10CF60000022134B01F02CFD054601980E4601EB03
:10CF700000510815002810DC28463146019A01F0BE
:10CF80002DFFFEF743FE042808BFFEF7C1FE28462A
:10CF90003146019A01F022FF05460B4618B02A4699
:10CFA00058462146BDE8F04D01F0D6BB3C200000BC
:10CFB0000000F03F2DE9F04105460E461C48076889
:10CFC0001C480068001D00F01EFB50B9194800689D
:10CFD00090F82C10012088401749096881431648B1
:10CFE0000160681C38B936B112480168091D134840
:10CFF00000F047FB1AE07C190E4800684460BC4210
:10D0000007D20C480168091D0D48006800F01FFB9D
:10D010000CE008480168091D0A48006800F017FB89
:10D0200009480068844201D207480460BDE8F081E5
:10D03000300000201C00002034000020A43100201B
:10D0400024000020200000204C00002010B50446E1
:10D0500000F024FB23480068401C22490860224855
:10D06000006840B9204804600846006801280DD1D6
:10D0700000F068F90AE01D48006838B91A480068ED
:10D08000C06AE16A884201D81748046018480068FD
:10D09000401C1749086094F82C100120884015495D
:10D0A0000968084313490860E16A01EB8101124AEB
:10D0B00002EB8100211D00F0E4FA00F001FB0B48B7
:10D0C000006868B108480068C06AE16A884207D20F
:10D0D0004FF0805009490860BFF34F8FBFF36F8F47
:10D0E00010BD00002C0000201C0000203800002093
:10D0F0004800002034000020F030002004ED00E063
:10D1000070B523E000F042FC1348006808B9012024
:10D1100000E00020054600F0FFFFBDB900F0BEFAB8
:10D120000D48C068C468201D00F06DFA0B48006807
:10D13000401E0A4908600A480068401E0849086005
:10D1400000F0BEFA204600F060F800BF0448006816
:10D150000028D7D170BD0000903100202C000020A5
:10D160002800002070B504460D46206C70B1216C7B
:10D17000E0680844E0606168E068884201D32068A4
:10D18000E0602846226CE168FBF782FB70BD2DE968
:10D19000F04104460F4615464FF00008A66B206C80
:10D1A00040B9206860BB606800F034FF8046002012
:10D1B000606025E07DB93946226CA068FBF768FB0A
:10D1C000216CA0680844A060D4E90110884217D3FC
:10D1D0002068A06014E03946226CE068FBF758FB39
:10D1E000216CE068401AE0602168E068884203D260
:10D1F000216C6068401AE060022D01D106B1761EF4
:10D20000701CA0634046BDE8F08110B50446206B59
:10D2100000F066FA204600F063FA10BD0A4A22F0D8
:10D2200007000A4A10600022084B5A6042F6F87262
:10D23000074B5A6000221A60014642F6F8724A60B3
:10D240001A460A6070470000F80000200000002025
:10D250000800002000BFFFF753FF064800680128C0
:10D26000F9D94FF0805004490860BFF34F8FBFF3E6
:10D270006F8FF0E7F030002004ED00E010B50446B9
:10D280004CB1002060602060E06000231A4619461F
:10D29000204600F047FD10BD2DE9F04106460D4641
:10D2A00017469846069C0DB9246000E02760E663A7
:10D2B00025640121204600F0F5FCBDE8F0812DE950
:10D2C000FF5F80460F469146DDE90E6A109CA9F18A
:10D2D0000100216B01EB800B2BF0070B002507E011
:10D2E000795D04F134004155785D00B902E06D1CB0
:10D2F000102DF5D300BF002143200155052E00D38A
:10D300000426E66266640020A064201D00F09CF9FB
:10D3100004F1180000F098F92461C6F10500A0613D
:10D3200064620020E06484F8500041465846039A45
:10D3300000F028F92060BAF1000F01D0CAF80040CF
:10D34000BDE8FF9F10B5002407E004EB84010F4AFD
:10D3500002EB810000F06BF9641C052CF5D30C483E
:10D3600000F065F90B4800F062F90B4800F05FF936
:10D370000A4800F05CF90A4800F059F904480949E4
:10D38000086004480849086010BD0000F030002023
:10D3900054310020683100207C3100209031002081
:10D3A000A4310020200000202400002070B5054694
:10D3B00000F074F9A86B08B9012400E0002400F023
:10D3C0007FF9204670BD70B5054600F067F9A86B7F
:10D3D000E96B884201D1012400E0002400F070F9DB
:10D3E000204670BD0A490968096809B9012100E0B1
:10D3F000002121B14FF0FF31064A116006E00449D7
:10D400000968C968C868034A41681160704700002C
:10D41000200000204C00002000BFBF2080F31188B6
:10D42000BFF34F8FBFF36F8F00BF00BFFEE770B534
:10D43000044600F033F994F9455010E0606A08B9E9
:10D44000012000E0002038B904F1240000F024FE9F
:10D4500018B100F0EFF900E003E0681E45B2002DBE
:10D46000ECDC00BFFF2084F8450000F029F900F053
:10D4700015F994F9445010E0206908B9012000E042
:10D48000002048B904F1100000F006FE08B100F0D9
:10D49000D1F9681E45B200E001E0002DECDC00BFD0
:10D4A000FF2084F8440000F00BF970BD2DE9F04135
:10D4B00004464FF0000800F069FA2648006820B9D9
:10D4C000FFF7ACFE01202349086044B1083404F0A2
:10D4D000070020B104F00700C0F108000444002C4C
:10D4E00032D042F6F87084422ED21B4F384605687F
:10D4F00001E02F462D686868A04202D22868002803
:10D50000F7D1164885421FD0386800F1080828680E
:10D5100038606868001B102810D92E196868001B35
:10D5200070606C6071680C4800E0006802685268C6
:10D530008A42FAD302683260066000BF0849686810
:10D540000968081A0649086000F0E6FD4046BDE893
:10D55000F0810000140000200000002008000020DE
:10D56000100000200648006830B10549096801F143
:10D570004800896C491C0160014800687047000040
:10D580001C000020001F4FF080730360001F21F07B
:10D5900001030360001F034B03601438026020384E
:10D5A0007047000019D4000800E0401C20B1017849
:10D5B00011B101782029F8DD70472DE9F0410646C8
:10D5C0000F4601F009FA041E0D4618BF012028433A
:10D5D00020F00040C0F17F6000F1E040C00F0ED0AD
:10D5E000301C18BF0120384320F00040C0F17F609C
:10D5F00000F1E040C00F04BF0120FBF7B3FA204662
:10D600002946BDE8F08101460A69D1E901309860F8
:10D61000D1E9010358605068884201D188685060A0
:10D62000002008611068401E10601068704700F10B
:10D63000080141604FF0FF31816000F10801C160D5
:10D64000016100210160704700210161704710B540
:10D6500002460B685C1C0CB9106907E002F1080077
:10D6600000E04068446824689C42FAD944684C60F1
:10D670004C68A160886041600A611468641C146091
:10D6800010BD42684A6093688B60936859609160EE
:10D69000086103685B1C03607047000000BFBF2087
:10D6A00080F31188BFF34F8FBFF36F8F00BF034824
:10D6B0000068401C01490860704700001800002005
:10D6C00006480068401E054908600846006820B901
:10D6D000002080F3118800BF00BF704718000020B1
:10D6E00070B506463546B6B1083D2C4600F04EF9F9
:10D6F0006168094800E00068026852688A42FAD30B
:10D7000002682260046005496068096808440349AA
:10D71000086000F001FD70BD000000201000002036
:10D7200003484FF0E021486107200861704700007E
:10D730003F19010070B50446002544B100F026F9F8
:10D7400000212046FFF736FC00F0E6FC05463DB917
:10D750004FF0805003490860BFF34F8FBFF36F8FC6
:10D7600070BD000004ED00E070B50546FFF796FFC0
:10D7700015B92748006800E028460446201DFFF739
:10D7800042FF78B9E06A00EB8000224951F820009E
:10D7900040B994F82C10012088401F490968814342
:10D7A0001D480160A06A18B104F11800FFF72BFFB3
:10D7B0001A480068401C19490860154800688442EE
:10D7C00009D1211D1648FFF75CFF16480068401C70
:10D7D0001449086009E014480068401E12490860B6
:10D7E0002046FFF712FDFFF7FDFDFFF769FF0F4829
:10D7F000006858B106480068844207D14FF0805055
:10D800000B490860BFF34F8FBFF36F8F70BD0000EF
:10D810001C000020F03000203400002048000020D0
:10D8200090310020280000202C000020380000202B
:10D8300004ED00E00120014908607047400000202D
:10D8400070B505460C460548016818312846FFF7B3
:10D85000FEFE01212046FFF7ADFB70BD1C0000203D
:10D8600070B505462C46002D4BD02649E06A096864
:10D87000C96A884245D2A06900F0004028B9214811
:10D880000068C06AC0F10500A061E16A01EB810196
:10D890001D4A02EB81016069884201D1012000E04C
:10D8A000002050B3201DFFF7AEFE78B9E06A00EB10
:10D8B0008000154951F8200040B994F82C1001203F
:10D8C0008840124909688143104801600D4800688A
:10D8D000C06AE06294F82C10012088400B49096866
:10D8E00008430A490860E16A01EB8101064A02EB3C
:10D8F0008100211DFFF7C5FE03E002480068C06AF1
:10D90000E06270BD1C000020F030002034000020D8
:10D9100003490968016003490968416070470000D4
:10D9200044000020300000201CB5114800210B46A7
:10D930008022CDE900100FA1104800F0ADFA044696
:10D94000012C14D100BFBF2080F31188BFF34F8F8B
:10D95000BFF36F8F00BF4FF0FF300949086001200F
:10D960000849086000200849086000F08BF81CBDD9
:10D970005000002049444C450000000055D20008EA
:10D980004C000020380000203000002002480068D1
:10D99000401C01490860704754000020124800688C
:10D9A00018B10120114908601DE000200F490860EE
:10D9B0000F480068B0FA80F0C0F11F0101EB81024E
:10D9C0000C4B03EB820042685268426000F108028F
:10D9D0004368934202D14268526842604268D2680A
:10D9E000054B1A6000BF7047540000204000002023
:10D9F00034000020F03000201C00002070B51F48CB
:10DA0000046840F225511E48FDF70FFC60B11C4828
:10DA1000FDF75AFCC5B229462046FBF7FBFF40F252
:10DA200025511748FDF7F2FB40F227711448FDF726
:10DA3000FCFB012816D1D4F87826501EC4F87806CD
:10DA4000D4F87C06821A04F5D060815C0C48FDF79E
:10DA500040FCD4F8780628B9002240F22771084823
:10DA6000FDF70DFC40F226610548FDF7DEFB20B115
:10DA700040F226610248FDF7C9FB70BD5800002046
:10DA80000044004010B50A48006840F47F0008498F
:10DA900008600846006840F07F400860FFF740FEDD
:10DAA000002004490860FAF7A9FB002010BD00001F
:10DAB00020ED00E01800002010B500BFBF2080F36B
:10DAC0001188BFF34F8FBFF36F8F00BF00F014FAC0
:10DAD00018B14FF080500449086000BF002080F367
