:020000040800F2
:108000008040002081820008898200088B8200085D
:108010008D8200088F820008918200080000000015
:10802000000000000000000000000000E9810008DE
:1080300095820008000000002D820008B9CF0008DA
:108040009B8200089B8200089B8200089B8200089C
:108050009B8200089B8200089B8200089B8200088C
:108060009B8200089B8200089B8200089B8200087C
:108070009B8200089B8200089B8200089B8200086C
:108080009B8200089B8200089B8200089B8200085C
:108090002DB300089B8200089B8200089B82000889
:1080A0009B8200089B8200089B8200089B8200083C
:1080B0009B8200089B8200089B8200089B8200082C
:1080C0009B8200089B8200089B8200089B8200081C
:1080D0009B82000800000000FDCE00089B82000883
:1080E0009B8200089B8200089B82000800F002F837
:1080F00000F06AF80AA090E8000C82448344AAF1D8
:108100000107DA4501D100F05FF8AFF2090EBAE8D5
:108110000F0013F0010F18BFFB1A43F001031847BB
:10812000445E0000645E0000103A24BF78C878C145
:10813000FAD8520724BF30C830C144BF04680C606D
:10814000704700000023002400250026103A28BFB5
:1081500078C1FBD8520728BF30C148BF0B607047B9
:10816000662905F07786692900F05881642900F0B6
:108170005581752900F052816F2900F0E981782935
:1081800000F010820368DB0928BF41F080016329F9
:1081900000F0E586732900F0EA86E32900F0F58611
:1081A000002070471FB500F021FF040000200021CF
:1081B00005F0A6FA401C60600020002105F0B6FA28
:1081C000E0601FBD10B510BD01F008F81146FFF7C3
:1081D000E9FF03F021FE01F026F803B4FFF7F2FFF8
:1081E00003BC01F029F80000224B19680868B0E8C8
:1081F000F00F80F30988BFF36F8F4FF0000080F31A
:1082000011884EF00D0E704700000000064800680F
:10821000006880F3088862B661B6BFF34F8FBFF382
:108220006F8F00DF00BF00BF08ED00E0EFF30980B3
:10823000BFF36F8F0F4B1A6820E9F00F106008B57D
:108240004FF0BF0080F31188BFF34F8FBFF36F8FE4
:1082500004F024FE4FF0000080F31188BDE80840D0
:1082600019680868B0E8F00F80F30988BFF36F8FD2
:10827000704700BF1C000020EFF30580704700002E
:108280000948804709480047FEE7FEE7FEE7FEE7AA
:10829000FEE7FEE7FEE7FEE7FEE7FEE704480549E6
:1082A000034A054B704700007DAF0008ED800008D1
:1082B000803E002080400020803E002070B50446B3
:1082C000051F00F0B3FB0068002C14BF446870BDAC
:1082D000002C18BFAC423CBF20466468F8D301684C
:1082E0000A18AA4218BF456003D12A6805461144FE
:1082F000016028684119A1421CBF6C6070BD6168B3
:10830000696021680844286070BD10B5044600F01B
:1083100085FB0068005DC00602D504F1200010BD99
:10832000204610BD0FB41CB50C0007AA009001D068
:108330002044401E074B7B4469460190069800F09C
:10834000E4FD002C03D06946002000F0F1FD1CBCC8
:108350005DF814FB010C000070B5044685690068E7
:10836000C10601D5302600E02026C00707D070BD29
:10837000D4E9012130469047206A401C20626D1EDE
:10838000F6D570BD70B5044685690078C00707D181
:1083900070BDD4E9012120209047206A401C206252
:1083A0006D1EF6D570BD09684A0501D540B270470B
:1083B000C905FCD500B2704709684A0501D5C0B2AD
:1083C0007047C905FCD580B2704770B50C460546AC
:1083D000012A05D02878800600D5EA69002302E04A
:1083E000012305E05B1C934202D2E05C0028F9D136
:1083F000A869E618C01AA861286A184428622846A5
:10840000FFF7AAFF04E0D5E9012114F8010B90471A
:10841000B442F8D32846FFF7B5FF70BD2DE9F0410F
:108420000646002410687529314616A510D0FFF7BE
:10843000BAFF002802DA404213A507E031688A0734
:1084400001D512A502E0490704D511A5012401E0D8
:10845000FFF7B2FF00210A2206F1240709E0B0FB72
:10846000F2FCB0FBF2F302FB1C00303078541846EB
:10847000491C0028F3D123462A463046BDE8F04186
:1084800000F0D8BA000000002D0000002B00000012
:10849000200000002DE9FF5F15468A460446DFF8FC
:1084A000AC80F8440027D8E900103E46CDE9001022
:1084B00010E03AF816106A4602A800F072FD411C5E
:1084C00007D02178890603D5E269391891420DD881
:1084D0000744761C2078800602D5E069B84205DDA5
:1084E000AE42E6DB3AF816000028E2D1A069C01BD4
:1084F000A0612046FFF730FFD8E90010CDE9001059
:10850000002017E03AF818106A4602A800F049FD6A
:10851000B0F1FF3F81460BD000250DF1080B05E0BF
:10852000D4E901211BF8050090476D1C4D45F7D398
:1085300008F10100B0428046E4DB206A3844206242
:108540002046FFF71FFFBDE8FF9F0000E65900002F
:1085500070B5044621461068FFF72EFF002104F194
:10856000240505E000F007023032C0086A54491CB7
:108570000028F7D12068002308A2050708D500F0DD
:108580002000084304D0E069012305A2401EE061F9
:108590002046BDE8704000F04DBA00000000000029
:1085A0003000000070B504460D4621461068FFF704
:1085B00003FF2188090502D50F4A7A4402E00E4ADA
:1085C0007A440E32002104F1240305E000F00F0686
:1085D0000009965D5E54491C0028F7D120780023DD
:1085E000000704D5702D02D009B1022311322046B4
:1085F000BDE8704000F01EBAD65800002DE9F05FCB
:10860000894604464FF0000ADFF874B1FB44C0F815
:1086100020A02046E1688847002874D0252806D08D
:10862000D4E901219047206A401C2062F1E700262E
:108630005F462046E16888472028054607DB312D44
:1086400005D2781910F8200C08B10643F1E7B007FD
:1086500001D526F00406C4F81CA00027C4F818A011
:108660002A2D09D0284603F023FB38B304EB8708F2
:10867000303DC8F8185019E059F8041B204604EBA7
:1086800087029161E1688847012F054618D1E069AA
:10869000002820DA26F020061DE0D8F8180000EBAC
:1086A000800005EB40003038C8F818002046E1682B
:1086B0008847054603F0FCFA0028EED1012F0AD0C6
:1086C0002E2D08D12046E16888477F1C0546022FE1
:1086D00046F02006C4DBA069002803DA404246F0D9
:1086E0000106A061F00701D026F010066C2D0BD01A
:1086F000682D09D04C2D39D06A2D35D0742D35D048
:108700007A2D33D016E038E0E1682F4620468847BE
:10871000B842054609D16C2F26D04FF48060E1683D
:10872000064320468847054604E06C2F1AD04FF4D4
:10873000807006430DB3A5F14100192802D82035F9
:1087400046F400664A462946204626604E46FFF714
:1087500007FD80B101280BD0F61D26F0070000F1BF
:10876000080956E74020E4E78020D8E70020D6E754
:1087700006F104094DE7284652E7206ABDE8F09F5C
:10878000AC58000010B5431C02E010F8011B71B199
:108790008107FAD14FF0013202C88C1A8C4314EAD7
:1087A000C211F9D0C01A0A0603D0C01E10BDC01AEB
:1087B00010BD0A0401D0801E10BD0902FCD0401E6D
:1087C00010BD40EA010370B59B072ED14FF0013672
:1087D000042A2AD308C810C99D1B9D43121F15EAFD
:1087E000C61517D0D8B2E1B2401A50EA056110D1CF
:1087F00098B2A1B2401A50EA05410AD123F07F4055
:1088000024F07F41401A50EA052102D1180EA0EB56
:10881000146070BDA342DBD018BA21BA884201D9D6
:10882000012070BD4FF0FF3070BD0AB9002070BD4F
:1088300010F8013B11F8014B63B1A3420AD1521E5B
:1088400008D010F8013B11F8014B1BB1A34201D134
:10885000521EEDD1181B70BD032A40F2308010F07B
:10886000030C00F0158011F8013BBCF1020F6244CB
:1088700098BF11F801CB00F8013B38BF11F8013B5C
:10888000A2F1040298BF00F801CB38BF00F8013B09
:1088900011F0030300F02580083AC0F0088051F879
:1088A000043B083A51F804CBA0E80810F5E7121D84
:1088B0005CBF51F8043B40F8043BAFF30080D207A3
:1088C00024BF11F8013B11F801CB48BF11F8012B6F
:1088D00024BF00F8013B00F801CB48BF00F8012B92
:1088E000704710B5203AC0F00B80B1E81850203A1C
:1088F000A0E81850B1E81850A0E81850BFF4F5AF40
:108900005FEA027C24BFB1E81850A0E8185044BFC9
:1089100018C918C0BDE810405FEA827C24BF51F836
:10892000043B40F8043B08BF7047D20728BF31F82A
:10893000023B48BF11F8012B28BF20F8023B48BF7B
:1089400000F8012B70474FF0000200B51346944623
:108950009646203922BFA0E80C50A0E80C50B1F197
:108960002001BFF4F7AF090728BFA0E80C5048BFAB
:108970000CC05DF804EB890028BF40F8042B08BF49
:10898000704748BF20F8022B11F0804F18BF00F845
:10899000012B70474FF0013C50F8042B51F8043B79
:1089A0009A4221D1A2EB0C03934313EACC1317D1C3
:1089B00050F8042B51F8043B9A4215D1A2EB0C035A
:1089C000934313EACC130BD150F8042B51F8043B1A
:1089D0009A4209D1A2EB0C03934313EACC13DBD0E8
:1089E0004FF00000704700BFD01A01BAB1FA81F110
:1089F00001F0180122FA01F0CB40C1F12001DBB2F5
:108A0000C0B2C01A2CFA01F3D11A914311EAC31172
:108A1000E6D17047704770477047000010B500F00E
:108A2000E5FA001D10BD00BFD94C0000004870479A
:108A3000243E00202DE9F0470D4699469246044613
:108A400000F124080168880604D5E06921F01001CE
:108A5000216000E00120A84201DD471B00E0002763
:108A6000A1697A1902EB0900081AA0612078C006F2
:108A700002D42046FFF770FC002608E0D4E901216B
:108A80001AF806009047206A401C761C20624E456A
:108A9000F4DB2078C0060AD52046FFF75DFC06E02F
:108AA000D4E9012130209047206A401C2062381E02
:108AB000A7F10107F4DC07E0D4E9012118F805006B
:108AC0009047206A401C2062281EA5F10105F3DCB6
:108AD0002046FFF757FC2078000602D50220BDE8AB
:108AE000F0870120FBE770472DE9FF4F0C461E463B
:108AF0004FF0FF378BB0D2E90001DDF860800A90BB
:108B00008A46C1F30A5505B93D46002108464FF093
:108B10000000BAF1000F00F4400005DA00EB80001D
:108B20004FF4400101EA50004FEA9059B9F1010FAA
:108B300000DDB9460A9850EA4A000ED044F61050BB
:108B4000A5F2FF3545432F14B8F1000F1ED0754232
:108B5000291E1EDDC9F100021CE0B8F1010F4FF023
:108B6000000001D0302103E0F24305E02154401C15
:108B7000B042FBDB30460022002121540B99C1F8A2
:108B80000880C1E900200FB0BDE8F08FBD1B6D1C4F
:108B9000DEE74A4600DA694206A800F0B1FA06AB01
:108BA00093E8070003AB83E8070050460A9900F0FA
:108BB0004AFB8DE80700A0F500501F38009003988D
:108BC000002D09DD42F21F014A46084403A9039023
:108BD000684600F0A9FD08E0A0F500504A461F389D
:108BE00003A90390684600F0B3FD8DE80700000478
:108BF000000C03D04FF0FF30410800E01046B8F100
:108C0000000F03D00022009215461EE0751E05D409
:108C100000F0F0F9303262556D1EF9D5B3460122ED
:108C2000084302D000227F1C04E02078302801D1C4
:108C300000227F1E002A099786D01DE0112D07DA39
:108C400000F0D8F9303262556D1C50EA0102F5D1BE
:108C5000084302D00098C8B10EE00021681E05E06C
:108C6000235C625C63542254401E491C8142F7DB42
:108C7000AB46A81B401E0990002004F80B000B987F
:108C8000099AC0F80880C0E9002B7CE711264FF054
:108C9000000859E72DE9F04F88460446D21D22F01E
:108CA000070191B0D1E90001CDE90A0102F0ECFF22
:108CB00002460B98C00F01D02D2007E020688107E5
:108CC00001D52B2002E0202101EAC000032A0990EF
:108CD00001D0072A05DB03464146204600F0D0F9C3
:108CE0000BE12078800601D5E06900E00620B8F1AC
:108CF000650F814606D0B8F1660F18D0B8F1670F3E
:108D000070D131E00020B9F1110F009001DB112387
:108D100001E009F101030AAA01A90CA8FFF7E4FE8A
:108D2000DDE90C70002609F10105834647E00120CA
:108D30004B4600904FF000470AAA01A90CA8FFF784
:108D4000D3FEDDE90DB00C995D46002610B909F19E
:108D500001000D18B9EB050003D4C0F1FF3609F18D
:108D60000105A5EB09002BE0B9F1010F01DA4FF085
:108D700001090020B9F1110F0090484601DD1123CF
:108D800000E003460AAA01A90CA8FFF7ADFEDDE941
:108D90000C704D4600268346207800070AD4AB4568
:108DA00000DA5D4601A8012D04DD411911F8011C0E
:108DB000302907D04F4502DA17F1040F04DA0120F9
:108DC00082460FE06D1EEEE7002F02DCED1B3E44F5
:108DD00003E0781CA84200DD7D1CB81B00F1010AED
:108DE0004FF000472078000703D4AA4501DB4FF07D
:108DF000FF3A0021B7F1004F0DF143088DF8431001
:108E000024D002202B23002F01DA7F422D230A21B8
:108E1000021EA0F1010000DC5FB197FBF1FC97FBA3
:108E2000F1F201FB1C7C17460CF1300C08F801CD67
:108E3000EEE7A8F1010003702188090501D545215D
:108E400000E06521A0F1010800F8011C09980FA9B4
:108E5000A1EB0807FF1D00B10120411901EBEA70E9
:108E6000A1693844081A401EA0612078C00602D4C7
:108E70002046FFF771FA099828B1D4E901219047FB
:108E8000206A401C20622078C00622D52046FFF7C9
:108E900063FA1EE0002E04DBB34502DD01A8805D0D
:108EA00000E03020D4E901219047206A401C206274
:108EB000761CAAF101005FEA000A0AD100F096F8D8
:108EC000C0680168405CD4E901219047206A401CD9
:108ED0002062281EA5F10105DCDC07E0D4E90121B0
:108EE00018F8010B9047206A401C2062381EA7F139
:108EF0000107F3DC2046FFF745FA032011B043E6F3
:108F000001694A1C02610878704700B58FB0CDE94D
:108F100001310021059105497944CDE9031011463D
:108F20006846FFF76BFB0FB000BD0000E5FFFFFFD9
:108F30000A6802F8010B0A607047D1E900239A42DF
:108F400002D2531C0B601070704710B5436913B107
:108F5000AFF3008001E0FFF738FA012010BD12786E
:108F600000F124010A7000224A700122EDE7116825
:108F70004FF0FF32E9E710B5436913B1AFF300805A
:108F800001E0FFF787FA012010BD128800F12401EB
:108F900082840022C2840122EDE711684FF0FF3283
:108FA000E9E770B516460C460546FFF737FD03683E
:108FB00093F80101012806D0FF2C0FD8185D68B185
:108FC00001202C7070BDD3F807013246214603F210
:108FD000071303442846BDE8704018474FF0FF30A0
:108FE00070BD0000004870471C3E002000487047DC
:108FF0003C3E002030B5B0F10A024FEA900E71F10C
:1090000000034EEA817EB0EB0E0061EB91014FEA66
:10901000101E4EEA017E10EB0E0041EB11114FEADB
:10902000102E4EEA016E10EB0E0041EB11214FEABB
:10903000104E4EEA014E10EB0E0041EB114140186C
:1090400041F100014FEAD00040EA41704FEAD101FE
:1090500010EB80054FEA810444EA907444EB01046C
:109060006D1944EB0404521BA3414FF0000348BFA9
:109070000A3200D530BD401C41F1000130BD000076
:109080002DE9F0411F46044603260168072A01F432
:10909000006004DB08B116A505E016A503E008B1E1
:1090A00015A500E015A521F010002060A069C01EE4
:1090B000A0610FB1401EA0612046FFF74DF94FB1EE
:1090C000D4E9012138469047206A401C2062C01C28
:1090D000206206E0206AFAE7D4E9012115F8010BC5
:1090E0009047761EF8D22046FFF74CF9BDE8F08194
:1090F0004E414E006E616E00494E4600696E66003C
:109100002DE9F047814616468AB0334878440DC8A9
:109110008DE80D0030487844801C03AC0DC884E80D
:109120000D0041F69B300844372190FBF1F290FB93
:10913000F1F5A5F1800501FB12041B3C02D5644248
:10914000012000E00020DFF890A080460027FA44CC
:10915000AAF1BE0A0DE0E00709D03246684607EBE7
:1091600047010AEB810100F0F3FA8DE80700641073
:109170007F1C002CEFD1184F7F44AC3F18E0E8076C
:1091800014D007EB04100DF1180A90E80E008AE8DD
:109190000E00C068F04201D198190890324606A925
:1091A00003A800F0D5FA03AB83E807006D10641C38
:1091B000002DE4D132466946B8F1000F03A802D071
:1091C00000F0B2FA01E000F0C3FAC9E90001C9F801
:1091D00008200AB0BDE8F0873C4E00007546FFF756
:1091E00001FFAE4605006946534620F0070085465C
:1091F00018B020B5FFF752F8BDE820404FF0000648
:109200004FF000074FF000084FF0000B21F007016E
:10921000AC46ACE8C009ACE8C009ACE8C009ACE8B1
:10922000C0098D46704710B50446AFF30080204654
:10923000BDE81040FEF7D1BF01491820ABBEFEE7E4
:109240002600020070475FEA400C08BF91F0000F53
:109250004FEA8C234FEAC12243EA51514FEA1C5096
:1092600018BF00F5F0404FEA300018BF41F0004150
:109270005FEA6C5C00F02980BCF1FF3F08BF40F062
:1092800080407047130C06BF12044FF0100C4FF0D3
:10929000000C130E04BF12020CF1080C130F04BFD4
:1092A00012010CF1040C930F04BF92000CF1020C9C
:1092B000D30F04BF52000CF1010C11464FF0000215
:1092C000A0F11F00A0EB0C00704711F0004F08BF89
:1092D000704731F000413FF4D5AF0B0C06BF0904D5
:1092E0004FF0100C4FF0000C0B0E04BF09020CF1F4
:1092F000080C0B0F04BF09010CF1040C8B0F04BF09
:1093000089000CF1020CCB0F04BF49000CF1010CD9
:10931000CCF12003A0EB0C0022FA03F302FA0CF2CA
:1093200041EA030100F10100704720F07F4C80EA20
:10933000030023F07F47ACEB070303F57C5300F0F9
:10934000004003F1FF032DE980494FEA154B09B4B2
:109350004FEA144325EA0B4E24EA03480FF2042691
:1093600006EB132749083E785FEA320203FB0667E3
:10937000C7F5000707FB06F64FEA54374FEAD64613
:1093800006F1020607FB066CCCF1005C4FEA1C47B5
:109390002CEA074C07FB06F40CFB06F504EB15461C
:1093A0004FEA961634BF00204FF000404FEAD13705
:1093B00006FB07FC4FEA1C4C0CFB0BF7D21B03FB14
:1093C0000CF761EB07010CFB0EF7B0EB074072EBFB
:1093D00017420CFB08F734BFA2EB0742B2EB07427F
:1093E00061EB17414FEA0C444FEA910706FB07FC7B
:1093F0004FEA1C4C0CFB0BF7B0EBC74072EB57323B
:1094000003FB0CF734BFA2EBC742B2EBC74261EBE0
:1094100057310CFB0EF7B0EBC70072EB57720CFB29
:1094200008F734BFA2EBC702B2EBC70261EB57717A
:10943000039F4FEA816141EA921104EBCC044FEAA9
:10944000D1374FEA826206FB07FC42EA90124FEAEC
:1094500080604FEA1C4C0CFB0BF7D21B03FB0CF794
:1094600061EB07010CFB0EF7B0EB074072EB174204
:109470000CFB08F734BFA2EB0742B2EB074261EBEB
:1094800017414FEA8C554FEA910704EB9C2406FBE9
:1094900007FC4FEA1C4C0CFB0BF7B0EBC74072EB20
:1094A000573203FB0CF734BFA2EBC742B2EBC74203
:1094B00061EB57310CFB0EF7B0EBC70072EB577244
:1094C0000CFB08F734BFA2EBC702B2EBC70261EB9B
:1094D000577115EB4C254FEA816141EA92114FEA31
:1094E00082624FEAD13742EA901206FB07FC44F150
:1094F00000044FEA80604FEA1C4C0CFB0BF7D21BB8
:1095000003FB0CF761EB07010CFB0EF7B0EB074018
:1095100072EB17420CFB08F734BFA2EB0742B2EB29
:10952000074261EB174115EB1C154FEA813141EA07
:1095300092414FEA823242EA90424FEA80304FEA4B
:109540000C7644F1000448EA03434EEA0B484FF01E
:10955000000EB2EB080C71EB030724BF62463946DC
:109560004EEB0E0E4FF0000B0018524149414BEBF1
:109570000B0BB2EB080C71EB03077BF1000B24BF64
:10958000624639464EEB0E0E4FF0000B001852416A
:1095900049414BEB0B0BB2EB080C71EB03077BF172
:1095A000000B24BF624639464EEB0E0E51EA02070D
:1095B00018BF46F0010616EB0E7655F1000254F185
:1095C000000103D5BDE88901BDE80088BDE8890137
:1095D000BDE80048B619524141EB0101A3F1010376
:1095E000704780807F7E7D7C7B7A79787776767510
:1095F0007473727171706F6E6E6D6C6C6B6A6A6988
:109600006868676666656464636362616160605F21
:109610005F5E5E5D5D5C5C5B5B5A5A59595858579A
:109620005756565555555454535352525251515002
:1096300050504F4F4F4E4E4D4D4D4C4C4C4B4B4B55
:109640004A4A4A494949484848474747474646469B
:1096500045454544444444434343434242424241D6
:109660004141002B26D4770021D01CB54FEA3707A3
:1096700003B44FF010004FF010014FF000000FBC8A
:10968000BDE810400BF1010BBBF1010F08BF5FEA11
:10969000170722BF12F1010211F101014FF0004141
:1096A00043F1000300F0004043EA00007047F9D3A3
:1096B0005708DAE746EA064613F1400F4FEA164626
:1096C0001FDD13F1200FDFBF16430A4600212033B0
:1096D0005B42C8D0C3F1200746EA064602FA07F704
:1096E0004FEA164646EA0706C3F1200722FA03F2BC
:1096F00001FA07F721FA03F14FF0000342EA0702EB
:10970000B1E746EA020646EA06464FEA164646EA48
:109710000106BCBF46EA0646360C4FF000034FF088
:1097200000024FF000019EE72DE9C048934630B497
:1097300091E8380007C831EA400C48BF34EA430CCE
:1097400003D5FFF7F2FDFFF78CFFF0BCBDE8008802
:109750002DE9C048934630B491E8380007C810F0AE
:10976000804F08BF13F0804F03D100F005F8FFF7DA
:1097700078FFF0BCBDE8008820F07F4780EA030056
:1097800023F07F4C07EB0C03A3F57C5300F0004063
:10979000A3F1FE0392F0000F00F0B38095F0000FEC
:1097A00000F077802DE901494FEA11404FEA144655
:1097B00021EA004800FB06FC24EA064708FB06F6FF
:1097C00007FB08F800FB07F718EB06484CEB164CB4
:1097D0004FEA124B18EB07484FEA15464CEB17407F
:1097E00022EA0B4E0BFB06FC25EA06470EFB06F6AB
:1097F00007FB0EFE0BFB07F71EEB064E4CEB164C61
:109800004FF000061EEB074E4CEB174B18EB0B0806
:1098100040F1000018EB0E0B58EB000840F100007F
:109820008F1A4FF000013CBFC943661B14BFB5EB54
:10983000040C00213CBFC943F61B4FEA17444EEA13
:109840008E0E27EA04454FEA1C4704FB07622CEA08
:10985000074C05FB07F70CFB05F604FB0CFC16EBAD
:10986000074642EB174216EB0C4642EB1C421BEB41
:10987000060658EB0202414146EA9E0601D5BDE8C4
:109880000189B619524141EB0101A3F10103BDE881
:1098900001894FEA14454FEA114724EA054621EAB7
:1098A000074C05FB07F406FB07F70CFB06F105FB6D
:1098B0000CFC11EB074144EB17444FEA124711EB44
:1098C0000C4144EB1C4422EA074C05FB07F206FB63
:1098D00007F70CFB06F605FB0CFC16EB074642EB04
:1098E000174216EB0C4642EB1C456A1854F1000176
:1098F00048BF7047B619524141EB0101A3F1010382
:10990000704795F0000F37D04FEA11424FEA1447E5
:1099100021EA024624EA074C02FB07F106FB07F79F
:109920000CFB06F402FB0CFC14EB074441EB174163
:109930004FEA154714EB0C4441EB1C4125EA074C58
:1099400002FB07F506FB07F70CFB06F602FB0CFC17
:1099500016EB074645EB174516EB0C4645EB1C424C
:10996000121951F1000148BF7047B619524141EB3D
:109970000101A3F1010370474FEA14454FEA114773
:1099800024EA054621EA074C05FB07F106FB07F729
:109990000CFB06F24FF0000605FB0CFC12EB074235
:1099A00041EB174112EB0C4251EB1C4148BF704791
:1099B000921841EB0101A3F10103704710B5044671
:1099C0000B48844209D10121480601F08DF800219D
:1099D0004FF0007001F088F808E00121880601F0DE
:1099E00083F800214FF0806001F07EF810BD000088
:1099F0000064004010B50021837A012202FA03F1CD
:109A00003D4A126842F001023B4B1A603A4A1C324E
:109A100012688A43384B1C331A60027BCAB9364A33
:109A20000C3212688A43344B0C331A604288C38864
:109A300042EA0343304A4032847A42F834300288A2
:109A4000838842EA03432C4A4032847A02EBC40200
:109A50005360027B012A19D1274A0C3212680A434B
:109A6000254B0C331A604288038842EA0343224A9A
:109A70004032847A42F83430C288838842EA034311
:109A80001D4A4032847A02EBC4025360C27A3AB96A
:109A9000194A121D12688A43174B1B1D1A6006E0F3
:109AA000154A121D12680A43134B1B1D1A600289C6
:109AB00032B9114A143212688A430F4B14331A60B8
:109AC0000289012A06D10C4A143212680A430A4B51
:109AD00014331A60427B012A06D1074A1C321268ED
:109AE0000A43054B1C331A60034A126822F0010234
:109AF000014B1A6010BD0000006600401AB14369B6
:109B00000B43436102E043698B434361704730B5C7
:109B1000024600200023146824F002041460146834
:109B200044F00104146000E05B1C546804F001047C
:109B30001CB94FF6FF74A342F6D1546804F0010437
:109B40000CB900206CE08C79012C04D1146844F02D
:109B50008004146003E0146824F080041460CC795D
:109B6000012C04D1146844F04004146003E014682C
:109B700024F0400414600C7A012C04D1146844F0E1
:109B80002004146003E0146824F0200414604C7A6C
:109B9000012C04D1146844F01004146003E014682C
:109BA00024F0100414608C7A012C04D1146844F061
:109BB0000804146003E0146824F008041460CC7AEC
:109BC000012C04D1146844F00404146003E0146808
:109BD00024F0040414608C78A407CD7844EA05646A
:109BE0000D7944EA05444D7944EA05540D886D1E0B
:109BF0002C43D461146824F001041460002300E0B5
:109C00005B1C546804F001041CB14FF6FF74A342BE
:109C1000F6D1546804F001040CB1002000E00120EA
:109C200030BD10B500F5D87303EB01131B6803F0CA
:109C300004031372137A53B900F5D87303EB0113BD
:109C40001B6840F2FF7404EA5353136009E000F507
:109C5000D87303EB01131B686FF0604404EAD3036D
:109C6000536000F5D87303EB01131B6803F0020384
:109C7000537200F5D87303EB01135B6803F00F0315
:109C8000937200F5D87303EB01135B681B0AD3745E
:109C900000F5D87303EB01139B68D37200F5D873FA
:109CA00003EB01139B681C0A147300F5D87303EBD4
:109CB00001139B681C0C547300F5D87303EB01135C
:109CC0009B681B0E937300F5D87303EB0113DB68DD
:109CD000D37300F5D87303EB0113DB681C0A14740B
:109CE00000F5D87303EB0113DB681C0C547400F50A
:109CF000D87303EB0113DB681B0E937421B9C3689F
:109D000043F02003C36003E0036943F020030361D1
:109D100010BD00218171C171017241728172C172E5
:109D20008170C17003210171022141710121018003
:109D3000704710B502460020936803F08063B3F1CA
:109D4000806F00D110E0936803F00063B3F1006FFF
:109D500001D1012008E0936803F08053B3F1805FE4
:109D600001D1022000E00420042874D002F5C07361
:109D700003EB00131B6803F0010402F5C07303EB4F
:109D800000131C600B7A7BB94B7A0C8843EA44536E
:109D900002F5C07404EB00142468234302F5C07478
:109DA00004EB0014236010E00B7A4C6843EAC40310
:109DB0004C7A234302F5C07404EB00142468234357
:109DC00002F5C07404EB001423608B7A03F00F03D8
:109DD0008B7202F5C07303EB00135B6823F00F0472
:109DE00002F5C07303EB00135C6002F5C07303EB74
:109DF00000135B688C7A234302F5C07404EB0014F3
:109E000063608B7B1C064B7B44EA03440B7B44EA78
:109E10000323CC7A234302F5C07404EB0014A3603F
:109E20008B7C1C064B7C44EA03440B7C44EA0323F2
:109E3000CC7B234302F5C07404EB0014E36002F50D
:109E4000C07303EB00131B6843F0010402F5C073F9
:109E500003EB00131C6010BD10B502460024042360
:109E600003E0D05C2044C4B25B1CC81E9842F8DCFE
:109E7000105CA04201D0002010BD0120FCE70000D2
:109E800010B5F021014800F0BBF810BD00080140FA
:109E900070B50646074C032505E0032002F0CAFE14
:109EA000204601F0EDFA60680028F6D0002002F0AC
:109EB000DBFE70BD4C31002010B50B46002104E0E4
:109EC00010F8014B5C544C1CA1B29142F8DB10BD60
:109ED00070B505460E4614464FF6FF7000EA840240
:109EE00031462846FFF7E8FF70BD2DE9F0410246F4
:109EF00000250026002000230024002791F803C03D
:109F00000CF00F0591F803C00CF0100CBCF1000F21
:109F100003D091F802C04CEA050591F800C0BCF1ED
:109F2000000F31D0146800202BE04FF0010C0CFA28
:109F300000F3B1F800C00CEA03069E4220D1830072
:109F40004FF00F0C0CFA03F7BC4305FA03FC4CEA84
:109F5000040491F803C0BCF1280F06D14FF0010CA6
:109F60000CFA00FCC2F814C00AE091F803C0BCF17E
:109F7000480F05D14FF0010C0CFA00FCC2F810C0DC
:109F8000401C0828D1D31460B1F800C0BCF1FF0F09
:109F900034DD546800202EE000F1080C4FF0010879
:109FA00008FA0CF3B1F800C00CEA03069E4221D176
:109FB00083004FF00F0C0CFA03F7BC4305FA03FCC7
:109FC0004CEA040491F803C0BCF1280F05D100F15C
:109FD000080C08FA0CF8C2F8148091F803C0BCF120
:109FE000480F07D100F1080C4FF0010808FA0CF8EF
:109FF000C2F81080401C0828CED35460BDE8F08120
:10A0000041617047016170472DE9F04FCBB00446C4
:10A01000282256A141A8FEF764FC0025002600274F
:10A020004FF0320A41A8FEF7ADFB034641AA0321D7
:10A03000009001A801F08AFC814620234A4601A92C
:10A040005448006801F06DFAA84689E0322002F019
:10A05000F1FD4FF4807201A94E48006801F01DFA2D
:10A06000B0F1000979DD01A801F0D0F9834620287C
:10A0700004D101A801F0D7F9032800D06EE000BF99
:10A0800003A801F059FE054695B900BF02F0FEFE97
:10A090007C20414B41A24FF4C07100904648FEF72E
:10A0A00041F9454801F0AAFA03F0B6FA00BF4FE0C3
:10A0B00042A1284601F025FE06463EB1F06804287C
:10A0C00004D13FA13069FEF765FC90B100BF02F0FA
:10A0D000DDFE8420304B3DA24FF4C0710090364825
:10A0E000FEF720F9344801F089FA03F095FA00BF31
:10A0F0002EE03AA1284601F004FE071E00D127E019
:10A10000D7E90621104603F027FB206035A1284639
:10A1100001F0F7FD071E00D11AE0D7E9062110462D
:10A1200003F01AFB606031A1284601F0EAFD071E2A
:10A1300000D10DE0D7E90621104603F00DFBA06029
:10A14000284601F0BCFD01204BB0BDE8F08F04E0D3
:10A1500000BF15B1284601F0B2FD00BF08F10108AB
:10A16000B8F1140FFFF672AF0020EDE77B226322F7
:10A170003A2022486561727442656174222C202263
:10A180006E223A20302C202276616C7565223A20AE
:10A19000307D00007800002058DE000825733A2545
:10A1A000643A20634A534F4E5F5061727365206674
:10A1B00061696C0A000000009C3C00206300000004
:10A1C00048656172744265617400000025733A2528
:10A1D000643A206572726F7220630A007069636866
:10A1E00000000000726F6C6C000000007961770065
:10A1F00070B505460E46182002F0FEFB04460CB969
:10A20000002070BD18212046FEF79DFB25612069C6
:10A2100020B92046FEF752F80020F2E72660012020
:10A2200002F0E4FE60612046EBE72DE9F0410646CE
:10A230000D4614460027002D02DC781EBDE8F08193
:10A2400000235A1E1946606902F0FEFEE068A8422B
:10A2500008DA00231A461946606902F0E3FF4FF05E
:10A26000FF30EBE7E068401BE06018E0D4E9001045
:10A2700090FBF1F201FB120060606168481C6060B5
:10A280002069425C38467F1C3254AF4207D100231C
:10A290001A461946606902F0C5FF0120CEE7E5E7DE
:10A2A00070B503460024002901DC601E70BDD06833
:10A2B000884202DA4FF0FF30F8E715E0D2E90050AB
:10A2C00090FBF5F605FB160050605568681C506061
:10A2D0001069465D2046641C1E548C4204D1D0682F
:10A2E000401AD0600120E1E7E8E72DE9F041064699
:10A2F0000D461446002700235A1E1946606902F0D5
:10A30000A3FEE1682068401AA84208DA00231A4632
:10A310001946606902F086FF781EBDE8F081E068AA
:10A320002844E06018E02168A06890FBF1F201FB8E
:10A330001200A06038467F1C315CA268501CA060EF
:10A3400020698154AF4207D100231A46194660693B
:10A3500002F068FF0120E0E7E5E770B5034600245E
:10A36000D5681068401B884201DA601E70BD15E098
:10A370001568906890FBF5F605FB16009060204686
:10A38000641C1D5C9668701C9060106985558C4239
:10A3900004D1D0680844D0600120E7E7E8E701462F
:10A3A000C86870470146CB680A68D01A70472DE923
:10A3B000F04781460E4690461C460027002E02DCE0
:10A3C000781EBDE8F08700235A1E1946606902F026
:10A3D0003BFEE068A0EB0800B04208DA00231A4612
:10A3E0001946606902F01EFF4FF0FF30E9E765682B
:10A3F000002706E0206895FBF0F100FB11556D1C6D
:10A400007F1C4745F6DB002716E0206895FBF0F13E
:10A4100000FB115528466D1C2269125C38467F1CD2
:10A4200009F80020B74207D100231A46194660698F
:10A4300002F0F8FE0120C4E7E7E700004CF6CC404C
:10A440000149086070470000003000404AF6AA2029
:10A450000149086070470000003000400149486031
:10A4600070470000003000400149886070470000DC
:10A470000030004001490860704700000030004093
:10A4800010B588B0044600F04FFB00F01DF94FF402
:10A490000060ADF8000048208DF8030069463048A0
:10A4A000FFF723FD4FF48050ADF8000018208DF821
:10A4B000030003208DF8020069462948FFF715FDC7
:10A4C0002848FFF77BFA05A8FFF723FC00208DF84A
:10A4D0001A008DF81B008DF81C008DF81D008DF8FA
:10A4E0001E0001208DF81F0000208DF816008DF849
:10A4F000170001208DF8180002208DF819000620A1
:10A50000ADF8140005A91748FFF701FB00208DF8EE
:10A510000E008DF80F0001208DF81000C4F34F30AD
:10A52000ADF80400042000EBC40080B2ADF80600D2
:10A5300043F6FF70ADF808004FF6FF70ADF80A0063
:10A540000020ADF80C0001208DF8110001A8FFF7E4
:10A5500051FA012202210348FFF7D0FA08B010BDDA
:10A56000000801400064004070B504460D46D4F870
:10A570005815481CC4F8580504F5AD604554D4F886
:10A58000540520B101281DD002287DD151E0D4F816
:10A590005805022800D08AE094F86805FA2804D10A
:10A5A00040F26950005DFB2808D040F26950005D20
:10A5B00084F868050120C4F8580578E00120C4F843
:10A5C000540574E0D4F85805042800D06FE040F238
:10A5D0006A50005DC4F85C05D4F85C050002C4F85C
:10A5E0005C0540F26B50005DD4F85C150844C4F87B
:10A5F0005C05D4F85C05B0F5877F10DD40F26A5049
:10A60000005D84F8680540F26B50015D801E0155C5
:10A610000220C4F858050020C4F8540547E064221D
:10A62000002304F5AC6001F0F5F90220C4F85405EC
:10A630003DE0D4F860251046D4F8641501F050F9D7
:10A6400028B10020C4F85805C4F854052FE0D4F808
:10A650005C05C01DD4F85815814200D027E0D4F81D
:10A660005805801E04F5AD61085CFC280ED1D4F8B5
:10A670005805401E085CFD2808D104F5AD60D4F8EB
:10A680005815FFF7E9FB00E010E028B90020C4F8F6
:10A690005805C4F854050AE00020C4F85405C4F86D
:10A6A00058050448006800F06BF800E000BF00BFE8
:10A6B00070BD00006C00002000BF04E0642002F0C8
:10A6C000B9FAFFF7C3FEF9E708B514208DF80000CA
:10A6D0000F208DF8010000208DF8020001208DF878
:10A6E0000300684600F002F808BD000070B50021C4
:10A6F00000230F22C47804B3154C246804F4E064EA
:10A70000C4F5E064210AC1F10403CA40447804FAA4
:10A7100003F184781440214309010E4C0678A155B9
:10A72000047804F01F050124AC4005786D11AD00DC
:10A7300005F1E025C5F8004109E0047804F01F05A3
:10A740000124AC40044D0678761145F8264070BDD2
:10A750000CED00E000E400E080E100E0024A0A4085
:10A760000243024B1A60704780FFFF1F08ED00E0B4
:10A7700010B5F0210148FFF745FC10BD000801406D
:10A7800010B50446A068FFF70DFED4F85C15091D4E
:10A79000884200D210BD042104F25C50A268FFF789
:10A7A000DCFD04F26C50A268D4F85C15FFF7D5FD0F
:10A7B00000BFEFE7F8B506460025002400BF30468D
:10A7C00001F0BAFA054695B900BF02F05FFBC82058
:10A7D0003E4B3FA24FF4C07100904448FDF7A2FDEC
:10A7E000424800F00BFF02F017FF00BF68E040A1F5
:10A7F000284601F086FA044614B1E068042812D015
:10A8000000BF02F043FBD020304B3AA24FF4C0719E
:10A8100000903648FDF786FD344800F0EFFE02F068
:10A82000FBFE00BF4CE038A12069FEF7B3F820B969
:10A83000F0213848FFF7E6FB41E037A12069FEF739
:10A84000A9F820B9F0213348FFF7DAFB37E035A14A
:10A850002069FEF79FF818B9304600F0DDF92EE0C8
:10A8600033A12069FEF796F8B0B900BF02F00EFBE5
:10A87000E220164B30A24FF4C07100901B48FDF748
:10A8800051FD1A4800F08CFE02F0C6FE00BF01F038
:10A89000FBF801F091F812E000BF02F0F7FAE820AF
:10A8A0000A4B29A24FF4C07100901048FDF73AFD01
:10A8B0000E4800F0A3FE02F0AFFE00BF00E000BFB4
:10A8C00000BF15B1284601F0FAF9F8BD63DE0008B3
:10A8D00025733A25643A20634A534F4E5F506172A4
:10A8E0007365206661696C0A000000009C3C0020D2
:10A8F0006300000025733A25643A2068617665207C
:10A900006E6F7420630A00004F70656E4C69676853
:10A910007400000000080140436C6F73654C696768
:10A9200068740000486561727442656174000000DB
:10A930005265626F6F74000025733A25643A2052A5
:10A9400065626F6F740A000025733A25643A2065CA
:10A9500072726F7220630A0010B50446206A00B953
:10A9600010BD6069FFF71EFD616A0831884200D2A0
:10A97000F6E7042104F124006269FFF7B6FC042124
:10A9800004F128006269FFF7B0FC6269616AE06A5D
:10A99000FFF7ABFC0020206200BFE1E738B50446BA
:10A9A000206B10B1012872D11AE0A069FFF7F7FC03
:10A9B000042800D238BD002204216846A369FFF7AD
:10A9C000F6FCA069FFF7EBFC00990831884200D241
:10A9D000F0E7009860630020E0630120206357E007
:10A9E000E06B40BB04216846A269FFF71EFC04210E
:10A9F00004F10C00A269FFF718FC606B08280DDC5D
:10AA000004F14400A269616BFFF70FFC4FF0805026
:10AA10002064606BA063A06BE06334E0082104F164
:10AA20004400A269FFF701FC002020640820A06315
:10AA3000A06BE06327E0E16B606B401A082813DC31
:10AA4000E36B606BC11A04F14400A269FFF7EDFBF0
:10AA50004FF080502064E16B606B401AA063D4E932
:10AA60000E100844E0630EE0082104F14400A269DE
:10AA7000FFF7DBFB4FF0006020640820A063D4E9FF
:10AA80000E100844E0630220206301E0FFE700BFEE
:10AA900000BF206B022815D1236CE16841EA030056
:10AAA00004F14401A26B00F0E5F858B1206C18B134
:10AAB000206CB0F1006F02D1012020637AE7002002
:10AAC000206377E700BF75E729B1064AD2690243E0
:10AAD000044BDA6104E0034AD2698243014BDA6134
:10AAE000704700000010024029B1064A1269024373
:10AAF000044B1A6104E0034A12698243014B1A6154
:10AB0000704700000010024029B1064A92690243D2
:10AB1000044B9A6104E0034A92698243014B9A61B3
:10AB2000704700000010024010B501210846FFF7F1
:10AB3000EBFF01214806FFF7C7FF01210C20FFF7BB
:10AB4000E3FF10BD30B500210022002400232D4D6D
:10AB50006D6805F00C0121B1042905D0082923D125
:10AB600005E0294D056022E0274D05601FE0254DD9
:10AB70006D6805F47012234D6D6805F4803402256C
:10AB800005EB92421CB9214D554305600BE01D4D6C
:10AB90006D6805F400351DB11C4D5543056002E09C
:10ABA000194D5543056002E0174D056000BF00BF19
:10ABB000144D6D6805F0F0010909154D6B5C0568D1
:10ABC000DD4045600F4D6D6805F4E061090A104DE8
:10ABD0006B5C4568DD4085600A4D6D6805F4605129
:10ABE000C90A0B4D6B5C4568DD40C560054D6D685D
:10ABF00005F44041890B074D6B5CC568B5FBF3F567
:10AC0000056130BD0010024000127A0000093D00CD
:10AC1000580000206800002030B5BDB0054607A4EC
:10AC2000002003462246F021009001A8FDF77AFBA0
:10AC3000032101A800F0D0FE3DB030BD7B2263228D
:10AC40003A22486561727442656174222C226E2238
:10AC50003A302C2273223A312C2274656D70223ADC
:10AC600025642C2268756D6964697479223A2564BB
:10AC70007D000000F0B585B004460E461546002064
:10AC80000090019404208DF8080000208DF8090040
:10AC9000E8B28DF80A002A4631460DF10B00FDF7A7
:10ACA000DBFD69460548FFF744F80746042F02D14B
:10ACB000002005B0F0BD0120FBE70000006400406B
:10ACC0002DE9F043A1B004460D4616461F463C212F
:10ACD00012A8FDF738FE234630A23C2112A8FDF74A
:10ACE00021FB12A8FDF74EFD81464B4612AA032117
:10ACF000684600F02BFE80461023424669463448E1
:10AD0000006800F00EFC2B4632A23C2112A8FDF791
:10AD100009FB12A8FDF736FD81464B4612AA032116
:10AD2000684600F013FE80461023424669462848D4
:10AD3000006800F0F6FB334632A23C2112A8FDF772
:10AD4000F1FA12A8FDF71EFD81464B4612AA032117
:10AD5000684600F0FBFD80461023424669461C48C9
:10AD6000006800F0DEFB3B4633A23C2112A8FDF751
:10AD7000D9FA12A8FDF706FD81464B4612AA032117
:10AD8000684600F0E3FD80461023424669461048BD
:10AD9000006800F0C6FB21B0BDE8F0837B2263228F
:10ADA0003A20225365745374656572446972656311
:10ADB00074696F6E5F6C222C20226E223A20302C38
:10ADC000202276616C7565223A2025647D000000A2
:10ADD000780000207B2263223A20225365744D6F55
:10ADE000746F7253706565645F6C222C20226E2232
:10ADF0003A20302C202276616C7565223A20256439
:10AE00007D0000007B2263223A2022536574537434
:10AE1000656572446972656374696F6E5F72222C36
:10AE200020226E223A20302C202276616C75652219
:10AE30003A2025647D0000007B2263223A202253C1
:10AE400065744D6F746F7253706565645F72222C08
:10AE500020226E223A20302C202276616C756522E9
:10AE60003A2025647D00000010B500F001F810BD07
:10AE70000CB50020019000903348006840F4803009
:10AE80003149086000BF3048006800F4003000908D
:10AE90000198401C0190009818B90198B0F5A06F76
:10AEA000F1D12948006800F4003010B10120009071
:10AEB00001E0002000900098012843D12348006859
:10AEC00040F01000214908600846006820F00300A7
:10AED00008600846006840F0020008601A484068B0
:10AEE000194948600846406848600846406840F490
:10AEF000806048600846406820F47C10486008463E
:10AF0000406840F4E81048600846006840F08070EF
:10AF1000086000BF0C48006800F000700028F9D0FD
:10AF20000948406820F00300074948600846406827
:10AF300040F00200486000BF0348406800F00C0089
:10AF40000828F9D10CBD000000100240002002408A
:10AF500070B5054605262C4609E0052001F06AFE7D
:10AF6000D4E90220521D40F10000C4E9022020680B
:10AF70000028F2D0002001F077FE70BD10B5134814
:10AF8000006840F001001149086008464068104917
:10AF900008400E494860084600680E4908400B49C1
:10AFA00008600846006820F4802008600846406871
:10AFB00020F4FE0048604FF41F008860FFF754FF44
:10AFC0004FF000600449086010BD0000001002400E
:10AFD0000000FFF8FFFFF6FE08ED00E0F0B59DB0C1
:10AFE00004460D46342110A8FDF7ADFC234618A2F7
:10AFF000322110A8FDF796F910A8FDF7C3FB07460C
:10B000003B4610AA032101A800F0A0FC0646F0234D
:10B01000324601A91848006800F083FA2B4617A2AF
:10B02000322110A8FDF77EF910A8FDF7ABFB07460B
:10B030003B4610AA032101A800F088FC0646F02335
:10B04000324601A90C48006800F06BFA1DB0F0BD53
:10B050007B2263223A202253657453706565642213
:10B060002C20226E223A20302C202276616C7565CD
:10B07000223A2025647D0000780000207B22632294
:10B080003A2022536574446972656374696F6E2255
:10B090002C20226E223A20302C202276616C75659D
:10B0A000223A2025647D000010B586B004460121B7
:10B0B0004804FFF709FD02940020ADF80C00ADF83C
:10B0C0000E00ADF81000ADF814000C20ADF8120021
:10B0D00002A9244800F0B4F840F22661214800F0AB
:10B0E00045F840F225511F4800F040F8012240F297
:10B0F00026611C4800F07FF8012240F225511948D2
:10B1000000F079F80121174800F03FF80420ADF86D
:10B11000040018208DF8070001208DF8060001A911
:10B120001148FEF7E2FE0820ADF8040004208DF877
:10B13000070001208DF8060001A90B48FEF7D5FE97
:10B1400026208DF800000F208DF8010000208DF8DA
:10B15000020001208DF803006846FFF7C7FA06B029
:10B1600010BD0000004400400008014010B500225E
:10B17000002340F66A14A14200D100BF0A12012444
:10B180009440A3B2DC43048010BD21B1828942F413
:10B190000052828104E082894DF6FF731A40828159
:10B1A000704770B50246002400230025002040F6B9
:10B1B0006A16B14200D100BFC1F3421501F01F036E
:10B1C000012606FA03F3012D02D19689334006E0E9
:10B1D000022D02D1168A334001E0968A33400C12C8
:10B1E000012606FA04F41688344013B10CB101208C
:10B1F00000E0002070BDF0B50346002400260025C5
:10B20000002040F66A17B94200D100BF1846C1F3CA
:10B21000421401F01F06012707FA06F5012C01D19F
:10B220000C3004E0022C01D1103000E014301AB1CF
:10B2300007682F43076002E00768AF430760F0BD6F
:10B240002DE9F04786B005460E460024A24600BF11
:10B25000A1460027B08900B100BF2F462C8A4CF6CA
:10B26000FF700440F08804432C82AC894EF6F31042
:10B270000440B08831890843718908430443AC8194
:10B28000AC8A4FF6FF400440B0890443AC8201A869
:10B29000FFF758FC1F48874202D1DDF810A001E0FB
:10B2A000DDF80CA0A88900F4004040B10AEBCA0008
:10B2B00000EB0A1031684900B0FBF1F807E00AEB37
:10B2C000CA0000EB0A1031688900B0FBF1F8642075
:10B2D000B8FBF0F004012009642101FB1089A88962
:10B2E00000F4004040B1322000EBC900B0FBF1F0A7
:10B2F00000F00700044308E0322000EB091064214D
:10B30000B0FBF1F000F00F0004432C8106B0BDE863
:10B31000F08700000038014001468888C0F308002B
:10B320007047C1F3080282807047000030B585B0D5
:10B3300014216846FDF707FB324C6A46002132486B
:10B34000FEF76FFC206808B1206A08B105B030BD77
:10B350000198C0F3C165019820F07C40A062E069CB
:10B3600010B101284AD120E0022D0CD19DF80A200D
:10B370000DF10B01E06AFDF76FFA012020629DF8E4
:10B380000A00606210E0012D02D10020606236E008
:10B390009DF80A200DF10B01E06AFDF75DFA9DF8BA
:10B3A0000A0060620120E06129E01DB900206062AE
:10B3B000E06122E0012D0ED1636AE16AC8189DF8B0
:10B3C0000A200DF10B01FDF747FA9DF80A10606A9B
:10B3D0000844606211E0636AE16AC8189DF80A20B7
:10B3E0000DF10B01FDF738FA9DF80A10606A084468
:10B3F0006062012020620020E06100E000BF00BF29
:10B4000000BFA3E74C31002000640040014600204B
:10B410000A7912064B7902EB03428B7902EB032285
:10B42000CB79D0187047014600200A7812064B7875
:10B4300002EB03428B7802EB0322CB78D0187047E3
:10B440007CB5E0252946094800F0D8F904460CB936
:10B4500000207CBD00200B2103468022CDE9001096
:10B4600003A1064801F098FF2046F2E745230100BA
:10B47000437564705461736B00000000919E000876
:10B4800010B50446206800B910BD2046FFF764FAE5
:10B490002046FFF783FA00BFF6E77CB504460D4669
:10B4A00016460020019000235A1E1946E06C01F058
:10B4B000CBFD00BF206800B92AE06069FEF76FFF8E
:10B4C000042800D224E00022042101A86369FEF7C9
:10B4D0006EFF6069FEF763FF01990831884200D270
:10B4E00016E00198B04203DD4FF0FF3001900FE00D
:10B4F000042101A86269FEF798FE0421684662698A
:10B50000FEF793FE626928460199FEF78EFE00BFA2
:10B5100000BF00231A461946E06C01F083FE019833
:10B520007CBD7FB504460D460026206810B900207A
:10B5300004B070BD00235A1E1946E06C01F084FD72
:10B5400000BFA069FEF72EFF02990831884200D2A1
:10B5500010E0042102A8A269FEF7C7FE042103A897
:10B56000A269FEF7C2FEA26928460299FEF7BDFE57
:10B57000012600BF00BF00231A461946E06C01F007
:10B5800051FE3046D4E710B50446206800B910BD1E
:10B5900001206060204600F021F800BFF7E70000BE
:10B5A000F0B5C1B0044604262046FDF7EBF8451C73
:10B5B000F82D02DD002041B0F0BD2B462246314679
:10B5C00001A800F0C3F907463A4601A902480068FD
:10B5D00000F0D8FAEFE700007C00002010B5044628
:10B5E000206800B910BD002020600022022102481E
:10B5F000FEF784FA00BFF5E700640040F0B5C1B083
:10B60000044605262046FDF7BDF8451CF82D02DD51
:10B61000002041B0F0BD2B462246314601A800F083
:10B6200095F907463A4601A90248006800F0AAFACF
:10B63000EFE700007C00002008B5012269460248BF
:10B64000FEF746FC009808BD14FC00080548006899
:10B6500010B900200146704702480168D1E9020193
:10B66000F9E70000700000208CB000BF00BF00BFF1
:10B6700000BF00200A2103464FF48072CDE900107C
:10B6800035A1394801F088FE00BF01F0FFFB4FF4FF
:10B690008E70364B36A24FF4C07100903A48FCF7DA
:10B6A00041FE3948FFF77CFF01F0B6FF00BF51E0D3
:10B6B000FFF75EF807210F20FFF790FC41F288307A
:10B6C00001F0B8FA07210020FFF788FC4FF47A70E8
:10B6D00001F0B0FAFEF7D4FB0A23082219461046FF
:10B6E000FFF7EEFA41F2883001F0A4FA07231A4678
:10B6F00019461846FFF7E4FA4FF47A7001F09AFA07
:10B7000009A8FEF781FC00B924E000BF01F0BEFBF0
:10B710000B9802F029FB04460D460A9802F024FB20
:10B7200006460F46099802F01FFB02AAC3C2CDE9E4
:10B73000064540F237100D4B14A24FF4C071009033
:10B740001148FCF7EFFD1048FFF72AFF01F064FFF6
:10B7500000BF00BFACE70000594A5F486561644E16
:10B760006F64655461736B00BDB700086BDE000841
:10B7700025733A25643A20626F6F74202D2D2D2D8C
:10B780003E20757365720A009C3C002025733A25A3
:10B79000643A206D70752064617461202D3E2070C4
:10B7A0006963683A20256620726F6C6C3A202566C2
:10B7B000207961773A2025660A00000000BF4FF427
:10B7C000807001F019F9044600BF14E0032001F075
:10B7D00031FA4FF4807221460748006800F090F972
:10B7E000002808DD2046FFF711FEE02803D104F110
:10B7F0000800FEF7DFFFE9E77C00002070B5064691
:10B800000D46104C206808B1002070BD012001F0E9
:10B81000EDFBE0642846FEF733FEA66025614FF499
:10B82000A0610948FEF7E4FC60614FF4A06107489D
:10B83000FEF7DEFCA061012020600548E0622046A2
:10B84000E3E700004C3100209C3100209C360020B2
:10B850009C3B002008B501210420FFF755F9F0209A
:10B86000ADF8000010208DF8030001208DF80200D3
:10B8700069460448FEF739FBF0210248FEF7C0FB99
:10B8800008BD00000008014010B54FF40041080356
:10B89000FEF764FF62B6FFF7CFFEE12807D0FFF79F
:10B8A000CBFEE02803D000F087F800BFFEE700F0F1
:10B8B00029F800F0BFF807490860FFF7C1FD064905
:10B8C0000860FFF7C7FF4FF4613000F0F3F8034959
:10B8D000086010BD80000020780000207C0000205F
:10B8E0002DE9F04104460D46FFF7B0FE06460F462F
:10B8F000A01B75EB070002D20120BDE8F0810020FB
:10B90000FBE700001CB545F25550FEF7B3FD0420DF
:10B91000FEF7A4FD4FF41A70FEF7A6FDFEF796FDA4
:10B92000FEF78CFD00200D2103468022CDE900109A
:10B9300002A1054801F030FD1CBD00004977646795
:10B940005461736B00000000B9A600082DE9F047B0
:10B9500004460E46914698460025E127E12F00D186
:10B96000E027320E28466D1C2254C6F307422846B3
:10B970006D1C2254C6F3072228466D1C225428460B
:10B980006D1C26543A0E28466D1C2254C7F30742FC
:10B9900028466D1C2254C7F3072228466D1C2254EA
:10B9A00028466D1C2754601942464946FCF754FF4F
:10B9B00008EB0500BDE8F08710B545F25550FEF7DD
:10B9C00059FD0420FEF74AFD0120FEF74DFDFEF76C
:10B9D0003DFDFEF733FD10BDF0B5C1B004460E4687
:10B9E0002046FCF7CFFE451CF82D02DD002041B0BB
:10B9F000F0BD2B462246314601A8FFF7A7FF0746B8
:10BA00003A4601A90248006800F0BCF8EFE70000E0
:10BA10007C0000202DE9F041064614461D46FFF744
:10BA200015FE07468846391948EB0500C6E900109F
:10BA3000BDE8F0811CB5102000F0DEFF04460CB913
:10BA400000201CBD002020606060A060E060142128
:10BA500023468022CDE9001003A1074801F09CFC99
:10BA6000064804602046ECE7537973436C6F636BC0
:10BA70005461736B0000000051AF0008700000209B
:10BA8000012101607047000010B507480068FFF70A
:10BA9000F7FF06480068FFF776FD0548006800F0EC
:10BAA000D9F801F07BF810BD80000020780000205C
:10BAB0007C00002070B505464FF4F36000F09CFF59
:10BAC00004460CB9002070BD4FF4F3612046FCF72A
:10BAD0003AFF012001F08AFAC4F8900740F246517B
:10BAE00004F10C00FEF784FBA0602846FFF7DCFAA7
:10BAF00001202060014804602046E4E76C0000203B
:10BB0000F8B504460D4616460020009000235A1E44
:10BB10001946D4F8900701F097FA00BF206800B9E1
:10BB200025E0A068FEF73BFC042800D21FE00022BD
:10BB300004216846A368FEF73AFCA068FEF72FFCD4
:10BB40000099091D884200D211E00098B04203DD3F
:10BB50004FF0FF3000900AE004216846A268FEF72B
:10BB60009FFBA26828460099FEF79AFB00BF00BF22
:10BB700000231A461946D4F8900701F053FB0098A9
:10BB8000F8BD00002DE9F0470446884615464FF001
:10BB9000000A0026B14600235A1E1946D4F8900721
:10BBA00001F052FA00BFD4F8780610B9B5F5877FD6
:10BBB00000D941E0E81DC4F87C06C4F87806FA22F2
:10BBC0003046761C04F5D0610A54FB223046761CC0
:10BBD0000A54C5F307223046761C0A543046761CB8
:10BBE0000D542A46414604F28460FCF735FE2E448B
:10BBF000002705E018F80700484400F0FF097F1C03
:10BC0000AF42F7DB3046761C04F5D06101F80090B6
:10BC1000FC223046761C0A54FD2104F5D060815583
:10BC2000012240F227710A48FFF7E5FA00BFD4F875
:10BC300078060028FBD100BF00BF00231A46194632
:10BC4000D4F8900701F0EEFA5046BDE8F087000006
:10BC50000044004010B5044604B910BD01206060E6
:10BC600000210848FFF791FA002240F226610548BA
:10BC7000FFF7C1FA002240F225510248FFF7BBFA54
:10BC800000BFEAE700440040490050EAC12018BF65
:10BC900004204A0D18BF40F0010040F2FF72B2EBE1
:10BCA000515F08BF40F00200012808BF052070471F
:10BCB00030380A2801D2012070470020704770B543
:10BCC00004461BE02568A08900F4807020B9A068B4
:10BCD00010B1A068FFF7F3FFA08900F4807020B9CD
:10BCE000206910B1206900F07BFF206A10B1206A42
:10BCF00000F076FF204600F073FF2C46002CE1D1C7
:10BD000070BD70B505460E46AC6800E024682CB1E5
:10BD10003146206A00F04AF80028F7D1204670BD6D
:10BD200010B5282000F068FE04461CB128212046EA
:10BD3000FCF709FE204610BD10B50446002211464E
:10BD4000204600F001F810BD2DE9F04780460D4671
:10BD500016460024FFF7E4FF07460020124908605A
:10BD60000FB9BDE8F087404600F0C4FE8146494661
:10BD7000384600F067FB044624B93846FFF79FFFBA
:10BD80000020EEE766B1204600F0B4FE04462078BD
:10BD900030B13846FFF793FF034804600020E0E726
:10BDA00005B12C603846DCE77400002070B504460D
:10BDB0000D462CB9AC4201D0012070BD0020FCE73B
:10BDC0000DB90120F9E705E0207808B90020F4E773
:10BDD000641C6D1C2078FCF798FA06462878FCF75E
:10BDE00094FA8642F0D02078FCF78FFA064628783D
:10BDF000FCF78BFA301AE0E7002107E042F6E06139
:10BE000000BF0A1EA1F1010399B2FAD1021EA0F1EE
:10BE1000010398B2F2D170471CB54FF4C870FFF718
:10BE2000EBFFFFF731FD00200A2103464FF480624B
:10BE3000CDE9001003A1064801F0AEFA00F0F4FFCE
:10BE400000201CBD4D61696E5461736B00000000E1
:10BE500069B600082DE9F04705460C4620785B28B6
:10BE600004D0264804600020BDE8F0870520E86083
:10BE7000601C00F03FFE044620785D2801D1601C64
:10BE8000F2E7FFF74DFF0646A860A86808B9002052
:10BE9000EAE7204600F02EFE80464146304600F09C
:10BEA000D1FA074600F026FE04460CB90020DBE775
:10BEB00017E0FFF735FF071E00D1D5E737607E603A
:10BEC0003E46601C00F016FE81464946304600F0B2
:10BED000B9FA804600F00EFE04460CB90020C3E714
:10BEE00000BF20782C28E4D020785D2801D1601C88
:10BEF000BAE7024804600020B6E7000074000020A2
:10BF0000014600220878302806DB0878392803DC4F
:10BF100008783038024415E00878412806DB0878B4
:10BF2000462803DC0878373802440BE0087861289B
:10BF300006DB0878662803DC08785738024401E0FD
:10BF4000002070471201491C0878302806DB087869
:10BF5000392803DC08783038024415E00878412895
:10BF600006DB0878462803DC0878373802440BE003
:10BF70000878612806DB0878662803DC08785738DB
:10BF8000024401E00020DCE71201491C0878302857
:10BF900006DB0878392803DC08783038024415E0DD
:10BFA0000878412806DB0878462803DC087837380B
:10BFB00002440BE00878612806DB0878662803DC79
:10BFC00008785738024401E00020BAE71201491C02
:10BFD0000878302806DB0878392803DC0878303800
:10BFE000024415E00878412806DB0878462803DC7F
:10BFF0000878373802440BE00878612806DB0878B7
:10C00000662803DC08785738024401E0002098E7EE
:10C01000104696E72DE9FC5F83468A4600210C46D0
:10C020000D4600BF00BF00200190012000909AF84B
:10C0300000002D2802D100BF0AF1010A9AF8000081
:10C04000302801D10AF1010A9AF80000312821DBD9
:10C050009AF8000039281DDC00BF1AF8011BA1F175
:10C06000300001F082FC06460F4600223D4B204680
:10C07000294601F091FC804632463B4601F09EFB8A
:10C0800004460D469AF80000302803DB9AF80000B9
:10C090003928E2DD9AF800002E2828D19AF801000C
:10C0A000302824DB9AF80100392820DC0AF1010A43
:10C0B00000BF1AF8011BA1F1300001F056FC064642
:10C0C0000F460022274B2046294601F065FC80469A
:10C0D00032463B4601F072FB04460D4600BF9AF81B
:10C0E0000000302803DB9AF800003928E1DD9AF8D7
:10C0F0000000652803D09AF80000452823D10AF1F2
:10C10000010A9AF800002B2802D10AF1010A08E07E
:10C110009AF800002D2804D14FF0FF3000900AF16A
:10C12000010A08E01AF8010B3038019901EB81018E
:10C1300000EB410001909AF80000302803DB9AF8E8
:10C1400000003928EEDDCBE906452046294601F0FE
:10C15000DDFBCBF814000320CBF80C005046BDE803
:10C16000FC9F0000000024402DE9F04706460C46E5
:10C1700020787B2804D0404804600020BDE8F08788
:10C180000620F060601C00F0B5FC044620787D2895
:10C1900001D1601CF2E7FFF7C3FD0546B060B0684F
:10C1A00008B90020EAE7204600F0A4FC804641469A
:10C1B000284600F063F8074600F09CFC04460CB9E2
:10C1C0000020DBE7286928620020286120783A28CF
:10C1D00003D0294804600020D0E7601C00F08AFCEE
:10C1E00080464146284600F02DF9074600F082FCC3
:10C1F00004460CB90020C1E731E0FFF791FD071EAE
:10C2000000D1BBE72F607D603D46601C00F072FCF2
:10C2100081464946284600F031F8804600F06AFC25
:10C2200004460CB90020A9E728692862002028618B
:10C2300020783A2803D01048046000209EE7601C54
:10C2400000F058FC81464946284600F0FBF880463D
:10C2500000F050FC04460CB900208FE700BF2078A6
:10C260002C28CAD020787D2801D1601C86E702489E
:10C270000460002082E70000740000202DE9F05FD8
:10C280008346884608F10104002798F80000222818
:10C2900005D06A48C0F800800020BDE8F09F04E0A7
:10C2A00014F8011B5C2900D1641C2078222804D0DA
:10C2B000207810B1781C071EF2D1781C00F09CFB8E
:10C2C0008146B9F1000F01D10020E6E708F1010431
:10C2D0004D469EE020785C2804D014F8010B05F848
:10C2E000010B96E0641C2078722818D006DC6228C6
:10C2F00009D066280BD06E287ED10CE0742812D0AD
:10C300007528F9D113E0082005F8010B7FE00C2017
:10C3100005F8010B7BE00A2005F8010B77E00D2002
:10C3200005F8010B73E0092005F8010B6FE0601CB4
:10C33000FFF7E6FD0646241DB6F55C4F02D3B6F5C1
:10C34000604F00D306B962E0B6F5584F1CD3B6F57E
:10C350005C4F19D260785C2802D1A078752800D093
:10C3600055E0E01CFFF7CCFD8246A41DBAF55C4FFA
:10C3700002D3BAF5604F00D349E0C6F30901504635
:10C3800061F39F2000F580360427802E01D201271B
:10C3900008E0B6F5006F01D2022703E0B6F5803F52
:10C3A00000D203273D44012F20D0022F15D0032FA8
:10C3B0000AD0042F24D106F0BF0040F08001681E8F
:10C3C00005460170B60900BF06F0BF0040F08001CD
:10C3D000681E05460170B60900BF06F0BF0040F0B8
:10C3E0008001681E05460170B60900BF1448C05D93
:10C3F0003043C1B2681E00E005E00546017000BF91
:10C4000000BF3D4403E0207805F8010B00BF00BFEA
:10C41000641C2078222803D0207800287FF45AAFAB
:10C42000002028702078222800D1641CCBF81090BE
:10C430000420CBF80C0020462FE7000074000020F9
:10C4400085DE000870B505460C460CB9002070BDAD
:10C45000042224A12046FCF7B4F918B90220E860B0
:10C46000201DF4E7052221A12046FCF7AAF918B9FE
:10C470000020E860601DEAE704221EA12046FCF7C8
:10C48000A0F920B90120E8606861201DDFE720786D
:10C49000222804D121462846FFF7F0FED7E720786E
:10C4A0002D2805D02078302807DB2078392804DCB7
:10C4B00021462846FFF7AEFDC9E720785B2804D166
:10C4C00021462846FFF7C6FCC1E720787B2804D127
:10C4D00021462846FFF748FEB9E7084804600020D7
:10C4E000B5E700006E756C6C0000000066616C734F
:10C4F0006500000074727565000000007400002083
:10C500002DE9F04105460E461C4807681C480068A6
:10C51000001D00F0F8FA50B91948006890F82C1086
:10C520000120884017490968814316480160681C4A
:10C5300038B936B112480168091D134800F021FBD3
:10C540001AE07C190E4800684460BC4207D20C48CF
:10C550000168091D0D48006800F0F9FA0CE0084870
:10C560000168091D0A48006800F0F1FA09480068EE
:10C57000844201D207480460BDE8F0813000002009
:10C580001C0000203400002038310020240000204E
:10C59000200000204C00002010B5044600F0FEFAF8
:10C5A00023480068401C224908602248006840B9BE
:10C5B000204804600846006801280DD100F068F9A1
:10C5C0000AE01D48006838B91A480068C06AE16A84
:10C5D000884201D81748046018480068401C174971
:10C5E000086094F82C100120884015490968084318
:10C5F00013490860E16A01EB8101124A02EB8100F4
:10C60000211D00F0BEFA00F0DBFA0B48006868B1AB
:10C6100008480068C06AE16A884207D24FF080503B
:10C6200009490860BFF34F8FBFF36F8F10BD000043
:10C630002C0000201C0000203800002048000020B2
:10C64000340000208430002004ED00E070B523E0C9
:10C6500000F01CFC1348006808B9012000E000202D
:10C66000054600F0D9FFBDB900F098FA0D48C06842
:10C67000C468201D00F047FA0B480068401E0A49B4
:10C6800008600A480068401E0849086000F098FAEF
:10C69000204600F060F800BF044800680028D7D1A9
:10C6A00070BD0000243100202C0000202800002054
:10C6B00070B504460D46206C70B1216CE0680844EA
:10C6C000E0606168E068884201D32068E060284645
:10C6D000226CE168FCF7C0F870BD2DE9F04104461A
:10C6E0000F4615464FF00008A66B206C40B9206835
:10C6F00060BB606800F00EFF80460020606025E0AF
:10C700007DB93946226CA068FCF7A6F8216CA068B8
:10C710000844A060D4E90110884217D32068A060C3
:10C7200014E03946226CE068FCF796F8216CE0686A
:10C73000401AE0602168E068884203D2216C60689A
:10C74000401AE060022D01D106B1761E701CA06374
:10C750004046BDE8F08110B50446206B00F040FA79
:10C76000204600F03DFA10BD0A4A22F007000A4AAE
:10C7700010600022084B5A6042F6F872074B5A606C
:10C7800000221A60014642F6F8724A601A460A60B0
:10C79000704700008C0000200000002008000020EE
:10C7A00000BFFFF753FF064800680128F9D94FF092
:10C7B000805004490860BFF34F8FBFF36F8FF0E7DD
:10C7C0008430002004ED00E010B504464CB1002098
:10C7D00060602060E06000231A461946204600F0A1
:10C7E00021FD10BD2DE9F04106460D46174698463D
:10C7F000069C0DB9246000E02760E66325640121F2
:10C80000204600F0CFFCBDE8F0812DE9FF5F8046B7
:10C810000F469146DDE90E6A109CA9F10100216BDB
:10C8200001EB800B2BF0070B002507E0795D04F18D
:10C8300034004155785D00B902E06D1C102DF5D330
:10C8400000BF002143200155052E00D30426E662D7
:10C8500066640020A064201D00F076F904F1180041
:10C8600000F072F92461C6F10500A0616462002045
:10C87000E06484F8500041465846039A00F028F9D5
:10C880002060BAF1000F01D0CAF80040BDE8FF9F58
:10C8900010B5002407E004EB84010F4A02EB81008D
:10C8A00000F045F9641C052CF5D30C4800F03FF965
:10C8B0000B4800F03CF90B4800F039F90A4800F049
:10C8C00036F90A4800F033F9044809490860044879
:10C8D0000849086010BD000084300020E8300020C6
:10C8E000FC3000201031002024310020383100209D
:10C8F000200000202400002070B5054600F04EF90D
:10C90000A86B08B9012400E0002400F059F9204682
:10C9100070BD70B5054600F041F9A86BE96B88421F
:10C9200001D1012400E0002400F04AF9204670BD46
:10C930000A490968096809B9012100E0002121B10B
:10C940004FF0FF31064A116006E004490968C968E2
:10C95000C868034A41681160704700002000002049
:10C960004C00002000BFBF2080F31188BFF34F8F21
:10C97000BFF36F8F00BF00BFFEE770B5044600F045
:10C980000DF994F9455010E0606A08B9012000E003
:10C99000002038B904F1240000F0FEFD18B100F0C9
:10C9A000C9F900E003E0681E45B2002DECDC00BFD1
:10C9B000FF2084F8450000F003F900F0EFF894F947
:10C9C000445010E0206908B9012000E0002048B977
:10C9D00004F1100000F0E0FD08B100F0ABF9681EB2
:10C9E00045B200E001E0002DECDC00BFFF2084F840
:10C9F000440000F0E5F870BD2DE9F04104464FF029
:10CA0000000800F043FA2648006820B9FFF7ACFEA2
:10CA100001202349086044B1083404F0070020B124
:10CA200004F00700C0F108000444002C32D042F6A4
:10CA3000F87084422ED21B4F3846056801E02F461D
:10CA40002D686868A04202D228680028F7D11648ED
:10CA500085421FD0386800F1080828683860686887
:10CA6000001B102810D92E196868001B70606C60BC
:10CA700071680C4800E00068026852688A42FAD384
:10CA800002683260066000BF084968680968081AD1
:10CA90000649086000F0C0FD4046BDE8F081000096
:10CAA00014000020000000200800002010000020DA
:10CAB0000648006830B10549096801F14800896CF1
:10CAC000491C016001480068704700001C000020FC
:10CAD000001F4FF080730360001F21F0010303600B
:10CAE000001F034B036014380260203870470000B9
:10CAF00065C9000800E0401C20B1017811B101783F
:10CB00002029F8DD704701460A69D1E901309860B3
:10CB1000D1E9010358605068884201D188685060AB
:10CB2000002008611068401E10601068704700F116
:10CB3000080141604FF0FF31816000F10801C160E0
:10CB4000016100210160704700210161704710B54B
:10CB500002460B685C1C0CB9106907E002F1080082
:10CB600000E04068446824689C42FAD944684C60FC
:10CB70004C68A160886041600A611468641C14609C
:10CB800010BD42684A6093688B60936859609160F9
:10CB9000086103685B1C03607047000000BFBF2092
:10CBA00080F31188BFF34F8FBFF36F8F00BF03482F
:10CBB0000068401C01490860704700001800002010
:10CBC00006480068401E054908600846006820B90C
:10CBD000002080F3118800BF00BF704718000020BC
:10CBE00070B506463546B6B1083D2C4600F04EF904
:10CBF0006168094800E00068026852688A42FAD316
:10CC000002682260046005496068096808440349B5
:10CC1000086000F001FD70BD000000201000002041
:10CC200003484FF0E0214861072008617047000089
:10CC30003F19010070B50446002544B100F026F903
:10CC400000212046FFF75CFC00F0E6FC05463DB9FC
:10CC50004FF0805003490860BFF34F8FBFF36F8FD1
:10CC600070BD000004ED00E070B50546FFF796FFCB
:10CC700015B92748006800E028460446201DFFF744
:10CC800042FF78B9E06A00EB8000224951F82000A9
:10CC900040B994F82C10012088401F49096881434D
:10CCA0001D480160A06A18B104F11800FFF72BFFBE
:10CCB0001A480068401C19490860154800688442F9
:10CCC00009D1211D1648FFF75CFF16480068401C7B
:10CCD0001449086009E014480068401E12490860C1
:10CCE0002046FFF738FDFFF723FEFFF769FF0F48E7
:10CCF000006858B106480068844207D14FF0805060
:10CD00000B490860BFF34F8FBFF36F8F70BD0000FA
:10CD10001C00002084300020340000204800002047
:10CD200024310020280000202C00002038000020A2
:10CD300004ED00E001200149086070474000002038
:10CD400070B505460C460548016818312846FFF7BE
:10CD5000FEFE01212046FFF7D3FB70BD1C00002022
:10CD600070B505462C46002D4BD02649E06A09686F
:10CD7000C96A884245D2A06900F0004028B921481C
:10CD80000068C06AC0F10500A061E16A01EB8101A1
:10CD90001D4A02EB81016069884201D1012000E057
:10CDA000002050B3201DFFF7AEFE78B9E06A00EB1B
:10CDB0008000154951F8200040B994F82C1001204A
:10CDC0008840124909688143104801600D48006895
:10CDD000C06AE06294F82C10012088400B49096871
:10CDE00008430A490860E16A01EB8101064A02EB47
:10CDF0008100211DFFF7C5FE03E002480068C06AFC
:10CE0000E06270BD1C00002084300020340000204F
:10CE100003490968016003490968416070470000DF
:10CE200044000020300000201CB5114800210B46B2
:10CE30008022CDE900100FA1104800F0ADFA0446A1
:10CE4000012C14D100BFBF2080F31188BFF34F8F96
:10CE5000BFF36F8F00BF4FF0FF300949086001201A
:10CE60000849086000200849086000F08BF81CBDE4
:10CE70005000002049444C4500000000A1C70008B4
:10CE80004C000020380000203000002002480068DC
:10CE9000401C014908607047540000201248006897
:10CEA00018B10120114908601DE000200F490860F9
:10CEB0000F480068B0FA80F0C0F11F0101EB810259
:10CEC0000C4B03EB820042685268426000F108029A
:10CED0004368934202D14268526842604268D26815
:10CEE000054B1A6000BF704754000020400000202E
:10CEF00034000020843000201C00002070B51F4842
:10CF0000046840F225511E48FEF74BF960B11C48F9
:10CF1000FEF702FAC5B229462046FDF725FB40F28E
:10CF200025511748FEF722F940F227711448FEF701
:10CF300038F9012816D1D4F87826501EC4F878069E
:10CF4000D4F87C06821A04F5D060815C0C48FEF7A8
:10CF5000E8F9D4F8780628B9002240F22771084889
:10CF6000FEF749F940F226610548FEF71AF920B1AB
:10CF700040F226610248FEF7F9F870BD6C0000200F
:10CF80000044004010B50A48006840F47F0008499A
:10CF900008600846006840F07F400860FFF740FEE8
:10CFA000002004490860FBF731F9002010BD0000A3
:10CFB00020ED00E01800002010B500BFBF2080F376
:10CFC0001188BFF34F8FBFF36F8F00BF00F014FACB
:10CFD00018B14FF080500449086000BF002080F372
:10CFE000118800BF10BD000004ED00E02DE9F04104
:10CFF00004460126002722460021012000F007F800
:10D0000005462846FFF7E0FB2846BDE8F0812DE9FC
:10D01000F84307460D4690460DB9002601E007FB90
:10D0200005F606F14800FFF7E7FC044644B104F1B9
:10D03000480943464A46294638460094FFF7D2FB42
:10D040002046BDE8F88300002DE9FF4782B0054681
:10D0500089461E464FF0000A2C4600BFFFF79EFD92
:10D06000D4F83880B8F1000F3BD0E7684946204635
:10D07000FFF71EFBDEB9A8F10100A063206810B91C
:10D08000FFF716FD6060206908B9012000E000206C
:10D0900008BB04F1100000F07FFAE0B14FF08050BF
:10D0A0003F490860BFF34F8FBFF36F8F13E0E76016
:10D0B000606A08B9012000E0002060B904F1240092
:10D0C00000F06AFA38B14FF0805035490860BFF37C
:10D0D0004F8FBFF36F8FFFF773FD012006B0BDE8E0
:10D0E000F087049818B9FFF76BFD0020F6E7BAF156
:10D0F000000F04D16846FFF78BFE4FF0010AFFF7DF
:10D100005FFDFFF7C3FEFFF749FD94F94400401CA3
:10D1100010B9002084F8440094F94500401C10B96F
:10D12000002084F84500FFF74BFD04A9684600F095
:10D1300005F940BB2046FFF7DFFBF0B1206830B9AE
:10D14000FFF72CFD6068FFF70BFEFFF739FD04F1D8
:10D1500024000499FFF7F4FD2046FFF70EFC00F0D1
:10D160005BFA00287FF47AAF4FF080500C490860DA
:10D17000BFF34F8FBFF36F8F70E72046FFF7FDFBC4
:10D1800000F04AFA6AE72046FFF7F7FB00F044FA9E
:10D190002046FFF7B1FB0028EED000209EE70000FC
:10D1A00004ED00E070B505460E462C46FFF7F6FC90
:10D1B000D4E90F12206801FB020060600020A06328
:10D1C0002068A060E06B401E226C216800FB02100A
:10D1D000E060FF2084F8440084F845009EB920698F
:10D1E00008B9012000E00020A8B904F1100000F007
:10D1F000D3F980B14FF0805009490860BFF34F8FD9
:10D20000BFF36F8F07E004F11000FFF790FC04F10B
:10D210002400FFF78CFCFFF7D3FC012070BD000059
:10D2200004ED00E02DE9FF4383B0074688461D4624
:10D230004FF000093C4600BFFFF7B0FCA06BE16B6C
:10D24000884201D3022D28D12A4641462046FFF7C5
:10D2500044FA0646606A08B9012000E0002068B977
:10D2600004F1240000F098F988B14FF08050324961
:10D270000860BFF34F8FBFF36F8F08E03EB14FF0F0
:10D2800080502D490860BFF34F8FBFF36F8FFFF7BA
:10D2900097FC012007B0BDE8F083059818B9FFF7A7
:10D2A0008FFC0020F6E7B9F1000F04D101A8FFF7C9
:10D2B000AFFD4FF00109FFF783FCFFF7E7FDFFF734
:10D2C0006DFC94F94400401C10B9002084F844001F
:10D2D00094F94500401C10B9002084F84500FFF780
:10D2E0006FFC05A901A800F029F8F0B92046FFF766
:10D2F00010FBA0B104F110000599FFF721FD2046B5
:10D30000FFF73BFB00F088F9002895D14FF08050E3
:10D3100009490860BFF34F8FBFF36F8F8CE720463A
:10D32000FFF72BFB00F078F986E72046FFF725FB97
:10D3300000F072F90020ADE704ED00E070B504469E
:10D340000D46FFF72BFC124802682868401C08B9FC
:10D35000002619E00F4920680968884204D06068F7
:10D36000904201D801260FE06068101A29688842AF
:10D3700009D228686168511A401A28602046FFF7D0
:10D3800047FD002600E00126FFF71AFC304670BD7D
:10D3900030000020440000202DE9FF4F85B080467A
:10D3A00089461746DDE912ABB800FFF725FB0646B4
:10D3B00056B15420FFF720FB04460CB1266304E06D
:10D3C0003046FFF70DFC00E000247CB10020CDE9E1
:10D3D00000ABCDE902403A4649464046089BFFF77C
:10D3E00014FA2046FFF7D8F8012501E04FF0FF3589
:10D3F000284609B0BDE8F08F2DE9F04100273A48F2
:10D400000068002863D139480068451C374805602A
:10D410008DB93748D0F80080364800683449086034
:10D420003448C0F8008034480068401C3249086025
:10D43000FFF77EFA00BF3148006885423BD300BF4A
:10D440002B480068006808B9012000E0002020B1E6
:10D450004FF0FF30294908602CE025480068C0687B
:10D46000C4686668B54202D22448066022E0201DE6
:10D47000FFF749FBA06A18B104F11800FFF743FB5E
:10D4800094F82C10012088401D49096808431C4964
:10D490000860E16A01EB81011A4A02EB8100211D5B
:10D4A000FFF76FFB1849E06A0968C96A8842C7D369
:10D4B0000127C5E700BF14480068C06A00EB800080
:10D4C000104951F82000012800D9012704E00F4835
:10D4D0000068401C0D4908600D48006800B1012734
:10D4E0003846BDE8F08100005400002030000020E4
:10D4F0002000002024000020440000204C000020D8
:10D5000034000020843000201C0000203C0000205B
:10D510004000002070B505462C460026ADB3A06C37
:10D52000401EA064616CE06A88422ED0A06C60BB93
:10D53000201DFFF7E8FA78B9E06A00EB8000144993
:10D5400051F8200040B994F82C100120884011496E
:10D55000096881430F480160606CE062E06AC0F1D5
:10D560000500A06194F82C10012088400949096841
:10D57000084308490860E16A01EB8101044A02EBB3
:10D580008100211DFFF7FDFA0126304670BD000025
:10D59000843000203400002070B50646F068C4686E
:10D5A00004F11800FFF7AFFA15480068A8B9201D6C
:10D5B000FFF7A9FA94F82C10012088401149096856
:10D5C000084310490860E16A01EB81010E4A02EB51
:10D5D0008100211DFFF7D5FA04E004F118010B4882
:10D5E000FFF7CFFA0A49E06A0968C96A884204D994
:10D5F000012501200749086000E00025284670BD8C
:10D60000540000203400002084300020103100201D
:10D610001C0000204000002070B500240026FFF709
:10D62000BDFA2E480068401E2C4908600846006874
:10D6300000284FD12A48006800284BD024E0294810
:10D64000C068C46804F11800FFF75DFA201DFFF7F9
:10D650005AFA94F82C10012088402349096808439D
:10D6600021490860E16A01EB8101204A02EB810057
:10D67000211DFFF786FA1E49E06A0968C96A8842D7
:10D6800002D301201B4908601648006808B9012030
:10D6900000E000200028D2D00CB1FFF749F916486D
:10D6A000056865B100BFFFF7A7FE10B10120114961
:10D6B00008606D1E002DF6D100200F4908600D484E
:10D6C000006838B1012630070C490860BFF34F8F5E
:10D6D000BFF36F8FFFF774FA304670BD540000201F
:10D6E0002C00002010310020340000208430002065
:10D6F0001C000020400000203C00002004ED00E061
:10D7000010B500290AD00878002807D005487844C9
:10D71000FBF740F9002801D0002010BD02487844F2
:10D7200010BD0000760800006E08000010B500294A
:10D730000AD00878002807D005487844FBF72AF972
:10D74000002801D0002010BD0248784410BD000020
:10D750005A0900005209000021F00042A2F1605273
:10D76000B2F5801F01F0004328BFD2F17F6C0BD9C6
:10D770005FEA001C43EAC20242EB507018BF7047D8
:10D7800028BF20F001007047B2F5801FBCBF1846CB
:10D7900070474FEA410C1CF5001F02D2084600F00A
:10D7A00054BB70B500F0A2F900000089FFF7F6BF86
:10D7B0004FF00040A0F580007047000010B591EADE
:10D7C000030F48BF83F0004300F1EC81841A71EB32
:10D7D000030C05D2121943EB0C03001B61EB0C0187
:10D7E000DFF824E14FEA1154A4EB135C1EEA430F67
:10D7F00018BF9EEA445F73D023EA0E03DCF1200ECB
:10D8000021EA045143F4801332D322FA0CFE10EBC8
:10D810000E0023FA0CFE41EB0E01CCF1200E03FAB0
:10D820000EFE10EB0E0051F10001B1F5801FCCF19E
:10D83000200E32D201EB045112FA0EF2BDE8104074
:10D8400058BF7047401C38BF5FEA420218BF70479C
:10D85000002814BF20F0010041F100014FEA41030C
:10D8600013F5001F38BF7047A1F1C04100F08CB91B
:10D87000012A43EB0302ACF1200CDCF11F0E32BF96
:10D880004FF0000E23FA0CF310EB030041EB0451B0
:10D89000B4EB115FD0D0A1EB045101F58011490820
:10D8A0005FEA300001EB04510ED350F1000038BFA5
:10D8B00012FA0EFE08D1BDE81040C9E7401C38BF7F
:10D8C0005FEA4202CAD1C3E7BDE810404FEA410314
:10D8D00013F5001F38BF7047A1F1C04100F054B9E3
:10D8E0009EEA445F08D011EA5E0FBDE8104004BF15
:10D8F00001F0004100207047BDE8104070B500F015
:10D90000F5F800BF64FBBE3E0000E0FF4FEA4103B4
:10D910004FEA5353A3F58063D3F11E03C8BFD3F17D
:10D92000210C0CDD4FF0004242EAC12242EA505283
:10D9300032FA03FC8CEAE17CACEBE1707047102B0F
:10D94000C4BF0020704703F5787CBCF1FF3F04D0D2
:10D950006FF0004282EA2100704770B500F0C6F80F
:10D960004992248000207047F2E710F0004248BF3F
:10D970004042B0FA80F310FA03F10AD0C3F11D035C
:10D9800003F580634FEA415002EB035202EBD121D1
:10D9900070474FF000007047DFF848C170B51CEACF
:10D9A000111E1EBF1CEA13159EEA0C0F95EA0C0F00
:10D9B00000F06F8081EA030423EA4C134EEAD47E20
:10D9C00021EA4C1141F4801143F48013AE44A1FBD1
:10D9D000024CA0FB0365AEF17F7E361955EB0C05BA
:10D9E000A1FB034C4CF10003A0FB021C16EB0C0640
:10D9F000654153F10003094218BF46F0010613F4D4
:10DA0000007F0BD14FEA03314FEA0530340341EA7E
:10DA1000155140EA16506FF003020AE04FEAC321A5
:10DA20004FEAC520F40241EA555140EA56506FF0E2
:10DA3000020202EB2E4201EB025585EACE710AD0BA
:10DA40005FEA440C18BF24F0004450F1000041F19B
:10DA5000000120EAD47040F2FE7C624500D270BD25
:10DA6000A84214BF4FF080444FF04044002E08BF3E
:10DA70000024BEF1806FA8BFA1F1C041BDE8704095
:10DA800080F282804FF0000001F1C04101F00041BE
:10DA900070479EEA0C0F0CEA131518BF95EA0C0F9D
:10DAA00006D04FF0000081EA030E0EF0004170BD79
:10DAB00000F01CF88900013E00F007B800F009B83A
:10DAC0004FEA430C5FEA5C5C08D081EA030100F096
:10DAD0005BB84FEA410C5FEA5C5CF6D14FF00000A6
