:020000040800F2
:10000000A044002091020008990200089B02000809
:100010009D0200089F020008A102000800000000E5
:10002000000000000000000000000000D9010008EE
:10003000A5020008000000001D020008F9470008A2
:10004000AB020008AB020008AB020008AB020008DC
:10005000AB020008AB020008AB020008AB020008CC
:10006000AB020008AB020008AB020008AB020008BC
:10007000AB020008AB020008AB020008AB020008AC
:10008000AB020008AB020008AB020008AB0200089C
:1000900091290008AB020008AB020008AB0200087F
:1000A000AB020008AB020008AB020008AB0200087C
:1000B00000000000AB020008AB020008AB02000821
:1000C000AB020008AB020008AB020008AB0200085C
:1000D000AB020008000000003D470008AB0200082A
:1000E000AB020008AB020008AB02000800F002F807
:1000F00000F062F80AA090E8000C82448344AAF160
:100100000107DA4501D100F057F8AFF2090EBAE85D
:100110000F0013F0010F18BFFB1A43F0010318473B
:10012000E854000008550000103A24BF78C878C190
:10013000FAD8520724BF30C830C144BF04680C60ED
:10014000704700000023002400250026103A28BF35
:1001500078C1FBD8520728BF30C148BF0B60704739
:10016000692900F06381642900F06081752900F03D
:100170005D816F2900F0F481782900F01B8203680B
:10018000DB0928BF41F08001632900F0E484732972
:1001900000F0E984E32900F0F484002070471FB5E3
:1001A00000F020FD04000020002104F0C9FE401CE6
:1001B00060601FBD10B510BD00F018FD1146FFF7BF
:1001C000EEFF03F047FA00F036FD03B4FFF7F2FF4D
:1001D00003BC00F039FD0000224B19680868B0E844
:1001E000F00F80F30988BFF36F8F4FF0000080F3AA
:1001F00011884EF00D0E70470000000006480068A0
:10020000006880F3088862B661B6BFF34F8FBFF312
:100210006F8F00DF00BF00BF08ED00E0EFF3098043
:10022000BFF36F8F0F4B1A6820E9F00F106008B50D
:100230004FF0BF0080F31188BFF34F8FBFF36F8F74
:1002400004F04CFA4FF0000080F31188BDE808403C
:1002500019680868B0E8F00F80F30988BFF36F8F62
:10026000704700BF1C000020EFF3058070470000BE
:10027000EFF30980704780F309887047EFF3088037
:10028000704780F30888704740BA7047C0BA70471B
:100290000948804709480047FEE7FEE7FEE7FEE71A
:1002A000FEE7FEE7FEE7FEE7FEE7FEE70448054956
:1002B000034A054B7047000045230008ED00000885
:1002C000A0420020A0440020A042002070B50446B7
:1002D000051F00F0B3FB0068002C14BF446870BD1C
:1002E000002C18BFAC423CBF20466468F8D30168BC
:1002F0000A18AA4218BF456003D12A68054611446E
:10030000016028684119A1421CBF6C6070BD616822
:10031000696021680844286070BD10B5044600F08B
:1003200085FB0068005DC00602D504F1200010BD09
:10033000204610BD0FB41CB50C0007AA009001D0D8
:100340002044401E074B7B4469460190069800F00C
:10035000D8FB002C03D06946002000F0E5FB1CBC54
:100360005DF814FBE907000070B504468569006874
:10037000C10601D5302600E02026C00707D070BD99
:10038000D4E9012130469047206A401C20626D1E4E
:10039000F6D570BD70B5044685690078C00707D1F1
:1003A00070BDD4E9012120209047206A401C2062C2
:1003B0006D1EF6D570BD09684A0501D540B270477B
:1003C000C905FCD500B2704709684A0501D5C0B21D
:1003D0007047C905FCD580B2704770B50C4605461C
:1003E000012A05D02878800600D5EA69002302E0BA
:1003F000012305E05B1C934202D2E05C0028F9D1A6
:10040000A869E618C01AA861286A18442862284614
:10041000FFF7AAFF04E0D5E9012114F8010B90478A
:10042000B442F8D32846FFF7B5FF70BD2DE9F0417F
:100430000646002410687529314616A510D0FFF72E
:10044000BAFF002802DA404213A507E031688A07A4
:1004500001D512A502E0490704D511A5012401E048
:10046000FFF7B2FF00210A2206F1240709E0B0FBE2
:10047000F2FCB0FBF2F302FB1C003030785418465B
:10048000491C0028F3D123462A463046BDE8F041F6
:1004900000F0D8BA000000002D0000002B00000082
:1004A000200000002DE9FF5F15468A460446DFF86C
:1004B000AC80F8440027D8E900103E46CDE9001092
:1004C00010E03AF816106A4602A800F066FB411CDC
:1004D00007D02178890603D5E269391891420DD8F1
:1004E0000744761C2078800602D5E069B84205DD15
:1004F000AE42E6DB3AF816000028E2D1A069C01B44
:10050000A0612046FFF730FFD8E90010CDE90010C8
:10051000002017E03AF818106A4602A800F03DFBE8
:10052000B0F1FF3F81460BD000250DF1080B05E02F
:10053000D4E901211BF8050090476D1C4D45F7D308
:1005400008F10100B0428046E4DB206A38442062B2
:100550002046FFF71FFFBDE8FF9F0000A2500000EC
:1005600070B5044621461068FFF72EFF002104F104
:10057000240505E000F007023032C0086A54491C27
:100580000028F7D12068002308A2050708D500F04D
:100590002000084304D0E069012305A2401EE06169
:1005A0002046BDE8704000F04DBA00000000000099
:1005B0003000000070B504460D4621461068FFF774
:1005C00003FF2188090502D50F4A7A4402E00E4A4A
:1005D0007A440E32002104F1240305E000F00F06F6
:1005E0000009965D5E54491C0028F7D1207800234D
:1005F000000704D5702D02D009B102231132204624
:10060000BDE8704000F01EBA924F00002DE9F05F87
:10061000894604464FF0000ADFF874B1FB44C0F885
:1006200020A02046E1688847002874D0252806D0FD
:10063000D4E901219047206A401C2062F1E700269E
:100640005F462046E16888472028054607DB312DB4
:1006500005D2781910F8200C08B10643F1E7B0076D
:1006600001D526F00406C4F81CA00027C4F818A081
:100670002A2D09D0284602F039FF38B304EB870849
:10068000303DC8F8185019E059F8041B204604EB17
:1006900087029161E1688847012F054618D1E0691A
:1006A000002820DA26F020061DE0D8F8180000EB1C
:1006B000800005EB40003038C8F818002046E1689B
:1006C0008847054602F012FF0028EED1012F0AD01C
:1006D0002E2D08D12046E16888477F1C0546022F51
:1006E00046F02006C4DBA069002803DA404246F049
:1006F0000106A061F00701D026F010066C2D0BD08A
:10070000682D09D04C2D39D06A2D35D0742D35D0B7
:100710007A2D33D016E038E0E1682F46204688472E
:10072000B842054609D16C2F26D04FF48060E168AD
:10073000064320468847054604E06C2F1AD04FF444
:10074000807006430DB3A5F14100192802D8203569
:1007500046F400664A462946204626604E46FFF784
:10076000FFFC80B101280BD0F61D26F0070000F138
:10077000080956E74020E4E78020D8E70020D6E7C4
:1007800006F104094DE7284652E7206ABDE8F09FCC
:10079000684F000010B5431C02E010F8011B71B156
:1007A0008107FAD14FF0013202C88C1A8C4314EA47
:1007B000C211F9D0C01A0A0603D0C01E10BDC01A5B
:1007C00010BD0A0401D0801E10BD0902FCD0401EDD
:1007D00010BD40EA010370B59B072ED14FF00136E2
:1007E000042A2AD308C810C99D1B9D43121F15EA6D
:1007F000C61517D0D8B2E1B2401A50EA056110D13F
:1008000098B2A1B2401A50EA05410AD123F07F40C4
:1008100024F07F41401A50EA052102D1180EA0EBC6
:10082000146070BDA342DBD018BA21BA884201D946
:10083000012070BD4FF0FF3070BD0AB9002070BDBF
:1008400010F8013B11F8014B63B1A3420AD1521ECB
:1008500008D010F8013B11F8014B1BB1A34201D1A4
:10086000521EEDD1181B70BD032A40F2308010F0EB
:10087000030C00F0158011F8013BBCF1020F62443B
:1008800098BF11F801CB00F8013B38BF11F8013BCC
:10089000A2F1040298BF00F801CB38BF00F8013B79
:1008A00011F0030300F02580083AC0F0088051F8E9
:1008B000043B083A51F804CBA0E80810F5E7121DF4
:1008C0005CBF51F8043B40F8043BAFF30080D20713
:1008D00024BF11F8013B11F801CB48BF11F8012BDF
:1008E00024BF00F8013B00F801CB48BF00F8012B02
:1008F000704710B5203AC0F00B80B1E81850203A8C
:10090000A0E81850B1E81850A0E81850BFF4F5AFAF
:100910005FEA027C24BFB1E81850A0E8185044BF39
:1009200018C918C0BDE810405FEA827C24BF51F8A6
:10093000043B40F8043B08BF7047D20728BF31F89A
:10094000023B48BF11F8012B28BF20F8023B48BFEB
:1009500000F8012B70474FF0000200B51346944693
:100960009646203922BFA0E80C50A0E80C50B1F107
:100970002001BFF4F7AF090728BFA0E80C5048BF1B
:100980000CC05DF804EB890028BF40F8042B08BFB9
:10099000704748BF20F8022B11F0804F18BF00F8B5
:1009A000012B70474FF0013C50F8042B51F8043BE9
:1009B0009A4221D1A2EB0C03934313EACC1317D133
:1009C00050F8042B51F8043B9A4215D1A2EB0C03CA
:1009D000934313EACC130BD150F8042B51F8043B8A
:1009E0009A4209D1A2EB0C03934313EACC13DBD058
:1009F0004FF00000704700BFD01A01BAB1FA81F180
:100A000001F0180122FA01F0CB40C1F12001DBB264
:100A1000C0B2C01A2CFA01F3D11A914311EAC311E2
:100A2000E6D17047704770477047000010B500F07E
:100A3000D9F8001D10BD00BF0945000000487047EF
:100A4000444200202DE9F0470D469946924604465F
:100A500000F124080168880604D5E06921F010013E
:100A6000216000E00120A84201DD471B00E00027D3
:100A7000A1697A1902EB0900081AA0612078C00662
:100A800002D42046FFF770FC002608E0D4E90121DB
:100A90001AF806009047206A401C761C20624E45DA
:100AA000F4DB2078C0060AD52046FFF75DFC06E09F
:100AB000D4E9012130209047206A401C2062381E72
:100AC000A7F10107F4DC07E0D4E9012118F80500DB
:100AD0009047206A401C2062281EA5F10105F3DC26
:100AE0002046FFF757FC2078000602D50220BDE81B
:100AF000F0870120FBE7000001694A1C02610878C9
:100B0000704700B58FB0CDE901310021059105494D
:100B10007944CDE9031011466846FFF777FD0FB021
:100B200000BD0000E5FFFFFF0A6802F8010B0A6044
:100B30007047D1E900239A4202D2531C0B60107017
:100B4000704710B5436913B1AFF3008001E0FFF7C0
:100B500044FC012010BD127800F124010A7000222B
:100B60004A700122EDE711684FF0FF32E9E710B556
:100B7000436913B1AFF3008001E0FFF793FC01205C
:100B800010BD128800F1240182840022C284012257
:100B9000EDE711684FF0FF32E9E770B516460C46F5
:100BA0000546FFF743FF036893F80101012806D0CB
:100BB000FF2C0FD8185D68B101202C7070BDD3F8E0
:100BC00007013246214603F2071303442846BDE8D5
:100BD000704018474FF0FF3070BD0000004870476C
:100BE0003C420020004870475C4200207546FFF7F9
:100BF000F5FFAE4605006946534620F007008546DE
:100C000018B020B5FFF752FBBDE820404FF00006BA
:100C10004FF000074FF000084FF0000B21F00701E4
:100C2000AC46ACE8C009ACE8C009ACE8C009ACE827
:100C3000C0098D46704710B50446AFF300802046CA
:100C4000BDE81040FFF7C1BA01491820ABBEFEE76E
:100C50002600020070471CB50546002700BF2C4641
:100C600040F6B832002304F1080002F0E9FB4AE044
:100C7000142003F0FFFBD4E90221104602F0AEF984
:100C800030B16068401C18B902F014FC02F044F95D
:100C900000235A1E1946D4F8200403F0F5FD2069FC
:100CA00010B1012827D106E0C8220023684602F0CF
:100CB000C7FBE6691FE0E069B04214D1DDE900013D
:100CC00002F08CF9B0B1304601F096FAC822002348
:100CD000684602F0B5FB38467F1C19280ADD002063
:100CE0002061002706E0E6690027C8220023684645
:100CF00002F0A6FB00BF00BF00231A461946D4F835
:100D0000200403F0AFFEB3E710B504460B4884425D
:100D100009D10121480601F0F1F900214FF00070DE
:100D200001F0ECF908E00121880601F0E7F9002163
:100D30004FF0806001F0E2F910BD00000064004057
:100D400010B50021837A012202FA03F13D4A1268AC
:100D500042F001023B4B1A603A4A1C3212688A4345
:100D6000384B1C331A60027BCAB9364A0C321268FF
:100D70008A43344B0C331A604288C38842EA0343E7
:100D8000304A4032847A42F834300288838842EA1A
:100D900003432C4A4032847A02EBC4025360027B44
:100DA000012A19D1274A0C3212680A43254B0C3309
:100DB0001A604288038842EA0343224A4032847A16
:100DC00042F83430C288838842EA03431D4A4032E5
:100DD000847A02EBC4025360C27A3AB9194A121DEE
:100DE00012688A43174B1B1D1A6006E0154A121D34
:100DF00012680A43134B1B1D1A60028932B9114A4B
:100E0000143212688A430F4B14331A600289012A84
:100E100006D10C4A143212680A430A4B14331A6082
:100E2000427B012A06D1074A1C3212680A43054B4D
:100E30001C331A60034A126822F00102014B1A6047
:100E400010BD0000006600401AB143690B434361C6
:100E500002E043698B434361704730B5024600208E
:100E60000023146824F002041460146844F00104A0
:100E7000146000E05B1C546804F001041CB94FF6D8
:100E8000FF74A342F6D1546804F001040CB90020A9
:100E90006CE08C79012C04D1146844F08004146057
:100EA00003E0146824F080041460CC79012C04D190
:100EB000146844F04004146003E0146824F0400413
:100EC00014600C7A012C04D1146844F020041460DE
:100ED00003E0146824F0200414604C7A012C04D13F
:100EE000146844F01004146003E0146824F0100443
:100EF00014608C7A012C04D1146844F00804146046
:100F000003E0146824F008041460CC7A012C04D1A6
:100F1000146844F00404146003E0146824F004042A
:100F200014608C78A407CD7844EA05640D7944EA0E
:100F300005444D7944EA05540D886D1E2C43D46157
:100F4000146824F001041460002300E05B1C546862
:100F500004F001041CB14FF6FF74A342F6D15468AB
:100F600004F001040CB1002000E0012030BD10B5F8
:100F700000F5D87303EB01131B6803F0040313722D
:100F8000137A53B900F5D87303EB01131B6840F2D1
:100F9000FF7404EA5353136009E000F5D87303EBC0
:100FA00001131B686FF0604404EAD303536000F53B
:100FB000D87303EB01131B6803F00203537200F5AF
:100FC000D87303EB01135B6803F00F03937200F512
:100FD000D87303EB01135B681B0AD37400F5D87355
:100FE00003EB01139B68D37200F5D87303EB011375
:100FF0009B681C0A147300F5D87303EB01139B68FC
:101000001C0C547300F5D87303EB01139B681B0E83
:10101000937300F5D87303EB0113DB68D37300F50A
:10102000D87303EB0113DB681C0A147400F5D87342
:1010300003EB0113DB681C0C547400F5D87303EB4D
:101040000113DB681B0E937421B9C36843F02003BE
:10105000C36003E0036943F02003036110BD002176
:101060008171C171017241728172C1728170C170EE
:10107000032101710221417101210180704710B5E6
:1010800002460020936803F08063B3F1806F00D1C3
:1010900010E0936803F00063B3F1006F01D1012009
:1010A00008E0936803F08053B3F1805F01D1022020
:1010B00000E00420042874D002F5C07303EB001391
:1010C0001B6803F0010402F5C07303EB00131C60FE
:1010D0000B7A7BB94B7A0C8843EA445302F5C0740F
:1010E00004EB00142468234302F5C07404EB0014DD
:1010F000236010E00B7A4C6843EAC4034C7A234324
:1011000002F5C07404EB00142468234302F5C07494
:1011100004EB001423608B7A03F00F038B7202F54B
:10112000C07303EB00135B6823F00F0402F5C07378
:1011300003EB00135C6002F5C07303EB00135B6804
:101140008C7A234302F5C07404EB001463608B7B3C
:101150001C064B7B44EA03440B7B44EA0323CC7A12
:10116000234302F5C07404EB0014A3608B7C1C06BF
:101170004B7C44EA03440B7C44EA0323CC7B2343AB
:1011800002F5C07404EB0014E36002F5C07303EBD6
:1011900000131B6843F0010402F5C07303EB001356
:1011A0001C6010BD10B502460024042303E0D05C8F
:1011B0002044C4B25B1CC81E9842F8DC105CA042FC
:1011C00001D0002010BD0120FCE7000070B50646EC
:1011D000074C032505E0032003F04CF9204601F0FD
:1011E0009DFD60680028F6D0002003F05DF970BD19
:1011F0006C31002030B5044604254FF4302000F057
:101200008FF80546042D17D10C48006940F0020004
:101210000A49086108464461006940F040000861DD
:101220004FF4302000F07CF805460448006941F690
:10123000FD71084001490861284630BD0020024088
:1012400004200B49C96801F0010109B101200EE039
:101250000749C96801F0040109B1022007E0044907
:10126000C96801F0100109B1032000E004207047B3
:10127000002002400348006940F0800001490861F5
:1012800070470000002002402DE9F04105460C4661
:10129000164604274FF000080FE02188284600F08A
:1012A00013F80746042F02D00120BDE8F08108F1B1
:1012B00002001FFA80F8AD1CA41CB04501DA042F0F
:1012C000EBD00020F1E7000070B504460D4604267F
:1012D000F00200F025F80646042E11D109480069F5
:1012E00040F00100074908612580F00200F018F87D
:1012F00006460448006941F6FE710840014908614C
:10130000304670BD0020024002480349486003484F
:10131000486070472301674500200240AB89EFCD4C
:1013200000B502460423FFF78BFF034603E0FFF7F7
:1013300087FF0346521E012B01D1002AF7D102B9C3
:101340000523184600BD2DE9F04104460D4604274B
:10135000FFF7DAFF00260CE02046FFF74BFF0746B9
:1013600004F58064042F02D00120BDE8F081701CD8
:1013700086B2AE42F0DBFFF77DFF0020F5E710B547
:101380000B46002104E010F8014B5C544C1CA1B248
:101390009142F8DB10BD70B505460E4614464FF677
:1013A000FF7000EA840231462846FFF7E8FF70BD6F
:1013B0002DE9F84306460F4615460420009001200B
:1013C00030490870FFF7A0FF4FEA96294FEA8929B4
:1013D000C6F309084FF480622B494846FFF7CFFF58
:1013E000002408E008EB04002749085CFF2800D02F
:1013F00003E0601C84B2AC42F4DB00BFAC422ADAEA
:101400004846FFF7F7FE00909DF80000042807D03B
:10141000FFF730FF00201B4908700120BDE8F8836A
:10142000002406E0385D08EB0401174A5054601CA4
:1014300084B2AC42F6DB4FF4806213494846FFF7B2
:1014400023FF0446012C15D1FFF714FF00200D499E
:1014500008700120E2E72A4639463046FFF714FFBC
:101460000446012C06D1FFF705FF0020054908704E
:101470000120D3E7FFF7FEFE00200249087000BFFD
:10148000CCE7000064000020BC3C00202DE9F041C6
:1014900005460C460426002701212846FFF753FF86
:1014A000FFF732FF0DE021882846FFF70DFF0646C3
:1014B000042E02D00020BDE8F081B81C87B2AD1C1C
:1014C000A41CB7F5806F01DA042EECD0FFF7D2FE32
:1014D0000120F0E770B505460E4614464FF6FF7042
:1014E00000EA840231462846FFF762FF70BD000023
:1014F00008B54FF40050ADF8000010208DF803003F
:1015000001208DF802006946084800F013F86020B9
:10151000ADF8000010208DF8030001208DF80200C6
:101520006946034800F006F808BD000000100140BD
:10153000000C01402DE9F041024600250026002064
:1015400000230024002791F803C00CF00F0591F848
:1015500003C00CF0100CBCF1000F03D091F802C0D6
:101560004CEA050591F800C0BCF1000F31D01468B9
:1015700000202BE04FF0010C0CFA00F3B1F800C092
:101580000CEA03069E4220D183004FF00F0C0CFAA8
:1015900003F7BC4305FA03FC4CEA040491F803C0CA
:1015A000BCF1280F06D14FF0010C0CFA00FCC2F878
:1015B00014C00AE091F803C0BCF1480F05D14FF008
:1015C000010C0CFA00FCC2F810C0401C0828D1D352
:1015D0001460B1F800C0BCF1FF0F34DD5468002086
:1015E0002EE000F1080C4FF0010808FA0CF3B1F8F6
:1015F00000C00CEA03069E4221D183004FF00F0C7D
:101600000CFA03F7BC4305FA03FC4CEA040491F816
:1016100003C0BCF1280F05D100F1080C08FA0CF842
:10162000C2F8148091F803C0BCF1480F07D100F153
:10163000080C4FF0010808FA0CF8C2F81080401CA2
:101640000828CED35460BDE8F0810000F0B50A460A
:10165000002300240021002500F00046B6F1004FD1
:1016600002D11D4EF16901E01B4E7168C0F30345C4
:1016700083B200F44016B6F5401F08D121F0706126
:10168000154E766826F07066134F7E6012E000F407
:101690008016B6F5801F06D1032606FA05F4A1438D
:1016A00041F0706106E0460D360103FA06F6B143DB
:1016B00041F0706122B1460D360103FA06F631435E
:1016C00000F00046B6F1004F02D1034EF16101E097
:1016D000014E7160F0BD00000000014041617047A3
:1016E00001617047F8B5064600270024002500BFB9
:1016F000304601F03FFF044694B900BF02F0E6FF18
:1017000087201A4B1AA24FF4C07100901F48FEF7B1
:1017100011FE1E4801F0C0FB03F09EFB00BF1DE060
:101720001BA1204601F00BFF054615B1E868032810
:1017300012D000BF02F0CAFF8F200C4B16A24FF44C
:10174000C07100901148FEF7F5FD104801F0A4FBB0
:1017500003F082FB00BF01E06F6900BF00BF14B15E
:10176000204601F0CAFE3846F8BD00003D5500088D
:1017700025733A25643A20634A534F4E5F50617295
:101780007365206661696C0A00000000BC4000209F
:1017900076616C756500000025733A25643A20680F
:1017A000617665206E6F742046696C654C656E0AC3
:1017B0000000000010B501460A4613781B06547855
:1017C00003EB0443947803EB0423D478181910BD79
:1017D00070B505460E46182002F02EFD04460CB9E1
:1017E000002070BD18212046FFF7B5F8256120695B
:1017F00020B92046FEF76AFD0020F2E726600120AE
:1018000003F014F860612046EBE72DE9F04106464D
:101810000D4614460027002D02DC781EBDE8F0813D
:1018200000235A1E1946606903F02EF8E068A842AA
:1018300008DA00231A461946606903F013F94FF0DD
:10184000FF30EBE7E068401BE06018E0D4E90010EF
:1018500090FBF1F201FB120060606168481C60605F
:101860002069425C38467F1C3254AF4207D10023C6
:101870001A461946606903F0F5F80120CEE7E5E75E
:101880002DE9F04106460D461446002700235A1E56
:101890001946606902F0F8FFE1682068401AA84222
:1018A00008DA00231A461946606903F0DBF8781E4F
:1018B000BDE8F081E0682844E06018E02168A06895
:1018C00090FBF1F201FB1200A06038467F1C315CF6
:1018D000A268501CA06020698154AF4207D1002348
:1018E0001A461946606903F0BDF80120E0E7E5E714
:1018F00070B503460024D5681068401B884201DAA1
:10190000601E70BD15E01568906890FBF5F605FB4C
:10191000160090602046641C1D5C9668701C9060E8
:10192000106985558C4204D1D0680844D0600120EC
:10193000E7E7E8E70146C86870470146CB680A68F0
:10194000D01A70472DE9F04781460E4690461C4656
:101950000027002E02DC781EBDE8F08700235A1E07
:101960001946606902F090FFE068A0EB0800B04201
:1019700008DA00231A461946606903F073F84FF03D
:10198000FF30E9E76568002706E0206895FBF0F185
:1019900000FB11556D1C7F1C4745F6DB002716E048
:1019A000206895FBF0F100FB115528466D1C22695B
:1019B000125C38467F1C09F80020B74207D100238B
:1019C0001A461946606903F04DF80120C4E7E7E7BD
:1019D0004CF6CC40014908607047000000300040E0
:1019E0004AF6AA2001490860704700000030004014
:1019F000014948607047000000300040014988609C
:101A00007047000000300040014908607047000046
:101A10000030004010B588B0044600F08FFB00F0A5
:101A20001DF94FF40060ADF8000048208DF8030068
:101A300069463048FFF77EFD4FF48050ADF8000056
:101A400018208DF8030003208DF80200694629480C
:101A5000FFF770FD2848FFF757F905A8FFF7FFFAD1
:101A600000208DF81A008DF81B008DF81C008DF8F1
:101A70001D008DF81E0001208DF81F0000208DF83C
:101A800016008DF8170001208DF8180002208DF83F
:101A900019000620ADF8140005A91748FFF7DDF975
:101AA00000208DF80E008DF80F0001208DF8100039
:101AB000C4F34F30ADF80400042000EBC40080B242
:101AC000ADF8060043F6FF70ADF808004FF6FF7062
:101AD000ADF80A000020ADF80C0001208DF81100CF
:101AE00001A8FFF72DF9012202210348FFF7ACF905
:101AF00008B010BD000801400064004070B5044605
:101B00000D46D4F85815481CC4F8580504F5AD60C6
:101B10004554D4F8540520B101281DD002287DD1A8
:101B200051E0D4F85805022800D08AE094F86805FE
:101B3000FA2804D140F26950005DFB2808D040F239
:101B40006950005D84F868050120C4F8580578E004
:101B50000120C4F8540574E0D4F85805042800D0D6
:101B60006FE040F26A50005DC4F85C05D4F85C0593
:101B70000002C4F85C0540F26B50005DD4F85C15BF
:101B80000844C4F85C05D4F85C05B0F5877F10DD27
:101B900040F26A50005D84F8680540F26B50015DC8
:101BA000801E01550220C4F858050020C4F85405D1
:101BB00047E06422002304F5AC6001F041FC022000
:101BC000C4F854053DE0D4F860251046D4F86415F7
:101BD00001F004FA28B10020C4F85805C4F85405EF
:101BE0002FE0D4F85C05C01DD4F85815814200D010
:101BF00027E0D4F85805801E04F5AD61085CFC2888
:101C00000ED1D4F85805401E085CFD2808D104F513
:101C1000AD60D4F85815FFF7C5FA00E010E028B918
:101C20000020C4F85805C4F854050AE00020C4F8A0
:101C30005405C4F858050448006800F063F800E053
:101C400000BF00BF70BD00005800002000BF04E0CE
:101C5000642002F00FFCFFF7C3FEF9E708B514207B
:101C60008DF800000F208DF8010000208DF8020093
:101C700001208DF80300684600F002F808BD00005E
:101C800070B5002100230F22C47804B3154C2468DA
:101C900004F4E064C4F5E064210AC1F10403CA401D
:101CA000447804FA03F184781440214309010E4C6E
:101CB0000678A155047804F01F050124AC4005788E
:101CC0006D11AD0005F1E025C5F8004109E004788B
:101CD00004F01F050124AC40044D0678761145F848
:101CE000264070BD0CED00E000E400E080E100E083
:101CF000024A0A400243024B1A60704780FFFF1FEE
:101D000008ED00E010B50446A068FFF716FED4F811
:101D10005C15091D884200D210BD042104F25C50FC
:101D2000A268FFF7E5FD04F26C50A268D4F85C15D8
:101D3000FFF7DEFD00BFEFE7F0B587B007460026EE
:101D400000240025142102A8FEF705FE02A953482D
:101D5000006801F079F900BF384601F00BFC064637
:101D600096B900BF02F0B2FC2C204D4B4DA24FF4AF
:101D7000C07100905248FEF7DDFA514801F08CF82E
:101D800003F06AF800BF82E04EA1304601F0D7FBB5
:101D9000044614B1E068042812D000BF02F096FC9B
:101DA00035203F4B48A24FF4C07100904448FEF7E5
:101DB000C1FA434801F070F803F04EF800BF66E046
:101DC00046A1304601F0BBFB054646A12069FEF75F
:101DD000E9FD18B9287D8DF8180052E046A1206968
:101DE000FEF7E0FD18B9287D8DF81A0049E046A1FC
:101DF0002069FEF7D7FD18B9287D8DF8190040E05D
:101E000046A12069FEF7CEFD18B9287D8DF81B008C
:101E100037E046A12069FEF7C5FD18B9384600F045
:101E20009BF92EE044A12069FEF7BCFDB0B900BFCC
:101E300002F04CFC52201A4B41A24FF4C0710090AA
:101E40001F48FEF777FA1E4800F0F8FF03F004F889
:101E500000BF01F02FFB01F03AFA12E000BF02F0E0
:101E600035FC58200E4B3AA24FF4C0710090144834
:101E7000FEF760FA124801F00FF802F0EDFF00BF24
:101E800005E002A90548006801F014F900BF00BF91
:101E900016B1304601F031FB07B0F0BD68000020FC
:101EA0001F55000825733A25643A20634A534F4E64
:101EB0005F5061727365206661696C0A0000000002
:101EC000BC4000206300000025733A25643A206876
:101ED000617665206E6F7420630A000076616C7510
:101EE00065000000536574537465657244697265DA
:101EF0006374696F6E5F6C005365744D6F746F72BD
:101F000053706565645F6C005365745374656572E6
:101F1000446972656374696F6E5F72005365744DD6
:101F20006F746F7253706565645F720048656172AB
:101F300074426561740000005265626F6F74000046
:101F400025733A25643A205265626F6F740A000067
:101F500025733A25643A206572726F7220630A0015
:101F600010B50446206A00B910BD6069FFF7E5FCB2
:101F7000616A0831884200D2F6E7042104F12400A6
:101F80006269FFF77DFC042104F128006269FFF714
:101F900077FC6269616AE06AFFF772FC00202062E8
:101FA00000BFE1E738B50446206B10B1012872D1BB
:101FB0001AE0A069FFF7BEFC042800D238BD002259
:101FC00004216846A369FFF7BDFCA069FFF7B2FCD6
:101FD00000990831884200D2F0E700986063002041
:101FE000E0630120206357E0E06B40BB04216846BA
:101FF000A269FFF70AFC042104F10C00A269FFF7B3
:1020000004FC606B08280DDC04F14400A269616BDC
:10201000FFF7FBFB4FF080502064606BA063A06B68
:10202000E06334E0082104F14400A269FFF7EDFB0E
:10203000002020640820A063A06BE06327E0E16B30
:10204000606B401A082813DCE36B606BC11A04F163
:102050004400A269FFF7D9FB4FF080502064E16B88
:10206000606B401AA063D4E90E100844E0630EE0F0
:10207000082104F14400A269FFF7C7FB4FF000609C
:1020800020640820A063D4E90E100844E063022015
:10209000206301E0FFE700BF00BF206B022815D1DD
:1020A000236CE16841EA030004F14401A26B00F0F3
:1020B0007DF858B1206C18B1206CB0F1006F02D1DE
:1020C000012020637AE70020206377E700BF75E7EF
:1020D00010B501211D2000F021F810BD29B1064ADC
:1020E000D2690243044BDA6104E0034AD2698243B5
:1020F000014BDA61704700000010024029B1064A26
:1021000012690243044B1A6104E0034A12698243D4
:10211000014B1A61704700000010024029B1064AC5
:1021200092690243044B9A6104E0034A9269824334
:10213000014B9A61704700000010024010B5012168
:102140000846FFF7EBFF01214806FFF7C7FF012113
:102150000C20FFF7E3FF10BD30B5C7B00546114CAA
:10216000142106A8FEF7F7FB06A90F48006800F047
:102170006BFF00229DF82B009DF82A10CDE902028A
:10218000049201919DF8290000909DF82830224684
:10219000F0210BA8FEF7CEF803210BA801F0D0F830
:1021A00047B030BD9C55000868000020F0B585B0F0
:1021B00004460E46154600200090019404208DF838
:1021C000080000208DF80900E8B28DF80A002A46C0
:1021D00031460DF10B00FEF747FB69460548FEF757
:1021E0004EFF0746042F02D1002005B0F0BD0120AC
:1021F000FBE700000064004030B58DB0044606A542
:1022000023462A4632216846FEF794F8072168469D
:1022100001F096F80DB030BD7B2263223A22446172
:102220007461526571222C226E223A25647D000071
:1022300010B500F001F810BD0CB500200190009021
:102240003348006840F480303149086000BF3048AE
:10225000006800F4003000900198401C0190009844
:1022600018B90198B0F5A06FF1D12948006800F4C1
:10227000003010B10120009001E000200090009893
:10228000012843D12348006840F01000214908602C
:102290000846006820F0030008600846006840F027
:1022A000020008601A4840681949486008464068BA
:1022B00048600846406840F48060486008464068CE
:1022C00020F47C1048600846406840F4E8104860FC
:1022D0000846006840F08070086000BF0C48006845
:1022E00000F000700028F9D00948406820F0030091
:1022F000074948600846406840F00200486000BF57
:102300000348406800F00C000828F9D10CBD00001B
:10231000001002400020024070B5054605262C46FC
:1023200009E0052002F0A6F8D4E90220521D40F190
:102330000000C4E9022020680028F2D0002002F04A
:10234000B3F870BD10B51348006840F001001149A2
:10235000086008464068104908400E494860084631
:1023600000680E4908400B4908600846006820F4E0
:10237000802008600846406820F4FE0048604FF462
:102380001F008860FFF754FF4FF0006004490860A9
:1023900010BD0000001002400000FFF8FFFFF6FE35
:1023A00008ED00E021B1028842F08002028004E0E2
:1023B00002884FF67F731A4002807047CA43028238
:1023C0007047CA430282704721B1028842F001027D
:1023D000028004E002884FF6FE731A4002807047C4
:1023E0001AB183890B43838102E083898B43838104
:1023F0007047000070B5002400220023058C4FF6C2
:10240000FE7635400584028C8388048B4FF68F75E9
:102410002C40B51E2C400D882C43751E2A400D897A
:102420002A434D882A43144DA8420BD0134DA8428D
:1024300008D0134DA84205D0124DA84202D0124D2B
:10244000A84213D14FF6F7752A404D892A434FF61B
:10245000FB752A408D882A434FF6FF652B404FF6C7
:10246000FF552B408D892B43CD892B4383800483DB
:10247000CD888586028470BD002C01400034014067
:102480000040014000440140004801400A4600214C
:10249000018B4FF6F7731940114301837047000019
:1024A00070B5002400220023058C4FF6EF763540EE
:1024B0000584028C8388048B48F6FF752C404FF608
:1024C000FF452C400D884FF6FF7606EA05252C4384
:1024D0004FF6DF752A400D8906EA05152A434D8817
:1024E00006EA05152A43154DA84202D0144DA8420C
:1024F0001DD14FF67F752A404D894FF6FF7606EACB
:1025000005152A434FF6BF752A408D8806EA051542
:102510002A434FF6FF352B404FF2FF752B408D8934
:1025200006EA85052B43CD8906EA85052B43838082
:102530000483CD880587028470BD0000002C014013
:10254000003401400A460021018B4FF2FF7319400D
:102550004FF6FF7303EA022319430183704700001B
:1025600070B5002400220023058C4FF6FF6635402D
:102570000584028C8388848B4FF68F752C404FF630
:10258000FC752C400D882C434FF6FF552A400D89D1
:102590004FF6FF7606EA05252A434D8806EA05250B
:1025A0002A43154DA84202D0144DA8421DD14FF226
:1025B000FF752A404D894FF6FF7606EA05252A4326
:1025C0004FF6FF352A408D8806EA05252A434EF648
:1025D000FF752B404DF6FF752B408D8906EA0515DA
:1025E0002B43CD8906EA05152B4383808483CD8850
:1025F0008587028470BD0000002C0140003401403A
:102600000A460021818B4FF6F773194011438183ED
:102610007047000070B5002200230024058C4EF6A0
:10262000FF7635400584038C8488828B48F6FF75DD
:102630002A404FF6FF452A400D884FF6FF7606EAFE
:1026400005252A434DF6FF752B400D8906EA053511
:102650002B434D8806EA05352B430B4DA84202D08B
:102660000A4DA84208D14BF6FF752C408D894FF6D4
:10267000FF7606EA85152C4384808283CD88A0F8F6
:102680004050038470BD0000002C01400034014024
:102690000A460021818B4FF2FF7319404FF6FF73FA
:1026A00003EA022319438183704700000022028855
:1026B0001D4B98420ED01D4B98420BD0B0F1804F6D
:1026C00008D01B4B984205D01A4B984202D01A4BA7
:1026D000984204D14FF68F731A404B881A43174B18
:1026E000984207D0164B984204D04FF6FF431A4049
:1026F000CB881A4302808B8883850B8803850A4B1D
:1027000098420BD0094B984208D00E4B984205D006
:102710000D4B984202D00D4B984201D10B7A0386A3
:102720000123838270470000002C014000340140E7
:102730000004004000080040000C00400010004071
:1027400000140040004001400044014000480140A6
:1027500000B589B001215548FEF778FF01215448A2
:10276000FEF774FF01210820FFF7D8FC4FF44C500E
:10277000ADF8040010208DF8070001208DF8060048
:1027800001A94C48FEF7D6FE4FF440714948FEF7C8
:10279000A5FF4FF440514748FEF7A0FF0121082054
:1027A000FFF7BCFC40F60840ADF8040018208DF897
:1027B000070001208DF8060001A93E48FEF7BAFE89
:1027C00001210420FFF7AAFC4FF40040ADF80400FB
:1027D00018208DF8070001208DF8060001A9364861
:1027E000FEF7A8FE01210846FFF778FC49F64040B5
:1027F000ADF81C002320ADF818000020ADF81E0035
:10280000ADF81A0006A94FF08040FFF74FFF602097
:10281000ADF808000120ADF80A0040F6B830ADF878
:102820000E000020ADF8100002A94FF08040FFF725
:10283000E1FD0821C806FFF729FE02A94FF08040FC
:10284000FFF72EFE0821C806FFF77CFE02A94FF015
:102850008040FFF785FE0821C806FFF7D1FE02A9D8
:102860004FF08040FFF7D6FE0821C806FFF710FFA3
:1028700001218807FFF796FD01218807FFF79EFDDC
:10288000012211469007FFF7ABFD01218807FFF7F2
:102890009BFD40F6B8304FF08041888608878887D6
:1028A00000200649088009B000BD00000002300089
:1028B00000031800000C01400008014040000040E7
:1028C00010B50022002340F66A14A14200D100BFD7
:1028D0000A1201249440A3B2DC43048010BD70B5F9
:1028E0000246002400230025002040F66A16B1426B
:1028F00000D100BFC1F3421501F01F03012606FA03
:1029000003F3012D02D19689334006E0022D02D156
:10291000168A334001E0968A33400C12012606FAEB
:1029200004F41688344013B10CB1012000E00020FB
:1029300070BDF0B50346002400260025002040F6B7
:102940006A17B94200D100BF1846C1F3421401F022
:102950001F06012707FA06F5012C01D10C3004E00F
:10296000022C01D1103000E014301AB107682F4357
:10297000076002E00768AF430760F0BD0146888842
:10298000C0F308007047C1F308028280704700005E
:1029900030B585B014216846FDF7DDFF324C6A463C
:1029A00000213248FEF7E3FA206808B1206A08B136
:1029B00005B030BD0198C0F3C165019820F07C409E
:1029C000A062E06910B101284AD120E0022D0CD1AB
:1029D0009DF80A200DF10B01E06AFDF745FF01208B
:1029E00020629DF80A00606210E0012D02D10020F3
:1029F000606236E09DF80A200DF10B01E06AFDF7F8
:102A000033FF9DF80A0060620120E06129E01DB9F2
:102A100000206062E06122E0012D0ED1636AE16A6C
:102A2000C8189DF80A200DF10B01FDF71DFF9DF858
:102A30000A10606A0844606211E0636AE16AC818BB
:102A40009DF80A200DF10B01FDF70EFF9DF80A100D
:102A5000606A08446062012020620020E06100E0BA
:102A600000BF00BF00BFA3E76C310020006400403E
:102A700010B5014600200A4613781B06547803EB74
:102A80000443947803EB0423D478181910BD000094
:102A90001CB54FF4856001F0CFFB04460CB9002053
:102AA0001CBD4FF485612046FDF755FF012001F064
:102AB000BDFEC4F8200400200A2123468022CDE96F
:102AC000001005A1074802F087F80120206000F0FF
:102AD0000BFA60602046E3E742746C645461736BE8
:102AE00000000000570C00082DE9FC4704460E4684
:102AF000174698460CB9BDE8FC8700235A1E1946B4
:102B0000D4F8200401F0C0FE00BF206910B10128F4
:102B100003D115E0B8F1060F00D0AAE0E069FFF795
:102B20006BFB002000F082FC002060603046FEF766
:102B3000D9FD60610020A06101202061E06198E082
:102B4000B8F1080F00D094E03046FEF733FEE1699B
:102B5000884200D08DE0D4F818904FEAE97109EB73
:102B600091518912A9EB812304F1200158183A1FD1
:102B7000311DFDF779FE381FA1690844A061D4E931
:102B8000051088422ED0A069C11700EB915189121F
:102B9000A0EB8121F9B93C49A0690844A0F5806502
:102BA00004F120012846FEF771FC012813D000BF74
:102BB00001F08CFDEB21E069344B35A2CDE900102A
:102BC0004FF4C0713D48FDF7B5FB3C4800F064F997
:102BD00002F042F900BFE069401CE061E069FFF7E4
:102BE0000BFB45E0A069C11700EB91518912A0EBE6
:102BF000812129B92449A0690844A0F5806509E02C
:102C0000A069C11700EB91518912A0EB81211E4BE5
:102C1000C218551A04F120012846FEF737FC012896
:102C200013D000BF01F052FDFF21E069174B18A23D
:102C3000CDE900104FF4C0712048FDF77BFB1F4821
:102C400000F02AF902F008F900BF09211CA000F0E9
:102C500077FB40F2DC52002304F1080000F0F0FBA7
:102C600000202061401E00F0E1FB4FF0FF3060606B
:102C700000BF00BF00BF00231A461946D4F8200445
:102C800001F0F0FE00BF36E700800008485500085C
:102C900025733A25643A20466C61736857726974EB
:102CA0006550616765206572726F7220215365728D
:102CB00069616C4E756D2025640A0000BC400020DF
:102CC0007B2263223A2255706461746546696E699D
:102CD0007368227D00000000704700007CB510255D
:102CE0002946094800F02AF904460CB900207CBDA9
:102CF00000200B2103468022CDE9001003A10648E5
:102D000001F06AFF2046F2E7452301004375647035
:102D10005461736B00000000CD11000810B504462B
:102D2000206800B910BD2046FFF71AF92046FFF7CA
:102D300039F900BFF6E77CB504460D46164600207B
:102D4000019000235A1E1946E06C01F09DFD00BF62
:102D5000206800B92AE06069FEF7ECFD042800D283
:102D600024E00022042101A86369FEF7EBFD6069FD
:102D7000FEF7E0FD01990831884200D216E0019883
:102D8000B04203DD4FF0FF3001900FE0042101A8B5
:102D90006269FEF73AFD042168466269FEF735FD77
:102DA000626928460199FEF730FD00BF00BF00238D
:102DB0001A461946E06C01F055FE01987CBD7FB5BE
:102DC00004460D460026206810B9002004B070BDEE
:102DD00000235A1E1946E06C01F056FD00BFA069A1
:102DE000FEF7ABFD02990831884200D210E00421C1
:102DF00002A8A269FEF744FD042103A8A269FEF718
:102E00003FFDA26928460299FEF73AFD012600BF60
:102E100000BF00231A461946E06C01F023FE30463D
:102E2000D4E710B50446206800B910BD01206060E9
:102E3000204600F021F800BFF7E70000F0B5C1B070
:102E4000044604262046FDF7A5FC451CF82D02DDAE
:102E5000002041B0F0BD2B462246314601A800F0CB
:102E600058F90746E0233A4601A902480068FFF7EF
:102E7000A6FFEEE76C00002010B50446206800B9FC
:102E800010BD00202060002202210248FDF7DCFF77
:102E900000BFF5E700640040F0B5C1B00446052668
:102EA0002046FDF777FC451CF82D02DD002041B0DF
:102EB000F0BD2B462246314601A800F02AF907460C
:102EC000E0233A4601A902480068FFF778FFEEE7E1
:102ED0006C00002008B5012269460248FEF75BFA43
:102EE000009808BD04FC010808B5012269460248A3
:102EF000FEF751FA009808BD00FC0108054800687B
:102F000010B900200146704702480168D1E902016A
:102F1000F9E700005C00002010B507490868FDF7DC
:102F2000B0F94FF400410803FEF7E2FE72B6024921
:102F30004868804710BD00000080000870B5064654
:102F40000D46104C206808B1002070BD012001F032
:102F50006DFCE0642846FEF75DFDA66025614FF438
:102F6000A0610948FEF734FC60614FF4A061074896
:102F7000FEF72EFCA061012020600548E06220469B
:102F8000E3E700006C310020BC310020BC3600209B
:102F9000BC3B002010B5FFF79DFF102802D0102089
:102FA00000F03AFA00F02CF800F05AFA07490860ED
:102FB00000F054F806490860FFF790FE05490860E4
:102FC000FFF766FD0449086010BD00007400002092
:102FD000680000206C000020780000202DE9F041FE
:102FE00004460D46FFF78AFF06460F46A01B75EB09
:102FF000070002D20120BDE8F0810020FBE70000BD
:103000001CB545F25550FEF7FFFC0420FEF7F0FC1E
:103010004FF41A70FEF7F2FCFEF7E2FCFEF7D8FC64
:1030200000200D2103468022CDE9001002A10548B1
:1030300001F0D2FD1CBD0000497764675461736BD9
:10304000000000004D1C000870B504460D46142217
:1030500021462846FDF74DFC012070BD7CB5104C83
:1030600020212046FDF777FC0CB900207CBD07200D
:10307000607020746074A074E07400F07BF8094DF7
:1030800004F11C000A2123468022CDE9001006A18C
:10309000284601F0A1FD012060612046E6E700001E
:1030A0004C310020C9300008594A5F4D7463745494
:1030B00061736B0070B504460D4614222946204604
:1030C000FDF717FC012070BD2DE9F04105461426DF
:1030D0002C460720A074E07408E0E37CA27C617CAD
:1030E000207C00F04FF8142001F0C4F9A0690028FA
:1030F000F3D0002001F0D8F9BDE8F08110B5044606
:10310000606900B910BD00F0DBF80120A06100BFCC
:10311000F8E72DE9F04704460E469146984600250B
:103120001027320E28466D1C2254C6F3074228464B
:103130006D1C2254C6F3072228466D1C22542846D3
:103140006D1C26543A0E28466D1C22543A0C284613
:103150006D1C22543A0A28466D1C225428466D1CC8
:103160002754601942464946FDF77EFB08EB0500EF
:10317000BDE8F08710B5FEF7ABFFFEF7B9F9FFF732
:10318000E7FA10BD2DE9F04106460F4614461D46EC
:1031900001218807FFF715F906F00F00C01F00EBAB
:1031A000C00101EB001040F6B831A1EBC0004FF0B8
:1031B0008041888607F00F00C01F00EBC00101EBC3
:1031C000001040F6B83101EBC0004FF08041088795
:1031D00004F00F01C81F002801DB014600E0414256
:1031E00040F2712251434FF6FF7202EAC1014FF0E3
:1031F0008042918705F00F01C81F002801DB0146BE
:1032000000E0414240F2712251434FF6FF7202EA60
:10321000C101294A118004F00F00072805D14FF49D
:1032200040712648FEF75AFA1CE004F00F00072808
:103230000ADA4FF480712148FEF750FA4FF400711A
:103240001E48FEF74DFA0DE004F00F00072809DDD7
:103250004FF400711948FEF741FA4FF48071174896
:10326000FEF73EFA05F00F00072805D14FF4405154
:103270001248FEF733FA1CE005F00F0007280ADDBC
:103280004FF480510D48FEF729FA4FF400510B48D6
:10329000FEF726FA0DE005F00F00072809DA4FF4D3
:1032A00000510648FEF71AFA4FF480510348FEF722
:1032B00017FA0120BDE8F08140000040000C0140F9
:1032C00010B500214FF08040FFF77EF810BD72B6B8
:1032D00045F25550FEF798FB0420FEF789FB0120CC
:1032E000FEF78CFBFEF77CFBFEF772FB00BFFEE7F0
:1032F000F0B5C1B007460D46164600244FF4807263
:1033000001A90E480068FFF716FD0446002C12DDE7
:10331000AC4203DD4FF0FF3041B0F0BD01A8FFF734
:10332000A7FB3060A4F1080203A93846FDF79CFA18
:10333000A4F10800F0E72046EEE700006C00002052
:10334000F0B5C1B004460E462046FDF723FA451CF1
:10335000F82D02DD002041B0F0BD2B46224631465B
:1033600001A8FFF7D6FE0746E0233A4601A9024826
:103370000068FFF724FDEEE76C0000201CB5012576
:10338000280200F059FF044600BF00BF01F09EF97B
:103390007020164B16A24FF4C07100901C48FCF729
:1033A000C9FF1B48FFF74AFD01F056FD00BF1BE0B7
:1033B000052001F05FF801AA4FF480712046FFF765
:1033C00097FF051E10DD0198062802D001980828F5
:1033D00007D12A4621460F48019B0068FFF784FB6E
:1033E00002E02046FEF7A8FCE2E7000027550008AF
:1033F00025733A25643A20626F6F74202D2D2D2D90
:103400003E20626F6F746C6F616465720A00000029
:10341000BC4000207800002001B501226946024826
:10342000FEF758F808BD000004FC010801B50122B0
:1034300069460248FEF74EF808BD000000FC01088E
:103440002DE9F041064614461D46FFF757FD074695
:103450008846391948EB0500C6E90010BDE8F0813F
:103460001CB5102000F0E8FE04460CB900201CBD7D
:10347000002020606060A060E0601421234680226C
:10348000CDE9001003A1074801F0A6FB064804603F
:103490002046ECE7537973436C6F636B5461736B35
:1034A00000000000192300085C00002001210160D9
:1034B0007047000010B509480068FFF70DFC084888
:1034C0000068FFF7F3FF07480068FFF717FE06489C
:1034D0000068FFF7A6FC00F081FF10BD7800002017
:1034E00074000020680000206C00002030380A289A
:1034F00001D2012070470020704770B504461BE0E0
:103500002568A08900F4807020B9A06810B1A06877
:10351000FFF7F3FFA08900F4807020B9206910B193
:10352000206900F07DFF206A10B1206A00F078FF6A
:10353000204600F075FF2C46002CE1D170BD70B51F
:1035400005460E46AC6800E024682CB13146206A7E
:1035500000F04AF80028F7D1204670BD10B52820A9
:1035600000F06AFE04461CB128212046FDF7F3F95D
:10357000204610BD10B5044600221146204600F03A
:1035800001F810BD2DE9F04780460D46164600248F
:10359000FFF7E4FF07460020124908600FB9BDE8B5
:1035A000F087404600F0C6FE81464946384600F0A6
:1035B00069FB044624B93846FFF79FFF0020EEE779
:1035C00066B1204600F0B6FE0446207830B1384699
:1035D000FFF793FF034804600020E0E705B12C608B
:1035E0003846DCE76000002070B504460D462CB973
:1035F000AC4201D0012070BD0020FCE70DB90120D4
:10360000F9E705E0207808B90020F4E7641C6D1C98
:103610002078FCF782FE06462878FCF77EFE86427C
:10362000F0D02078FCF779FE06462878FCF775FE86
:10363000301AE0E7002107E042F6E06100BF0A1E11
:10364000A1F1010399B2FAD1021EA0F1010398B2CF
:10365000F2D170471CB54FF4C870FFF7EBFFFFF7CE
:1036600099FC084C00200A2103464FF48062CDE902
:10367000001005A1204601F0AFFA00F0F5FF002090
:103680001CBD00007D3300084D61696E5461736B91
:10369000000000002DE9F04705460C4620785B2825
:1036A00004D0264804600020BDE8F0870520E860CB
:1036B000601C00F03FFE044620785D2801D1601CAC
:1036C000F2E7FFF74BFF0646A860A86808B900209C
:1036D000EAE7204600F02EFE80464146304600F0E4
:1036E000D1FA074600F026FE04460CB90020DBE7BD
:1036F00017E0FFF733FF071E00D1D5E737607E6084
:103700003E46601C00F016FE81464946304600F0F9
:10371000B9FA804600F00EFE04460CB90020C3E75B
:1037200000BF20782C28E4D020785D2801D1601CCF
:10373000BAE7024804600020B6E7000060000020FD
:10374000014600220878302806DB0878392803DC97
:1037500008783038024415E00878412806DB0878FC
:10376000462803DC0878373802440BE008786128E3
:1037700006DB0878662803DC08785738024401E045
:10378000002070471201491C0878302806DB0878B1
:10379000392803DC08783038024415E008784128DD
:1037A00006DB0878462803DC0878373802440BE04B
:1037B0000878612806DB0878662803DC0878573823
:1037C000024401E00020DCE71201491C087830289F
:1037D00006DB0878392803DC08783038024415E025
:1037E0000878412806DB0878462803DC0878373853
:1037F00002440BE00878612806DB0878662803DCC1
:1038000008785738024401E00020BAE71201491C49
:103810000878302806DB0878392803DC0878303847
:10382000024415E00878412806DB0878462803DCC6
:103830000878373802440BE00878612806DB0878FE
:10384000662803DC08785738024401E0002098E736
:10385000104696E72DE9FC5F83468A4600210C4618
:103860000D4600BF00BF00200190012000909AF893
:1038700000002D2802D100BF0AF1010A9AF80000C9
:10388000302801D10AF1010A9AF80000312821DB21
:103890009AF8000039281DDC00BF1AF8011BA1F1BD
:1038A000300001F03AFC06460F4600223D4B204610
:1038B000294601F049FC804632463B4601F056FB62
:1038C00004460D469AF80000302803DB9AF8000001
:1038D0003928E2DD9AF800002E2828D19AF8010054
:1038E000302824DB9AF80100392820DC0AF1010A8B
:1038F00000BF1AF8011BA1F1300001F00EFC0646D2
:103900000F460022274B2046294601F01DFC804629
:1039100032463B4601F02AFB04460D4600BF9AF8AA
:103920000000302803DB9AF800003928E1DD9AF81E
:103930000000652803D09AF80000452823D10AF139
:10394000010A9AF800002B2802D10AF1010A08E0C6
:103950009AF800002D2804D14FF0FF3000900AF1B2
:10396000010A08E01AF8010B3038019901EB8101D6
:1039700000EB410001909AF80000302803DB9AF830
:1039800000003928EEDDCBE906452046294601F046
:1039900095FBCBF814000320CBF80C005046BDE893
:1039A000FC9F0000000024402DE9F04706460C462D
:1039B00020787B2804D0404804600020BDE8F087D0
:1039C0000620F060601C00F0B5FC044620787D28DD
:1039D00001D1601CF2E7FFF7C1FD0546B060B06899
:1039E00008B90020EAE7204600F0A4FC80464146E2
:1039F000284600F063F8074600F09CFC04460CB92A
:103A00000020DBE7286928620020286120783A2816
:103A100003D0294804600020D0E7601C00F08AFC35
:103A200080464146284600F02DF9074600F082FC0A
:103A300004460CB90020C1E731E0FFF78FFD071EF7
:103A400000D1BBE72F607D603D46601C00F072FC3A
:103A500081464946284600F031F8804600F06AFC6D
:103A600004460CB90020A9E72869286200202861D3
:103A700020783A2803D01048046000209EE7601C9C
:103A800000F058FC81464946284600F0FBF8804685
:103A900000F050FC04460CB900208FE700BF2078EE
:103AA0002C28CAD020787D2801D1601C86E70248E6
:103AB0000460002082E70000600000202DE9F05F34
:103AC0008346884608F10104002798F80000222860
:103AD00005D06A48C0F800800020BDE8F09F04E0EF
:103AE00014F8011B5C2900D1641C2078222804D022
:103AF000207810B1781C071EF2D1781C00F09CFBD6
:103B00008146B9F1000F01D10020E6E708F1010478
:103B10004D469EE020785C2804D014F8010B05F88F
:103B2000010B96E0641C2078722818D006DC62280D
:103B300009D066280BD06E287ED10CE0742812D0F4
:103B40007528F9D113E0082005F8010B7FE00C205F
:103B500005F8010B7BE00A2005F8010B77E00D204A
:103B600005F8010B73E0092005F8010B6FE0601CFC
:103B7000FFF7E6FD0646241DB6F55C4F02D3B6F509
:103B8000604F00D306B962E0B6F5584F1CD3B6F5C6
:103B90005C4F19D260785C2802D1A078752800D0DB
:103BA00055E0E01CFFF7CCFD8246A41DBAF55C4F42
:103BB00002D3BAF5604F00D349E0C6F3090150467D
:103BC00061F39F2000F580360427802E01D2012763
:103BD00008E0B6F5006F01D2022703E0B6F5803F9A
:103BE00000D203273D44012F20D0022F15D0032FF0
:103BF0000AD0042F24D106F0BF0040F08001681ED7
:103C000005460170B60900BF06F0BF0040F0800114
:103C1000681E05460170B60900BF06F0BF0040F0FF
:103C20008001681E05460170B60900BF1448C05DDA
:103C30003043C1B2681E00E005E00546017000BFD8
:103C400000BF3D4403E0207805F8010B00BF00BF32
:103C5000641C2078222803D0207800287FF45AAFF3
:103C6000002028702078222800D1641CCBF8109006
:103C70000420CBF80C0020462FE700006000002055
:103C80001855000870B505460C460CB9002070BDEB
:103C9000042224A12046FCF79CFD18B90220E8600C
:103CA000201DF4E7052221A12046FCF792FD18B95A
:103CB0000020E860601DEAE704221EA12046FCF710
:103CC00088FD20B90120E8606861201DDFE72078C9
:103CD000222804D121462846FFF7F0FED7E72078B6
:103CE0002D2805D02078302807DB2078392804DCFF
:103CF00021462846FFF7AEFDC9E720785B2804D1AE
:103D000021462846FFF7C6FCC1E720787B2804D16E
:103D100021462846FFF748FEB9E70848046000201E
:103D2000B5E700006E756C6C0000000066616C7396
:103D300065000000747275650000000060000020DE
:103D40002DE9F04105460E461C4807681C480068EE
:103D5000001D00F0F8FA50B91948006890F82C10CE
:103D60000120884017490968814316480160681C92
:103D700038B936B112480168091D134800F021FB1B
:103D80001AE07C190E4800684460BC4207D20C4817
:103D90000168091D0D48006800F0F9FA0CE00848B8
:103DA0000168091D0A48006800F0F1FA0948006836
:103DB000844201D207480460BDE8F0813000002051
:103DC0001C00002034000020383100202400002096
:103DD000200000204C00002010B5044600F0FEFA40
:103DE00023480068401C224908602248006840B906
:103DF000204804600846006801280DD100F068F9E9
:103E00000AE01D48006838B91A480068C06AE16ACB
:103E1000884201D81748046018480068401C1749B8
:103E2000086094F82C10012088401549096808435F
:103E300013490860E16A01EB8101124A02EB81003B
:103E4000211D00F0BEFA00F0DBFA0B48006868B1F3
:103E500008480068C06AE16A884207D24FF0805083
:103E600009490860BFF34F8FBFF36F8F10BD00008B
:103E70002C0000201C0000203800002048000020FA
:103E8000340000208430002004ED00E070B523E011
:103E900000F01CFC1348006808B9012000E0002075
:103EA000054600F0D9FFBDB900F098FA0D48C0688A
:103EB000C468201D00F047FA0B480068401E0A49FC
:103EC00008600A480068401E0849086000F098FA37
:103ED000204600F060F800BF044800680028D7D1F1
:103EE00070BD0000243100202C000020280000209C
:103EF00070B504460D46206C70B1216CE068084432
:103F0000E0606168E068884201D32068E06028468C
:103F1000226CE168FCF7A8FC70BD2DE9F041044675
:103F20000F4615464FF00008A66B206C40B920687C
:103F300060BB606800F00EFF80460020606025E0F6
:103F40007DB93946226CA068FCF78EFC216CA06814
:103F50000844A060D4E90110884217D32068A0600B
:103F600014E03946226CE068FCF77EFC216CE068C6
:103F7000401AE0602168E068884203D2216C6068E2
:103F8000401AE060022D01D106B1761E701CA063BC
:103F90004046BDE8F08110B50446206B00F040FAC1
:103FA000204600F03DFA10BD0A4A22F007000A4AF6
:103FB00010600022084B5A6042F6F872074B5A60B4
:103FC00000221A60014642F6F8724A601A460A60F8
:103FD000704700008C000020000000200800002036
:103FE00000BFFFF753FF064800680128F9D94FF0DA
:103FF000805004490860BFF34F8FBFF36F8FF0E725
:104000008430002004ED00E010B504464CB10020DF
:1040100060602060E06000231A461946204600F0E8
:1040200021FD10BD2DE9F04106460D461746984684
:10403000069C0DB9246000E02760E6632564012139
:10404000204600F0CFFCBDE8F0812DE9FF5F8046FF
:104050000F469146DDE90E6A109CA9F10100216B23
:1040600001EB800B2BF0070B002507E0795D04F1D5
:1040700034004155785D00B902E06D1C102DF5D378
:1040800000BF002143200155052E00D30426E6621F
:1040900066640020A064201D00F076F904F1180089
:1040A00000F072F92461C6F10500A061646200208D
:1040B000E06484F8500041465846039A00F028F91D
:1040C0002060BAF1000F01D0CAF80040BDE8FF9FA0
:1040D00010B5002407E004EB84010F4A02EB8100D5
:1040E00000F045F9641C052CF5D30C4800F03FF9AD
:1040F0000B4800F03CF90B4800F039F90A4800F091
:1041000036F90A4800F033F90448094908600448C0
:104110000849086010BD000084300020E83000200D
:10412000FC300020103100202431002038310020E4
:10413000200000202400002070B5054600F04EF954
:10414000A86B08B9012400E0002400F059F92046CA
:1041500070BD70B5054600F041F9A86BE96B884267
:1041600001D1012400E0002400F04AF9204670BD8E
:104170000A490968096809B9012100E0002121B153
:104180004FF0FF31064A116006E004490968C9682A
:10419000C868034A41681160704700002000002091
:1041A0004C00002000BFBF2080F31188BFF34F8F69
:1041B000BFF36F8F00BF00BFFEE770B5044600F08D
:1041C0000DF994F9455010E0606A08B9012000E04B
:1041D000002038B904F1240000F0FEFD18B100F011
:1041E000C9F900E003E0681E45B2002DECDC00BF19
:1041F000FF2084F8450000F003F900F0EFF894F98F
:10420000445010E0206908B9012000E0002048B9BE
:1042100004F1100000F0E0FD08B100F0ABF9681EF9
:1042200045B200E001E0002DECDC00BFFF2084F887
:10423000440000F0E5F870BD2DE9F04104464FF070
:10424000000800F043FA2648006820B9FFF7ACFEEA
:1042500001202349086044B1083404F0070020B16C
:1042600004F00700C0F108000444002C32D042F6EC
:10427000F87084422ED21B4F3846056801E02F4665
:104280002D686868A04202D228680028F7D1164835
:1042900085421FD0386800F10808286838606868CF
:1042A000001B102810D92E196868001B70606C6004
:1042B00071680C4800E00068026852688A42FAD3CC
:1042C00002683260066000BF084968680968081A19
:1042D0000649086000F0C0FD4046BDE8F0810000DE
:1042E0001400002000000020080000201000002022
:1042F0000648006830B10549096801F14800896C39
:10430000491C016001480068704700001C00002043
:10431000001F4FF080730360001F21F00103036052
:10432000001F034B03601438026020387047000000
:10433000A541000800E0401C20B1017811B10178CE
:104340002029F8DD704701460A69D1E901309860FB
:10435000D1E9010358605068884201D188685060F3
:10436000002008611068401E10601068704700F15E
:10437000080141604FF0FF31816000F10801C16028
:10438000016100210160704700210161704710B593
:1043900002460B685C1C0CB9106907E002F10800CA
:1043A00000E04068446824689C42FAD944684C6044
:1043B0004C68A160886041600A611468641C1460E4
:1043C00010BD42684A6093688B6093685960916041
:1043D000086103685B1C03607047000000BFBF20DA
:1043E00080F31188BFF34F8FBFF36F8F00BF034877
:1043F0000068401C01490860704700001800002058
:1044000006480068401E054908600846006820B953
:10441000002080F3118800BF00BF70471800002003
:1044200070B506463546B6B1083D2C4600F04EF94B
:104430006168094800E00068026852688A42FAD35D
:1044400002682260046005496068096808440349FD
:10445000086000F001FD70BD000000201000002089
:1044600003484FF0E02148610720086170470000D1
:104470003F19010070B50446002544B100F026F94B
:1044800000212046FFF75CFC00F0E6FC05463DB944
:104490004FF0805003490860BFF34F8FBFF36F8F19
:1044A00070BD000004ED00E070B50546FFF796FF13
:1044B00015B92748006800E028460446201DFFF78C
:1044C00042FF78B9E06A00EB8000224951F82000F1
:1044D00040B994F82C10012088401F490968814395
:1044E0001D480160A06A18B104F11800FFF72BFF06
:1044F0001A480068401C1949086015480068844241
:1045000009D1211D1648FFF75CFF16480068401CC2
:104510001449086009E014480068401E1249086008
:104520002046FFF738FDFFF723FEFFF769FF0F482E
:10453000006858B106480068844207D14FF08050A7
:104540000B490860BFF34F8FBFF36F8F70BD000042
:104550001C0000208430002034000020480000208F
:1045600024310020280000202C00002038000020EA
:1045700004ED00E001200149086070474000002080
:1045800070B505460C460548016818312846FFF706
:10459000FEFE01212046FFF7D3FB70BD1C0000206A
:1045A00070B505462C46002D4BD02649E06A0968B7
:1045B000C96A884245D2A06900F0004028B9214864
:1045C0000068C06AC0F10500A061E16A01EB8101E9
:1045D0001D4A02EB81016069884201D1012000E09F
:1045E000002050B3201DFFF7AEFE78B9E06A00EB63
:1045F0008000154951F8200040B994F82C10012092
:104600008840124909688143104801600D480068DC
:10461000C06AE06294F82C10012088400B490968B8
:1046200008430A490860E16A01EB8101064A02EB8E
:104630008100211DFFF7C5FE03E002480068C06A43
:10464000E06270BD1C000020843000203400002097
:104650000349096801600349096841607047000027
:1046600044000020300000201CB5114800210B46FA
:104670008022CDE900100FA1104800F0ADFA0446E9
:10468000012C14D100BFBF2080F31188BFF34F8FDE
:10469000BFF36F8F00BF4FF0FF3009490860012062
:1046A0000849086000200849086000F08BF81CBD2C
:1046B0005000002049444C4500000000E13F000844
:1046C0004C00002038000020300000200248006824
:1046D000401C0149086070475400002012480068DF
:1046E00018B10120114908601DE000200F49086041
:1046F0000F480068B0FA80F0C0F11F0101EB8102A1
:104700000C4B03EB820042685268426000F10802E1
:104710004368934202D14268526842604268D2685C
:10472000054B1A6000BF7047540000204000002075
:1047300034000020843000201C00002070B51F4889
:10474000046840F225511E48FEF7C9F860B11C48C4
:10475000FEF714F9C5B229462046FDF7CFF940F21D
:1047600025511748FEF7ACF840F227711448FEF7C0
:10477000B6F8012816D1D4F87826501EC4F8780669
:10478000D4F87C06821A04F5D060815C0C48FEF7F0
:10479000FAF8D4F8780628B9002240F227710848C0
:1047A000FEF7C7F840F226610548FEF798F820B1F9
:1047B00040F226610248FEF783F870BD58000020E1
:1047C0000044004010B50A48006840F47F000849E2
:1047D00008600846006840F07F400860FFF740FE30
:1047E000002004490860FBF709FD002010BD00000F
:1047F00020ED00E01800002010B500BFBF2080F3BE
:104800001188BFF34F8FBFF36F8F00BF00F014FA12
:1048100018B14FF080500449086000BF002080F3B9
:10482000118800BF10BD000004ED00E02DE9F0414B
:1048300004460126002722460021012000F007F847
:1048400005462846FFF7E0FB2846BDE8F0812DE944
:10485000F84307460D4690460DB9002601E007FBD8
:1048600005F606F14800FFF7E7FC044644B104F101
:10487000480943464A46294638460094FFF7D2FB8A
:104880002046BDE8F88300002DE9FF4782B00546C9
:1048900089461E464FF0000A2C4600BFFFF79EFDDA
:1048A000D4F83880B8F1000F3BD0E768494620467D
:1048B000FFF71EFBDEB9A8F10100A063206810B964
:1048C000FFF716FD6060206908B9012000E00020B4
:1048D00008BB04F1100000F07FFAE0B14FF0805007
:1048E0003F490860BFF34F8FBFF36F8F13E0E7605E
:1048F000606A08B9012000E0002060B904F12400DA
:1049000000F06AFA38B14FF0805035490860BFF3C3
:104910004F8FBFF36F8FFFF773FD012006B0BDE827
:10492000F087049818B9FFF76BFD0020F6E7BAF19D
:10493000000F04D16846FFF78BFE4FF0010AFFF726
:104940005FFDFFF7C3FEFFF749FD94F94400401CEB
:1049500010B9002084F8440094F94500401C10B9B7
:10496000002084F84500FFF74BFD04A9684600F0DD
:1049700005F940BB2046FFF7DFFBF0B1206830B9F6
:10498000FFF72CFD6068FFF70BFEFFF739FD04F120
:1049900024000499FFF7F4FD2046FFF70EFC00F019
:1049A0005BFA00287FF47AAF4FF080500C49086022
:1049B000BFF34F8FBFF36F8F70E72046FFF7FDFB0C
:1049C00000F04AFA6AE72046FFF7F7FB00F044FAE6
:1049D0002046FFF7B1FB0028EED000209EE7000044
:1049E00004ED00E070B505460E462C46FFF7F6FCD8
:1049F000D4E90F12206801FB020060600020A06370
:104A00002068A060E06B401E226C216800FB021051
:104A1000E060FF2084F8440084F845009EB92069D6
:104A200008B9012000E00020A8B904F1100000F04E
:104A3000D3F980B14FF0805009490860BFF34F8F20
:104A4000BFF36F8F07E004F11000FFF790FC04F153
:104A50002400FFF78CFCFFF7D3FC012070BD0000A1
:104A600004ED00E02DE9FF4383B0074688461D466C
:104A70004FF000093C4600BFFFF7B0FCA06BE16BB4
:104A8000884201D3022D28D12A4641462046FFF70D
:104A900044FA0646606A08B9012000E0002068B9BF
:104AA00004F1240000F098F988B14FF080503249A9
:104AB0000860BFF34F8FBFF36F8F08E03EB14FF038
:104AC00080502D490860BFF34F8FBFF36F8FFFF702
:104AD00097FC012007B0BDE8F083059818B9FFF7EF
:104AE0008FFC0020F6E7B9F1000F04D101A8FFF711
:104AF000AFFD4FF00109FFF783FCFFF7E7FDFFF77C
:104B00006DFC94F94400401C10B9002084F8440066
:104B100094F94500401C10B9002084F84500FFF7C7
:104B20006FFC05A901A800F029F8F0B92046FFF7AD
:104B300010FBA0B104F110000599FFF721FD2046FC
:104B4000FFF73BFB00F088F9002895D14FF080502B
:104B500009490860BFF34F8FBFF36F8F8CE7204682
:104B6000FFF72BFB00F078F986E72046FFF725FBDF
:104B700000F072F90020ADE704ED00E070B50446E6
:104B80000D46FFF72BFC124802682868401C08B944
:104B9000002619E00F4920680968884204D060683F
:104BA000904201D801260FE06068101A29688842F7
:104BB00009D228686168511A401A28602046FFF718
:104BC00047FD002600E00126FFF71AFC304670BDC5
:104BD00030000020440000202DE9FF4F85B08046C2
:104BE00089461746DDE912ABB800FFF725FB0646FC
:104BF00056B15420FFF720FB04460CB1266304E0B5
:104C00003046FFF70DFC00E000247CB10020CDE928
:104C100000ABCDE902403A4649464046089BFFF7C3
:104C200014FA2046FFF7D8F8012501E04FF0FF35D0
:104C3000284609B0BDE8F08F2DE9F04100273A4839
:104C40000068002863D139480068451C3748056072
:104C50008DB93748D0F8008036480068344908607C
:104C60003448C0F8008034480068401C324908606D
:104C7000FFF77EFA00BF3148006885423BD300BF92
:104C80002B480068006808B9012000E0002020B12E
:104C90004FF0FF30294908602CE025480068C068C3
:104CA000C4686668B54202D22448066022E0201D2E
:104CB000FFF749FBA06A18B104F11800FFF743FBA6
:104CC00094F82C10012088401D49096808431C49AC
:104CD0000860E16A01EB81011A4A02EB8100211DA3
:104CE000FFF76FFB1849E06A0968C96A8842C7D3B1
:104CF0000127C5E700BF14480068C06A00EB8000C8
:104D0000104951F82000012800D9012704E00F487C
:104D10000068401C0D4908600D48006800B101277B
:104D20003846BDE8F081000054000020300000202B
:104D30002000002024000020440000204C0000201F
:104D400034000020843000201C0000203C000020A3
:104D50004000002070B505462C460026ADB3A06C7F
:104D6000401EA064616CE06A88422ED0A06C60BBDB
:104D7000201DFFF7E8FA78B9E06A00EB80001449DB
:104D800051F8200040B994F82C10012088401149B6
:104D9000096881430F480160606CE062E06AC0F11D
:104DA0000500A06194F82C10012088400949096889
:104DB000084308490860E16A01EB8101044A02EBFB
:104DC0008100211DFFF7FDFA0126304670BD00006D
:104DD000843000203400002070B50646F068C468B6
:104DE00004F11800FFF7AFFA15480068A8B9201DB4
:104DF000FFF7A9FA94F82C1001208840114909689E
:104E0000084310490860E16A01EB81010E4A02EB98
:104E10008100211DFFF7D5FA04E004F118010B48C9
:104E2000FFF7CFFA0A49E06A0968C96A884204D9DB
:104E3000012501200749086000E00025284670BDD3
:104E40005400002034000020843000201031002065
:104E50001C0000204000002070B500240026FFF751
:104E6000BDFA2E480068401E2C49086008460068BC
:104E700000284FD12A48006800284BD024E0294858
:104E8000C068C46804F11800FFF75DFA201DFFF741
:104E90005AFA94F82C1001208840234909680843E5
:104EA00021490860E16A01EB8101204A02EB81009F
:104EB000211DFFF786FA1E49E06A0968C96A88421F
:104EC00002D301201B4908601648006808B9012078
:104ED00000E000200028D2D00CB1FFF749F91648B5
:104EE000056865B100BFFFF7A7FE10B101201149A9
:104EF00008606D1E002DF6D100200F4908600D4896
:104F0000006838B1012630070C490860BFF34F8FA5
:104F1000BFF36F8FFFF774FA304670BD5400002066
:104F20002C000020103100203400002084300020AC
:104F30001C000020400000203C00002004ED00E0A8
:104F400010B500290AD00878002807D00548784411
:104F5000FBF728FD002801D0002010BD024878444E
:104F600010BD0000DA060000D206000010B591EA7C
:104F7000030F48BF83F0004300F1EC81841A71EB0A
:104F8000030C05D2121943EB0C03001B61EB0C015F
:104F9000DFF824E14FEA1154A4EB135C1EEA430F3F
:104FA00018BF9EEA445F73D023EA0E03DCF1200EA3
:104FB00021EA045143F4801332D322FA0CFE10EBA1
:104FC0000E0023FA0CFE41EB0E01CCF1200E03FA89
:104FD0000EFE10EB0E0051F10001B1F5801FCCF177
:104FE000200E32D201EB045112FA0EF2BDE810404D
:104FF00058BF7047401C38BF5FEA420218BF704775
:10500000002814BF20F0010041F100014FEA4103E4
:1050100013F5001F38BF7047A1F1C04100F08CB9F3
:10502000012A43EB0302ACF1200CDCF11F0E32BF6E
:105030004FF0000E23FA0CF310EB030041EB045188
:10504000B4EB115FD0D0A1EB045101F580114908F8
:105050005FEA300001EB04510ED350F1000038BF7D
:1050600012FA0EFE08D1BDE81040C9E7401C38BF57
:105070005FEA4202CAD1C3E7BDE810404FEA4103EC
:1050800013F5001F38BF7047A1F1C04100F054B9BB
:105090009EEA445F08D011EA5E0FBDE8104004BFED
:1050A00001F0004100207047BDE8104070B500F0ED
:1050B000F5F800BF64FBBE3E0000E0FF4FEA41038D
:1050C0004FEA5353A3F58063D3F11E03C8BFD3F156
:1050D000210C0CDD4FF0004242EAC12242EA50525C
:1050E00032FA03FC8CEAE17CACEBE1707047102BE8
:1050F000C4BF0020704703F5787CBCF1FF3F04D0AB
:105100006FF0004282EA2100704770B500F0C6F8E7
:105110004992248000207047F2E710F0004248BF17
:105120004042B0FA80F310FA03F10AD0C3F11D0334
:1051300003F580634FEA415002EB035202EBD121A9
:1051400070474FF000007047DFF848C170B51CEAA7
:10515000111E1EBF1CEA13159EEA0C0F95EA0C0FD8
:1051600000F06F8081EA030423EA4C134EEAD47EF8
:1051700021EA4C1141F4801143F48013AE44A1FBA9
:10518000024CA0FB0365AEF17F7E361955EB0C0592
:10519000A1FB034C4CF10003A0FB021C16EB0C0618
:1051A000654153F10003094218BF46F0010613F4AC
:1051B000007F0BD14FEA03314FEA0530340341EA57
:1051C000155140EA16506FF003020AE04FEAC3217E
:1051D0004FEAC520F40241EA555140EA56506FF0BB
:1051E000020202EB2E4201EB025585EACE710AD093
:1051F0005FEA440C18BF24F0004450F1000041F174
:10520000000120EAD47040F2FE7C624500D270BDFD
:10521000A84214BF4FF080444FF04044002E08BF16
:105220000024BEF1806FA8BFA1F1C041BDE870406D
:1052300080F282804FF0000001F1C04101F0004196
:1052400070479EEA0C0F0CEA131518BF95EA0C0F75
:1052500006D04FF0000081EA030E0EF0004170BD51
:1052600000F01CF88900013E00F007B800F009B812
:105270004FEA430C5FEA5C5C08D081EA030100F06E
:105280005BB84FEA410C5FEA5C5CF6D14FF000007E
:10529000014970470000FF070000F87F0EF1020E81
:1052A0002EF0030E5EF8046B364205D4012A43EB60
:1052B000030515F5001F12D8012841EB010C1CF560
:1052C000001F0CD80ED14FEAD17C15F5001F0CEB56
:1052D0004C0C0CF1020C08BF4CEBD37C04E04FF0FB
:1052E000080C01E04FEAD37C0CEB4C0526FA05F6DE
:1052F00006F00706B6F1040C06D20EEB860CBDE8EC
:1053000070404CF0010C6047DFE80CF0090B020222
:105310004FF000414FF00000A1F5002170BD19468B
:105320001046012851EB010418BFD4F5001484BFC6
:10533000002001F0004170BD0808A0F500114FEAFF
:105340003101704710B591EA030F48BF83F0004365
:105350003FF514AE841A71EB030C07D212198CF0CE
:10536000004C43EB0C03001B61EB0C01DFF8A4E1E4
:105370004FEA1154A4EB135C1EEA430F18BF9EEAD8
:10538000445F00F0B08023EA6E03524221EA0451E8
:10539000C3EB6E0338BF5B1EDCF1200E25D322FA6F
:1053A0000CFE10EB0E0043FA0CFE41EB0E01CCF1AB
:1053B000200E03FA0EFE10EB0E0051F10001CCF1AD
:1053C000200E29D412FA0EF201EB0451BDE8104070
:1053D00058BF7047401C1CBFB2F1004F70470028F7
:1053E0000CBF491C20F00100704712EB020E43EB8A
:1053F000030218BF4FF0010E4EEA4202ACF1200C3E
:10540000DCF11E0E54D943FA0CFE10EB0E0051F1E4
:10541000FF31CCF11E0ED5D50EF1010E12FA0EFEA3
:10542000404141EB010101EB445C5FEA5C5C10D957
:1054300010EBDE7001EB045138BFBEF1004FBDE848
:10544000104018BF704700280CBF491C20F0010015
:10545000704730D24FEAD42C11F5001124F40064C7
:105460001BD0B1FA81F20B3AA41AA41ED2F1200388
:10547000914030FA03F31943904001EBCC71002CBA
:1054800001EB0451BDE81040A8BF704701F1C041D5
:105490004FF0000001F000417047B0FA80F310FABD
:1054A00003F100D110BDE41A173C4805C90AE4E72E
:1054B00001EB045110BD491001EB0451BDE810404F
:1054C0004FEA300002E04FF0000170474A0008BF89
:1054D0000042F8D0B2F5001F28BF704701F000412C
:1054E0004FF0000070479EEA445F07D011EA5E0F5C
:1054F000BDE8104004BF002100207047BDE8104007
:1055000070B5FFF7CBFE00BF40DFF63E83F00041F1
:10551000104670470000E0FF0000C0E0F0F8FC50CB
:10552000726F634D736700594A5F536572766F4DB2
:105530006F746F724E6F64655461736B004765746E
:1055400046696C654C656E00594A5F42746C6450E4
:10555000726F4D7367000000000000000000000043
:105560003031323334353637383941424344454699
:105570004030580030313233343536373839616293
:105580006364656640307800040000080000000095
:105590000000000200010000100000007B226322D6
:1055A0003A22486561727442656174222C226E222F
:1055B0003A302C2273223A322C22536572766F5F76
:1055C0006C223A25642C22536572766F5F72223A00
:1055D00025642C224D6F746F725F6C223A25642C07
:1055E000224D6F746F725F72223A25642C227465AB
:1055F0006D70223A25642C2268756D69646974792E
:10560000223A25647D000000385700080000002081
:105610008400000028010008BC5700088400002016
:105620001C44000044010008100100004300000079
:10563000F8FFFFFF004040404040404040404141B3
:105640004141414040404040404040404040404057
:1056500040404040400502020202020202020202F1
:1056600002020202022020202020202020202002EE
:10567000020202020202909090909090101010107E
:10568000101010101010101010101010101010101A
:1056900002020202020288888888888808080808AE
:1056A000080808080808080808080808080808087A
:1056B00002020202400000000000000000000000A2
:1056C00000000000000000000000000000000000DA
:1056D00000000000000000000000000000000000CA
:1056E00000000000000000000000000000000000BA
:1056F00000000000000000000000000000000000AA
:105700000000000000000000000000000000000099
:105710000000000000000000000000000000000089
:105720000000000000000000000000000000000079
:105730000000000000000000000000000000000069
:105740000000000000000000F82F00000000000032
:10575000AAAAAAAA000000000000000000000000A1
:105760000000000000000000000000000000000039
:105770000000000000000000000000000000000029
:105780000000000000000000000000000000000019
:105790000000000000000000000000000000000009
:1057A00000000000000000000000000000000000F9
:0C57B000000000000000000000000000ED
:04000005080000ED02
:00000001FF
