:020000040800F2
:100000009044002091020008990200089B02000819
:100010009D0200089F020008A102000800000000E5
:10002000000000000000000000000000D9010008EE
:10003000A5020008000000001D0200086944000835
:10004000AB020008AB020008AB020008AB020008DC
:10005000AB020008AB020008AB020008AB020008CC
:10006000AB020008AB020008AB020008AB020008BC
:10007000AB020008AB020008AB020008AB020008AC
:10008000AB020008AB020008AB020008AB0200089C
:10009000E9250008AB020008AB020008AB0200082B
:1000A000AB020008AB020008AB020008AB0200087C
:1000B00000000000AB020008AB020008AB02000821
:1000C000AB020008AB020008AB020008AB0200085C
:1000D000AB02000800000000AD430008AB020008BE
:1000E000AB020008AB020008AB02000800F002F807
:1000F00000F062F80AA090E8000C82448344AAF160
:100100000107DA4501D100F057F8AFF2090EBAE85D
:100110000F0013F0010F18BFFB1A43F0010318473B
:10012000E450000004510000103A24BF78C878C1A0
:10013000FAD8520724BF30C830C144BF04680C60ED
:10014000704700000023002400250026103A28BF35
:1001500078C1FBD8520728BF30C148BF0B60704739
:10016000692900F06381642900F06081752900F03D
:100170005D816F2900F0F481782900F01B8203680B
:10018000DB0928BF41F08001632900F0E484732972
:1001900000F0E984E32900F0F484002070471FB5E3
:1001A00000F020FD04000020002104F001FD401CAF
:1001B00060601FBD10B510BD00F018FD1146FFF7BF
:1001C000EEFF03F07FF800F036FD03B4FFF7F2FF17
:1001D00003BC00F039FD0000224B19680868B0E844
:1001E000F00F80F30988BFF36F8F4FF0000080F3AA
:1001F00011884EF00D0E70470000000006480068A0
:10020000006880F3088862B661B6BFF34F8FBFF312
:100210006F8F00DF00BF00BF08ED00E0EFF3098043
:10022000BFF36F8F0F4B1A6820E9F00F106008B50D
:100230004FF0BF0080F31188BFF34F8FBFF36F8F74
:1002400004F084F84FF0000080F31188BDE8084006
:1002500019680868B0E8F00F80F30988BFF36F8F62
:10026000704700BF1C000020EFF3058070470000BE
:10027000EFF30980704780F309887047EFF3088037
:10028000704780F30888704740BA7047C0BA70471B
:100290000948804709480047FEE7FEE7FEE7FEE71A
:1002A000FEE7FEE7FEE7FEE7FEE7FEE70448054956
:1002B000034A054B7047000005230008ED000008C5
:1002C00090420020904400209042002070B50446E7
:1002D000051F00F0B3FB0068002C14BF446870BD1C
:1002E000002C18BFAC423CBF20466468F8D30168BC
:1002F0000A18AA4218BF456003D12A68054611446E
:10030000016028684119A1421CBF6C6070BD616822
:10031000696021680844286070BD10B5044600F08B
:1003200085FB0068005DC00602D504F1200010BD09
:10033000204610BD0FB41CB50C0007AA009001D0D8
:100340002044401E074B7B4469460190069800F00C
:10035000D8FB002C03D06946002000F0E5FB1CBC54
:100360005DF814FBE907000070B504468569006874
:10037000C10601D5302600E02026C00707D070BD99
:10038000D4E9012130469047206A401C20626D1E4E
:10039000F6D570BD70B5044685690078C00707D1F1
:1003A00070BDD4E9012120209047206A401C2062C2
:1003B0006D1EF6D570BD09684A0501D540B270477B
:1003C000C905FCD500B2704709684A0501D5C0B21D
:1003D0007047C905FCD580B2704770B50C4605461C
:1003E000012A05D02878800600D5EA69002302E0BA
:1003F000012305E05B1C934202D2E05C0028F9D1A6
:10040000A869E618C01AA861286A18442862284614
:10041000FFF7AAFF04E0D5E9012114F8010B90478A
:10042000B442F8D32846FFF7B5FF70BD2DE9F0417F
:100430000646002410687529314616A510D0FFF72E
:10044000BAFF002802DA404213A507E031688A07A4
:1004500001D512A502E0490704D511A5012401E048
:10046000FFF7B2FF00210A2206F1240709E0B0FBE2
:10047000F2FCB0FBF2F302FB1C003030785418465B
:10048000491C0028F3D123462A463046BDE8F041F6
:1004900000F0D8BA000000002D0000002B00000082
:1004A000200000002DE9FF5F15468A460446DFF86C
:1004B000AC80F8440027D8E900103E46CDE9001092
:1004C00010E03AF816106A4602A800F066FB411CDC
:1004D00007D02178890603D5E269391891420DD8F1
:1004E0000744761C2078800602D5E069B84205DD15
:1004F000AE42E6DB3AF816000028E2D1A069C01B44
:10050000A0612046FFF730FFD8E90010CDE90010C8
:10051000002017E03AF818106A4602A800F03DFBE8
:10052000B0F1FF3F81460BD000250DF1080B05E02F
:10053000D4E901211BF8050090476D1C4D45F7D308
:1005400008F10100B0428046E4DB206A38442062B2
:100550002046FFF71FFFBDE8FF9F00000A4D000087
:1005600070B5044621461068FFF72EFF002104F104
:10057000240505E000F007023032C0086A54491C27
:100580000028F7D12068002308A2050708D500F04D
:100590002000084304D0E069012305A2401EE06169
:1005A0002046BDE8704000F04DBA00000000000099
:1005B0003000000070B504460D4621461068FFF774
:1005C00003FF2188090502D50F4A7A4402E00E4A4A
:1005D0007A440E32002104F1240305E000F00F06F6
:1005E0000009965D5E54491C0028F7D1207800234D
:1005F000000704D5702D02D009B102231132204624
:10060000BDE8704000F01EBAFA4B00002DE9F05F23
:10061000894604464FF0000ADFF874B1FB44C0F885
:1006200020A02046E1688847002874D0252806D0FD
:10063000D4E901219047206A401C2062F1E700269E
:100640005F462046E16888472028054607DB312DB4
:1006500005D2781910F8200C08B10643F1E7B0076D
:1006600001D526F00406C4F81CA00027C4F818A081
:100670002A2D09D0284602F071FD38B304EB870813
:10068000303DC8F8185019E059F8041B204604EB17
:1006900087029161E1688847012F054618D1E0691A
:1006A000002820DA26F020061DE0D8F8180000EB1C
:1006B000800005EB40003038C8F818002046E1689B
:1006C0008847054602F04AFD0028EED1012F0AD0E6
:1006D0002E2D08D12046E16888477F1C0546022F51
:1006E00046F02006C4DBA069002803DA404246F049
:1006F0000106A061F00701D026F010066C2D0BD08A
:10070000682D09D04C2D39D06A2D35D0742D35D0B7
:100710007A2D33D016E038E0E1682F46204688472E
:10072000B842054609D16C2F26D04FF48060E168AD
:10073000064320468847054604E06C2F1AD04FF444
:10074000807006430DB3A5F14100192802D8203569
:1007500046F400664A462946204626604E46FFF784
:10076000FFFC80B101280BD0F61D26F0070000F138
:10077000080956E74020E4E78020D8E70020D6E7C4
:1007800006F104094DE7284652E7206ABDE8F09FCC
:10079000D04B000010B5431C02E010F8011B71B1F2
:1007A0008107FAD14FF0013202C88C1A8C4314EA47
:1007B000C211F9D0C01A0A0603D0C01E10BDC01A5B
:1007C00010BD0A0401D0801E10BD0902FCD0401EDD
:1007D00010BD40EA010370B59B072ED14FF00136E2
:1007E000042A2AD308C810C99D1B9D43121F15EA6D
:1007F000C61517D0D8B2E1B2401A50EA056110D13F
:1008000098B2A1B2401A50EA05410AD123F07F40C4
:1008100024F07F41401A50EA052102D1180EA0EBC6
:10082000146070BDA342DBD018BA21BA884201D946
:10083000012070BD4FF0FF3070BD0AB9002070BDBF
:1008400010F8013B11F8014B63B1A3420AD1521ECB
:1008500008D010F8013B11F8014B1BB1A34201D1A4
:10086000521EEDD1181B70BD032A40F2308010F0EB
:10087000030C00F0158011F8013BBCF1020F62443B
:1008800098BF11F801CB00F8013B38BF11F8013BCC
:10089000A2F1040298BF00F801CB38BF00F8013B79
:1008A00011F0030300F02580083AC0F0088051F8E9
:1008B000043B083A51F804CBA0E80810F5E7121DF4
:1008C0005CBF51F8043B40F8043BAFF30080D20713
:1008D00024BF11F8013B11F801CB48BF11F8012BDF
:1008E00024BF00F8013B00F801CB48BF00F8012B02
:1008F000704710B5203AC0F00B80B1E81850203A8C
:10090000A0E81850B1E81850A0E81850BFF4F5AFAF
:100910005FEA027C24BFB1E81850A0E8185044BF39
:1009200018C918C0BDE810405FEA827C24BF51F8A6
:10093000043B40F8043B08BF7047D20728BF31F89A
:10094000023B48BF11F8012B28BF20F8023B48BFEB
:1009500000F8012B70474FF0000200B51346944693
:100960009646203922BFA0E80C50A0E80C50B1F107
:100970002001BFF4F7AF090728BFA0E80C5048BF1B
:100980000CC05DF804EB890028BF40F8042B08BFB9
:10099000704748BF20F8022B11F0804F18BF00F8B5
:1009A000012B70474FF0013C50F8042B51F8043BE9
:1009B0009A4221D1A2EB0C03934313EACC1317D133
:1009C00050F8042B51F8043B9A4215D1A2EB0C03CA
:1009D000934313EACC130BD150F8042B51F8043B8A
:1009E0009A4209D1A2EB0C03934313EACC13DBD058
:1009F0004FF00000704700BFD01A01BAB1FA81F180
:100A000001F0180122FA01F0CB40C1F12001DBB264
:100A1000C0B2C01A2CFA01F3D11A914311EAC311E2
:100A2000E6D17047704770477047000010B500F07E
:100A3000D9F8001D10BD00BF794100000048704783
:100A4000384200202DE9F0470D469946924604466B
:100A500000F124080168880604D5E06921F010013E
:100A6000216000E00120A84201DD471B00E00027D3
:100A7000A1697A1902EB0900081AA0612078C00662
:100A800002D42046FFF770FC002608E0D4E90121DB
:100A90001AF806009047206A401C761C20624E45DA
:100AA000F4DB2078C0060AD52046FFF75DFC06E09F
:100AB000D4E9012130209047206A401C2062381E72
:100AC000A7F10107F4DC07E0D4E9012118F80500DB
:100AD0009047206A401C2062281EA5F10105F3DC26
:100AE0002046FFF757FC2078000602D50220BDE81B
:100AF000F0870120FBE7000001694A1C02610878C9
:100B0000704700B58FB0CDE901310021059105494D
:100B10007944CDE9031011466846FFF777FD0FB021
:100B200000BD0000E5FFFFFF0A6802F8010B0A6044
:100B30007047D1E900239A4202D2531C0B60107017
:100B4000704710B5436913B1AFF3008001E0FFF7C0
:100B500044FC012010BD127800F124010A7000222B
:100B60004A700122EDE711684FF0FF32E9E710B556
:100B7000436913B1AFF3008001E0FFF793FC01205C
:100B800010BD128800F1240182840022C284012257
:100B9000EDE711684FF0FF32E9E770B516460C46F5
:100BA0000546FFF743FF036893F80101012806D0CB
:100BB000FF2C0FD8185D68B101202C7070BDD3F8E0
:100BC00007013246214603F2071303442846BDE8D5
:100BD000704018474FF0FF3070BD0000004870476C
:100BE0003042002000487047504200207546FFF711
:100BF000F5FFAE4605006946534620F007008546DE
:100C000018B020B5FFF752FBBDE820404FF00006BA
:100C10004FF000074FF000084FF0000B21F00701E4
:100C2000AC46ACE8C009ACE8C009ACE8C009ACE827
:100C3000C0098D46704710B50446AFF300802046CA
:100C4000BDE81040FFF7C1BA01491820ABBEFEE76E
:100C50002600020070471CB50546002700BF2C4641
:100C600040F6B832002304F1080002F031F94AE0FE
:100C7000142003F037FAD4E90221104602F07EF87E
:100C800030B16068401C18B902F05CF901F0F6FF61
:100C900000235A1E1946D4F8200403F02DFC2069C5
:100CA00010B1012827D106E0C8220023684602F0CF
:100CB0000FF9E6691FE0E069B04214D1DDE90001F7
:100CC00002F05CF8B0B1304601F076FAC822002399
:100CD000684602F0FDF838467F1C19280ADD00201E
:100CE0002061002706E0E6690027C8220023684645
:100CF00002F0EEF800BF00BF00231A461946D4F8F0
:100D0000200403F0E7FCB3E710B504460B48844227
:100D100009D10121480601F063F900214FF000706C
:100D200001F05EF908E00121880601F059F900217F
:100D30004FF0806001F054F910BD000000640040E5
:100D400010B50021837A012202FA03F13D4A1268AC
:100D500042F001023B4B1A603A4A1C3212688A4345
:100D6000384B1C331A60027BCAB9364A0C321268FF
:100D70008A43344B0C331A604288C38842EA0343E7
:100D8000304A4032847A42F834300288838842EA1A
:100D900003432C4A4032847A02EBC4025360027B44
:100DA000012A19D1274A0C3212680A43254B0C3309
:100DB0001A604288038842EA0343224A4032847A16
:100DC00042F83430C288838842EA03431D4A4032E5
:100DD000847A02EBC4025360C27A3AB9194A121DEE
:100DE00012688A43174B1B1D1A6006E0154A121D34
:100DF00012680A43134B1B1D1A60028932B9114A4B
:100E0000143212688A430F4B14331A600289012A84
:100E100006D10C4A143212680A430A4B14331A6082
:100E2000427B012A06D1074A1C3212680A43054B4D
:100E30001C331A60034A126822F00102014B1A6047
:100E400010BD0000006600401AB143690B434361C6
:100E500002E043698B434361704730B5024600208E
:100E60000023146824F002041460146844F00104A0
:100E7000146000E05B1C546804F001041CB94FF6D8
:100E8000FF74A342F6D1546804F001040CB90020A9
:100E90006CE08C79012C04D1146844F08004146057
:100EA00003E0146824F080041460CC79012C04D190
:100EB000146844F04004146003E0146824F0400413
:100EC00014600C7A012C04D1146844F020041460DE
:100ED00003E0146824F0200414604C7A012C04D13F
:100EE000146844F01004146003E0146824F0100443
:100EF00014608C7A012C04D1146844F00804146046
:100F000003E0146824F008041460CC7A012C04D1A6
:100F1000146844F00404146003E0146824F004042A
:100F200014608C78A407CD7844EA05640D7944EA0E
:100F300005444D7944EA05540D886D1E2C43D46157
:100F4000146824F001041460002300E05B1C546862
:100F500004F001041CB14FF6FF74A342F6D15468AB
:100F600004F001040CB1002000E0012030BD10B5F8
:100F700000F5D87303EB01131B6803F0040313722D
:100F8000137A53B900F5D87303EB01131B6840F2D1
:100F9000FF7404EA5353136009E000F5D87303EBC0
:100FA00001131B686FF0604404EAD303536000F53B
:100FB000D87303EB01131B6803F00203537200F5AF
:100FC000D87303EB01135B6803F00F03937200F512
:100FD000D87303EB01135B681B0AD37400F5D87355
:100FE00003EB01139B68D37200F5D87303EB011375
:100FF0009B681C0A147300F5D87303EB01139B68FC
:101000001C0C547300F5D87303EB01139B681B0E83
:10101000937300F5D87303EB0113DB68D37300F50A
:10102000D87303EB0113DB681C0A147400F5D87342
:1010300003EB0113DB681C0C547400F5D87303EB4D
:101040000113DB681B0E937421B9C36843F02003BE
:10105000C36003E0036943F02003036110BD002176
:101060008171C171017241728172C1728170C170EE
:10107000032101710221417101210180704710B5E6
:1010800002460020936803F08063B3F1806F00D1C3
:1010900010E0936803F00063B3F1006F01D1012009
:1010A00008E0936803F08053B3F1805F01D1022020
:1010B00000E00420042874D002F5C07303EB001391
:1010C0001B6803F0010402F5C07303EB00131C60FE
:1010D0000B7A7BB94B7A0C8843EA445302F5C0740F
:1010E00004EB00142468234302F5C07404EB0014DD
:1010F000236010E00B7A4C6843EAC4034C7A234324
:1011000002F5C07404EB00142468234302F5C07494
:1011100004EB001423608B7A03F00F038B7202F54B
:10112000C07303EB00135B6823F00F0402F5C07378
:1011300003EB00135C6002F5C07303EB00135B6804
:101140008C7A234302F5C07404EB001463608B7B3C
:101150001C064B7B44EA03440B7B44EA0323CC7A12
:10116000234302F5C07404EB0014A3608B7C1C06BF
:101170004B7C44EA03440B7C44EA0323CC7B2343AB
:1011800002F5C07404EB0014E36002F5C07303EBD6
:1011900000131B6843F0010402F5C07303EB001356
:1011A0001C6010BD10B502460024042303E0D05C8F
:1011B0002044C4B25B1CC81E9842F8DC105CA042FC
:1011C00001D0002010BD0120FCE7000070B50646EC
:1011D000074C032505E0032002F084FF204601F0C0
:1011E000D7FB60680028F6D0002002F095FF70BDA4
:1011F0006031002030B5044604254FF4302000F063
:101200008FF80546042D17D10C48006940F0020004
:101210000A49086108464461006940F040000861DD
:101220004FF4302000F07CF805460448006941F690
:10123000FD71084001490861284630BD0020024088
:1012400004200B49C96801F0010109B101200EE039
:101250000749C96801F0040109B1022007E0044907
:10126000C96801F0100109B1032000E004207047B3
:10127000002002400348006940F0800001490861F5
:1012800070470000002002402DE9F04105460C4661
:10129000164604274FF000080FE02188284600F08A
:1012A00013F80746042F02D00120BDE8F08108F1B1
:1012B00002001FFA80F8AD1CA41CB04501DA042F0F
:1012C000EBD00020F1E7000070B504460D4604267F
:1012D000F00200F025F80646042E11D109480069F5
:1012E00040F00100074908612580F00200F018F87D
:1012F00006460448006941F6FE710840014908614C
:10130000304670BD0020024002480349486003484F
:10131000486070472301674500200240AB89EFCD4C
:1013200000B502460423FFF78BFF034603E0FFF7F7
:1013300087FF0346521E012B01D1002AF7D102B9C3
:101340000523184600BD2DE9F04104460D4604274B
:10135000FFF7DAFF00260CE02046FFF74BFF0746B9
:1013600004F58064042F02D00120BDE8F081701CD8
:1013700086B2AE42F0DBFFF77DFF0020F5E710B547
:101380000B46002104E010F8014B5C544C1CA1B248
:101390009142F8DB10BD70B505460E4614464FF677
:1013A000FF7000EA840231462846FFF7E8FF70BD6F
:1013B0002DE9F84306460F4615460420009001200B
:1013C00030490870FFF7A0FF4FEA96294FEA8929B4
:1013D000C6F309084FF480622B494846FFF7CFFF58
:1013E000002408E008EB04002749085CFF2800D02F
:1013F00003E0601C84B2AC42F4DB00BFAC422ADAEA
:101400004846FFF7F7FE00909DF80000042807D03B
:10141000FFF730FF00201B4908700120BDE8F8836A
:10142000002406E0385D08EB0401174A5054601CA4
:1014300084B2AC42F6DB4FF4806213494846FFF7B2
:1014400023FF0446012C15D1FFF714FF00200D499E
:1014500008700120E2E72A4639463046FFF714FFBC
:101460000446012C06D1FFF705FF0020054908704E
:101470000120D3E7FFF7FEFE00200249087000BFFD
:10148000CCE7000064000020B03C00202DE9F041D2
:1014900005460C460426002701212846FFF753FF86
:1014A000FFF732FF0DE021882846FFF70DFF0646C3
:1014B000042E02D00020BDE8F081B81C87B2AD1C1C
:1014C000A41CB7F5806F01DA042EECD0FFF7D2FE32
:1014D0000120F0E770B505460E4614464FF6FF7042
:1014E00000EA840231462846FFF762FF70BD2DE90D
:1014F000F04102460025002600200023002400279A
:1015000091F803C00CF00F0591F803C00CF0100C1B
:10151000BCF1000F03D091F802C04CEA050591F828
:1015200000C0BCF1000F31D0146800202BE04FF058
:10153000010C0CFA00F3B1F800C00CEA03069E425D
:1015400020D183004FF00F0C0CFA03F7BC4305FACF
:1015500003FC4CEA040491F803C0BCF1280F06D147
:101560004FF0010C0CFA00FCC2F814C00AE091F82C
:1015700003C0BCF1480F05D14FF0010C0CFA00FC80
:10158000C2F810C0401C0828D1D31460B1F800C0C4
:10159000BCF1FF0F34DD546800202EE000F1080C90
:1015A0004FF0010808FA0CF3B1F800C00CEA03068A
:1015B0009E4221D183004FF00F0C0CFA03F7BC437D
:1015C00005FA03FC4CEA040491F803C0BCF1280FAF
:1015D00005D100F1080C08FA0CF8C2F8148091F853
:1015E00003C0BCF1480F07D100F1080C4FF001080F
:1015F00008FA0CF8C2F81080401C0828CED35460BA
:10160000BDE8F0814161704701617047F8B5064659
:1016100000270024002500BF304601F0E3FD04460A
:1016200094B900BF02F08AFE87201A4B1AA24FF429
:10163000C07100901F48FEF77DFE1E4801F066FA5B
:1016400003F042FA00BF1DE01BA1204601F0AFFDF0
:10165000054615B1E868032812D000BF02F06EFEFF
:101660008F200C4B16A24FF4C07100901148FEF76A
:1016700061FE104801F04AFA03F026FA00BF01E0CB
:101680006F6900BF00BF14B1204601F06EFD3846FF
:10169000F8BD0000A751000825733A25643A20637D
:1016A0004A534F4E5F5061727365206661696C0AE0
:1016B00000000000B040002076616C7565000000FD
:1016C00025733A25643A2068617665206E6F742030
:1016D00046696C654C656E0A0000000010B5014655
:1016E0000A4613781B06547803EB0443947803EB03
:1016F0000423D478181910BD70B505460E4618207D
:1017000002F0D2FB04460CB9002070BD182120461F
:10171000FFF721F92561206920B92046FEF7D6FDA3
:101720000020F2E72660012002F0B8FE606120464A
:10173000EBE72DE9F04106460D4614460027002D43
:1017400002DC781EBDE8F08100235A1E194660694C
:1017500002F0D2FEE068A84208DA00231A461946D1
:10176000606902F0B7FF4FF0FF30EBE7E068401B25
:10177000E06018E0D4E9001090FBF1F201FB1200E8
:1017800060606168481C60602069425C38467F1C6C
:101790003254AF4207D100231A461946606902F05D
:1017A00099FF0120CEE7E5E770B503460024002944
:1017B00001DC601E70BDD068884202DA4FF0FF3055
:1017C000F8E715E0D2E9005090FBF5F605FB1600AE
:1017D00050605568681C50601069465D2046641C66
:1017E0001E548C4204D1D068401AD0600120E1E739
:1017F000E8E72DE9F04106460D4614460027002390
:101800005A1E1946606902F077FEE1682068401AA6
:10181000A84208DA00231A461946606902F05AFF06
:10182000781EBDE8F081E0682844E06018E0216897
:10183000A06890FBF1F201FB1200A06038467F1C0B
:10184000315CA268501CA06020698154AF4207D16E
:1018500000231A461946606902F03CFF0120E0E7C8
:10186000E5E770B503460024D5681068401B884240
:1018700001DA601E70BD15E01568906890FBF5F602
:1018800005FB160090602046641C1D5C9668701C69
:101890009060106985558C4204D1D0680844D060AE
:1018A0000120E7E7E8E70146C86870470146CB68D2
:1018B0000A68D01A70472DE9F04781460E469046D7
:1018C0001C460027002E02DC781EBDE8F0870023AE
:1018D0005A1E1946606902F00FFEE068A0EB08008E
:1018E000B04208DA00231A461946606902F0F2FE97
:1018F0004FF0FF30E9E76568002706E0206895FBB8
:10190000F0F100FB11556D1C7F1C4745F6DB0027ED
:1019100016E0206895FBF0F100FB115528466D1C80
:101920002269125C38467F1C09F80020B74207D1B3
:1019300000231A461946606902F0CCFE0120C4E774
:10194000E7E700004CF6CC40014908607047000012
:10195000003000404AF6AA200149086070470000A4
:1019600000300040014948607047000000300040EE
:10197000014988607047000000300040014908605C
:10198000704700000030004010B588B0044600F0F9
:1019900047FB00F01DF94FF40060ADF8000048204F
:1019A0008DF8030069463048FFF7A1FD4FF48050E1
:1019B000ADF8000018208DF8030003208DF8020018
:1019C00069462948FFF793FD2848FFF79DF905A8C8
:1019D000FFF745FB00208DF81A008DF81B008DF8ED
:1019E0001C008DF81D008DF81E0001208DF81F00D1
:1019F00000208DF816008DF8170001208DF81800D2
:101A000002208DF819000620ADF8140005A917482A
:101A1000FFF723FA00208DF80E008DF80F0001204B
:101A20008DF81000C4F34F30ADF80400042000EB33
:101A3000C40080B2ADF8060043F6FF70ADF80800B0
:101A40004FF6FF70ADF80A000020ADF80C00012041
:101A50008DF8110001A8FFF773F901220221034854
:101A6000FFF7F2F908B010BD000801400064004023
:101A700070B504460D46D4F85815481CC4F85805EE
:101A800004F5AD604554D4F8540520B101281DD0AB
:101A900002287DD151E0D4F85805022800D08AE010
:101AA00094F86805FA2804D140F26950005DFB28DB
:101AB00008D040F26950005D84F868050120C4F840
:101AC000580578E00120C4F8540574E0D4F85805AE
:101AD000042800D06FE040F26A50005DC4F85C0555
:101AE000D4F85C050002C4F85C0540F26B50005D60
:101AF000D4F85C150844C4F85C05D4F85C05B0F56E
:101B0000877F10DD40F26A50005D84F8680540F27E
:101B10006B50015D801E01550220C4F8580500205D
:101B2000C4F8540547E06422002304F5AC6001F0DA
:101B3000CFF90220C4F854053DE0D4F860251046E2
:101B4000D4F8641501F01AF928B10020C4F858053A
:101B5000C4F854052FE0D4F85C05C01DD4F858151E
:101B6000814200D027E0D4F85805801E04F5AD610D
:101B7000085CFC280ED1D4F85805401E085CFD28EE
:101B800008D104F5AD60D4F85815FFF70BFB00E061
:101B900010E028B90020C4F85805C4F854050AE03C
:101BA0000020C4F85405C4F858050448006800F043
:101BB00063F800E000BF00BF70BD000058000020C7
:101BC00000BF04E0642002F08DFAFFF7C3FEF9E7DE
:101BD00008B514208DF800000F208DF801000020BA
:101BE0008DF8020001208DF80300684600F002F82D
:101BF00008BD000070B5002100230F22C47804B393
:101C0000154C246804F4E064C4F5E064210AC1F1D1
:101C10000403CA40447804FA03F184781440214351
:101C200009010E4C0678A155047804F01F05012423
:101C3000AC4005786D11AD0005F1E025C5F8004117
:101C400009E0047804F01F050124AC40044D067837
:101C5000761145F8264070BD0CED00E000E400E090
:101C600080E100E0024A0A400243024B1A607047DA
:101C700080FFFF1F08ED00E010B50446A068FFF7E5
:101C800015FED4F85C15091D884200D210BD042150
:101C900004F25C50A268FFF7E4FD04F26C50A26805
:101CA000D4F85C15FFF7DDFD00BFEFE7F8B5064699
:101CB0000025002400BF304601F094FA054695B98E
:101CC00000BF02F03BFB33203E4B3FA24FF4C071FC
:101CD00000904448FEF72EFB424800F017FF02F048
:101CE000F3FE00BF68E040A1284601F060FA044618
:101CF00014B1E068042812D000BF02F01FFB3B20A3
:101D0000304B3AA24FF4C07100903648FEF712FBF8
:101D1000344800F0FBFE02F0D7FE00BF4CE038A1D3
:101D20002069FEF73FFE20B9F0213848FFF76CFC30
:101D300041E037A12069FEF735FE20B9F021334894
:101D4000FFF760FC37E035A12069FEF72BFE18B9DC
:101D5000304600F0DDF92EE033A12069FEF722FEC7
:101D6000B0B900BF02F0EAFA4D20164B30A24FF492
:101D7000C07100901B48FEF7DDFA1A4800F098FE8B
:101D800002F0A2FE00BF01F0DDF801F05EF812E003
:101D900000BF02F0D3FA53200A4B29A24FF4C071BE
:101DA00000901048FEF7C6FA0E4800F0AFFE02F0B1
:101DB0008BFE00BF00E000BF00BF15B1284601F058
:101DC000D4F9F8BD8F51000825733A25643A206391
:101DD0004A534F4E5F5061727365206661696C0AA9
:101DE00000000000B04000206300000025733A2589
:101DF000643A2068617665206E6F7420630A000083
:101E00004F70656E4C6967687400000000080140FF
:101E1000436C6F73654C6967687400004865617254
:101E200074426561740000005265626F6F74000057
:101E300025733A25643A205265626F6F740A000078
:101E400025733A25643A206572726F7220630A0026
:101E500010B50446206A00B910BD6069FFF726FD81
:101E6000616A0831884200D2F6E7042104F12400B7
:101E70006269FFF7BEFC042104F128006269FFF7E4
:101E8000B8FC6269616AE06AFFF7B3FC0020206277
:101E900000BFE1E738B50446206B10B1012872D1CC
:101EA0001AE0A069FFF7FFFC042800D238BD002229
:101EB00004216846A369FFF7FEFCA069FFF7F3FC65
:101EC00000990831884200D2F0E700986063002052
:101ED000E0630120206357E0E06B40BB04216846CB
:101EE000A269FFF726FC042104F10C00A269FFF7A8
:101EF00020FC606B08280DDC04F14400A269616BD2
:101F0000FFF717FC4FF080502064606BA063A06B5C
:101F1000E06334E0082104F14400A269FFF709FC02
:101F2000002020640820A063A06BE06327E0E16B41
:101F3000606B401A082813DCE36B606BC11A04F174
:101F40004400A269FFF7F5FB4FF080502064E16B7D
:101F5000606B401AA063D4E90E100844E0630EE001
:101F6000082104F14400A269FFF7E3FB4FF0006091
:101F700020640820A063D4E90E100844E063022026
:101F8000206301E0FFE700BF00BF206B022815D1EE
:101F9000236CE16841EA030004F14401A26B00F004
:101FA000E5F858B1206C18B1206CB0F1006F02D187
:101FB000012020637AE70020206377E700BF75E700
:101FC00029B1064AD2690243044BDA6104E0034AAC
:101FD000D2698243014BDA61704700000010024071
:101FE00029B1064A12690243044B1A6104E0034A0C
:101FF00012698243014B1A617047000000100240D1
:1020000029B1064A92690243044B9A6104E0034AEB
:1020100092698243014B9A617047000000100240B0
:1020200010B501210846FFF7EBFF01214806FFF735
:10203000C7FF01210C20FFF7E3FF10BD30B50021E1
:102040000022002400232D4D6D6805F00C0121B104
:10205000042905D0082923D105E0294D056022E097
:10206000274D05601FE0254D6D6805F47012234D66
:102070006D6805F48034022505EB92421CB9214DB0
:10208000554305600BE01D4D6D6805F400351DB12D
:102090001C4D5543056002E0194D5543056002E0B3
:1020A000174D056000BF00BF144D6D6805F0F001CD
:1020B0000909154D6B5C0568DD4045600F4D6D6885
:1020C00005F4E061090A104D6B5C4568DD408560F0
:1020D0000A4D6D6805F46051C90A0B4D6B5C45688B
:1020E000DD40C560054D6D6805F44041890B074D25
:1020F0006B5CC568B5FBF3F5056130BD00100240AF
:1021000000127A0000093D008400002094000020A5
:1021100030B5BDB0054607A4002003462246F02195
:10212000009001A8FEF706F9032101A800F09EFE29
:102130003DB030BD7B2263223A2248656172744211
:10214000656174222C226E223A302C2273223A329C
:102150002C2274656D70223A25642C2268756D6995
:1021600064697479223A25647D000000F0B585B079
:1021700004460E46154600200090019404208DF878
:10218000080000208DF80900E8B28DF80A002A4600
:1021900031460DF10B00FEF767FB69460548FEF777
:1021A0006EFF0746042F02D1002005B0F0BD0120CC
:1021B000FBE700000064004030B58DB0044606A582
:1021C00023462A4632216846FEF7B4F807216846BE
:1021D00000F04CFE0DB030BD7B2263223A224461F8
:1021E0007461526571222C226E223A25647D0000B2
:1021F00010B500F001F810BD0CB500200190009062
:102200003348006840F480303149086000BF3048EE
:10221000006800F4003000900198401C0190009884
:1022200018B90198B0F5A06FF1D12948006800F401
:10223000003010B10120009001E0002000900098D3
:10224000012843D12348006840F01000214908606C
:102250000846006820F0030008600846006840F067
:10226000020008601A4840681949486008464068FA
:1022700048600846406840F480604860084640680E
:1022800020F47C1048600846406840F4E81048603C
:102290000846006840F08070086000BF0C48006885
:1022A00000F000700028F9D00948406820F00300D1
:1022B000074948600846406840F00200486000BF97
:1022C0000348406800F00C000828F9D10CBD00005C
:1022D000001002400020024070B5054605262C463D
:1022E00009E0052001F0FEFED4E90220521D40F174
:1022F0000000C4E9022020680028F2D0002001F08C
:102300000BFF70BD10B51348006840F00100114983
:10231000086008464068104908400E494860084671
:1023200000680E4908400B4908600846006820F420
:10233000802008600846406820F4FE0048604FF4A2
:102340001F008860FFF754FF4FF0006004490860E9
:1023500010BD0000001002400000FFF8FFFFF6FE75
:1023600008ED00E010B586B0044601214804FFF7EF
:1023700027FE02940020ADF80C00ADF80E00ADF879
:102380001000ADF814000C20ADF8120002A924488A
:1023900000F0B4F840F22661214800F045F840F220
:1023A00025511F4800F040F8012240F226611C48E8
:1023B00000F07FF8012240F22551194800F079F829
:1023C0000121174800F03FF80420ADF80400182060
:1023D0008DF8070001208DF8060001A91148FFF7CC
:1023E00086F80820ADF8040004208DF807000120CD
:1023F0008DF8060001A90B48FFF779F826208DF823
:1024000000000F208DF8010000208DF8020001204F
:102410008DF803006846FFF7EDFB06B010BD000025
:10242000004400400008014010B50022002340F69F
:102430006A14A14200D100BF0A1201249440A3B241
:10244000DC43048010BD21B1828942F400528281B4
:1024500004E082894DF6FF731A408281704770B59F
:102460000246002400230025002040F66A16B142EF
:1024700000D100BFC1F3421501F01F03012606FA87
:1024800003F3012D02D19689334006E0022D02D1DB
:10249000168A334001E0968A33400C12012606FA70
:1024A00004F41688344013B10CB1012000E0002080
:1024B00070BDF0B50346002400260025002040F63C
:1024C0006A17B94200D100BF1846C1F3421401F0A7
:1024D0001F06012707FA06F5012C01D10C3004E094
:1024E000022C01D1103000E014301AB107682F43DC
:1024F000076002E00768AF430760F0BD2DE9F047D1
:1025000086B005460E460024A24600BFA14600271D
:10251000B08900B100BF2F462C8A4CF6FF700440F2
:10252000F08804432C82AC894EF6F3100440B08846
:1025300031890843718908430443AC81AC8A4FF662
:10254000FF400440B0890443AC8201A8FFF776FD48
:102550001F48874202D1DDF810A001E0DDF80CA091
:10256000A88900F4004040B10AEBCA0000EB0A1051
:1025700031684900B0FBF1F807E00AEBCA0000EB54
:102580000A1031688900B0FBF1F86420B8FBF0F064
:1025900004012009642101FB1089A88900F400408E
:1025A00040B1322000EBC900B0FBF1F000F00700B1
:1025B000044308E0322000EB09106421B0FBF1F085
:1025C00000F00F0004432C8106B0BDE8F087000046
:1025D0000038014001468888C0F308007047C1F305
:1025E000080282807047000030B585B0142168462B
:1025F000FEF7B1F9324C6A4600213248FEF7B7FCCB
:10260000206808B1206A08B105B030BD0198C0F358
:10261000C165019820F07C40A062E06910B10128FA
:102620004AD120E0022D0CD19DF80A200DF10B01BA
:10263000E06AFEF719F9012020629DF80A00606245
:1026400010E0012D02D10020606236E09DF80A20E2
:102650000DF10B01E06AFEF707F99DF80A006062D0
:102660000120E06129E01DB900206062E06122E004
:10267000012D0ED1636AE16AC8189DF80A200DF198
:102680000B01FEF7F1F89DF80A10606A08446062D9
:1026900011E0636AE16AC8189DF80A200DF10B0188
:1026A000FEF7E2F89DF80A10606A084460620120B3
:1026B00020620020E06100E000BF00BF00BFA3E790
:1026C000603100200064004010B5014600200A4639
:1026D00013791B06547903EB0443947903EB042329
:1026E000D479181910BD10B5014600200A46137898
:1026F0001B06547803EB0443947803EB0423D4784B
:10270000181910BD1CB54FF4856001F0CDFB0446CF
:102710000CB900201CBD4FF485612046FEF71BF963
:10272000012001F0BBFEC4F8200400200A2123464A
:102730008022CDE9001005A1074802F085F80120AC
:10274000206000F00BFA60602046E3E742746C649E
:102750005461736B00000000570C00082DE9FC4722
:1027600004460E46174698460CB9BDE8FC87002380
:102770005A1E1946D4F8200401F0BEFE00BF20699D
:1027800010B1012803D115E0B8F1060F00D0AAE07E
:10279000E069FFF711FD002000F090FB0020606071
:1027A0003046FEF733FF60610020A0610120206108
:1027B000E06198E0B8F1080F00D094E03046FEF7F1
:1027C0008DFFE169884200D08DE0D4F818904FEA7F
:1027D000E97109EB91518912A9EB812304F12001E0
:1027E00058183A1F311DFEF73FF8381FA1690844F9
:1027F000A061D4E9051088422ED0A069C11700EB72
:1028000091518912A0EB8121F9B93C49A069084492
:10281000A0F5806504F120012846FEF737FE012867
:1028200013D000BF01F08AFDEB21E069344B35A2E3
:10283000CDE900104FF4C0713D48FDF77BFD3C48E9
:1028400000F064F902F040F900BFE069401CE0616B
:10285000E069FFF7B1FC45E0A069C11700EB9151B9
:102860008912A0EB812129B92449A0690844A0F567
:10287000806509E0A069C11700EB91518912A0EBB6
:1028800081211E4BC218551A04F120012846FEF77B
:10289000FDFD012813D000BF01F050FDFF21E069CC
:1028A000174B18A2CDE900104FF4C0712048FDF776
:1028B00041FD1F4800F02AF902F006F900BF092186
:1028C0001CA000F0D3FA40F2DC52002304F108000F
:1028D00000F0FEFA00202061401E00F0EFFA4FF0F9
:1028E000FF30606000BF00BF00BF00231A461946DA
:1028F000D4F8200401F0EEFE00BF36E700800008A7
:10290000B251000825733A25643A20466C61736819
:10291000577269746550616765206572726F7220C5
:102920002153657269616C4E756D2025640A000043
:10293000B04000207B2263223A22557064617465A6
:1029400046696E697368227D0000000070470000D0
:102950007CB5E0252946094800F0A2F904460CB9E7
:1029600000207CBD00200B2103468022CDE9001011
:1029700003A1064801F068FF2046F2E74523010065
:10298000437564705461736B00000000CD11000842
:1029900010B50446206800B910BD2046FFF758FA6C
:1029A0002046FFF777FA00BFF6E7F8B504460D4674
:1029B00016461F460020009000235A1E1946E06C60
:1029C00001F09AFD00BF206800B92AE06069FEF7B7
:1029D0006AFF042800D224E00022042168466369CB
:1029E000FEF769FF6069FEF75EFF009908318842D3
:1029F00000D216E00098B04203DD4FF0FF300090A7
:102A00000FE0042168466269FEF793FE0421384610
:102A10006269FEF78EFE626928460099FEF789FE1C
:102A200000BF00BF00231A461946E06C01F052FEB9
:102A30000098F8BD7FB504460D460026206810B901
:102A4000002004B070BD00235A1E1946E06C01F04E
:102A500053FD00BFA069FEF729FF029908318842A3
:102A600000D210E0042102A8A269FEF7C2FE0421F0
:102A700003A8A269FEF7BDFEA26928460299FEF7E7
:102A8000B8FE012600BF00BF00231A461946E06CBD
:102A900001F020FE3046D4E710B50446206800B9A6
:102AA00010BD01206060204600F020F800BFF7E76D
:102AB000F0B5C1B0044604262046FDF76BFE451C68
:102AC000F82D02DD002041B0F0BD2B4622463146F4
:102AD00001A800F089F907463A4601A902480068B2
:102AE00000F0B4FAEFE700007000002010B50446D3
:102AF000206800B910BD0020206000220221024899
:102B0000FEF7A2F900BFF5E700640040F0B5C1B0E0
:102B1000044605262046FDF73DFE451CF82D02DD46
:102B2000002041B0F0BD2B462246314601A800F0FE
:102B30005BF907463A4601A90248006800F086FAA8
:102B4000EFE700007000002008B501226946024846
:102B5000FEF721FC009808BD04FC010808B501221D
:102B600069460248FEF717FC009808BD00FC010802
:102B70000548006810B90020014670470248016806
:102B8000D1E90201F9E700005C0000201CB5012634
:102B9000300201F089F9054600BF00BF01F0CEFB0D
:102BA0006920294B29A24FF4C07100902F48FDF7EE
:102BB000C1FB2E48FFF77CFF01F086FF00BF42E01B
:102BC000032001F08FFA4FF48072294628480068EC
:102BD00000F0FAF9061E26DD2846FFF775FDE0280D
:102BE00016D12846FFF77FFD0446062C01D0082C9D
:102BF00009D1A6F10802234605F108011D48006825
:102C0000FFF7ACFD0FE005F10800FFF74FF80AE011
:102C10002846FFF759FD07463B46324629461648E7
:102C20000068FFF707FF01AB4FF480722946124896
:102C30000068FFF7BAFE061E05DD324629460C483D
:102C4000006800F003FABBE79751000825733A25A6
:102C5000643A20626F6F74202D2D2D2D3E20626FFF
:102C60006F746C6F616465720A000000B0400020F0
:102C700070000020780000206C00002010B507498B
:102C80000868FDF7FEFA4FF400410803FEF7EAFF7B
:102C900072B602494868804710BD000000800008F5
:102CA00070B506460D46104C206808B1002070BD76
:102CB000012001F0F3FBE0642846FEF765FEA66004
:102CC00025614FF4A0610948FEF716FD60614FF4DD
:102CD000A0610748FEF710FDA061012020600548B3
:102CE000E0622046E3E7000060310020B0310020C0
:102CF000B0360020B03B002008B501210420FFF7CA
:102D00007FF9F020ADF8000010208DF803000120BD
:102D10008DF8020069460448FEF7E9FBF0210248FD
:102D2000FEF770FC08BD00000008014010B5FFF779
:102D30000BFFE02802D0E02000F0B6F800F030F8F9
:102D400000F0D6F809490860FFF702FE084908605C
:102D5000FFF7D2FF4FF4613000F010F90549086029
:102D6000FFF7D0FC0449086010BD0000740000208B
:102D70006C00002070000020780000202DE9F04158
:102D800004460D46FFF7F4FE06460F46A01B75EB02
:102D9000070002D20120BDE8F0810020FBE700001F
:102DA0001CB545F25550FEF7E9FD0420FEF7DAFDAB
:102DB0004FF41A70FEF7DCFDFEF7CCFDFEF7C2FD06
:102DC00000200D2103468022CDE9001002A1054814
:102DD00001F03AFD1CBD0000497764675461736BD4
:102DE00000000000C11B00082DE9F04704460E4614
:102DF000914698460025E027320E28466D1C225445
:102E0000C6F3074228466D1C2254C6F30722284603
:102E10006D1C225428466D1C26543A0E28466D1C03
:102E200022543A0C28466D1C22543A0A28466D1C3E
:102E3000225428466D1C2754601942464946FDF726
:102E400013FD08EB0500BDE8F08772B645F255505A
:102E5000FEF794FD0420FEF785FD0120FEF788FDB6
:102E6000FEF778FDFEF76EFD00BFFEE7F0B5C1B0DE
:102E700004460E462046FDF78DFC451CF82D02DD6C
:102E8000002041B0F0BD2B462246314601A8FFF795
:102E9000ABFF07463A4601A90248006800F0D6F8A1
:102EA000EFE700007000002001B5012269460248EA
:102EB000FEF710FB08BD000004FC010801B501226B
:102EC00069460248FEF706FB08BD000000FC010849
:102ED0002DE9F041064614461D46FFF749FE074618
:102EE0008846391948EB0500C6E90010BDE8F081B5
:102EF0001CB5102000F0D8FF04460CB900201CBD02
:102F0000002020606060A060E060142123468022E1
:102F1000CDE9001003A1074801F096FC06480460C3
:102F20002046ECE7537973436C6F636B5461736BAA
:102F300000000000D92200085C000020012101608F
:102F40007047000010B509480068FFF7FFFC08480B
:102F50000068FFF7F3FF07480068FFF79DFD06488C
:102F6000006800F0DBF801F071F810BD7800002077
:102F7000740000206C0000207000002070B5054631
:102F80004FF4F36000F090FF04460CB9002070BDD0
:102F90004FF4F3612046FDF7DEFC012001F07EFADC
:102FA000C4F8900740F2465104F10C00FEF7A4FB70
:102FB000A0602846FFF7D6F9012020600148046090
:102FC0002046E4E758000020F8B504460D461646B2
:102FD0000020009000235A1E1946D4F8900701F0F3
:102FE0008BFA00BF206800B925E0A068FEF75BFC03
:102FF000042800D21FE0002204216846A368FEF7DF
:103000005AFCA068FEF74FFC0099091D884200D2C7
:1030100011E00098B04203DD4FF0FF3000900AE06D
:1030200004216846A268FEF7BFFBA2682846009903
:10303000FEF7BAFB00BF00BF00231A461946D4F8BA
:10304000900701F047FB0098F8BD00002DE9F0471C
:103050000446884615464FF0000A0026B146002374
:103060005A1E1946D4F8900701F046FA00BFD4F86A
:10307000780610B9B5F5877F00D941E0E81DC4F89E
:103080007C06C4F87806FA223046761C04F5D06136
:103090000A54FB223046761C0A54C5F307223046F8
:1030A000761C0A543046761C0D542A46414604F2DA
:1030B0008460FDF7D9FB2E44002705E018F80700CF
:1030C000484400F0FF097F1CAF42F7DB3046761C16
:1030D00004F5D06101F80090FC223046761C0A54B9
:1030E000FD2104F5D0608155012240F227710A4884
:1030F000FFF7DFF900BFD4F878060028FBD100BF46
:1031000000BF00231A461946D4F8900701F0E2FAEE
:103110005046BDE8F08700000044004010B504466A
:1031200004B910BD0120606000210B48FFF78BF946
:10313000002240F226610848FFF7BBF9002240F266
:1031400025510548FFF7B5F9002240F227710248E2
:10315000FFF7AFF900BFE4E70044004030380A2829
:1031600001D2012070470020704770B504461BE073
:103170002568A08900F4807020B9A06810B1A0680B
:10318000FFF7F3FFA08900F4807020B9206910B127
:10319000206900F07DFF206A10B1206A00F078FFFE
:1031A000204600F075FF2C46002CE1D170BD70B5B3
:1031B00005460E46AC6800E024682CB13146206A12
:1031C00000F04AF80028F7D1204670BD10B528203D
:1031D00000F06AFE04461CB128212046FDF7BBFB27
:1031E000204610BD10B5044600221146204600F0CE
:1031F00001F810BD2DE9F04780460D461646002423
:10320000FFF7E4FF07460020124908600FB9BDE848
:10321000F087404600F0C6FE81464946384600F039
:1032200069FB044624B93846FFF79FFF0020EEE70C
:1032300066B1204600F0B6FE0446207830B138462C
:10324000FFF793FF034804600020E0E705B12C601E
:103250003846DCE76000002070B504460D462CB906
:10326000AC4201D0012070BD0020FCE70DB9012067
:10327000F9E705E0207808B90020F4E7641C6D1C2C
:103280002078FDF74AF806462878FDF746F886428A
:10329000F0D02078FDF741F806462878FDF73DF894
:1032A000301AE0E7002107E042F6E06100BF0A1EA5
:1032B000A1F1010399B2FAD1021EA0F1010398B263
:1032C000F2D170471CB54FF4C870FFF7EBFFFFF762
:1032D0002DFD084C00200A2103464FF48062CDE901
:1032E000001005A1204601F0AFFA00F0F5FF002024
:1032F0001CBD00008D2B00084D61696E5461736B1D
:10330000000000002DE9F04705460C4620785B28B8
:1033100004D0264804600020BDE8F0870520E8605E
:10332000601C00F03FFE044620785D2801D1601C3F
:10333000F2E7FFF74BFF0646A860A86808B900202F
:10334000EAE7204600F02EFE80464146304600F077
:10335000D1FA074600F026FE04460CB90020DBE750
:1033600017E0FFF733FF071E00D1D5E737607E6017
:103370003E46601C00F016FE81464946304600F08D
:10338000B9FA804600F00EFE04460CB90020C3E7EF
:1033900000BF20782C28E4D020785D2801D1601C63
:1033A000BAE7024804600020B6E700006000002091
:1033B000014600220878302806DB0878392803DC2B
:1033C00008783038024415E00878412806DB087890
:1033D000462803DC0878373802440BE00878612877
:1033E00006DB0878662803DC08785738024401E0D9
:1033F000002070471201491C0878302806DB087845
:10340000392803DC08783038024415E00878412870
:1034100006DB0878462803DC0878373802440BE0DE
:103420000878612806DB0878662803DC08785738B6
:10343000024401E00020DCE71201491C0878302832
:1034400006DB0878392803DC08783038024415E0B8
:103450000878412806DB0878462803DC08783738E6
:1034600002440BE00878612806DB0878662803DC54
:1034700008785738024401E00020BAE71201491CDD
:103480000878302806DB0878392803DC08783038DB
:10349000024415E00878412806DB0878462803DC5A
:1034A0000878373802440BE00878612806DB087892
:1034B000662803DC08785738024401E0002098E7CA
:1034C000104696E72DE9FC5F83468A4600210C46AC
:1034D0000D4600BF00BF00200190012000909AF827
:1034E00000002D2802D100BF0AF1010A9AF800005D
:1034F000302801D10AF1010A9AF80000312821DBB5
:103500009AF8000039281DDC00BF1AF8011BA1F150
:10351000300001F03AFC06460F4600223D4B2046A3
:10352000294601F049FC804632463B4601F056FBF5
:1035300004460D469AF80000302803DB9AF8000094
:103540003928E2DD9AF800002E2828D19AF80100E7
:10355000302824DB9AF80100392820DC0AF1010A1E
:1035600000BF1AF8011BA1F1300001F00EFC064665
:103570000F460022274B2046294601F01DFC8046BD
:1035800032463B4601F02AFB04460D4600BF9AF83E
:103590000000302803DB9AF800003928E1DD9AF8B2
:1035A0000000652803D09AF80000452823D10AF1CD
:1035B000010A9AF800002B2802D10AF1010A08E05A
:1035C0009AF800002D2804D14FF0FF3000900AF146
:1035D000010A08E01AF8010B3038019901EB81016A
:1035E00000EB410001909AF80000302803DB9AF8C4
:1035F00000003928EEDDCBE906452046294601F0DA
:1036000095FBCBF814000320CBF80C005046BDE826
:10361000FC9F0000000024402DE9F04706460C46C0
:1036200020787B2804D0404804600020BDE8F08763
:103630000620F060601C00F0B5FC044620787D2870
:1036400001D1601CF2E7FFF7C1FD0546B060B0682C
:1036500008B90020EAE7204600F0A4FC8046414675
:10366000284600F063F8074600F09CFC04460CB9BD
:103670000020DBE7286928620020286120783A28AA
:1036800003D0294804600020D0E7601C00F08AFCC9
:1036900080464146284600F02DF9074600F082FC9E
:1036A00004460CB90020C1E731E0FFF78FFD071E8B
:1036B00000D1BBE72F607D603D46601C00F072FCCE
:1036C00081464946284600F031F8804600F06AFC01
:1036D00004460CB90020A9E7286928620020286167
:1036E00020783A2803D01048046000209EE7601C30
:1036F00000F058FC81464946284600F0FBF8804619
:1037000000F050FC04460CB900208FE700BF207881
:103710002C28CAD020787D2801D1601C86E7024879
:103720000460002082E70000600000202DE9F05FC7
:103730008346884608F10104002798F800002228F3
:1037400005D06A48C0F800800020BDE8F09F04E082
:1037500014F8011B5C2900D1641C2078222804D0B5
:10376000207810B1781C071EF2D1781C00F09CFB69
:103770008146B9F1000F01D10020E6E708F101040C
:103780004D469EE020785C2804D014F8010B05F823
:10379000010B96E0641C2078722818D006DC6228A1
:1037A00009D066280BD06E287ED10CE0742812D088
:1037B0007528F9D113E0082005F8010B7FE00C20F3
:1037C00005F8010B7BE00A2005F8010B77E00D20DE
:1037D00005F8010B73E0092005F8010B6FE0601C90
:1037E000FFF7E6FD0646241DB6F55C4F02D3B6F59D
:1037F000604F00D306B962E0B6F5584F1CD3B6F55A
:103800005C4F19D260785C2802D1A078752800D06E
:1038100055E0E01CFFF7CCFD8246A41DBAF55C4FD5
:1038200002D3BAF5604F00D349E0C6F30901504610
:1038300061F39F2000F580360427802E01D20127F6
:1038400008E0B6F5006F01D2022703E0B6F5803F2D
:1038500000D203273D44012F20D0022F15D0032F83
:103860000AD0042F24D106F0BF0040F08001681E6A
:1038700005460170B60900BF06F0BF0040F08001A8
:10388000681E05460170B60900BF06F0BF0040F093
:103890008001681E05460170B60900BF1448C05D6E
:1038A0003043C1B2681E00E005E00546017000BF6C
:1038B00000BF3D4403E0207805F8010B00BF00BFC6
:1038C000641C2078222803D0207800287FF45AAF87
:1038D000002028702078222800D1641CCBF810909A
:1038E0000420CBF80C0020462FE7000060000020E9
:1038F0008851000870B505460C460CB9002070BD13
:10390000042224A12046FCF764FF18B90220E860D5
:10391000201DF4E7052221A12046FCF75AFF18B923
:103920000020E860601DEAE704221EA12046FCF7A3
:1039300050FF20B90120E8606861201DDFE7207892
:10394000222804D121462846FFF7F0FED7E7207849
:103950002D2805D02078302807DB2078392804DC92
:1039600021462846FFF7AEFDC9E720785B2804D141
:1039700021462846FFF7C6FCC1E720787B2804D102
:1039800021462846FFF748FEB9E7084804600020B2
:10399000B5E700006E756C6C0000000066616C732A
:1039A0006500000074727565000000006000002072
:1039B0002DE9F04105460E461C4807681C48006882
:1039C000001D00F0F8FA50B91948006890F82C1062
:1039D0000120884017490968814316480160681C26
:1039E00038B936B112480168091D134800F021FBAF
:1039F0001AE07C190E4800684460BC4207D20C48AB
:103A00000168091D0D48006800F0F9FA0CE008484B
:103A10000168091D0A48006800F0F1FA09480068C9
:103A2000844201D207480460BDE8F08130000020E4
:103A30001C000020340000204C3100202400002015
:103A4000200000204C00002010B5044600F0FEFAD3
:103A500023480068401C224908602248006840B999
:103A6000204804600846006801280DD100F068F97C
:103A70000AE01D48006838B91A480068C06AE16A5F
:103A8000884201D81748046018480068401C17494C
:103A9000086094F82C1001208840154909680843F3
:103AA00013490860E16A01EB8101124A02EB8100CF
:103AB000211D00F0BEFA00F0DBFA0B48006868B187
:103AC00008480068C06AE16A884207D24FF0805017
:103AD00009490860BFF34F8FBFF36F8F10BD00001F
:103AE0002C0000201C00002038000020480000208E
:103AF000340000209830002004ED00E070B523E091
:103B000000F01CFC1348006808B9012000E0002008
:103B1000054600F0D9FFBDB900F098FA0D48C0681D
:103B2000C468201D00F047FA0B480068401E0A498F
:103B300008600A480068401E0849086000F098FACA
:103B4000204600F060F800BF044800680028D7D184
:103B500070BD0000383100202C000020280000201B
:103B600070B504460D46206C70B1216CE0680844C5
:103B7000E0606168E068884201D32068E060284620
:103B8000226CE168FCF770FE70BD2DE9F04104463F
:103B90000F4615464FF00008A66B206C40B9206810
:103BA00060BB606800F00EFF80460020606025E08A
:103BB0007DB93946226CA068FCF756FE216CA068DE
:103BC0000844A060D4E90110884217D32068A0609F
:103BD00014E03946226CE068FCF746FE216CE06890
:103BE000401AE0602168E068884203D2216C606876
:103BF000401AE060022D01D106B1761E701CA06350
:103C00004046BDE8F08110B50446206B00F040FA54
:103C1000204600F03DFA10BD0A4A22F007000A4A89
:103C200010600022084B5A6042F6F872074B5A6047
:103C300000221A60014642F6F8724A601A460A608B
:103C400070470000A00000200000002008000020B5
:103C500000BFFFF753FF064800680128F9D94FF06D
:103C6000805004490860BFF34F8FBFF36F8FF0E7B8
:103C70009830002004ED00E010B504464CB100205F
:103C800060602060E06000231A461946204600F07C
:103C900021FD10BD2DE9F04106460D461746984618
:103CA000069C0DB9246000E02760E66325640121CD
:103CB000204600F0CFFCBDE8F0812DE9FF5F804693
:103CC0000F469146DDE90E6A109CA9F10100216BB7
:103CD00001EB800B2BF0070B002507E0795D04F169
:103CE00034004155785D00B902E06D1C102DF5D30C
:103CF00000BF002143200155052E00D30426E662B3
:103D000066640020A064201D00F076F904F118001C
:103D100000F072F92461C6F10500A0616462002020
:103D2000E06484F8500041465846039A00F028F9B0
:103D30002060BAF1000F01D0CAF80040BDE8FF9F33
:103D400010B5002407E004EB84010F4A02EB810068
:103D500000F045F9641C052CF5D30C4800F03FF940
:103D60000B4800F03CF90B4800F039F90A4800F024
:103D700036F90A4800F033F9044809490860044854
:103D80000849086010BD000098300020FC30002079
:103D90001031002024310020383100204C31002027
:103DA000200000202400002070B5054600F04EF9E8
:103DB000A86B08B9012400E0002400F059F920465E
:103DC00070BD70B5054600F041F9A86BE96B8842FB
:103DD00001D1012400E0002400F04AF9204670BD22
:103DE0000A490968096809B9012100E0002121B1E7
:103DF0004FF0FF31064A116006E004490968C968BE
:103E0000C868034A41681160704700002000002024
:103E10004C00002000BFBF2080F31188BFF34F8FFC
:103E2000BFF36F8F00BF00BFFEE770B5044600F020
:103E30000DF994F9455010E0606A08B9012000E0DE
:103E4000002038B904F1240000F0FEFD18B100F0A4
:103E5000C9F900E003E0681E45B2002DECDC00BFAC
:103E6000FF2084F8450000F003F900F0EFF894F922
:103E7000445010E0206908B9012000E0002048B952
:103E800004F1100000F0E0FD08B100F0ABF9681E8D
:103E900045B200E001E0002DECDC00BFFF2084F81B
:103EA000440000F0E5F870BD2DE9F04104464FF004
:103EB000000800F043FA2648006820B9FFF7ACFE7E
:103EC00001202349086044B1083404F0070020B100
:103ED00004F00700C0F108000444002C32D042F680
:103EE000F87084422ED21B4F3846056801E02F46F9
:103EF0002D686868A04202D228680028F7D11648C9
:103F000085421FD0386800F1080828683860686862
:103F1000001B102810D92E196868001B70606C6097
:103F200071680C4800E00068026852688A42FAD35F
:103F300002683260066000BF084968680968081AAC
:103F40000649086000F0C0FD4046BDE8F081000071
:103F500014000020000000200800002010000020B5
:103F60000648006830B10549096801F14800896CCC
:103F7000491C016001480068704700001C000020D7
:103F8000001F4FF080730360001F21F001030360E6
:103F9000001F034B03601438026020387047000094
:103FA000153E000800E0401C20B1017811B10178F5
:103FB0002029F8DD704701460A69D1E9013098608F
:103FC000D1E9010358605068884201D18868506087
:103FD000002008611068401E10601068704700F1F2
:103FE000080141604FF0FF31816000F10801C160BC
:103FF000016100210160704700210161704710B527
:1040000002460B685C1C0CB9106907E002F108005D
:1040100000E04068446824689C42FAD944684C60D7
:104020004C68A160886041600A611468641C146077
:1040300010BD42684A6093688B60936859609160D4
:10404000086103685B1C03607047000000BFBF206D
:1040500080F31188BFF34F8FBFF36F8F00BF03480A
:104060000068401C014908607047000018000020EB
:1040700006480068401E054908600846006820B9E7
:10408000002080F3118800BF00BF70471800002097
:1040900070B506463546B6B1083D2C4600F04EF9DF
:1040A0006168094800E00068026852688A42FAD3F1
:1040B0000268226004600549606809680844034991
:1040C000086000F001FD70BD00000020100000201D
:1040D00003484FF0E0214861072008617047000065
:1040E0003F19010070B50446002544B100F026F9DF
:1040F00000212046FFF75CFC00F0E6FC05463DB9D8
:104100004FF0805003490860BFF34F8FBFF36F8FAC
:1041100070BD000004ED00E070B50546FFF796FFA6
:1041200015B92748006800E028460446201DFFF71F
:1041300042FF78B9E06A00EB8000224951F8200084
:1041400040B994F82C10012088401F490968814328
:104150001D480160A06A18B104F11800FFF72BFF99
:104160001A480068401C19490860154800688442D4
:1041700009D1211D1648FFF75CFF16480068401C56
:104180001449086009E014480068401E124908609C
:104190002046FFF738FDFFF723FEFFF769FF0F48C2
:1041A000006858B106480068844207D14FF080503B
:1041B0000B490860BFF34F8FBFF36F8F70BD0000D6
:1041C0001C0000209830002034000020480000200F
:1041D00038310020280000202C000020380000206A
:1041E00004ED00E001200149086070474000002014
:1041F00070B505460C460548016818312846FFF79A
:10420000FEFE01212046FFF7D3FB70BD1C000020FD
:1042100070B505462C46002D4BD02649E06A09684A
:10422000C96A884245D2A06900F0004028B92148F7
:104230000068C06AC0F10500A061E16A01EB81017C
:104240001D4A02EB81016069884201D1012000E032
:10425000002050B3201DFFF7AEFE78B9E06A00EBF6
:104260008000154951F8200040B994F82C10012025
:104270008840124909688143104801600D48006870
:10428000C06AE06294F82C10012088400B4909684C
:1042900008430A490860E16A01EB8101064A02EB22
:1042A0008100211DFFF7C5FE03E002480068C06AD7
:1042B000E06270BD1C000020983000203400002017
:1042C00003490968016003490968416070470000BB
:1042D00044000020300000201CB5114800210B468E
:1042E0008022CDE900100FA1104800F0ADFA04467D
:1042F000012C14D100BFBF2080F31188BFF34F8F72
:10430000BFF36F8F00BF4FF0FF30094908600120F5
:104310000849086000200849086000F08BF81CBDBF
:104320005000002049444C4500000000513C00086A
:104330004C000020380000203000002002480068B7
:10434000401C014908607047540000201248006872
:1043500018B10120114908601DE000200F490860D4
:104360000F480068B0FA80F0C0F11F0101EB810234
:104370000C4B03EB820042685268426000F1080275
:104380004368934202D14268526842604268D268F0
:10439000054B1A6000BF7047540000204000002009
:1043A00034000020983000201C00002070B51F4809
:1043B000046840F225511E48FEF751F860B11C48D0
:1043C000FEF708F9C5B229462046FDF751FB40F239
:1043D00025511748FEF728F840F227711448FEF7D8
:1043E0003EF8012816D1D4F87826501EC4F8780675
:1043F000D4F87C06821A04F5D060815C0C48FEF784
:10440000EEF8D4F8780628B9002240F2277108485F
:10441000FEF74FF840F226610548FEF720F820B17C
:1044200040F226610248FDF7FFFF70BD58000020F2
:104430000044004010B50A48006840F47F00084975
:1044400008600846006840F07F400860FFF740FEC3
:10445000002004490860FBF7D1FE002010BD0000D9
:1044600020ED00E01800002010B500BFBF2080F351
:104470001188BFF34F8FBFF36F8F00BF00F014FAA6
:1044800018B14FF080500449086000BF002080F34D
:10449000118800BF10BD000004ED00E02DE9F041DF
:1044A00004460126002722460021012000F007F8DB
:1044B00005462846FFF7E0FB2846BDE8F0812DE9D8
:1044C000F84307460D4690460DB9002601E007FB6C
:1044D00005F606F14800FFF7E7FC044644B104F195
:1044E000480943464A46294638460094FFF7D2FB1E
:1044F0002046BDE8F88300002DE9FF4782B005465D
:1045000089461E464FF0000A2C4600BFFFF79EFD6D
:10451000D4F83880B8F1000F3BD0E7684946204610
:10452000FFF71EFBDEB9A8F10100A063206810B9F7
:10453000FFF716FD6060206908B9012000E0002047
:1045400008BB04F1100000F07FFAE0B14FF080509A
:104550003F490860BFF34F8FBFF36F8F13E0E760F1
:10456000606A08B9012000E0002060B904F124006D
:1045700000F06AFA38B14FF0805035490860BFF357
:104580004F8FBFF36F8FFFF773FD012006B0BDE8BB
:10459000F087049818B9FFF76BFD0020F6E7BAF131
:1045A000000F04D16846FFF78BFE4FF0010AFFF7BA
:1045B0005FFDFFF7C3FEFFF749FD94F94400401C7F
:1045C00010B9002084F8440094F94500401C10B94B
:1045D000002084F84500FFF74BFD04A9684600F071
:1045E00005F940BB2046FFF7DFFBF0B1206830B98A
:1045F000FFF72CFD6068FFF70BFEFFF739FD04F1B4
:1046000024000499FFF7F4FD2046FFF70EFC00F0AC
:104610005BFA00287FF47AAF4FF080500C490860B5
:10462000BFF34F8FBFF36F8F70E72046FFF7FDFB9F
:1046300000F04AFA6AE72046FFF7F7FB00F044FA79
:104640002046FFF7B1FB0028EED000209EE70000D7
:1046500004ED00E070B505460E462C46FFF7F6FC6B
:10466000D4E90F12206801FB020060600020A06303
:104670002068A060E06B401E226C216800FB0210E5
:10468000E060FF2084F8440084F845009EB920696A
:1046900008B9012000E00020A8B904F1100000F0E2
:1046A000D3F980B14FF0805009490860BFF34F8FB4
:1046B000BFF36F8F07E004F11000FFF790FC04F1E7
:1046C0002400FFF78CFCFFF7D3FC012070BD000035
:1046D00004ED00E02DE9FF4383B0074688461D4600
:1046E0004FF000093C4600BFFFF7B0FCA06BE16B48
:1046F000884201D3022D28D12A4641462046FFF7A1
:1047000044FA0646606A08B9012000E0002068B952
:1047100004F1240000F098F988B14FF0805032493C
:104720000860BFF34F8FBFF36F8F08E03EB14FF0CB
:1047300080502D490860BFF34F8FBFF36F8FFFF795
:1047400097FC012007B0BDE8F083059818B9FFF782
:104750008FFC0020F6E7B9F1000F04D101A8FFF7A4
:10476000AFFD4FF00109FFF783FCFFF7E7FDFFF70F
:104770006DFC94F94400401C10B9002084F84400FA
:1047800094F94500401C10B9002084F84500FFF75B
:104790006FFC05A901A800F029F8F0B92046FFF741
:1047A00010FBA0B104F110000599FFF721FD204690
:1047B000FFF73BFB00F088F9002895D14FF08050BF
:1047C00009490860BFF34F8FBFF36F8F8CE7204616
:1047D000FFF72BFB00F078F986E72046FFF725FB73
:1047E00000F072F90020ADE704ED00E070B504467A
:1047F0000D46FFF72BFC124802682868401C08B9D8
:10480000002619E00F4920680968884204D06068D2
:10481000904201D801260FE06068101A296888428A
:1048200009D228686168511A401A28602046FFF7AB
:1048300047FD002600E00126FFF71AFC304670BD58
:1048400030000020440000202DE9FF4F85B0804655
:1048500089461746DDE912ABB800FFF725FB06468F
:1048600056B15420FFF720FB04460CB1266304E048
:104870003046FFF70DFC00E000247CB10020CDE9BC
:1048800000ABCDE902403A4649464046089BFFF757
:1048900014FA2046FFF7D8F8012501E04FF0FF3564
:1048A000284609B0BDE8F08F2DE9F04100273A48CD
:1048B0000068002863D139480068451C3748056006
:1048C0008DB93748D0F80080364800683449086010
:1048D0003448C0F8008034480068401C3249086001
:1048E000FFF77EFA00BF3148006885423BD300BF26
:1048F0002B480068006808B9012000E0002020B1C2
:104900004FF0FF30294908602CE025480068C06856
:10491000C4686668B54202D22448066022E0201DC1
:10492000FFF749FBA06A18B104F11800FFF743FB39
:1049300094F82C10012088401D49096808431C493F
:104940000860E16A01EB81011A4A02EB8100211D36
:10495000FFF76FFB1849E06A0968C96A8842C7D344
:104960000127C5E700BF14480068C06A00EB80005B
:10497000104951F82000012800D9012704E00F4810
:104980000068401C0D4908600D48006800B101270F
:104990003846BDE8F08100005400002030000020BF
:1049A0002000002024000020440000204C000020B3
:1049B00034000020983000201C0000203C00002023
:1049C0004000002070B505462C460026ADB3A06C13
:1049D000401EA064616CE06A88422ED0A06C60BB6F
:1049E000201DFFF7E8FA78B9E06A00EB800014496F
:1049F00051F8200040B994F82C100120884011494A
:104A0000096881430F480160606CE062E06AC0F1B0
:104A10000500A06194F82C1001208840094909681C
:104A2000084308490860E16A01EB8101044A02EB8E
:104A30008100211DFFF7FDFA0126304670BD000000
:104A4000983000203400002070B50646F068C46835
:104A500004F11800FFF7AFFA15480068A8B9201D47
:104A6000FFF7A9FA94F82C10012088401149096831
:104A7000084310490860E16A01EB81010E4A02EB2C
:104A80008100211DFFF7D5FA04E004F118010B485D
:104A9000FFF7CFFA0A49E06A0968C96A884204D96F
:104AA000012501200749086000E00025284670BD67
:104AB00054000020340000209830002024310020D1
:104AC0001C0000204000002070B500240026FFF7E5
:104AD000BDFA2E480068401E2C4908600846006850
:104AE00000284FD12A48006800284BD024E02948EC
:104AF000C068C46804F11800FFF75DFA201DFFF7D5
:104B00005AFA94F82C100120884023490968084378
:104B100021490860E16A01EB8101204A02EB810032
:104B2000211DFFF786FA1E49E06A0968C96A8842B2
:104B300002D301201B4908601648006808B901200B
:104B400000E000200028D2D00CB1FFF749F9164848
:104B5000056865B100BFFFF7A7FE10B1012011493C
:104B600008606D1E002DF6D100200F4908600D4829
:104B7000006838B1012630070C490860BFF34F8F39
:104B8000BFF36F8FFFF774FA304670BD54000020FA
:104B90002C00002024310020340000209830002018
:104BA0001C000020400000203C00002004ED00E03C
:104BB00010B500290AD00878002807D005487844A5
:104BC000FBF7F0FE002801D0002010BD0248784419
:104BD00010BD0000660600005E06000010B591EAF8
:104BE000030F48BF83F0004300F1EC81841A71EB9E
:104BF000030C05D2121943EB0C03001B61EB0C01F3
:104C0000DFF824E14FEA1154A4EB135C1EEA430FD2
:104C100018BF9EEA445F73D023EA0E03DCF1200E36
:104C200021EA045143F4801332D322FA0CFE10EB34
:104C30000E0023FA0CFE41EB0E01CCF1200E03FA1C
:104C40000EFE10EB0E0051F10001B1F5801FCCF10A
:104C5000200E32D201EB045112FA0EF2BDE81040E0
:104C600058BF7047401C38BF5FEA420218BF704708
:104C7000002814BF20F0010041F100014FEA410378
:104C800013F5001F38BF7047A1F1C04100F08CB987
:104C9000012A43EB0302ACF1200CDCF11F0E32BF02
:104CA0004FF0000E23FA0CF310EB030041EB04511C
:104CB000B4EB115FD0D0A1EB045101F5801149088C
:104CC0005FEA300001EB04510ED350F1000038BF11
:104CD00012FA0EFE08D1BDE81040C9E7401C38BFEB
:104CE0005FEA4202CAD1C3E7BDE810404FEA410380
:104CF00013F5001F38BF7047A1F1C04100F054B94F
:104D00009EEA445F08D011EA5E0FBDE8104004BF80
:104D100001F0004100207047BDE8104070B500F080
:104D2000F5F800BF64FBBE3E0000E0FF4FEA410320
:104D30004FEA5353A3F58063D3F11E03C8BFD3F1E9
:104D4000210C0CDD4FF0004242EAC12242EA5052EF
:104D500032FA03FC8CEAE17CACEBE1707047102B7B
:104D6000C4BF0020704703F5787CBCF1FF3F04D03E
:104D70006FF0004282EA2100704770B500F0C6F87B
:104D80004992248000207047F2E710F0004248BFAB
:104D90004042B0FA80F310FA03F10AD0C3F11D03C8
:104DA00003F580634FEA415002EB035202EBD1213D
:104DB00070474FF000007047DFF848C170B51CEA3B
:104DC000111E1EBF1CEA13159EEA0C0F95EA0C0F6C
:104DD00000F06F8081EA030423EA4C134EEAD47E8C
:104DE00021EA4C1141F4801143F48013AE44A1FB3D
:104DF000024CA0FB0365AEF17F7E361955EB0C0526
:104E0000A1FB034C4CF10003A0FB021C16EB0C06AB
:104E1000654153F10003094218BF46F0010613F43F
:104E2000007F0BD14FEA03314FEA0530340341EAEA
:104E3000155140EA16506FF003020AE04FEAC32111
:104E40004FEAC520F40241EA555140EA56506FF04E
:104E5000020202EB2E4201EB025585EACE710AD026
:104E60005FEA440C18BF24F0004450F1000041F107
:104E7000000120EAD47040F2FE7C624500D270BD91
:104E8000A84214BF4FF080444FF04044002E08BFAA
:104E90000024BEF1806FA8BFA1F1C041BDE8704001
:104EA00080F282804FF0000001F1C04101F000412A
:104EB00070479EEA0C0F0CEA131518BF95EA0C0F09
:104EC00006D04FF0000081EA030E0EF0004170BDE5
:104ED00000F01CF88900013E00F007B800F009B8A6
:104EE0004FEA430C5FEA5C5C08D081EA030100F002
:104EF0005BB84FEA410C5FEA5C5CF6D14FF0000012
:104F0000014970470000FF070000F87F0EF1020E14
:104F10002EF0030E5EF8046B364205D4012A43EBF3
:104F2000030515F5001F12D8012841EB010C1CF5F3
:104F3000001F0CD80ED14FEAD17C15F5001F0CEBE9
:104F40004C0C0CF1020C08BF4CEBD37C04E04FF08E
:104F5000080C01E04FEAD37C0CEB4C0526FA05F671
:104F600006F00706B6F1040C06D20EEB860CBDE87F
:104F700070404CF0010C6047DFE80CF0090B0202B6
:104F80004FF000414FF00000A1F5002170BD19461F
:104F90001046012851EB010418BFD4F5001484BF5A
:104FA000002001F0004170BD0808A0F500114FEA93
:104FB0003101704710B591EA030F48BF83F00043F9
:104FC0003FF514AE841A71EB030C07D212198CF062
:104FD000004C43EB0C03001B61EB0C01DFF8A4E178
:104FE0004FEA1154A4EB135C1EEA430F18BF9EEA6C
:104FF000445F00F0B08023EA6E03524221EA04517C
:10500000C3EB6E0338BF5B1EDCF1200E25D322FA02
:105010000CFE10EB0E0043FA0CFE41EB0E01CCF13E
:10502000200E03FA0EFE10EB0E0051F10001CCF140
:10503000200E29D412FA0EF201EB0451BDE8104003
:1050400058BF7047401C1CBFB2F1004F704700288A
:105050000CBF491C20F00100704712EB020E43EB1D
:10506000030218BF4FF0010E4EEA4202ACF1200CD1
:10507000DCF11E0E54D943FA0CFE10EB0E0051F178
:10508000FF31CCF11E0ED5D50EF1010E12FA0EFE37
:10509000404141EB010101EB445C5FEA5C5C10D9EB
:1050A00010EBDE7001EB045138BFBEF1004FBDE8DC
:1050B000104018BF704700280CBF491C20F00100A9
:1050C000704730D24FEAD42C11F5001124F400645B
:1050D0001BD0B1FA81F20B3AA41AA41ED2F120031C
:1050E000914030FA03F31943904001EBCC71002C4E
:1050F00001EB0451BDE81040A8BF704701F1C04169
:105100004FF0000001F000417047B0FA80F310FA50
:1051100003F100D110BDE41A173C4805C90AE4E7C1
:1051200001EB045110BD491001EB0451BDE81040E2
:105130004FEA300002E04FF0000170474A0008BF1C
:105140000042F8D0B2F5001F28BF704701F00041BF
:105150004FF0000070479EEA445F07D011EA5E0FEF
:10516000BDE8104004BF002100207047BDE810409A
:1051700070B5FFF7CBFE00BF40DFF63E83F0004185
:10518000104670470000E0FF0000C0E0F0F8FC505F
:10519000726F634D736700594A5F486561644E6F73
:1051A00064655461736B0047657446696C654C6552
:1051B0006E00594A5F42746C6450726F4D736700A1
:1051C0000000000000000000303132333435363743
:1051D000383941424344454640305800303132333B
:1051E000343536373839616263646566403078003B
:1051F00004000008000000000000000200010000A0
:105200001000000034530008000000209800000047
:1052100028010008CC53000898000020F843000043
:10522000440100081001000043000000F8FFFFFFE8
:1052300000404040404040404040414141414140A9
:10524000404040404040404040404040404040405E
:1052500040050202020202020202020202020202ED
:1052600002202020202020202020200202020202F2
:10527000020290909090909010101010101010104A
:105280001010101010101010101010100202020256
:10529000020288888888888808080808080808089A
:1052A0000808080808080808080808080202020296
:1052B00040000000000000000000000000000000AE
:1052C00000000000000000000000000000000000DE
:1052D00000000000000000000000000000000000CE
:1052E00000000000000000000000000000000000BE
:1052F00000000000000000000000000000000000AE
:10530000000000000000000000000000000000009D
:10531000000000000000000000000000000000008D
:10532000000000000000000000000000000000007D
:10533000000000000000000000000000000000006D
:1053400000000000F82F000000000000AAAAAAAA8E
:10535000000000000000000000000000000000004D
:10536000000000000000000000000000000000003D
:10537000000000000000000000000000000000002D
:10538000000000000000000000000000000000001D
:10539000000000000000000000000000000000000D
:1053A00000000000000000000000000000000000FD
:1053B00000000000000000000000000001020304E3
:0C53C000010203040607080902040608A5
:04000005080000ED02
:00000001FF
